:020000040800F2
:1000000000000220B1470008A5290008AD2900081A
:10001000B5290008BD290008C52900080000000016
:10002000000000000000000000000000C1A6000861
:10003000CD2900080000000021AA000889AA0008B4
:10004000014800080148000801480008014800086C
:10005000014800080148000801480008014800085C
:10006000014800080148000801480008DD2900088F
:10007000014800080148000801480008014800083C
:1000800001480008F129000801480008014800085B
:10009000014800080148000801480008014800081C
:1000A000014800080148000801480008014800080C
:1000B00001480008014800080148000801480008FC
:1000C00001480008014800080148000801480008EC
:1000D00001480008014800080148000801480008DC
:1000E00001480008014800080148000801480008CC
:1000F00001480008014800080148000801480008BC
:1001000001480008014800080148000801480008AB
:100110000148000801480008052A000801480008B5
:10012000014800080148000801480008014800088B
:10013000014800080000000000000000014800081D
:10014000014800080148000801480008014800086B
:10015000014800080148000801480008014800085B
:10016000014800080148000801480008014800084B
:10017000014800080148000801480008000000008C
:10018000000000000148000800000000000000001E
:1001900001480008000000000000000001480008BD
:1001A00000000000000000000000000001480008FE
:1001B00001480008014800080148000801480008FB
:0401C00001480008EA
:1001D00010B5054C237833B9044B13B10448AFF381
:1001E00000800123237010BD1001002000000000DA
:1001F00094DF000808B5034B1BB103490348AFF374
:10020000008008BD000000001401002094DF0008F9
:10021000F0B400EB4003DFF8880000EBC30000F10E
:1002200018063069F7687568874232D3B368DC1BFB
:10023000631E934214D37D19D01900BF11F8013BFE
:1002400005F8013B013A05D011F8013B05F8013BE7
:10025000013AF3D1BFF35F8FF0600120F0BC70472B
:10026000C018904219D37819121B11F8013B00F8FD
:10027000013B013CF9D1141C05D011F8013B05F8F4
:10028000013B013AF9D1BFF35F8FF4600120F0BC6C
:100290007047C01B01389042CDD20020F0BC70479F
:1002A0006434012010F8012B11F8013B012A28BF0A
:1002B0009A42F7D0D01A7047034613F8012B002A50
:1002C000FBD1181A01387047000000000000000040
:1002D00001F0FF01102A2BDB10F0070F08D010F8F7
:1002E000013B013A8B422DD010F0070F42B3F6D1FB
:1002F000F0B441EA012141EA014122F007047FF014
:1003000000070023F0E80256083C85EA010586EA6A
:10031000010685FA47F5A3FA87F586FA47F6A5FAA6
:1003200087F68EB9EED1F0BC01F0FF0102F00702B2
:1003300032B110F8013B013A83EA010313B1F8D15D
:100340000020704701387047002D06BF354603383E
:10035000073815F0010F07D1013015F4807F02BF77
:10036000013015F4C03F0130F0BC0138704700BFC8
:1003700070B54FF0FF0C4CF4E06C1CEA11541DBF3B
:100380001CEA135594EA0C0F95EA0C0F00F0DEF806
:100390002C4481EA030621EA4C5123EA4C5350EAEB
:1003A000013518BF52EA033541F4801143F480133C
:1003B00038D0A0FB02CE4FF00005E1FB02E506F0CD
:1003C0000042E0FB03E54FF00006E1FB03569CF022
:1003D000000F18BF4EF0010EA4F1FF04B6F5007F28
:1003E00064F5407404D25FEA4E0E6D4146EB06069A
:1003F00042EAC62141EA55514FEAC52040EA5E5023
:100400004FEACE2EB4F1FD0C88BFBCF5E06F1ED8CC
:10041000BEF1004F08BF5FEA500E50F1000041EB03
:10042000045170BD06F0004646EA010140EA0200B0
:1004300081EA0301B4EB5C04C2BFD4EB0C0541EAD2
:10044000045170BD41F480114FF0000E013C00F3E7
:10045000AB8014F1360FDEBF002001F0004170BD0B
:10046000C4F10004203C35DA0C341BDC04F1140424
:10047000C4F1200500FA05F320FA04F001FA05F2B0
:1004800040EA020001F0004221F0004110EBD3707D
:1004900021FA04F642EB06015EEA430E08BF20EAA9
:1004A000D37070BDC4F10C04C4F1200500FA04F34C
:1004B00020FA05F001FA04F240EA020001F00041DE
:1004C00010EBD37041F100015EEA430E08BF20EA51
:1004D000D37070BDC4F1200500FA05F24EEA020E99
:1004E00020FA04F301FA05F243EA020321FA04F0C8
:1004F00001F0004121FA04F220EA020000EBD3707F
:100500005EEA430E08BF20EAD37070BD94F0000F7E
:100510000FD101F00046400041EB010111F4801FB2
:1005200008BF013CF7D041EA060195F0000F18BF63
:10053000704703F00046520043EB030313F4801F9F
:1005400008BF013DF7D043EA0603704794EA0C0F59
:100550000CEA135518BF95EA0C0F0CD050EA41066F
:1005600018BF52EA4306D1D181EA030101F00041EC
:100570004FF0000070BD50EA410606BF1046194614
:1005800052EA430619D094EA0C0F02D150EA013620
:1005900013D195EA0C0F05D152EA03361CBF104661
:1005A00019460AD181EA030101F0004141F0FE4100
:1005B00041F470014FF0000070BD41F0FE4141F484
:1005C000780170BD81F0004102E000BF83F000437C
:1005D00030B54FEA41044FEA430594EA050F08BFDE
:1005E00090EA020F1FBF54EA000C55EA020C7FEAA2
:1005F000645C7FEA655C00F0E2804FEA5454D4EB1F
:100600005555B8BF6D420CDD2C4480EA020281EAE8
:10061000030382EA000083EA010180EA020281EA20
:100620000303362D88BF30BD11F0004F4FEA013172
:100630004FF4801C4CEA113102D0404261EB410181
:1006400013F0004F4FEA03334CEA133302D0524207
:1006500063EB430394EA050F00F0A780A4F10104C3
:10066000D5F1200E0DDB02FA0EFC22FA05F28018FD
:1006700041F1000103FA0EF2801843FA05F35941E3
:100680000EE0A5F120050EF1200E012A03FA0EFC62
:1006900028BF4CF0020C43FA05F3C01851EBE3718C
:1006A00001F0004507D54FF0000EDCF1000C7EEBA9
:1006B00000006EEB0101B1F5801F1BD3B1F5001FE7
:1006C0000CD349085FEA30004FEA3C0C04F1010406
:1006D0004FEA445212F5800F80F09A80BCF1004F2F
:1006E00008BF5FEA500C50F1000041EB045141EAB1
:1006F000050130BD5FEA4C0C404141EB0101013C7A
:1007000028BFB1F5801FE9D291F0000F04BF014668
:100710000020B1FA81F308BF2033A3F10B03B3F13A
:1007200020020CDA0C3208DD02F1140CC2F10C02CA
:1007300001FA0CF021FA02F10CE002F11402D8BF28
:10074000C2F1200C01FA02F120FA0CFCDCBF41EAF4
:100750000C019040E41AA2BF01EB0451294330BDC3
:100760006FEA04041F3C1CDA0C340EDC04F11404A0
:10077000C4F1200220FA04F001FA02F340EA030077
:1007800021FA04F345EA030130BDC4F10C04C4F1BD
:10079000200220FA02F001FA04F340EA030029469D
:1007A00030BD21FA04F0294630BD94F0000F83F4E7
:1007B000801306BF81F480110134013D4EE77FEACA
:1007C000645C18BF7FEA655C29D094EA050F08BF16
:1007D00090EA020F05D054EA000C04BF19461046F7
:1007E00030BD91EA030F1EBF0021002030BD5FEA3B
:1007F000545C05D14000494128BF41F0004130BD63
:1008000014F580043CBF01F5801130BD01F00045B6
:1008100045F0FE4141F470014FF0000030BD7FEA29
:10082000645C1ABF194610467FEA655C1CBF0B4624
:10083000024650EA013406BF52EA033591EA030F3B
:1008400041F4002130BD00BF90F0000F04BF002133
:10085000704730B54FF4806404F132044FF0000566
:100860004FF0000150E700BF90F0000F04BF0021DF
:10087000704730B54FF4806404F1320410F0004545
:1008800048BF40424FF000013EE700BF42004FEA40
:10089000E2014FEA31014FEA02701FBF12F07F43BD
:1008A00093F07F4F81F06051704732F07F4208BF74
:1008B000704793F07F4F04BF41F40021704730B57B
:1008C0004FF4607401F0004521F000411CE700BFC7
:1008D00050EA010208BF704730B54FF000050AE04A
:1008E00050EA010208BF704730B511F0004502D54B
:1008F000404261EB41014FF4806404F132045FEA4D
:10090000915C3FF4D8AE4FF003025FEADC0C18BFF5
:1009100003325FEADC0C18BF033202EBDC02C2F1E7
:10092000200300FA03FC20FA02F001FA03FE40EA79
:100930000E0021FA02F11444BDE600BF4FEA410265
:10094000B2F1E04324BFB3F5001CDCF1FE5C0DD92D
:1009500001F0004C4FEAC0024CEA5070B2F1004F77
:1009600040EB830008BF20F00100704711F0804F7A
:1009700021D113F13872BCBF01F00040704741F43F
:1009800080114FEA5252C2F11802C2F1200C10FA43
:100990000CF320FA02F018BF40F001004FEAC12327
:1009A0004FEAD32303FA0CFC40EA0C0023FA02F3CB
:1009B0004FEA4303CCE77FEA625307D150EA0133A1
:1009C0001EBF4FF0FE4040F44000704701F0004071
:1009D00040F0FE4040F40000704700BF53B94AB9F0
:1009E000002908BF00281CBF4FF0FF314FF0FF3037
:1009F00000F06AB9ADF1080C6DE904CE00F006F81C
:100A0000DDF804E0DDE9022304B070472DE9F0478A
:100A1000089D0C46002B4ED194468C458646B2FA72
:100A200082F262D94AB1C2F12003914020FA03F365
:100A30000CFA02FC194300FA02FE4FEA1C471FFAA7
:100A40008CF6B1FBF7F44FEA1E4307FB141143EA9F
:100A5000014304FB06F199420AD91CEB030304F19C
:100A6000FF3080F01281994240F20F81023C6344D2
:100A7000591A1FFA8EF3B1FBF7F007FB101143EA86
:100A8000014300FB06F69E420AD91CEB030300F16A
:100A9000FF3180F0FC809E4240F2F98063440238CE
:100AA0009B1B40EA044000211DB1D3400022C5E950
:100AB0000032BDE8F0878B4205D90DB1C5E90001D0
:100AC00000210846F5E7B3FA83F1002946D1A34295
:100AD00002D39042C0F0F080861A64EB0303012039
:100AE000002DE6D0C5E90063E3E7002A40F09080DE
:100AF000A1EB0C044FEA1C481FFA8CF70121B4FB50
:100B0000F8F64FEA1E4308FB164443EA044307FB8A
:100B100006F0984208D91CEB030306F1FF3402D219
:100B2000984200F2CD8026461C1A1FFA8EF3B4FBC1
:100B3000F8F008FB104443EA044300FB07F79F4228
:100B400008D91CEB030300F1FF3402D29F4200F2EC
:100B5000B0802046DB1B40EA0640A5E7C1F1200635
:100B60008B4022FA06F71F4320FA06FC04FA01F331
:100B700043EA0C03F44000FA01F8380C4FEA134939
:100B8000B4FBF0FE1FFA87FC00FB1E4449EA044454
:100B90000EFB0CF9A14502FA01F20AD93C190EF13B
:100BA000FF3A80F08480A14540F28180AEF1020ED0
:100BB0003C44A4EB09041FFA83F9B4FBF0F300FBF7
:100BC000134449EA044403FB0CFCA44507D93C192F
:100BD00003F1FF3067D2A44565D9023B3C4443EAA8
:100BE0000E40A0FB0293A4EB0C049C42CE469C4614
:100BF00051D34ED055B1B8EB0E0364EB0C0404FA9C
:100C000006F6CB401E43CC40C5E90064002150E706
:100C1000C2F1200320FA03F10CFA02FC24FA03F3D8
:100C200094400C434FEA1C4800FA02FE1FFA8CF76E
:100C3000B3FBF8F008FB1031230C43EA014300FB3F
:100C400007F1994208D91CEB030300F1FF362CD2BF
:100C500099422AD9023863445B1AA4B2B3FBF8F173
:100C600008FB113344EA034401FB07F3A34208D90C
:100C70001CEB040401F1FF3613D2A34211D902394F
:100C80006444E41A41EA004139E70446F0E60846C4
:100C900006E7C845AED2B9EB020E63EB070C01388C
:100CA000A8E73146EDE7034699E73046D4E7D64654
:100CB0007FE7634402384DE70646234608460FE7C0
:100CC000023E634430E700BF704700BF80B483B08A
:100CD00000AF7860084B1B6800225A6200BF064BC9
:100CE0001B685B6A7A689A42F9D800BF00BF0C376C
:100CF000BD465DF8047B7047D402002080B485B007
:100D000000AF78600B46FB700023BB730023FB73BE
:100D100009E0FB7B7A6813441A78BB7B1344BB73EE
:100D2000FB7B0133FB73FA7BFB789A42F1D3BB7BED
:100D3000DB43BB73BB7B18461437BD465DF8047BB1
:100D40007047000080B58AB004AF03463960FB717C
:100D50001346BB710C4A07F10C0307CA03C31A8080
:100D6000FB799AB2BB799BB24FF0FF3102910193AC
:100D70003B68009301231021044804F081FC00BF6C
:100D80001837BD4680BD00BFACDF000868010020F9
:100D900080B58AB004AF03463960FB711346BB715E
:100DA00000237B610C4A07F1080307CA03C31A80BA
:100DB000FB799AB2BB799BB24FF0FF31029101935C
:100DC0003B68009301231021044804F053FD0023E5
:100DD00018461837BD4680BDACDF0008680100200A
:100DE00080B586B000AF03463960FB8013467B7147
:100DF0000023BB82494A07F10C0392E80300186004
:100E000004331980FB88DBB23B73FB881B0A9BB25F
:100E1000DBB27B733B68DBB2BB737B79042B4CD0BA
:100E2000042B77DC012B02D0022B21D072E007F1DA
:100E30000C03032219463E20FFF784FF4FF4FA60AB
:100E4000FFF744FF07F10C0303211846FFF756FF95
:100E500003463B7505237B7507F1140302221946EF
:100E60006020FFF76FFF4FF4FA60FFF72FFF51E0AC
:100E70003B681B0ADBB2FB7307F10C030422194623
:100E80003E20FFF75FFF4FF4FA60FFF71FFF07F107
:100E90000C0304211846FFF731FF03463B75062378
:100EA0007B7507F11403022219466020FFF74AFF01
:100EB0004FF4FA60FFF70AFF2CE03B681B0ADBB235
:100EC000FB733B681B0CDBB23B743B681B0EDBB255
:100ED0007B7407F10C03062219463E20FFF732FF10
:100EE0004FF4FA60FFF7F2FE07F10C0306211846F3
:100EF000FFF704FF03463B7508237B7507F11403D6
:100F0000022219466020FFF71DFF4FF4FA60FFF739
:100F1000DDFE00BF00BF1837BD4680BDB8DF00084A
:100F200080B584B000AF0346FB800023BB81FB8803
:100F3000DBB23B73FB881B0A9BB2DBB27B7307F10E
:100F40000C03022219463E20FFF7FCFE4FF4FA6024
:100F5000FFF7BCFE00BF1037BD4680BD80B586B030
:100F600000AF0346FB800B46BB801346FB7000239B
:100F70007B6100233B8207F10F03012219463E20CB
:100F8000FFF706FF07F10E03012219463F20FFF786
:100F9000FFFEFB88DBB23B75FB881B0A9BB2DBB212
:100FA0007B75FB78002B20D107F114030222194630
:100FB0003E20FFF7C7FE07F10F03012219463E202E
:100FC000FFF7E6FE07F10E03012219463F20FFF767
:100FD000DFFEFB7BFF2B02D1BB7BFF2BEBD0202264
:100FE0002D494020FFF7D4FE51E0FB78012B23D19F
:100FF000BB88DBB2BB7507F11403032219463E2000
:10100000FFF7A0FE4FF47A70FFF760FE07F11403BC
:1010100003211846FFF772FE03463B7405237B74D9
:1010200007F11003022219466020FFF78BFE4FF4F0
:101030007A70FFF74BFE2AE0FB78022B27D1BB88A2
:10104000DBB2BB75BB881B0A9BB2DBB2FB7507F139
:101050001403042219463E20FFF774FE4FF47A7001
:10106000FFF734FE07F1140304211846FFF746FE8C
:1010700003463B7406237B7407F1100302221946D2
:101080006020FFF75FFE4FF47A70FFF71FFE00BF8E
:101090001837BD4680BD00BF4005002080B584B034
:1010A00000AF0346FB710B46BB801346BB710023A8
:1010B000BB81BB88DBB23B73BB881B0A9BB2DBB234
:1010C0007B73BB79002B09D1FB7902220C491846AE
:1010D000FFF75EFE4FF4FA60FFF7F8FDBB79012BD6
:1010E0000AD107F10C01FB7902221846FFF72AFE0C
:1010F0004FF4FA60FFF7EAFD00BF1037BD4680BD30
:101100003C05002080B500AF9020FFF709FF0222C8
:101110004FF4365149F23420FFF762FE01220021DC
:1011200049F23720FFF75CFE01222A2149F2FC2018
:10113000FFF756FE022248F21F0149F20430FFF782
:101140004FFE0122BC2149F26120FFF749FE012236
:10115000F72149F26220FFF743FE02224FF6820197
:1011600049F26D20FFF73CFE0122032149F23530A0
:10117000FFF736FE0122232149F27520FFF730FEEA
:101180000122552149F27820FFF72AFE012205218C
:1011900049F28020FFF724FE01220A2149F2822031
:1011A000FFF71EFE0122052149F28620FFF718FEF7
:1011B0000122032149F28720FFF712FE01220121BB
:1011C00049F29520FFF70CFE9220FFF7A9FE00BF21
:1011D00080BD000080B500AF002200216220FFF733
:1011E0005DFF054B5B781B029BB2034A12781344E8
:1011F0009BB2184680BD00BF3C05002080B582B080
:1012000000AF0346FB71FB79002200211846FFF76F
:1012100045FFFB79132B0BD9FB79322B08D80C4BEC
:101220005B781B029BB20A4A127813449BB20BE014
:10123000074B5B781B02064A127813449BB21A468E
:10124000920013445B009BB218460837BD4680BD30
:101250003C05002080B582B000AF14237B600023E2
:101260003B6010E07B68DBB21846FFF7C7FF034620
:101270001946134A3B6822F813107B6802337B60DF
:101280003B6801333B603B680F2BEBDD3420FFF7FD
:10129000B5FF03461A460B4B1A803620FFF7AEFF08
:1012A00003461A46084B1A803820FFF7A7FF03466B
:1012B0001A46064B1A8000BF0837BD4680BD00BFE6
:1012C000600500208C0500208E0500209005002080
:1012D00080B500AF002200213A20FFF7DFFE054B6A
:1012E0005B781B029BB2034A127813449BB21846E8
:1012F00080BD00BF3C05002080B582B000AF034632
:10130000FB71FB79002200211846FFF7C7FE1A4B3C
:101310005B781B02184A1278134407EE903AF8EEF5
:10132000E77A17EE900AFFF7B1FA0FA3D3E900238B
:10133000FFF71EF802460B46104619460CA3D3E9E8
:101340000023FFF743F902460B4610461946FFF704
:10135000F5FA034607EE903AB0EE670A0837BD4645
:1013600080BD00BFAFF300809A9999999999B93FD0
:1013700066666666661271403C05002080B500AF67
:10138000002200217620FFF7E9FD1A4BDB781A06D0
:10139000184B9B781B041A44164B5B781B021344B2
:1013A000144A127813441A46134B1A60114BDB7916
:1013B0001A06104B9B791B041A440E4B5B791B02D7
:1013C00013440C4A127913441A460C4B1A60094B09
:1013D000DB7A1A06074B9B7A1B041A44054B5B7A8F
:1013E0001B021344034A127A13441A46044B1A6030
:1013F00000BF80BD40050020980500209C0500200E
:10140000A0050020B0B58CB004AFAF4B3C1D0FCB96
:1014100084E80F0003F0F6F900F0B0F900F01EFBCD
:1014200000F0F4FA00F09EFA00F042FA00F0C4FA7C
:1014300000F010FA00F072FAA44B1B68A34A43F0C4
:101440000103136009F0CCFD0AF038FE0221A04828
:1014500003F0B7FFC82003F017FA02219C4803F0FD
:10146000B0FFC82003F010FA00220821994803F0C9
:101470008FFF642003F008FA01220821954803F049
:1014800087FF4FF47A7003F0FFF99349934802F015
:1014900077FC9349934802F099FC3B1D19460120C3
:1014A00002F0C0FC0346B3F1FF3F01D100BFFDE7EE
:1014B00000F0F8FD8C4803F08FF8642318228B4964
:1014C0008B4806F093FC884B1B781C46864B5B7858
:1014D0001D46854B9B781A46834BDB781946824B19
:1014E0001B791846804B5B7903930290019100921F
:1014F0002B4622467F4980480BF0F0FC7E48FEF7E1
:10150000DBFE03469AB264237B49794806F06EFC01
:10151000754B9B791946744BDB791846724B1B7AD5
:101520001A46714B5B7A0193009203460A4673494F
:1015300071480BF0D3FC7048FEF7BEFE03469AB22A
:1015400064236D496A4806F051FC674B9B7A194643
:10155000654BDB7A1846644B1B7B1A46624B5B7B00
:101560000193009203460A46654963480BF0B6FCB6
:101570006148FEF7A1FE03469AB264235E495C48C7
:1015800006F034FC584B9B7B1946574BDB7B1846C7
:10159000554B1B7C1A46544B5B7C019300920346CF
:1015A0000A46584954480BF099FC5348FEF784FE0C
:1015B00003469AB2642350494D4806F017FC4A4945
:1015C000002002F00FFD01233B700123FB7000237C
:1015D000BB7001237B703B4619460A2002F022FCB7
:1015E00000F072FD00F09CFD0121394803F0E9FE96
:1015F000C82003F049F90221354803F0E2FEC82073
:1016000003F042F9404806F099F842F21070FFF7F3
:101610005DFBFFF777FD42F21070FFF757FB2220CA
:10162000FFF77EFC42F21070FFF750FB9A20FFF7A5
:1016300077FC4EF66020FFF749FB4EF66020FFF77F
:1016400045FB4EF66020FFF741FB4EF66020FFF7AA
:101650003DFB2E4B0193032300930023C8222C490A
:101660002C4807F09FFD03462B4A13602A4B1B684A
:10167000012B0BD04FF0500383F31188BFF36F8F12
:10168000BFF34F8FFB6100BF00BFFDE7234B01930A
:10169000012300930023C8222149224807F082FD3C
:1016A00003461D4A13601C4B1B68012B3CD04FF0B6
:1016B000500383F31188BFF36F8FBFF34F8FBB616C
:1016C00000BF00BFFDE700BF88E00008001000E099
:1016D0000004024000000240612000084920000888
:1016E000792000089320000800000020C0DF0008D7
:1016F00064030020DCDF00082C01002000E000086B
:1017000020E0000840E00008D40200202C05002062
:1017100060E00008751B0008380500203005002037
:101720006CE00008511D0008104B01930223009348
:101730000023C8220E490F4807F034FD03460E4A25
:1017400013600D4B1B68012B0BD04FF0500383F33C
:101750001188BFF36F8FBFF34F8F7B6100BF00BF56
:10176000FDE707F0BDFE00BFFDE700BF3405002028
:1017700078E00008851D00083805002080B594B089
:1017800000AF07F11C033422002118460BF0AEFC19
:1017900007F1080300221A605A609A60DA601A6141
:1017A00000237B60294B1B6C284A43F08053136451
:1017B000264B1B6C03F080537B607B6800233B60EF
:1017C000234B1B68224A43F440431360204B1B68A1
:1017D00003F440433B603B680123FB614FF48033DB
:1017E0003B6202237B634FF48003BB630823FB63EC
:1017F000A8233B6402237B640223BB640223FB64B3
:1018000007F11C03184605F095F90346002B01D09B
:1018100000F0DCFC0F23BB600223FB6000233B6174
:101820004FF4A0537B614FF48053BB6107F1080371
:101830000521184604F004FE0346002B01D000F0F9
:10184000C5FC00BF5037BD4680BD00BF0038024018
:101850000070004080B500AF124B134A1A60114B64
:10186000124A5A600F4B00229A600E4B0022DA6037
:101870000C4B4FF480421A610A4B00225A61094B0B
:1018800000229A61074B0022DA61064B00221A629D
:10189000044803F0B1FD0346002B01D000F096FC94
:1018A00000BF80BD6801002000540040A0860100F8
:1018B00080B500AF174B184A1A60164B4FF482726E
:1018C0005A60144B00229A60124B0022DA60114BCE
:1018D00000221A610F4B00225A610E4B4FF4007226
:1018E0009A610C4B0022DA610A4B00221A62094B02
:1018F00000225A62074B00229A62064B0A22DA62E1
:10190000044805F0B5FB0346002B01D000F05EFC57
:1019100000BF80BD7C0200200030014080B500AFD8
:101920000E4B0F4A1A600D4B00225A600B4B0022DF
:101930009A600A4B4FF6FF72DA60084B00221A6178
:10194000064B00229A61054805F0A8FE0346002BCD
:1019500001D000F03BFC00BF80BD00BFD4020020DE
:101960000044014080B500AF114B124A1A60104B81
:101970004FF4E1325A600E4B00229A600C4B002269
:10198000DA600B4B00221A61094B0C225A61084B9A
:1019900000229A61064B0022DA61054806F07EF9C2
:1019A0000346002B01D000F011FC00BF80BD00BF3A
:1019B0001C0300200010014080B500AF114B124AFB
:1019C0001A60104B4FF4E1325A600E4B00229A60BD
:1019D0000C4B0022DA600B4B00221A61094B0C22DF
:1019E0005A61084B00229A61064B0022DA610548D1
:1019F00006F0A4F90346002B01D000F0E7FB00BF7E
:101A000080BD00BF640300200044004080B582B068
:101A100000AF00237B60104B1B6B0F4A43F4001395
:101A200013630D4B1B6B03F400137B607B68002278
:101A300000210B2003F004F80B2003F01DF8002216
:101A40000021112002F0FCFF112003F015F800BF67
:101A50000837BD4680BD00BF0038024080B58AB05F
:101A600000AF07F1140300221A605A609A60DA602E
:101A70001A6100233B613B4B1B6B3A4A43F08003E6
:101A80001363384B1B6B03F080033B613B690023FE
:101A9000FB60344B1B6B334A43F001031363314B40
:101AA0001B6B03F00103FB60FB680023BB602D4B45
:101AB0001B6B2C4A43F0020313632A4B1B6B03F08E
:101AC0000203BB60BB6800237B60264B1B6B254A6F
:101AD00043F004031363234B1B6B03F004037B608D
:101AE0007B6800221821204803F052FC002248F2B3
:101AF00003011E4803F04CFC00224FF400611C4817
:101B000003F046FC18237B610123BB610023FB61CA
:101B100000233B6207F114031946134803F0A4FAAB
:101B200048F203037B610123BB610023FB610023B7
:101B30003B6207F1140319460C4803F095FA4FF481
:101B400000637B610123BB610023FB6100233B62D7
:101B500007F114031946064803F086FA00BF283738
:101B6000BD4680BD00380240000002400004024033
:101B70000008024080B586B000AF7860642313226D
:101B80005C495D4806F032F901215C4803F019FC1C
:101B90005B480BF09BF9642007F068FC00234FF4CE
:101BA000FB720121012001F0C9FB0346012B06D085
:101BB00054480BF08BF9C82007F058FC99E05248C4
:101BC0000BF084F90023FB7207F10B031A46002186
:101BD000012001F0B1FF4FF4FB714C480BF00EF9FE
:101BE0004B480BF073F9012001F02AFD0346012B4D
:101BF00009D04FF4FB7147480BF000F94FF47A70AD
:101C000007F034FC75E00023FB7507F07BFD03460D
:101C100003F59C5308333B614FF44A7001F0EEF832
:101C20000346FB75642007F021FCFB7D172B08D0D1
:101C3000FB7D002B05D007F065FD02463B69934212
:101C4000EAD8FB7D002B07D133480BF03FF94FF466
:101C50007A7007F00BFC4CE0FB7D172B94D12F48DA
:101C60000BF034F92E480BF031F980222D49012078
:101C700001F0AEFEF860FB6813F1070F06D12A48A9
:101C80000BF024F929480BF021F932E0254AFB68D2
:101C9000134400221A70F96825480BF0AFF8214967
:101CA00024480BF0ABF88022002123480BF01EFAE9
:101CB000224BFA6820491B4800F0C0FA20480BF07C
:101CC00005F920491748FEF7EDFA0346002B0CD121
:101CD0001D480BF0FBF81D480BF0F8F813480BF00B
:101CE000F5F8012001F006FD03E0642007F0BEFBDB
:101CF000BBE749E798E000086403002000040240C5
:101D0000ACE00008CCE00008E4E0000804E10008D2
:101D100024E1000848E1000864E1000898E10008B7
:101D2000B0E100082C040020D0E10008ECE100083C
:101D300004E2000824E20008AC030020AC04002008
:101D400038E2000854E200085CE2000880E2000883
:101D500080B582B000AF786064231222064907483C
:101D600006F044F80221064803F02BFB642007F03C
:101D70007DFB00BFF0E700BF94E200086403002091
:101D80000004024080B584B000AF78600B23FB6094
:101D9000FFF760FAFFF7F2FAFFF79AFA03461A46DE
:101DA000964B1A807020FFF7A7FAF0EE407A944B1A
:101DB000C3ED007A7420FFF79FFAF0EE407A904B63
:101DC000C3ED017AFB688F4A128807EE902AF8EE7D
:101DD000E77ADFED8D6A87EEA67AB0EE470A1A46FB
:101DE0008A498B4800F07CFEF0EE407AB0EE670A3C
:101DF0000CF09EF8F0EE407AFCEEE77A17EE903A9F
:101E00009AB2844B1A807F4B5B8807EE903AF8EECB
:101E1000E77ADFED7D6A87EEA67AB0EE470AFA68C8
:101E20007A497B4800F052FFF0EE407AB0EE670A44
:101E30000CF07EF8F0EE407AFCEEE77A17EE903A7E
:101E40009AB2744B5A806F4B9B8807EE903AF8EE2B
:101E5000E77ADFED6D6A87EEA67AB0EE470AFA6898
:101E60006A496B4800F032FFF0EE407AB0EE670A44
:101E70000CF05EF8F0EE407AFCEEE77A17EE903A5E
:101E80009AB2644B9A805F4BDB8807EE903AF8EE8B
:101E9000E77ADFED5D6A87EEA67AB0EE470AFA6868
:101EA0005A495B4800F012FFF0EE407AB0EE670A44
:101EB0000CF03EF8F0EE407AFCEEE77A17EE903A3E
:101EC0009AB2544BDA804F4B1B8907EE903AF8EEEA
:101ED000E77ADFED4D6A87EEA67AB0EE470AFA6838
:101EE0004A494B4800F0F2FEF0EE407AB0EE670A45
:101EF0000CF01EF8F0EE407AFCEEE77A17EE903A1E
:101F00009AB2444B1A813F4BDB8B07EE903AF8EEC6
:101F1000E77ADFED3D6A87EEA67AB0EE470AFA6807
:101F20003A493B4800F0D2FEF0EE407AB0EE670A44
:101F30000BF0FEFFF0EE407AFCEEE77A17EE903AF7
:101F40009AB2344B5A812F4B1A88324B9A812D4BBF
:101F50005A88304BDA812B4B9A882E4B1A82294BA8
:101F6000DA882C4B5A82274B1A892A4B9A82254BA6
:101F7000DA8B284BDA82234B5A89264B1A83214B62
:101F80009A89244B5A831F4BDA89224B9A83342037
:101F9000FFF734F903461A461E4BDA83FFF798F928
:101FA00003461A461B4B1A843620FFF727F90346CF
:101FB0001A46184B5A84FFF70DF903467B81FFF749
:101FC00009F903461A46144B1A80134B1B8803F079
:101FD0008003002B0CD0FFF73DF9FFF779F903469A
:101FE0001A46064B1A80012280216220FFF756F81C
:101FF0004FF4FA7007F03AFAC8E600BF92050020E5
:10200000800500206005002000007A444400002084
:1020100018000020AC0400209405002080B586B094
:1020200002AF0346FB7107F10F02F91D3223009343
:102030000123044805F0A5F8FB7B18461037BD4680
:1020400080BD00BF7C02002080B500AF00221021BF
:10205000024803F09DF900BF80BD00BF00000240B0
:1020600080B500AF01221021024803F091F900BFB2
:1020700080BD00BF0000024080B582B000AF0346C3
:10208000FB71FB791846FFF7C9FF00BF0837BD4653
:1020900080BD80B500AFFF20FFF7C0FF03461846A4
:1020A00080BD000080B582B000AF0649002001F07D
:1020B00099FF3B461946082001F0B4FE00BF0837DF
:1020C000BD4680BD0000002080B582B000AF104842
:1020D0000AF094FEFB1D19460F2001F0A3FEFB79C8
:1020E000002B0BD10B480AF089FE012202210A487D
:1020F00003F04EF94FF4FA7002F0C6FBFB79002BA7
:10210000E5D006480AF07AFE00BF0837BD4680BD1C
:10211000A8E20008D0E2000800040240E4E200085F
:1021200080B582B000AF3B1D19460B2001F07AFE4E
:102130003B79002B03D114480AF060FE02E01348FB
:102140000AF05CFE7B79012B03D111480AF056FEA0
:1021500002E010480AF052FEFB79012B03D10E4831
:102160000AF04CFE02E00D480AF048FEBB79002B55
:1021700003D10B480AF042FE02E00A480AF03EFE94
:1021800000BF0837BD4680BD00E3000824E3000817
:1021900044E3000860E3000880E3000894E30008DB
:1021A000A8E30008B8E3000880B582B000AF78600B
:1021B0007B681B68044A934201D102F045FB00BFD3
:1021C0000837BD4680BD00BF0010004080B400AF9E
:1021D00072B600BF00BFFDE780B485B000AF034614
:1021E000B9607A60FB81FB89DAB27B681A70FB897F
:1021F0001B0A9BB2DAB2BB681A7000BF1437BD4627
:102200005DF8047B704780B485B000AF03460A4692
:10221000FB711346BB710023FB81FB79FB81FB89BA
:102220001B02FB81BB799AB2FB891343FB81FB89BB
:1022300018461437BD465DF8047B704790B58BB0E7
:1022400000AFF860B9607A603B600023FB83002335
:10225000BB830023FB8400237B8300233B83002379
:10226000BB840023FB82FB6806331B78012B40F004
:102270004D81BB680633FA6892791A70BB680733E0
:10228000FA68D2791A70BB68023300221A70BB68F0
:10229000033300221A70FB6807331B78102B00F001
:1022A0009E80102B00F32E81032B03D0062B00F011
:1022B000258127E1FB6808331A78FB6809331B780E
:1022C00019461046FFF79FFF0346FB83FB8B3F2B0E
:1022D0007ED8FB680A331A78FB680B331B781946E3
:1022E0001046FFF790FF0346BB83BB8B402B6BD898
:1022F000BA8BFB8B1344402B66DCFB681A78BB68F7
:102300001A70BB680133FA6852781A70BB8BDBB263
:102310005B00DAB2BB6805330332D2B21A70BB8BF2
:10232000DAB2BB6808335200D2B21A70BB8B012BF1
:102330002BD900233B62FB8BFB8421E0FA8BFB8CC7
:1023400013445B003A6813441B88724A724918466A
:10235000FFF742FF3B6A09331A46BB6813446E4AD3
:1023600012781A703B6A0A331A46BB681344694AEA
:1023700012781A703B6A02333B62FB8C0133FB8498
:10238000FA8CBB8B9A42D9D313E0FB8B5B003A6883
:1023900013441B885F4A60491846FFF71DFFBB685E
:1023A00001335D4A12781A70BB680233594A1278B9
:1023B0001A70BB8B5B009BB209339BB21A46B9689B
:1023C000012001F00DFA06E0544B01221A7002E0E0
:1023D000524B01221A7052480AF078FD96E0FB68D1
:1023E00008331A78FB6809331B7819461046FFF743
:1023F0000AFF0346FB83FB8B3F2B78D8FB680A332D
:102400001A78FB680B331B7819461046FFF7FBFE62
:102410000346BB83BB8B402B65D8BA8BFB8B134425
:10242000402B60DCFB681A78BB681A70BB6801330C
:10243000FA6852781A70BB68053306221A70FB8B53
:102440003B830D23FB84BB8B012B11D1FB8CFA68E2
:1024500013441878FB8C0133FA6813441978FB8B0A
:102460005B003A68D418FFF7CEFE0346238020E0D5
:102470003B8BBB8417E0FB8CFA6813441878FB8C09
:1024800001331A46FB6813441978BB8C5B003A6829
:10249000D418FFF7B8FE03462380FB8C0233FB847D
:1024A000BB8C0133BB84BA8CB98B3B8B0B449A42F7
:1024B000E1DBBB680833FA68127A1A70BB6809332B
:1024C000FA68527A1A70BB680A33FA68927A1A70FC
:1024D000BB680B33FA68D27A1A700C22B9680120F3
:1024E00001F07EF906E00D4B01221A7002E00B4B61
:1024F00001221A700B480AF0E9FC07E00A480AF0CA
:10250000E5FC03E009480AF0E1FC00BF00BF2C37FE
:10251000BD4690BDA5050020A6050020A40500200D
:10252000CCE30008DCE30008ECE30008FCE300086F
:1025300080B582B000AF00237B60104B5B6C0F4A0C
:1025400043F4804353640D4B5B6C03F480437B6026
:102550007B6800233B60094B1B6C084A43F08053A7
:102560001364064B1B6C03F080533B603B6808F020
:1025700075F900BF0837BD4680BD00BF0038024076
:1025800080B58AB000AF786007F1140300221A60AA
:102590005A609A60DA601A617B681B68484A934205
:1025A00040F0898000233B61464B1B6B454A43F05A
:1025B00002031363434B1B6B03F002033B613B6954
:1025C0004FF440737B611223BB610023FB61032343
:1025D0003B6204237B6207F1140319463A4802F078
:1025E00043FD0023FB60374B1B6C364A43F400135A
:1025F0001364344B1B6C03F40013FB60FB68334B18
:10260000334A1A60314B4FF000725A602F4B002250
:102610009A602E4B0022DA602C4B4FF480621A61D4
:102620002A4B00225A61294B00229A61274B002233
:10263000DA61264B00221A62244B00225A62234898
:1026400002F028FA0346002B01D0FFF7BFFD7B689C
:102650001E4A9A631D4A7B6893631E4B1E4A1A608A
:102660001C4B4FF000725A601A4B40229A60194B73
:102670000022DA60174B4FF480621A61154B00227A
:102680005A61144B00229A61124B0022DA61114BFD
:1026900000221A620F4B00225A620E4802F0FAF929
:1026A0000346002B01D0FFF791FD7B68094A5A636E
:1026B000084A7B68936300BF2837BD4680BD00BFD2
:1026C000005400400038024000040240BC010020D9
:1026D000106002401C020020A060024080B58AB059
:1026E00000AF786007F1140300221A605A609A6004
:1026F000DA601A617B681B68194A93422BD1002368
:102700003B61184B5B6C174A43F480535364154B81
:102710005B6C03F480533B613B690023FB60114B0E
:102720001B6B104A43F0010313630E4B1B6B03F04A
:102730000103FB60FB68E0237B610223BB61002394
:10274000FB6103233B6205237B6207F114031946F7
:10275000054802F089FC00BF2837BD4680BD00BF98
:1027600000300140003802400000024080B485B0D3
:1027700000AF78607B681B680B4A93420DD1002341
:10278000FB600A4B5B6C094A43F400335364074B0C
:102790005B6C03F40033FB60FB6800BF1437BD467D
:1027A0005DF8047B704700BF0044014000380240E0
:1027B00080B58CB000AF786007F11C0300221A606E
:1027C0005A609A60DA601A617B681B68324A9342E9
:1027D0002CD10023BB61314B5B6C304A43F01003BA
:1027E00053642E4B5B6C03F01003BB61BB69002389
:1027F0007B612A4B1B6B294A43F002031363274B6F
:102800001B6B03F002037B617B69C023FB61022326
:102810003B6200237B620323BB620723FB6207F159
:102820001C0319461E4802F01FFC30E07B681B6841
:102830001C4A93422BD100233B61184B1B6C174A57
:1028400043F400331364154B1B6C03F400333B61FA
:102850003B690023FB60114B1B6B104A43F00103E3
:1028600013630E4B1B6B03F00103FB60FB68042337
:10287000FB6112233B6200237B620323BB620723BD
:10288000FB6207F11C031946074802F0EDFB00BF8D
:102890003037BD4680BD00BF001001400038024007
:1028A00000040240004400400000024080B58EB0A9
:1028B00000AF78600023FB620023BB620023FB6053
:1028C000334B1B6C324A43F010031364304B1B6CC8
:1028D00003F01003FB60FB6807F1100207F114031B
:1028E0001146184603F0C6FE3B6AFB62FB6A002BEA
:1028F00003D103F097FE786304E003F093FE0346F0
:102900005B007B637B6B234AA2FB03239B0C013B95
:10291000BB62214B214A1A601F4B40F2E732DA605A
:102920001D4ABB6A53601C4B00221A611A4B0022DD
:102930009A60194B00229A61174804F0AFFE0346D3
:1029400087F8333097F83330002B1BD1124804F04E
:102950005DFF034687F8333097F83330002B11D1F1
:10296000362002F089F87B680F2B08D8002279689E
:10297000362002F065F80A4A7B68136002E0012302
:1029800087F8333097F8333018463837BD4680BD66
:102990000038024083DE1B43A805002000100040E1
:1029A000A400002080B400AF00BFFDE780B400AFFA
:1029B00000BFFDE780B400AF00BFFDE780B400AF0B
:1029C00000BFFDE780B400AF00BFFDE780B400AFFB
:1029D00000BFBD465DF8047B7047000080B500AFC6
:1029E000024802F005F900BF80BD00BFBC01002015
:1029F00080B500AF024802F0FBF800BF80BD00BF09
:102A00001C02002080B500AF024804F06FFF00BF39
:102A100080BD00BFA805002080B586B000AFF8607B
:102A2000B9607A6000237B610AE0AFF30080014661
:102A3000BB685A1CBA60CAB21A707B6901337B61E9
:102A40007A697B689A42F0DB7B6818461837BD4686
:102A500080BD80B483B000AF78604FF0FF3318467C
:102A60000C37BD465DF8047B704780B483B000AF7F
:102A7000786039603B684FF400525A600023184672
:102A80000C37BD465DF8047B704780B483B000AF5F
:102A90007860012318460C37BD465DF8047B70470B
:102AA00080B485B000AFF860B9607A600023184642
:102AB0001437BD465DF8047B7047000080B400AF5A
:102AC000064BD3F88830054A43F47003C2F88830C7
:102AD00000BFBD465DF8047B704700BF00ED00E01D
:102AE00080B487B000AFF860B9607A6087ED000A03
:102AF0007B68012B02D8DFED747ADDE0FB6893ED93
:102B0000007A7B6803F18043013B9B00FA68134421
:102B1000D3ED007AB4EEE77AF1EE10FA66D5002331
:102B20007B6155E07B699B00FA681344D3ED007A22
:102B300097ED007AB4EEE77AF1EE10FA45D87B69AA
:102B4000002B03D1BB68D3ED007AB5E07B6903F1BC
:102B50008043013B9B00BA68134493ED007A7B6984
:102B60009B00BA681344D3ED006A7B6903F180438C
:102B7000013B9B00BA681344D3ED007A76EEE76A16
:102B80007B6903F18043013B9B00FA681344D3ED5A
:102B9000007A97ED006A76EE677A26EEA76A7B697F
:102BA0009B00FA681344D3ED006A7B6903F180430C
:102BB000013B9B00FA681344D3ED007A76EEE76A96
:102BC000C6EE267A77EE277A76E07B6901337B6161
:102BD0007A697B689A42A5D37B6803F18043013B05
:102BE0009B00BA681344D3ED007A65E000233B6193
:102BF00055E03B699B00FA681344D3ED007A97EDEA
:102C0000007AB4EEE77AF1EE10FA45DB3B69002B6F
:102C100003D1BB68D3ED007A4EE03B6903F18043FA
:102C2000013B9B00BA68134493ED007A3B699B001B
:102C3000BA681344D3ED006A3B6903F18043013B5A
:102C40009B00BA681344D3ED007A76EEE76A3B69DD
:102C500003F18043013B9B00FA681344D3ED007AF3
:102C600097ED006A76EE677A26EEA76A3B699B00CD
:102C7000FA681344D3ED006A3B6903F18043013BDA
:102C80009B00FA681344D3ED007A76EEE76AC6EE4D
:102C9000267A77EE277A0FE03B6901333B613A6988
:102CA0007B689A42A5D37B6803F18043013B9B007C
:102CB000BA681344D3ED007AB0EE670A1C37BD46FC
:102CC0005DF8047B704700BF0000000080B48BB04B
:102CD00000AFF860B9607A6087ED000A7B6803F1A5
:102CE0008043013B9B00FA681344D3ED007A97EDD3
:102CF000007AB4EEE77AF1EE10FA08D87B6803F1B7
:102D00008043013B9B00BA6813441B686CE0FB687E
:102D1000D3ED007A97ED007AB4EEE77AF1EE10FA8F
:102D200002DBBB681B685FE000237B6255E07B6AC7
:102D30009B00FA681344D3ED007A97ED007AB4EE65
:102D4000E77AF1EE10FA45D87B6A01339B00FA6806
:102D50001344D3ED007A97ED007AB4EEE77AF1EE02
:102D600010FA37DB7B6A9B00FA6813441B683B62EE
:102D70007B6A01339B00FA6813441B68FB617B6A22
:102D80009B00BA6813441B68BB617B6A01339B00DC
:102D9000BA6813441B687B6197ED007AD7ED087A17
:102DA00037EE677AD7ED056AD7ED067A76EEE77AE1
:102DB00067EE276A97ED077AD7ED087A37EE677ADC
:102DC000C6EE877A97ED067A77EE277AC7ED047A12
:102DD0003B6909E07B6A01337B627B68013B7A6A6D
:102DE0009A42A4DB4FF0000307EE903AB0EE670A78
:102DF0002C37BD465DF8047B7047000080B584B079
:102E000000AF7860224BDB689847214B5B6998479D
:102E10001F4B5B6A002B03D01D4B9B6A002B14D108
:102E20001B4B1B6A7A68120CD2B210469847184B9B
:102E30001B6A7A68120AD2B210469847144B1B6A72
:102E40007A68D2B21046984711E07B681B0CDBB25F
:102E50003B737B681B0ADBB27B737B68DBB2BB73A3
:102E60000B4B9B6A07F10C02032110469847084B55
:102E7000DB6998470346FB73054B9B699847044BF6
:102E80001B699847FB7B18461037BD4680BD00BFC5
:102E90007800002080B584B000AF78600B46FB70EE
:102EA000224BDB689847214B5B6998477B6843F06E
:102EB00004037B601D4B9B6A002B19D11B4B1B6AC3
:102EC0007A68120CD2B210469847184B1B6A7A687F
:102ED000120AD2B210469847144B1B6A7A68D2B2D3
:102EE00010469847114B1B6AFA781046984713E032
:102EF0007B681B0CDBB23B737B681B0ADBB27B730A
:102F00007B68DBB2BB73FB78FB73084B9B6A07F1F2
:102F10000C02042110469847044B9B699847034BC9
:102F20001B69984700BF1037BD4680BD7800002060
:102F300090B587B000AFF860B9601346FB802B4BAB
:102F4000DB689847294B5B699847284B5B6A002BE5
:102F500003D0264B9B6A002B26D1244B1B6AFA68B0
:102F6000120CD2B210469847204B1B6AFA68120A1C
:102F7000D2B2104698471D4B1B6AFA68D2B210466F
:102F800098470023FB820AE0184BDB69FA8AB9688C
:102F90008C18984703462370FB8A0133FB82FA8A18
:102FA000FB889A42F0D317E0FB681B0CDBB23B7442
:102FB000FB681B0ADBB27B74FB68DBB2BB740B4B98
:102FC0009B6A07F11002032110469847074B5B6A82
:102FD000FA881146B8689847044B9B699847034B99
:102FE0001B69984700BF1C37BD4690BD7800002084
:102FF00080B586B000AFF860B9601346FB802B4BFC
:10300000DB689847294B5B699847FB6843F00403EA
:10301000FB60264B9B6A002B26D1244B1B6AFA6867
:10302000120CD2B210469847204B1B6AFA68120A5B
:10303000D2B2104698471D4B1B6AFA68D2B21046AE
:1030400098470023FB820AE0184B1B6AFA8AB9688A
:103050000A44127810469847FB8A0133FB82FA8AA9
:10306000FB889A42F0D317E0FB681B0CDBB23B7481
:10307000FB681B0ADBB27B74FB68DBB2BB740B4BD7
:103080009B6A07F11002032110469847074B9B6A81
:10309000FA881146B8689847044B9B699847034BD8
:1030A0001B69984700BF1837BD4680BD78000020D7
:1030B00090B585B000AF0346FB710023FB81002370
:1030C000BB81FB799B000133DB0003F500531846FD
:1030D000FFF794FE0346BB81BB891B029CB2FB79C0
:1030E0009B000133DB0003F504531846FFF786FE0F
:1030F00003462344BB81BB89002B19D0FB799B007D
:103100000133DB0003F500531846FFF777FE034653
:10311000FB81FB891B029CB2FB799B000133DB0026
:1031200003F504531846FFF769FE03462344FB8169
:10313000FA89BB899A42C4D1FB8918461437BD4627
:1031400090BD90B585B000AF0346FB710023FB81B5
:103150000023BB81FB799B000133DB0003F518538F
:103160001846FFF74BFE0346BB81BB891B029CB28E
:10317000FB799B000133DB0003F51C531846FFF776
:103180003DFE03462344BB81BB89002B19D0FB794C
:103190009B000133DB0003F518531846FFF72EFEA2
:1031A0000346FB81FB891B029CB2FB799B00013328
:1031B000DB0003F51C531846FFF720FE03462344AB
:1031C000FB81FA89BB899A42C4D1FB89184614371E
:1031D000BD4690BD90B585B000AF03463960FB7128
:1031E0001346BB800023FB810023BB60BB88002B00
:1031F00046D0FB799B000133DB0003F510531846E2
:10320000FFF7FCFD03461B029CB2FB799B000133D8
:10321000DB0003F514531846FFF7F0FD0346234483
:10322000FB81FB891B02FA7992000232D20013441F
:10323000BB60BB881A463968B868FFF7D9FEFA89BF
:10324000BB881344FB81FB799B000133DB0003F552
:1032500010531A46FB891B0A9BB2DBB21946104673
:10326000FFF718FEFB799B000133DB0003F51453D5
:103270001A46FB89DBB219461046FFF70BFE00E049
:1032800000BF1437BD4690BD90B585B000AF034672
:103290003960FB711346BB800023FB810023BB60B8
:1032A000BB88002B46D0FB799B000133DB0003F584
:1032B00020531846FFF7A2FD03461B029CB2FB7980
:1032C0009B000133DB0003F524531846FFF796FDFE
:1032D00003462344FB81FB891B02FA7992000332E7
:1032E000D2001344BB60BB881A463968B868FFF740
:1032F0001FFEFA89BB881344FB81FB799B000133D5
:10330000DB0003F520531A46FB891B0A9BB2DBB294
:1033100019461046FFF7BEFDFB799B000133DB0029
:1033200003F524531A46FB89DBB219461046FFF712
:10333000B1FD00E000BF1437BD4690BD90B585B02B
:1033400000AF0446084611461A462346FB71034661
:10335000BB710B46BB801346FB70FB79082B02D96F
:103360004FF0FF33F0E0BB79012B05D0002B11DDCE
:10337000023B022B0ED811E007F10C030422194680
:103380004FF47060FFF7D4FDFB68002B05D16FF0A0
:103390000203D9E06FF00403D6E000BFFB7803F02E
:1033A0000403002B02D06FF00503CDE0FB78002B67
:1033B00028D0BB79012B02D0022B08D022E0FB7869
:1033C00003F02103002B1AD16FF00503BCE0FB785A
:1033D00003F02003002B06D097F90330002B02DB0B
:1033E0006FF00503B0E0FB7803F01003002B08D06A
:1033F00097F90330002B04DB6FF00503A4E000BF56
:1034000000E000BFFB79184600F0ACF8FB799B00A8
:103410000133DB00184697F9033023F00F035AB24B
:1034200097F9063013435BB2DBB21946FFF732FD62
:10343000BB88002B10D1464B1B885A1C91B2444AC2
:103440001180BB80424B1B884FF6F072934203D130
:103450003F4B4FF440421A80FB799B000133DB0065
:1034600003F580631A46BB881B0A9BB2DBB2194680
:103470001046FFF70FFDFB799B000133DB0003F5DE
:10348000A0631A46BB88DBB219461046FFF702FD5F
:10349000FB799B000133DB0003F5807301211846A3
:1034A000FFF7F8FC00BFFB799B000133DB0003F55D
:1034B00080731846FFF7A2FC0346002BF3D1FB797B
:1034C000012202FA03F31BB2DB431AB2214B1B8821
:1034D0001BB213401BB29AB21E4B1A80FB7803F04A
:1034E0000102FB7902FA03F31AB21A4B1B881BB2D2
:1034F00013431BB29AB2174B1A80FB79012202FACE
:1035000003F31BB2DB431AB2134B1B881BB21340ED
:103510001BB29AB2104B1A80FB79104A002122F894
:103520001310FB790E4A0021D15400BFFB799B0098
:103530000133DB0003F540731846FFF75FFC0346D9
:10354000002BF3D097F9073018461437BD4690BDCD
:1035500074000020F0050020F2050020F405002092
:103560000406002080B582B000AF0346FB71FB79F2
:10357000082B02D94FF0FF3355E0FB799B00013354
:10358000DB0003F5807310211846FFF783FC00BFB2
:10359000FB799B000133DB0003F580731846FFF7CE
:1035A0002DFC0346002BF3D1FB799B000133DB009C
:1035B00003F500731F211846FFF76CFCFB7901220D
:1035C00002FA03F31BB2DB431AB2194B1B881BB27E
:1035D00013401BB29AB2164B1A80FB79012202FAF1
:1035E00003F31BB2DB431AB2124B1B881BB213400E
:1035F0001BB29AB20F4B1A80FB790F4A002122F8B6
:103600001310FB790D4A0021D15400BFFB799B00B8
:103610000133DB0003F540731846FFF7EFFB034669
:10362000002BF3D1012318460837BD4680BD00BFEB
:10363000F0050020F2050020F4050020040600201B
:1036400080B582B000AF0346FB71FB79082B02D92D
:103650004FF0FF3349E0FB799B000133DB00184654
:10366000FFF7CCFB034603F00F03012B02D06FF0F2
:1036700004033AE0FB799B000133DB0003F5407360
:103680001846FFF7BBFB0346132B02D06FF0020373
:103690002BE0FB799B000133DB0003F580730221F3
:1036A0001846FFF7F7FB00BFFB799B000133DB00F7
:1036B00003F580731846FFF7A1FB0346002BF3D1F7
:1036C00006E0FB791846FFF74DFF6FF003030CE0AF
:1036D000FB799B000133DB0003F540731846FFF7CD
:1036E0008DFB0346142BECD1012318460837BD4649
:1036F00080BD000080B582B000AF0346FB71FB794E
:10370000082B02D94FF0FF3362E0FB799B000133B5
:10371000DB001846FFF772FB034603F00F03012B93
:1037200002D06FF0040353E0FB799B000133DB0010
:1037300003F5807308211846FFF7ACFB00BFFB7947
:103740009B000133DB0003F580731846FFF756FB3F
:103750000346002BF3D1FB79012202FA03F31BB2DB
:10376000DB431AB21C4B1B881BB213401BB29AB22C
:10377000194B1A80194B1B881A46FB7942FA03F33E
:1037800003F00103002B16D0002321E0FB799B00FE
:103790000133DB0003F500731846FFF72FFB0346E8
:1037A00003F00803002B06D0FB791846FFF7DAFE7A
:1037B0006FF00C030CE0FB799B000133DB0003F599
:1037C00040731846FFF71AFB0346002BDED1012396
:1037D00018460837BD4680BDF2050020F0050020E0
:1037E00080B584B000AF03463960FB711346BB80DF
:1037F0000023FB730023BB81FB79082B02D94FF018
:10380000FF33DDE0FB799B000133DB001846FFF757
:10381000F5FA034603F00F03012B02D06FF0040307
:10382000CEE0BB88002B02D16FF00D03C8E0FB791E
:103830009B000133DB0003F540731846FFF7DEFA07
:103840000346FB73FB7B172B05D0FB7B1C2B02D0A5
:103850006FF00603B4E05C4B1B881A46FB7942FA12
:1038600003F303F00103002B39D0FB799B000133F4
:10387000DB0003F500731846FFF7C0FA034603F0B8
:103880001F03FB73FB7B03F01003002B19D0FB79A4
:103890009B000133DB0003F5007310211846FFF78E
:1038A000F9FAFB79012202FA03F31BB2DB431AB2E5
:1038B000454B1B881BB213401BB29AB2424B1A8075
:1038C0000DE0FB7B03F00803002B06D0FB791846C4
:1038D000FFF748FE6FF00C0372E0002370E0FB7905
:1038E0009B000133DB0003F5F8531846FFF786FA17
:1038F00003469B02BB81BA88BB899A4201D9BB8926
:10390000BB80FB791846FFF7D3FB0346BB81FB79ED
:103910009B000133DB0003F540731846FFF76EFA96
:103920000346FB73FB7B172B09D0FB7B1C2B06D0BC
:10393000FB791846FFF716FE6FF0060340E0234BB5
:103940001B881A46FB7942FA03F303F00103002BAC
:1039500005D0BA88BB899A4201D9002330E0BA88E1
:10396000BB899A4200D9CCE700BFBA88FB79396895
:103970001846FFF72FFCFB799B000133DB0003F5B2
:10398000807320211846FFF785FA00BFFB799B0062
:103990000133DB0003F580731846FFF72FFA034667
:1039A000002BF3D1FB79012202FA03F31AB2064B82
:1039B0001B881BB213431BB29AB2034B1A80BB88FD
:1039C00018461037BD4680BDF2050020F0050020E6
:1039D00090B585B000AF03463960FB711346BB80DC
:1039E0000023FB730023BB81FB79082B02D94FF026
:1039F000FF339BE0FB799B000133DB001846FFF7A8
:103A0000FDF9034603F00F03012B02D06FF004030E
:103A10008CE0BB88002B02D16FF00D0386E0FB79B0
:103A20009B000133DB0003F5F0531846FFF7E6F97E
:103A300003469B02BB81BA89BB889A4201D2BB89EB
:103A4000BB80FB791846FFF77CFB0346BB81FB7903
:103A50009B000133DB0003F540731846FFF7CEF9F6
:103A60000346FB73FB7B172B26D0FB7B1C2B1CD147
:103A7000BB89002B33D1FB791846FFF719FB0346AE
:103A80001C46FB799B000133DB0003F5F853184615
:103A9000FFF7B4F903469B029C420DD1FB7918460F
:103AA000FFF760FD6FF0060340E0FB791846FFF773
:103AB00059FD6FF0060339E01E4B1B881A46FB794F
:103AC00042FA03F303F00103002B04D0BB89002B5F
:103AD00001D100232AE0BB89002B02D1B1E700BF4E
:103AE00000E000BFBA89BB889A4201D2BB89BB8083
:103AF000BA88FB7939681846FFF7C6FBFB799B004B
:103B00000133DB0003F5807340211846FFF7C2F94B
:103B100000BFFB799B000133DB0003F5807318467F
:103B2000FFF76CF90346002BF3D1BB881846143716
:103B3000BD4690BDF005002080B584B000AF0346BF
:103B40003A60FB710B46BB710023FB73FB79082BBA
:103B500002D94FF0FF33C0E0BB79072B00F2B980E8
:103B600001A252F823F000BF893B0008DD3B0008AA
:103B7000F73B0008153C0008333C0008633C000894
:103B8000833C0008B33C00083B681B78FB73FB7B5D
:103B9000012B0DD1FB79012202FA03F31AB2514B2A
:103BA0001B881BB213431BB29AB24E4B1A8093E090
:103BB000FB7B002B0FD1FB79012202FA03F31BB22E
:103BC000DB431AB2474B1B881BB213401BB29AB29D
:103BD000444B1A8080E06FF009037EE0414B1B8864
:103BE0001A46FB7942FA03F3DBB203F00103DAB2BF
:103BF0003B681A7070E0FB799B000133DB0003F532
:103C0000F8531846FFF7FAF803469B029AB23B684E
:103C10001A8061E0FB799B000133DB0003F5F05370
:103C20001846FFF7EBF803469B029AB23B681A80EE
:103C300052E03B681B781F2B02D96FF009034CE060
:103C4000FB799B000133DB0003F500731A463B68E8
:103C50001B7803F01F03DBB219461046FFF71AF971
:103C60003AE0FB799B000133DB0003F50073184653
:103C7000FFF7C4F8034603F01F03DAB23B681A707B
:103C80002AE03B681B781F2B02D96FF0090324E060
:103C9000FB799B000133DB0003F530531A463B6888
:103CA0001B7803F01F03DBB219461046FFF7F2F84A
:103CB00012E0FB799B000133DB0003F5305318461B
:103CC000FFF79CF8034603F01F03DAB23B681A7053
:103CD00002E06FF0090300E0012318461037BD46EB
:103CE00080BD00BFF005002080B400AF00BFBD461E
:103CF0005DF8047B704780B400AF00BFBD465DF83F
:103D0000047B704780B400AF00BFBD465DF8047B04
:103D1000704780B400AF00BFBD465DF8047B7047BC
:103D200080B483B000AF78607B681B78DBB2184644
:103D30000C37BD465DF8047B704780B483B000AF9C
:103D400078600B46FB707B68FA781A7000BF0C37FE
:103D5000BD465DF8047B704780B400AF0023184671
:103D6000BD465DF8047B704780B483B000AF034666
:103D7000FB7100BF0C37BD465DF8047B7047000047
:103D800080B483B000AF786039607B68002B02D0CC
:103D90003B68002B06D10A4B0A4A5A61084B0A4A73
:103DA0009A6106E0064A7B685361054A3B68936165
:103DB00000BF00BF0C37BD465DF8047B704700BFF5
:103DC00078000020053D0008133D000880B483B052
:103DD00000AF7860396000BF0F4B1B8803F400739D
:103DE000002BF9D07B68002B02D03B68002B06D15A
:103DF000094B0A4ADA61084B094A1A6206E0064A88
:103E00007B68D361044A3B68136200BF00BF0C3774
:103E1000BD465DF8047B704778000020593D0008DE
:103E2000693D000890B587B000AF03463960FB716B
:103E30000023FB750023FB6000233B61FB790F2B04
:103E400000F2C58001A252F823F000BF8D3E0008A9
:103E5000933E0008BF3E0008B33E0008CD3E000878
:103E6000D93E0008E73E00080D3F00082F3F00083C
:103E7000733F0008793F0008813F0008D53F0008E4
:103E8000893F0008973F0008B33F000800F0E8F8BA
:103E9000A1E03B68002B04D03B68FB60FB68083363
:103EA0003B61FB683A691146184600F025F9034664
:103EB00092E03B681B88184600F0AAF98BE000F0FE
:103EC000DBF903461A463B681A8084E03B681B888E
:103ED000184600F0F6F97EE000F00EFA03461A46A6
:103EE0003B681A8077E03B681B881B0A9BB2DBB2F9
:103EF00019464FF49850FEF7CDFF3B681B88DBB2A4
:103F000019464FF4A050FEF7C5FF64E04FF49850F7
:103F1000FEF774FF03461B029CB24FF4A050FEF75D
:103F20006DFF034623449AB23B681A8053E02C4B42
:103F30009A783B681A703B680133294AD2781A7024
:103F40003B680233264A12791A703B680333244ACD
:103F500052791A703B680433214A92791A703B688F
:103F600005331F4AD2791A703B68063300221A7053
:103F700031E000F013FA2EE0386800F036FA2AE05B
:103F8000386800F075FA26E03B681B78184600F0A8
:103F9000D9FA034620E000F0E8F90346FB75FB7D03
:103FA000FF2B02D14FF0FF3316E03B68FA7D1A7009
:103FB00011E000F0C4F90346FB75FB7DFF2B02D135
:103FC0004FF0FF3308E03B68FA7D1A7003E04FF0D2
:103FD000FF3301E000BF002318461C37BD4690BDEB
:103FE0007800002080B582B000AF03463960FB71D5
:103FF000FB79052B2CD801A252F823F015400008BC
:104000001D400008254000083340000841400008DA
:1040100049400008386800F0DFFA1CE0386800F01A
:104020001BFB18E03B681B78184600F055FB034665
:1040300012E000F073FB03461A463B681A700AE070
:10404000386800F073FB06E0386800F090FB02E08F
:104050004FF0FF3300E0002318460837BD4680BD0F
:1040600080B586B000AF3B1D062219464FF41060A4
:10407000FEF75EFF07F11403042219464FF4807027
:10408000FEF756FF07F11003042219464FF4A06013
:10409000FEF74EFF07F10C03042219464FF470603F
:1040A000FEF746FF80210020FEF7F4FE0020FEF719
:1040B000A5FE3B1D062219464FF41060FEF798FF3F
:1040C00007F11403042219464FF48070FEF790FFA5
:1040D00007F11003042219464FF4A060FEF788FF91
:1040E00007F10C03042219464FF47060FEF780FFBD
:1040F00000BF1837BD4680BD80B584B000AF786082
:1041000039600023BB73FFF7ABFF7B68002B3BD00C
:104110000023BB730023FB7315E097F90F307A6817
:1041200013441A78BB7B1344DBB2BB7397F90E3090
:10413000102B02DD4FF0FF3366E097F90F30DBB252
:104140000133DBB2FB7397F90F30072BE5DD00235A
:10415000FB7315E097F90F309B000133DB0003F58B
:10416000F853184697F90F307A6813441B781946AC
:10417000FEF790FE97F90F30DBB20133DBB2FB7331
:1041800097F90F30072BE5DD3B68002B3BD0002370
:10419000BB730023FB7315E097F90F303A681344A3
:1041A0001A78BB7B1344DBB2BB7397F90E30102B2C
:1041B00002DD4FF0FF3327E097F90F30DBB2013318
:1041C000DBB2FB7397F90F30072BE5DD0023FB73A0
:1041D00015E097F90F309B000133DB0003F5F05336
:1041E000184697F90F303A6813441B781946FEF7C2
:1041F00051FE97F90F30DBB20133DBB2FB7397F955
:104200000F30072BE5DD002318461037BD4680BD73
:1042100080B584B000AF0346FB80FB88FB73FB884E
:104220001B0A9BB2BB73FB7B23F00F03DBB2194667
:104230004FF4A850FEF72EFE0023FB7314E0BA7B68
:10424000FB7B42FA03F303F00103002B09D0FB7B55
:104250009B000133DB0003F500731F211846FEF7B6
:1042600019FEFB7B0133FB73FB7B072BE7D900BFF8
:1042700000BF1037BD4680BD80B582B000AF0023BF
:10428000FB710023BB710023BB804FF4A850FEF7E5
:10429000B5FD034623F00F03FB714FF4B850FEF752
:1042A000ADFD0346BB71BB79BB80BB881B029AB2D4
:1042B000FB799BB21344BB80BB8818460837BD46C8
:1042C00080BD80B584B000AF0346FB80FB88FB73E4
:1042D000FB881B0A9BB2BB73FB7B19464FF4B050A3
:1042E000FEF7D8FDBB7B19464FF4C050FEF7D2FD58
:1042F00000BF1037BD4680BD80B582B000AF00233F
:10430000FB710023BB710023BB804FF4B050FEF75C
:1043100075FD0346FB714FF4C050FEF76FFD034679
:10432000BB71BB79BB80BB881B029AB2FB799BB285
:104330001344BB80BB8818460837BD4680BD80B596
:1043400082B000AF0023FB714FF43850FEF756FDEA
:10435000034603F00103002B01D00123FB7197F901
:10436000073018460837BD4680BD80B582B000AF23
:104370000023FB714FF43850FEF740FD034603F075
:104380003803302B02D10123FB7101E00023FB71C4
:1043900097F9073018460837BD4680BD80B582B012
:1043A00000AF4FF43850FEF729FD0346FB71FB794F
:1043B00003F07F03FB71FB7919464FF43850FEF789
:1043C00069FD4FF43850FEF719FD0346FB71FB7988
:1043D00063F07F03FB71FB7919464FF43850FEF709
:1043E00059FD00BF0837BD4680BD80B584B000AF21
:1043F00078600023FB737B681B78012B04D1FB7B67
:1044000043F04003FB7303E0FB7B23F04003FB73AB
:104410007B685B78012B04D1FB7B43F03803FB7393
:1044200019E07B68DB78012B0DD17B689B78012B31
:1044300004D1FB7B43F01803FB730CE0FB7B43F0E0
:104440000803FB7307E07B689B78012B03D1FB7BA0
:1044500043F01003FB73FB7B19464FF43850FEF713
:1044600019FDFFF79BFF00BF1037BD4680BD000060
:1044700080B584B000AF78600023FB734FF43850F0
:10448000FEF7BCFC0346FB73FB7B9B11DBB203F026
:104490000103DAB27B681A70FB7B03F03803202B30
:1044A00001D0382B03D17B6801225A7003E07B686E
:1044B00000225A7000BFFB7B03F03803103B102B27
:1044C0008CBF01220022D2B2002A0FD11B4A22FA4D
:1044D00003F303F00103002B14BF01230023DBB21D
:1044E000002B03D07B6801229A7003E07B680022D6
:1044F0009A7000BFFB7B03F03803083B182B8CBF7E
:1045000001220022D2B2002A0FD10D4A22FA03F36F
:1045100003F00103002B14BF01230023DBB2002BA7
:1045200003D07B680122DA7003E07B680022DA7036
:1045300000BF00BF1037BD4680BD00BF01010100B4
:104540000100010180B584B000AF0346FB71002378
:10455000FB734FF43850FEF751FC0346FB73FB7BB3
:1045600003F04003002B02D14FF0FF3330E0FB7B20
:1045700023F03803FB73FB79012B04D1FB7B43F061
:104580003003FB7303E0FB7B43F03803FB73FB7BDF
:1045900019464FF43850FEF77DFCFFF7FFFE4FF44D
:1045A0003850FEF72BFC0346FB73FB79012B06D139
:1045B000FB7B03F03003002B08D0002308E0FB7BDB
:1045C00003F03803002B01D0002301E04FF0FF334C
:1045D00018461037BD4680BD80B582B000AF786008
:1045E0007B68062219464FF41060FEF701FD7B68D8
:1045F0000E33042219464FF48070FEF7F9FC7B68F5
:104600000A33042219464FF4A060FEF7F1FC7B68E0
:104610000633042219464FF47060FEF7E9FC7B680C
:104620009A7C0B4B1A707B68DA7C094B5A707B685A
:104630001A7D074B9A707B685A7D054BDA707B6850
:104640009A7D044B1A7000BF0837BD4680BD00BF7D
:104650000C0600201006002080B582B000AF786004
:104660007B68062219464FF41060FEF761FC7B68F8
:104670000E33042219464FF48070FEF759FC7B6814
:104680000A33042219464FF4A060FEF751FC7B6800
:104690000633042219464FF47060FEF749FC0C4BB8
:1046A0001A787B689A740A4B5A787B68DA74084BDC
:1046B0009A787B681A75064BDA787B685A75054BD1
:1046C0001A787B689A7500BF0837BD4680BD00BF69
:1046D0000C0600201006002080B584B000AF034611
:1046E000FB710023FB73FB7923F03A03002B02D00C
:1046F0004FF0FF330EE00020FEF780FB0346FB7314
:10470000FA7BFB791343FB73FB7B19460020FEF712
:10471000C1FB002318461037BD4680BD80B500AFF1
:104720000020FEF76BFB0346184680BD80B582B0C3
:1047300000AF78607B681B7819464FF4D850FEF7BD
:10474000A9FB7B685B881B0A9BB2DBB219464FF45E
:10475000C850FEF79FFB7B685B88DBB219464FF4BD
:10476000D050FEF797FB00BF0837BD4680BD90B51F
:1047700083B000AF78604FF4D850FEF73FFB03469C
:104780001A467B681A704FF4C850FEF737FB034691
:104790001B029CB24FF4D050FEF730FB034623447B
:1047A0009AB27B685A8000BF0C37BD4690BD0000AE
:1047B000DFF834D0FEF782F90C480D490D4A00238A
:1047C00002E0D458C4500433C4188C42F9D30A4AC6
:1047D0000A4C002301E013600432A242FBD308F02C
:1047E000C1FCFCF70FFE7047000002200000002013
:1047F000100100204CE5000810010020884B01202A
:10480000FEE7000080B500AF0E4B1B680D4A43F475
:10481000007313600B4B1B680A4A43F480631360F8
:10482000084B1B68074A43F480731360032000F0B1
:10483000FCF80F20FEF73AF8FDF77AFE0023184641
:1048400080BD00BF003C024080B400AF064B1B7827
:104850001A46064B1B681344044A136000BFBD464A
:104860005DF8047B704700BFA800002014060020FC
:1048700080B400AF034B1B681846BD465DF8047B4F
:10488000704700BF1406002080B584B000AF786088
:10489000FFF7EEFFB8607B68FB60FB68B3F1FF3F9A
:1048A00005D00A4B1B781A46FB681344FB6000BF17
:1048B000FFF7DEFF0246BB68D31AFA689A42F7D8C0
:1048C00000BF00BF1037BD4680BD00BFA80000205C
:1048D00080B485B000AF78607B6803F00703FB60AD
:1048E0000C4BDB68BB60BA684FF6FF031340BB603C
:1048F000FB681A02BB68134343F0BF6343F4003301
:10490000BB60044ABB68D36000BF1437BD465DF886
:10491000047B704700ED00E080B400AF044BDB681F
:104920001B0A03F007031846BD465DF8047B704779
:1049300000ED00E080B483B000AF0346FB7197F94F
:104940000730002B0BDBFB7903F01F02074997F9B7
:1049500007305B09012000FA02F241F8232000BF72
:104960000C37BD465DF8047B704700BF00E100E0F6
:1049700080B483B000AF03463960FB7197F907300C
:10498000002B0ADB3B68DAB20C4997F907301201B9
:10499000D2B20B4483F800230AE03B68DAB208493C
:1049A000FB7903F00F03043B1201D2B20B441A76D9
:1049B00000BF0C37BD465DF8047B704700E100E0A6
:1049C00000ED00E080B489B000AFF860B9607A60B3
:1049D000FB6803F00703FB61FB69C3F10703042BCA
:1049E00028BF0423BB61FB690433062B02D9FB6992
:1049F000033B00E000237B614FF0FF32BB6902FA0A
:104A000003F3DA43BB681A407B699A404FF0FF31E9
:104A10007B6901FA03F3D9437B680B4013431846C3
:104A20002437BD465DF8047B704780B582B000AF87
:104A300078607868FFF74CFF00BF0837BD4680BD3F
:104A400080B586B000AF0346B9607A60FB7300237F
:104A50007B61FFF761FF78617A68B9687869FFF771
:104A6000B1FF024697F90F3011461846FFF780FF55
:104A700000BF1837BD4680BD80B582B000AF034689
:104A8000FB7197F907301846FFF754FF00BF08374E
:104A9000BD4680BD80B586B000AF786000237B61E5
:104AA000FFF7E6FE38617B68002B01D1012399E016
:104AB0007B68022283F835207B68002283F834204B
:104AC0007B681B681A687B681B6822F001021A6009
:104AD0000FE0FFF7CDFE02463B69D31A052B08D93C
:104AE0007B6820225A657B68032283F835200323E4
:104AF00078E07B681B681B6803F00103002BE8D19A
:104B00007B681B681B687B617A69384B13407B614B
:104B10007B685A687B689B681A437B68DB681A432A
:104B20007B681B691A437B685B691A437B689B69D6
:104B30001A437B68DB691A437B681B6A13437A69F3
:104B400013437B617B685B6A042B07D17B68DA6A5D
:104B50007B681B6B13437A6913437B617B681B681B
:104B60007A691A607B681B685B697B617B6923F0EB
:104B700007037B617B685B6A7A6913437B617B68AF
:104B80005B6A042B17D17B689B6A7A6913437B614C
:104B90007B68DB6A002B0ED0786800F0E9F90346E9
:104BA000002B08D07B6840225A657B68012283F87D
:104BB0003520012316E07B681B687A695A617868A2
:104BC00000F0A0F90346FB607B68DB6D3F229A4052
:104BD000FB689A607B6800225A657B68012283F833
:104BE0003520002318461837BD4680BD3F8010F0A1
:104BF00080B586B000AF78600023BB608E4B1B6829
:104C00008E4AA2FB03239B0A7B617B689B6D3B6101
:104C10003B691B68FB607B68DB6D08229A40FB6880
:104C20001340002B1AD07B681B681B6803F0040339
:104C3000002B13D07B681B681A687B681B6822F006
:104C400004021A607B68DB6D08229A403B699A6017
:104C50007B685B6D43F001027B685A657B68DB6DA6
:104C600001229A40FB681340002B12D07B681B681E
:104C70005B6903F08003002B0BD07B68DB6D0122A6
:104C80009A403B699A607B685B6D43F002027B68E7
:104C90005A657B68DB6D04229A40FB681340002B49
:104CA00012D07B681B681B6803F00203002B0BD03B
:104CB0007B68DB6D04229A403B699A607B685B6D80
:104CC00043F004027B685A657B68DB6D10229A40D2
:104CD000FB681340002B43D07B681B681B6803F004
:104CE0000803002B3CD07B68DB6D10229A403B69A7
:104CF0009A607B681B681B6803F48023002B18D024
:104D00007B681B681B6803F40023002B08D17B68B9
:104D10001B6C002B24D07B681B6C786898471FE0C5
:104D20007B689B6C002B1BD07B689B6C78689847DA
:104D300016E07B681B681B6803F48073002B07D1A7
:104D40007B681B681A687B681B6822F008021A607F
:104D50007B681B6C002B03D07B681B6C78689847C2
:104D60007B68DB6D20229A40FB681340002B00F02B
:104D70008F807B681B681B6803F01003002B00F01A
:104D800087807B68DB6D20229A403B699A607B6854
:104D900093F83530DBB2052B36D17B681B681A6877
:104DA0007B681B6822F016021A607B681B685A69D0
:104DB0007B681B6822F080025A617B681B6C002BA9
:104DC00003D17B689B6C002B07D07B681B681A683B
:104DD0007B681B6822F008021A607B68DB6D3F224B
:104DE0009A403B699A607B68012283F835207B6892
:104DF000002283F834207B681B6D002B7ED07B68FB
:104E00001B6D7868984779E07B681B681B6803F422
:104E10008023002B1DD07B681B681B6803F40023D4
:104E2000002B0DD17B685B6C002B31D07B685B6CF9
:104E3000786898472CE000BF70000020B5814E1BB9
:104E40007B68DB6B002B23D07B68DB6B7868984733
:104E50001EE07B681B681B6803F48073002B0FD176
:104E60007B681B681A687B681B6822F010021A6056
:104E70007B68012283F835207B68002283F8342088
:104E80007B68DB6B002B03D07B68DB6B7868984713
:104E90007B685B6D002B32D07B685B6D03F0010398
:104EA000002B22D07B68052283F835207B681B68A5
:104EB0001A687B681B6822F001021A60BB68013324
:104EC000BB607A699A4207D37B681B681B6803F052
:104ED0000103002BF2D100E000BF7B68012283F8C0
:104EE00035207B68002283F834207B68DB6C002B44
:104EF00005D07B68DB6C7868984700E000BF183706
:104F0000BD4680BD80B485B000AF78607B681B680B
:104F1000DBB2103B144AA2FB03231B09FB60134ABC
:104F2000FB6813441B781A467B68DA65FB68032B21
:104F300009D97B681B6823F47F7323F003031A1DD0
:104F40007B689A6507E07B681B6823F47F7323F016
:104F500003037A6893657B689B6D18461437BD46DA
:104F60005DF8047B704700BFABAAAAAAECE4000876
:104F700080B485B000AF78600023FB737B689B6AC8
:104F8000BB607B689B69002B1FD1BB68032B56D885
:104F900001A252F823F000BFA94F0008BB4F000840
:104FA000A94F00083F5000087B68DB6A03F080735C
:104FB000002B46D00123FB7343E07B68DB6AB3F12F
:104FC000C07F40D10123FB733DE07B689B69B3F553
:104FD000005F21D1BB68032B37D801A252F823F020
:104FE000F14F0008F74F0008F14F00080950000882
:104FF0000123FB7330E07B68DB6A03F08073002BD6
:1050000025D00123FB7322E07B68DB6AB3F1C07F0C
:105010001FD10123FB731CE0BB68022B03D9BB68C3
:10502000032B03D018E00123FB7315E07B68DB6AD8
:1050300003F08073002B0ED00123FB730BE000BF45
:105040000AE000BF08E000BF06E000BF04E000BFC8
:1050500002E000BF00E000BFFB7B18461437BD46EE
:105060005DF8047B704700BF80B489B000AF786002
:10507000396000237B6100233B610023BB61002377
:10508000FB6165E10122FB6902FA03F37B613B6886
:105090001B687A6913403B613A697B699A4240F028
:1050A00054813B685B6803F00303012B05D03B6828
:1050B0005B6803F00303022B30D17B689B68BB6104
:1050C000FB695B00032202FA03F3DB43BA69134076
:1050D000BB613B68DA68FB695B0002FA03F3BA69FB
:1050E0001343BB617B68BA699A607B685B68BB618C
:1050F0000122FB6902FA03F3DB43BA691340BB6187
:105100003B685B681B0903F00102FB6902FA03F3C9
:10511000BA691343BB617B68BA695A603B685B68D4
:1051200003F00303032B17D07B68DB68BB61FB69CB
:105130005B00032202FA03F3DB43BA691340BB614D
:105140003B689A68FB695B0002FA03F3BA69134390
:10515000BB617B68BA69DA603B685B6803F0030394
:10516000022B23D1FB69DA087B68083253F822301E
:10517000BB61FB6903F007039B000F2202FA03F3F4
:10518000DB43BA691340BB613B681A69FB6903F0F2
:1051900007039B0002FA03F3BA691343BB61FB697F
:1051A000DA087B680832B96943F822107B681B680B
:1051B000BB61FB695B00032202FA03F3DB43BA69BC
:1051C0001340BB613B685B6803F00302FB695B0053
:1051D00002FA03F3BA691343BB617B68BA691A60C8
:1051E0003B685B6803F44033002B00F0AE80002383
:1051F000FB605D4B5B6C5C4A43F4804353645A4BE9
:105200005B6C03F48043FB60FB68584AFB699B08B6
:10521000023352F82330BB61FB6903F003039B00A8
:105220000F2202FA03F3DB43BA691340BB617B68C8
:105230004F4A934225D07B684E4A93421FD07B68E9
:105240004D4A934219D07B684C4A934213D07B68F5
:105250004B4A93420DD07B684A4A934207D07B6801
:10526000494A934201D106230CE007230AE00523B3
:1052700008E0042306E0032304E0022302E0012304
:1052800000E00023FA6902F0030292009340BA6939
:105290001343BB613549FB699B080233BA6941F886
:1052A00023203A4B9B68BB613B69DB43BA691340DF
:1052B000BB613B685B6803F48013002B03D0BA69C1
:1052C0003B691343BB61314ABB6993602F4BDB6879
:1052D000BB613B69DB43BA691340BB613B685B68F8
:1052E00003F40013002B03D0BA693B691343BB617D
:1052F000264ABB69D360254B5B68BB613B69DB43D6
:10530000BA691340BB613B685B6803F40033002B50
:1053100003D0BA693B691343BB611C4ABB69536044
:105320001A4B1B68BB613B69DB43BA691340BB6125
:105330003B685B6803F48033002B03D0BA693B6998
:105340001343BB61114ABB691360FB690133FB6105
:10535000FB690F2B7FF696AE00BF00BF2437BD461A
:105360005DF8047B704700BF003802400038014000
:10537000000002400004024000080240000C02400D
:10538000001002400014024000180240003C01409E
:1053900080B483B000AF78600B467B8013467B708F
:1053A0007B78002B03D07A887B689A6103E07B8846
:1053B0001A047B689A6100BF0C37BD465DF8047B18
:1053C000704780B485B000AF78600B467B807B6807
:1053D0005B69FB607A88FB6813401A04FB68D94359
:1053E0007B880B401A437B689A6100BF1437BD4627
:1053F0005DF8047B7047000080B584B000AF786032
:105400007B68002B01D101232BE17B6893F83D30B1
:10541000DBB2002B06D17B68002283F83C20786841
:10542000FDF7AEF87B68242283F83D207B681B687B
:105430001A687B681B6822F001021A607B681B688F
:105440001A687B681B6842F400421A607B681B681C
:105450001A687B681B6822F400421A6001F0E2F8C7
:10546000F8607B685B68814A934207D8FB68804A92
:10547000934294BF01230023DBB206E0FB687D4A20
:10548000934294BF01230023DBB2002B01D0012300
:10549000E7E0FB68784AA2FB03239B0CBB607B68B8
:1054A0001B685B6823F03F017B681B68BA680A438E
:1054B0005A607B681B681B6A23F03F017B685B684E
:1054C0006A4A934202D8BB68013309E0BB684FF4D3
:1054D000967202FB03F3694AA2FB03239B09013383
:1054E0007A6812680B4313627B681B68DB6923F4DC
:1054F0004F4222F0FF027B685B685C498B4219D8FF
:10550000FB68591E7B685B685B00B1FBF3F3591CB9
:1055100040F6FC730B40002B0AD0FB68591E7B68D9
:105520005B685B00B1FBF3F30133C3F30B0351E0A2
:1055300004234FE07B689B68002B11D1FB68581E49
:105540007B6859680B465B000B44B0FBF3F30133F7
:10555000C3F30B03002B0CBF01230023DBB212E0CB
:10556000FB68581E7B6859680B469B000B449900EA
:105570000B44B0FBF3F30133C3F30B03002B0CBF5D
:1055800001230023DBB2002B01D0012322E07B6842
:105590009B68002B0ED1FB68581E7B6859680B4630
:1055A0005B000B44B0FBF3F30133C3F30B0343F491
:1055B00000430FE0FB68581E7B6859680B469B0050
:1055C0000B4499000B44B0FBF3F30133C3F30B031B
:1055D00043F44043796809681343CB617B681B68D7
:1055E0001B6823F0C0017B68DA697B681B6A1A4379
:1055F0007B681B680A431A607B681B689B6823F4FE
:10560000034323F0FF037A6811697A68D268114373
:105610007A6812680B4393607B681B68DB6823F031
:10562000FF017B685A697B689B691A437B681B682A
:105630000A43DA607B681B681A687B681B6842F063
:1056400001021A607B6800221A647B68202283F8BA
:105650003D207B6800221A637B68002283F83E208D
:10566000002318461037BD4680BD00BFA08601004C
:105670007F841E00FF083D0083DE1B43D34D621074
:1056800080B588B002AFF860084611461A46034656
:105690007B810B463B811346FB80FFF7E9F878617D
:1056A000FB6893F83D30DBB2202B40F0D9807B695A
:1056B0000093192301226D49F86800F08BFC034622
:1056C000002B01D00223CCE0FB6893F83C30012B87
:1056D00001D10223C5E0FB68012283F83C20FB686E
:1056E0001B681B6803F00103012B07D0FB681B68D4
:1056F0001A68FB681B6842F001021A60FB681B68AD
:105700001A68FB681B6822F400621A60FB68212299
:1057100083F83D20FB68402283F83E20FB6800228E
:105720001A64FB683A6A5A62FB68BA8C5A85FB684D
:105730005B8D9AB2FB681A85FB684D4ADA62F8887D
:105740003A8979897B690193BB6A00930346F868BB
:1057500000F0C2FA0346002B52D0012381E07A699F
:10576000B96AF86800F050FD0346002B0DD0FB68C5
:105770001B6C042B07D1FB681B681A68FB681B684D
:1057800042F400721A6001236BE0FB685B6A1A78CE
:10579000FB681B681A61FB685B6A5A1CFB685A62EB
:1057A000FB681B8D013B9AB2FB681A85FB685B8D19
:1057B0009BB2013B9AB2FB685A85FB681B685B6928
:1057C00003F00403042B1BD1FB681B8D002B17D0A7
:1057D000FB685B6A1A78FB681B681A61FB685B6A86
:1057E0005A1CFB685A62FB681B8D013B9AB2FB682E
:1057F0001A85FB685B8D9BB2013B9AB2FB685A85A8
:10580000FB681B8D002BAAD17A69B96AF86800F091
:1058100043FD0346002B0DD0FB681B6C042B07D106
:10582000FB681B681A68FB681B6842F400721A6008
:10583000012316E0FB681B681A68FB681B6842F4CA
:1058400000721A60FB68202283F83D20FB6800226A
:1058500083F83E20FB68002283F83C20002300E010
:10586000022318461837BD4680BD00BF0200100055
:105870000000FFFF80B58CB002AFF860084611460B
:105880001A4603467B810B463B811346FB80FEF79D
:10589000EFFF7862FB6893F83D30DBB2202B40F0DD
:1058A00014827B6A0093192301227B49F86800F077
:1058B00091FB0346002B01D0022307E2FB6893F81B
:1058C0003C30012B01D1022300E2FB68012283F866
:1058D0003C20FB681B681B6803F00103012B07D009
:1058E000FB681B681A68FB681B6842F001021A60BB
:1058F000FB681B681A68FB681B6822F400621A6068
:10590000FB68222283F83D20FB68402283F83E207A
:10591000FB6800221A64FB683A6B5A62FB68BA8E15
:105920005A85FB685B8D9AB2FB681A85FB685B4AF7
:10593000DA62F8883A8979897B6A0193BB6B0093B4
:105940000346F86800F05EFA0346002B01D00123FD
:10595000BCE1FB681B8D002B13D100233B62FB686D
:105960001B685B693B62FB681B689B693B623B6A27
:10597000FB681B681A68FB681B6842F400721A60B7
:1059800090E1FB681B8D012B1BD1FB681B681A681B
:10599000FB681B6822F480621A600023FB61FB68CD
:1059A0001B685B69FB61FB681B689B69FB61FB69AA
:1059B000FB681B681A68FB681B6842F400721A6077
:1059C00070E1FB681B8D022B1BD1FB681B681A68FA
:1059D000FB681B6822F480621A60FB681B681A6807
:1059E000FB681B6842F400621A600023BB61FB681D
:1059F0001B685B69BB61FB681B689B69BB61BB691A
:105A000050E100237B61FB681B685B697B61FB687D
:105A10001B689B697B617B6944E1FB681B8D032BE1
:105A200000F2F180FB681B8D012B23D17A6AB96BE0
:105A3000F86800F079FC0346002B01D0012345E112
:105A4000FB681B681A69FB685B6AD2B21A70FB6854
:105A50005B6A5A1CFB685A62FB681B8D013B9AB259
:105A6000FB681A85FB685B8D9BB2013B9AB2FB68B1
:105A70005A8517E1FB681B8D022B4ED17B6A009380
:105A8000BB6B00220649F86800F0A4FA0346002B1D
:105A900008D001231AE100BF020010000000FFFF40
:105AA00004000100FB681B681A68FB681B6842F46D
:105AB00000721A60FB681B681A69FB685B6AD2B2E5
:105AC0001A70FB685B6A5A1CFB685A62FB681B8D84
:105AD000013B9AB2FB681A85FB685B8D9BB2013B68
