:020000040800F2
:1000000000000220454F0008553400085D34000808
:10001000653400086D3400087534000800000000E5
:1000200000000000000000000000000051B30008C4
:100030007D34000800000000B1B6000819B70008C0
:10004000954F0008954F0008954F0008954F000800
:10005000954F0008954F0008954F0008954F0008F0
:10006000954F0008954F0008954F00088D34000803
:10007000954F0008954F0008954F0008954F0008D0
:10008000954F0008A1340008954F0008954F0008CF
:10009000954F0008954F0008954F0008954F0008B0
:1000A000954F0008954F0008954F0008954F0008A0
:1000B000954F0008954F0008954F0008954F000890
:1000C000954F0008954F0008954F0008954F000880
:1000D000954F0008954F0008954F0008954F000870
:1000E000954F0008954F0008954F0008954F000860
:1000F000954F0008954F0008954F0008954F000850
:10010000954F0008954F0008954F0008954F00083F
:10011000954F0008954F0008B5340008954F00082A
:10012000954F0008954F0008954F0008954F00081F
:10013000954F00080000000000000000954F0008E7
:10014000954F0008954F0008954F0008954F0008FF
:10015000954F0008954F0008954F0008954F0008EF
:10016000954F0008954F0008954F0008954F0008DF
:10017000954F0008954F0008954F000800000000BB
:1001800000000000954F0008000000000000000083
:10019000954F00080000000000000000954F000887
:1001A000000000000000000000000000954F000863
:1001B000954F0008954F0008954F0008954F00088F
:0401C000954F00084F
:1001D00010B5054C237833B9044B13B10448AFF381
:1001E00000800123237010BDC0000020000000002B
:1001F000F4E9000808B5034B1BB103490348AFF30A
:10020000008008BD00000000C4000020F4E90008E0
:10021000F0B400EB4003DFF8880000EBC30000F10E
:1002200018063069F7687568874232D3B368DC1BFB
:10023000631E934214D37D19D01900BF11F8013BFE
:1002400005F8013B013A05D011F8013B05F8013BE7
:10025000013AF3D1BFF35F8FF0600120F0BC70472B
:10026000C018904219D37819121B11F8013B00F8FD
:10027000013B013CF9D1141C05D011F8013B05F8F4
:10028000013B013AF9D1BFF35F8FF4600120F0BC6C
:100290007047C01B01389042CDD20020F0BC70479F
:1002A0002834012010F8012B11F8013B012A28BF46
:1002B0009A42F7D0D01A70470000000000000000FA
:1002C00001F0FF01102A2BDB10F0070F08D010F807
:1002D000013B013A8B422DD010F0070F42B3F6D10B
:1002E000F0B441EA012141EA014122F007047FF024
:1002F00000070023F0E80256083C85EA010586EA7B
:10030000010685FA47F5A3FA87F586FA47F6A5FAB6
:1003100087F68EB9EED1F0BC01F0FF0102F00702C2
:1003200032B110F8013B013A83EA010313B1F8D16D
:100330000020704701387047002D06BF354603384E
:10034000073815F0010F07D1013015F4807F02BF87
:10035000013015F4C03F0130F0BC0138704700BFD8
:1003600070B54FF0FF0C4CF4E06C1CEA11541DBF4B
:100370001CEA135594EA0C0F95EA0C0F00F0DEF816
:100380002C4481EA030621EA4C5123EA4C5350EAFB
:10039000013518BF52EA033541F4801143F480134C
:1003A00038D0A0FB02CE4FF00005E1FB02E506F0DD
:1003B0000042E0FB03E54FF00006E1FB03569CF032
:1003C000000F18BF4EF0010EA4F1FF04B6F5007F38
:1003D00064F5407404D25FEA4E0E6D4146EB0606AA
:1003E00042EAC62141EA55514FEAC52040EA5E5033
:1003F0004FEACE2EB4F1FD0C88BFBCF5E06F1ED8DD
:10040000BEF1004F08BF5FEA500E50F1000041EB13
:10041000045170BD06F0004646EA010140EA0200C0
:1004200081EA0301B4EB5C04C2BFD4EB0C0541EAE2
:10043000045170BD41F480114FF0000E013C00F3F7
:10044000AB8014F1360FDEBF002001F0004170BD1B
:10045000C4F10004203C35DA0C341BDC04F1140434
:10046000C4F1200500FA05F320FA04F001FA05F2C0
:1004700040EA020001F0004221F0004110EBD3708D
:1004800021FA04F642EB06015EEA430E08BF20EAB9
:10049000D37070BDC4F10C04C4F1200500FA04F35C
:1004A00020FA05F001FA04F240EA020001F00041EE
:1004B00010EBD37041F100015EEA430E08BF20EA61
:1004C000D37070BDC4F1200500FA05F24EEA020EA9
:1004D00020FA04F301FA05F243EA020321FA04F0D8
:1004E00001F0004121FA04F220EA020000EBD3708F
:1004F0005EEA430E08BF20EAD37070BD94F0000F8F
:100500000FD101F00046400041EB010111F4801FC2
:1005100008BF013CF7D041EA060195F0000F18BF73
:10052000704703F00046520043EB030313F4801FAF
:1005300008BF013DF7D043EA0603704794EA0C0F69
:100540000CEA135518BF95EA0C0F0CD050EA41067F
:1005500018BF52EA4306D1D181EA030101F00041FC
:100560004FF0000070BD50EA410606BF1046194624
:1005700052EA430619D094EA0C0F02D150EA013630
:1005800013D195EA0C0F05D152EA03361CBF104671
:1005900019460AD181EA030101F0004141F0FE4110
:1005A00041F470014FF0000070BD41F0FE4141F494
:1005B000780170BD81F0004102E000BF83F000438C
:1005C00030B54FEA41044FEA430594EA050F08BFEE
:1005D00090EA020F1FBF54EA000C55EA020C7FEAB2
:1005E000645C7FEA655C00F0E2804FEA5454D4EB2F
:1005F0005555B8BF6D420CDD2C4480EA020281EAF9
:10060000030382EA000083EA010180EA020281EA30
:100610000303362D88BF30BD11F0004F4FEA013182
:100620004FF4801C4CEA113102D0404261EB410191
:1006300013F0004F4FEA03334CEA133302D0524217
:1006400063EB430394EA050F00F0A780A4F10104D3
:10065000D5F1200E0DDB02FA0EFC22FA05F280180D
:1006600041F1000103FA0EF2801843FA05F35941F3
:100670000EE0A5F120050EF1200E012A03FA0EFC72
:1006800028BF4CF0020C43FA05F3C01851EBE3719C
:1006900001F0004507D54FF0000EDCF1000C7EEBB9
:1006A00000006EEB0101B1F5801F1BD3B1F5001FF7
:1006B0000CD349085FEA30004FEA3C0C04F1010416
:1006C0004FEA445212F5800F80F09A80BCF1004F3F
:1006D00008BF5FEA500C50F1000041EB045141EAC1
:1006E000050130BD5FEA4C0C404141EB0101013C8A
:1006F00028BFB1F5801FE9D291F0000F04BF014679
:100700000020B1FA81F308BF2033A3F10B03B3F14A
:1007100020020CDA0C3208DD02F1140CC2F10C02DA
:1007200001FA0CF021FA02F10CE002F11402D8BF38
:10073000C2F1200C01FA02F120FA0CFCDCBF41EA04
:100740000C019040E41AA2BF01EB0451294330BDD3
:100750006FEA04041F3C1CDA0C340EDC04F11404B0
:10076000C4F1200220FA04F001FA02F340EA030087
:1007700021FA04F345EA030130BDC4F10C04C4F1CD
:10078000200220FA02F001FA04F340EA03002946AD
:1007900030BD21FA04F0294630BD94F0000F83F4F7
:1007A000801306BF81F480110134013D4EE77FEADA
:1007B000645C18BF7FEA655C29D094EA050F08BF26
:1007C00090EA020F05D054EA000C04BF1946104607
:1007D00030BD91EA030F1EBF0021002030BD5FEA4B
:1007E000545C05D14000494128BF41F0004130BD73
:1007F00014F580043CBF01F5801130BD01F00045C7
:1008000045F0FE4141F470014FF0000030BD7FEA39
:10081000645C1ABF194610467FEA655C1CBF0B4634
:10082000024650EA013406BF52EA033591EA030F4B
:1008300041F4002130BD00BF90F0000F04BF002143
:10084000704730B54FF4806404F132044FF0000576
:100850004FF0000150E700BF90F0000F04BF0021EF
:10086000704730B54FF4806404F1320410F0004555
:1008700048BF40424FF000013EE700BF42004FEA50
:10088000E2014FEA31014FEA02701FBF12F07F43CD
:1008900093F07F4F81F06051704732F07F4208BF84
:1008A000704793F07F4F04BF41F40021704730B58B
:1008B0004FF4607401F0004521F000411CE700BFD7
:1008C00050EA010208BF704730B54FF000050AE05A
:1008D00050EA010208BF704730B511F0004502D55B
:1008E000404261EB41014FF4806404F132045FEA5D
:1008F000915C3FF4D8AE4FF003025FEADC0C18BF06
:1009000003325FEADC0C18BF033202EBDC02C2F1F7
:10091000200300FA03FC20FA02F001FA03FE40EA89
:100920000E0021FA02F11444BDE600BF4FF0FF3C77
:1009300006E000BF4FF0010C02E000BF4FF0010CD9
:100940004DF804CD4FEA410C7FEA6C5C4FEA430C52
:1009500018BF7FEA6C5C1BD001B050EA410C0CBFA1
:1009600052EA430C91EA030F02BF90EA020F002003
:10097000704710F1000F91EA030F58BF994208BF6A
:1009800090422CBFD8176FEAE37040F00100704727
:100990004FEA410C7FEA6C5C02D150EA013C07D17E
:1009A0004FEA430C7FEA6C5CD6D152EA033CD3D0C9
:1009B0005DF8040B704700BF8446104662468C46C3
:1009C0001946634600E000BF01B5FFF7B7FF0028F6
:1009D00048BF10F1000F01BD4DF808EDFFF7F4FF1F
:1009E0000CBF012000205DF808FB00BF4DF808EDAA
:1009F000FFF7EAFF34BF012000205DF808FB00BFCD
:100A00004DF808EDFFF7E0FF94BF012000205DF8EE
:100A100008FB00BF4DF808EDFFF7CEFF94BF0120A3
:100A200000205DF808FB00BF4DF808EDFFF7C4FF9C
:100A300034BF012000205DF808FB00BF4A0011D23E
:100A400012F5001211D20DD56FF47873B3EB625228
:100A50000ED44FEAC12343F0004343EA505323FA34
:100A600002F070474FF00000704750EA013002D1A9
:100A70004FF0FF3070474FF0000070474FEA4102DF
:100A8000B2F1E04324BFB3F5001CDCF1FE5C0DD9EC
:100A900001F0004C4FEAC0024CEA5070B2F1004F36
:100AA00040EB830008BF20F00100704711F0804F39
:100AB00021D113F13872BCBF01F00040704741F4FE
:100AC00080114FEA5252C2F11802C2F1200C10FA02
:100AD0000CF320FA02F018BF40F001004FEAC123E6
:100AE0004FEAD32303FA0CFC40EA0C0023FA02F38A
:100AF0004FEA4303CCE77FEA625307D150EA013360
:100B00001EBF4FF0FE4040F44000704701F000402F
:100B100040F0FE4040F40000704700BF53B94AB9AE
:100B2000002908BF00281CBF4FF0FF314FF0FF30F5
:100B300000F06AB9ADF1080C6DE904CE00F006F8DA
:100B4000DDF804E0DDE9022304B070472DE9F04749
:100B5000089D0C46002B4ED194468C458646B2FA31
:100B600082F262D94AB1C2F12003914020FA03F324
:100B70000CFA02FC194300FA02FE4FEA1C471FFA66
:100B80008CF6B1FBF7F44FEA1E4307FB141143EA5E
:100B9000014304FB06F199420AD91CEB030304F15B
:100BA000FF3080F01281994240F20F81023C634491
:100BB000591A1FFA8EF3B1FBF7F007FB101143EA45
:100BC000014300FB06F69E420AD91CEB030300F129
:100BD000FF3180F0FC809E4240F2F980634402388D
:100BE0009B1B40EA044000211DB1D3400022C5E90F
:100BF0000032BDE8F0878B4205D90DB1C5E900018F
:100C000000210846F5E7B3FA83F1002946D1A34253
:100C100002D39042C0F0F080861A64EB03030120F7
:100C2000002DE6D0C5E90063E3E7002A40F090809C
:100C3000A1EB0C044FEA1C481FFA8CF70121B4FB0E
:100C4000F8F64FEA1E4308FB164443EA044307FB49
:100C500006F0984208D91CEB030306F1FF3402D2D8
:100C6000984200F2CD8026461C1A1FFA8EF3B4FB80
:100C7000F8F008FB104443EA044300FB07F79F42E7
:100C800008D91CEB030300F1FF3402D29F4200F2AB
:100C9000B0802046DB1B40EA0640A5E7C1F12006F4
:100CA0008B4022FA06F71F4320FA06FC04FA01F3F0
:100CB00043EA0C03F44000FA01F8380C4FEA1349F8
:100CC000B4FBF0FE1FFA87FC00FB1E4449EA044413
:100CD0000EFB0CF9A14502FA01F20AD93C190EF1FA
:100CE000FF3A80F08480A14540F28180AEF1020E8F
:100CF0003C44A4EB09041FFA83F9B4FBF0F300FBB6
:100D0000134449EA044403FB0CFCA44507D93C19ED
:100D100003F1FF3067D2A44565D9023B3C4443EA66
:100D20000E40A0FB0293A4EB0C049C42CE469C46D2
:100D300051D34ED055B1B8EB0E0364EB0C0404FA5A
:100D400006F6CB401E43CC40C5E90064002150E7C5
:100D5000C2F1200320FA03F10CFA02FC24FA03F397
:100D600094400C434FEA1C4800FA02FE1FFA8CF72D
:100D7000B3FBF8F008FB1031230C43EA014300FBFE
:100D800007F1994208D91CEB030300F1FF362CD27E
:100D900099422AD9023863445B1AA4B2B3FBF8F132
:100DA00008FB113344EA034401FB07F3A34208D9CB
:100DB0001CEB040401F1FF3613D2A34211D902390E
:100DC0006444E41A41EA004139E70446F0E6084683
:100DD00006E7C845AED2B9EB020E63EB070C01384B
:100DE000A8E73146EDE7034699E73046D4E7D64613
:100DF0007FE7634402384DE70646234608460FE77F
:100E0000023E634430E700BF704700BF80B485B046
:100E100000AF78600B46FB700023BB730023FB73AD
:100E200009E0FB7B7A6813441A78BB7B1344BB73DD
:100E3000FB7B0133FB73FA7BFB789A42F1D3BB7BDC
:100E4000DB43BB73BB7B18461437BD465DF8047BA0
:100E50007047000080B58AB004AF03463960FB716B
:100E60001346BB710C4A07F10C0307CA03C31A806F
:100E7000FB799AB2BB799BB24FF0FF31029101939B
:100E80003B68009301231021044804F0C3FF00BF16
:100E90001837BD4680BD00BF0CEA0008480100209D
:100EA00080B58AB004AF03463960FB711346BB714D
:100EB00000237B610C4A07F1080307CA03C31A80A9
:100EC000FB799AB2BB799BB24FF0FF31029101934B
:100ED0003B68009301231021044805F095F8002396
:100EE00018461837BD4680BD0CEA000848010020AE
:100EF00080B586B000AF03463960FB8013467B7136
:100F00000023BB82624A07F10C0392E803001860D9
:100F100004331980FB88DBB23B73FB881B0A9BB24E
:100F2000DBB27B733B68DBB2BB737B79042B7DD078
:100F3000042B00F3A880012B02D0022B39D0A2E0B1
:100F400007F10C03032219463E20FFF783FF4FF4FD
:100F5000FA6000F0C9FD07F10C0303211846FFF702
:100F600055FF03463B7505237B75FF23FB72FF236B
:100F7000BB7207F10B03012219463E20FFF790FFD9
:100F800007F10A03012219463F20FFF789FFFB7A88
:100F9000FF2B02D1BB7AFF2BEBD007F11403022207
:100FA00019466020FFF756FF4FF4FA6000F09CFDF1
:100FB00069E03B681B0ADBB2FB7307F10C030422F8
:100FC00019463E20FFF746FF4FF4FA6000F08CFD13
:100FD00007F10C0304211846FFF718FF03463B7581
:100FE00006237B75FF23FB72FF23BB7207F10B0304
:100FF000012219463E20FFF753FF07F10A030122A1
:1010000019463F20FFF74CFFFB7AFF2B02D1BB7A3A
:10101000FF2BEBD007F11403022219466020FFF7E3
:1010200019FF4FF4FA6000F05FFD2CE03B681B0AEB
:10103000DBB2FB733B681B0CDBB23B743B681B0EE3
:10104000DBB27B7407F10C03062219463E20FFF742
:1010500001FF4FF4FA6000F047FD07F10C03062191
:101060001846FFF7D3FE03463B7508237B7507F14F
:101070001403022219466020FFF7ECFE4FF4FA60D9
:1010800000F032FD00BF00BF1837BD4680BD00BF75
:1010900018EA000880B586B000AF0346FB80002345
:1010A000BB8200233B82FB88DBB23B75FB881B0ABB
:1010B0009BB2DBB27B7507F11403022219463E2076
:1010C000FFF7C8FE4FF4FA6000F00EFDFF23FB733C
:1010D000FF23BB7307F10F03012219463E20FFF7E0
:1010E000DFFE07F10E03012219463F20FFF7D8FE6D
:1010F000FB7BFF2B02D1BB7BFF2BEBD007F1100357
:10110000022219464020FFF7CBFE3A7C084B1A70AA
:101110007A7C074B5A707B7C1B021AB23B7C1BB259
:1011200013431BB2FB82FB8A18461837BD4680BDAD
:10113000DC00002080B584B000AF0346FB800023B4
:10114000BB81FB88DBB23B73FB881B0A9BB2DBB223
:101150007B7307F10C03022219463E20FFF77AFE4B
:101160004FF4FA6000F0C0FC00BF1037BD4680BDF0
:1011700080B586B000AF0346FB800B46BB801346AC
:10118000FB7000237B6100233B8207F10F030122E8
:1011900019463E20FFF784FE07F10E03012219468F
:1011A0003F20FFF77DFEFB88DBB23B75FB881B0A07
:1011B0009BB2DBB27B75FB78002B20D107F11403C7
:1011C000022219463E20FFF745FE07F10F030122D8
:1011D00019463E20FFF764FE07F10E03012219466F
:1011E0003F20FFF75DFEFB7BFF2B02D1BB7BFF2B7C
:1011F000EBD020222D494020FFF752FE51E0FB7832
:10120000012B23D1BB88DBB2BB7507F1140303228A
:1012100019463E20FFF71EFE4FF47A7000F064FC82
:1012200007F1140303211846FFF7F0FD03463B7452
:1012300005237B7407F11003022219466020FFF793
:1012400009FE4FF47A7000F04FFC2AE0FB78022B85
:1012500027D1BB88DBB2BB75BB881B0A9BB2DBB254
:10126000FB7507F11403042219463E20FFF7F2FD37
:101270004FF47A7000F038FC07F11403042118468B
:10128000FFF7C4FD03463B7406237B7407F110038C
:10129000022219466020FFF7DDFD4FF47A7000F05E
:1012A00023FC00BF1837BD4680BD00BFE000002012
:1012B00080B584B000AF0346FB710B46BB8013467C
:1012C000BB710023BB81BB88DBB23B73BB881B0AAD
:1012D0009BB2DBB27B73BB79002B09D1FB79022275
:1012E0000C491846FFF7DCFD4FF4FA6000F0FCFBF8
:1012F000BB79012B0AD107F10C01FB7902221846B8
:10130000FFF7A8FD4FF4FA6000F0EEFB00BF1037C6
:10131000BD4680BDDC00002080B500AF9020FFF707
:1013200009FF02224FF4365149F23420FFF7E0FD65
:101330000122012149F23720FFF7DAFD01220D21B8
:1013400049F23620FFF7D4FD0122AA2149F2FC2000
:10135000FFF7CEFD0122072149F2FD20FFF7C8FD6E
:101360000122072149F2FF20FFF7C2FD01220021DF
:101370004FF41340FFF7BCFD022248F21F0149F26F
:101380000430FFF7B5FD0122BC2149F26120FFF7CF
:10139000AFFD0122F72149F26220FFF7A9FD0222E9
:1013A0004FF6FF7149F26D20FFF7A2FD01223121B6
:1013B00049F27520FFF79CFD0122552149F2782062
:1013C000FFF796FD0122022149F28020FFF790FDF0
:1013D0000122032149F28220FFF78AFD0122012127
:1013E00049F28620FFF784FD0122032149F287207C
:1013F000FFF77EFD0122012149F29520FFF778FDDC
:101400000222502149F24330FFF772FD01223F21B1
:1014100049F20830FFF76CFD0122052149F2033043
:10142000FFF766FD012203219720FFF7A1FE92201E
:10143000FFF780FE00BF80BD80B500AF0022002115
:101440006220FFF735FF054B5B781B029BB2034A16
:10145000127813449BB2184680BD00BFDC00002008
:1014600080B500AF002200210320FFF721FF274BAA
:101470001A78274B1A70254B1B789B08DBB203F0B8
:101480000103DAB2234B1A70204B1B78DB08DBB266
:1014900003F00103DAB2204B1A701C4B5B78DB08B7
:1014A000DBB203F00103DAB21C4B1A70174B5B7806
:1014B0005B08DBB203F00103DAB2194B1A700022A9
:1014C00000210520FFF7F4FE104B1A78154B1A7017
:1014D000002200210720FFF7EBFE0C4B1A78124B7D
:1014E0001A700B4B1B781A460E4B1B7813440E4A8E
:1014F00012781344012B03DD0C4B01221A7002E019
:101500000A4B00221A7000BF80BD00BFDC00002023
:10151000300100203301002034010020350100207B
:101520003601002031010020320100203701002067
:1015300080B582B000AF03463960FB71FB790022B1
:1015400000211846FFF7B4FEFB79132B0BD9FB796A
:10155000322B08D80C4B5B781B029BB20A4A1278DC
:1015600013449BB20BE0084B5B781B02064A1278CF
:1015700013449BB21A46920013445B009BB2184678
:101580000837BD4680BD00BFDC00002080B584B0B8
:1015900000AF78601423FB600023BB6011E0FB68A0
:1015A000DBB279681846FFF7C3FF03461946144AB1
:1015B000BB6822F81310FB680233FB60BB68013381
:1015C000BB60BB680F2BEADD79683420FFF7B0FF02
:1015D00003461A467B681A8279683620FFF7A8FF0F
:1015E00003461A467B685A8279683820FFF7A0FFC5
:1015F00003461A467B689A8200BF1037BD4680BDFD
:101600000001002080B500AF002200213A20FFF742
:101610004FFE054B5B781B029BB2034A12781344C2
:101620009BB2184680BD00BFDC0000200000000017
:1016300080B582B000AF0346FB71FB790022002128
:101640001846FFF735FE1A4B5B781B02184A1278D2
:10165000134407EE903AF8EEE77A17EE900AFFF798
:101660000DF90FA3D3E90023FEF77AFE02460B46DD
:10167000104619460CA3D3E90023FEF79FFF02464C
:101680000B4610461946FFF7F9F9034607EE903A64
:10169000B0EE670A0837BD4680BD00BFAFF30080DB
:1016A0009A9999999999B93F6666666666127140EA
:1016B000DC00002080B582B000AF0022002176203F
:1016C000FFF756FD2D4BDB781A062C4B9B781B043D
:1016D0001A432A4B5B781B021343284A12781343A0
:1016E0001A46274B1A60254BDB791A06234B9B7948
:1016F0001B041A43214B5B791B0213431F4A1279C7
:1017000013431A461F4B1A601C4BDB7A1A061B4BFD
:101710009B7A1B041A43194B5B7A1B021343174A2B
:10172000127A13431A46184B1A60154B1B6807EEC2
:10173000903AB8EEE77A134B1B6807EE903AF8EE52
:10174000E76A9FED126AC6EE867A77EE277AC7EDD2
:10175000017A97ED017ADFED0E6AC7EE267AC7EDC2
:10176000007A0C4A7B6813600A4B1B6807EE903ABC
:10177000B0EE670A0837BD4680BD00BFE00000201C
:10178000380100203C010020400100200000804F73
:1017900000007A444401002080B400AF0D4B1B7858
:1017A000002B0DD00C4B1B78002B07D10B4B1B785B
:1017B000002B03D10A4B1B78002B01D0012300E042
:1017C000002303F00103DBB21846BD465DF8047B3D
:1017D000704700BF37010020340100203501002090
:1017E0003601002080B400AF0D4B1B78002B0DD0CC
:1017F0000C4B1B78002B07D10B4B1B78002B03D114
:101800000A4B1B78002B01D0012300E0002303F0DA
:101810000103DBB21846BD465DF8047B704700BF8C
:10182000370100203301002035010020360100205F
:1018300080B582B000AF78607B68DB7883F001030D
:10184000DBB2002B0DD0FFF7A7FF034683F00103A7
:10185000DBB2002B05D07B685B78002B01D0012325
:1018600000E0002303F00103DBB218460837BD4651
:1018700080BD80B582B000AF78607B681B7983F053
:101880000103DBB2002B0DD0FFF7ACFF034683F062
:101890000103DBB2002B05D07B689B78002B01D0C5
:1018A000012300E0002303F00103DBB218460837F0
:1018B000BD4680BD80B582B000AF78607B681B7884
:1018C000042B7ED801A252F823F000BFE1180008D3
:1018D00015190008491900087D190008B1190008F8
:1018E0007868FFF7C6FF0346002B06D09620FFF767
:1018F00021FC7B6802221A705CE07868FFF798FF91
:101900000346002B56D09620FFF714FC7B6801227B
:101910001A704FE07868FFF78BFF034683F00103EE
:10192000DBB2002B03D07B6800221A7044E0786899
:10193000FFF79FFF0346002B3ED09620FFF7FAFBF0
:101940007B6803221A7037E07868FFF792FF03463E
:1019500083F00103DBB2002B03D07B6800221A70F6
:101960002CE07868FFF764FF0346002B26D0962012
:10197000FFF7E0FB7B6803221A701FE07868FFF72F
:1019800078FF034683F00103DBB2002B03D07B68B2
:1019900001221A7014E07868FFF74AFF034683F0CB
:1019A0000103DBB2002B0BD07B6802221A7007E028
:1019B00000BF06E000BF04E000BF02E000BF00E09F
:1019C00000BF00BF0837BD4680BD00BF80B48BB0EC
:1019D00000AFF860B9601346FB80BB68002B01D1F3
:1019E00000237BE0FB681B88FA889A4202D8FB68D8
:1019F0005B8873E0BB6803F18043013B9B00FA689E
:101A000013441B88FA889A4208D3BB6803F18043C9
:101A1000013B9B00FA6813445B885FE000233B6254
:101A200055E03B6A9B00FA6813441B88FB833B6AC2
:101A300001339B00FA6813441B88BB83FA88FB8B35
:101A40009A4241D3FA88BB8B9A423DD83B6A9B00AD
:101A5000FA6813445B887B833B6A01339B00FA6816
:101A600013445B883B83FA88FB8B9A4201D17B8BC2
:101A700034E0FA88FB8BD31AFB82BA8BFB8BD31A28
:101A8000BB823A8B7B8B9A420ED93A8B7B8BD31AD3
:101A9000FA8A03FB02F2BB8A92FBF3F37B827A8B16
:101AA0007B8A1344FB840DE07A8B3B8BD31AFA8A32
:101AB00003FB02F2BB8A92FBF3F37B827A8B7B8A75
:101AC000D31AFB84FB8C09E03B6A01333B62BB68A1
:101AD000013B3A6A9A42A4D3FB685B8818462C37CC
:101AE000BD465DF8047B704780B483B000AF78607A
:101AF000084B1B6800225A6200BF064B1B685B6ADA
:101B00007A689A42F9D800BF00BF0C37BD465DF82D
:101B1000047B7047B402002090B58FB002AF9E4B9B
:101B200007F108040FCB84E80F0003F035FA00F04A
:101B300067F900F0D5FA00F0ABFA00F055FA00F0C2
:101B4000F9F900F07BFA00F0C7F900F029FA934B9D
:101B50001B68924A43F0010313600AF089F80BF006
:101B6000F5F8002208218E4803F0DCFF642003F022
:101B700055FA012208218A4803F0D4FF4FF47A7005
:101B800003F04CFA8749884802F0C4FC874988482A
:101B900002F0E6FC07F108031946012002F00CFDF3
:101BA0000346B3F1FF3F01D100BFFDE700F0DEFDCA
:101BB000804803F0DBF87F49002002F0DDFD0123BF
:101BC0003B710123FB710023BB7101237B713B1D22
:101BD00019460A2002F0F0FC774806F079F942F243
:101BE0001070FFF781FF754B0122DA70734B0122F1
:101BF0005A70724B01229A7001224FF400717048A2
:101C000003F090FF0A2003F009FA00224FF400715C
:101C10006B4803F087FF4FF47A7003F0FFF912204E
:101C2000FFF788FA4FF47A7003F0F8F9FFF774FBC6
:101C300042F21070FFF758FF9A20FFF77BFA4EF63A
:101C40006020FFF751FF4EF66020FFF74DFF4EF684
:101C50006020FFF749FF4EF66020FFF745FF572051
:101C6000FFF718FA0346FB8549F24330FFF712FAF3
:101C70000346BB857020FFF70DFA03467B8549F2CA
:101C80000830FFF707FA03463B85FFF7D5FB03460D
:101C90001A464C4B1A8003220021012007F04AF912
:101CA0000346494A1360494B0193012300930023E3
:101CB000C8224749474807F097FF0346464A136042
:101CC000454B1B68012B0BD04FF0500383F3118859
:101CD000BFF36F8FBFF34F8F7B6200BF00BFFDE785
:101CE0003E4B0193032300930023C8223C493D4807
:101CF00007F07AFF0346384A1360374B1B68012B05
:101D00000BD04FF0500383F31188BFF36F8FBFF3F5
:101D10004F8F3B6200BF00BFFDE7334B01930223AF
:101D200000930023C8223149314807F05DFF034684
:101D3000294A1360284B1B68012B0BD04FF050032E
:101D400083F31188BFF36F8FBFF34F8FFB6100BF29
:101D500000BFFDE7274B019303230093174BC822D5
:101D60002549264807F040FF03461B4A13601A4BDB
:101D70001B68012B0BD04FF0500383F31188BFF386
:101D80006F8FBFF34F8FBB6100BF00BFFDE708F04F
:101D9000C9F800BFFDE700BF6CEA0008001000E0D2
:101DA00000000240292700081127000841270008E9
:101DB0005B27000804000020B40200208C040020EF
:101DC000000802402E010020600500204C05002084
:101DD00020EA0008192200085C05002050050020B8
:101DE00034EA0008592400085405002040EA00089D
:101DF0002D2500085805002054EA0008F9240008A1
:101E000080B594B000AF07F11C03342200211846BE
:101E10000BF094FF07F1080300221A605A609A60E1
:101E2000DA601A6100237B60294B1B6C284A43F05F
:101E300080531364264B1B6C03F080537B607B68DC
:101E400000233B60234B1B68224A43F4404313604A
:101E5000204B1B6803F440433B603B680123FB615C
:101E60004FF480333B6202237B634FF48003BB63F8
:101E70000823FB63A8233B6402237B640223BB6427
:101E80000223FB6407F11C03184605F01DFA034604
:101E9000002B01D000F000FD0F23BB600223FB608C
:101EA00000233B614FF4A0537B614FF48053BB612F
:101EB00007F108030521184604F08CFE0346002BA9
:101EC00001D000F0E9FC00BF5037BD4680BD00BF27
:101ED000003802400070004080B500AF124B134A3A
:101EE0001A60114B124A5A600F4B00229A600E4B37
:101EF0000022DA600C4B4FF480421A610A4B002238
:101F00005A61094B00229A61074B0022DA61064BA5
:101F100000221A62044803F039FE0346002B01D068
:101F200000F0BAFC00BF80BD480100200054004012
:101F3000A086010080B500AF174B184A1A60164BF7
:101F40004FF482725A60144B00229A60124B0022A6
:101F5000DA60114B00221A610F4B00225A610E4BBE
:101F60004FF400729A610C4B0022DA610A4B002296
:101F70001A62094B00225A62074B00229A62064BF2
:101F80000A22DA62044805F03DFC0346002B01D02A
:101F900000F082FC00BF80BD5C02002000300140E8
:101FA00080B500AF0E4B0F4A1A600D4B00225A60ED
:101FB0000B4B00229A600A4B4FF6FF72DA60084B17
:101FC00000221A61064B00229A61054805F030FF95
:101FD0000346002B01D000F05FFC00BF80BD00BFB6
:101FE000B40200200044014080B500AF114B124AFA
:101FF0001A60104B4FF4E1325A600E4B00229A6087
:102000000C4B0022DA600B4B00221A61094B0C22A8
:102010005A61084B00229A61064B0022DA6105489A
:1020200006F006FA0346002B01D000F035FC00BF95
:1020300080BD00BFFC0200200010014080B500AF51
:10204000114B124A1A60104B4FF4E1325A600E4B9A
:1020500000229A600C4B0022DA600B4B00221A61BE
:10206000094B0C225A61084B00229A61064B002250
:10207000DA61054806F02CFA0346002B01D000F087
:102080000BFC00BF80BD00BF4403002000440040A3
:1020900080B582B000AF00237B60104B1B6B0F4AF2
:1020A00043F4001313630D4B1B6B03F400137B60AD
:1020B0007B68002200210B2003F08CF80B2003F03A
:1020C000A5F800220021112003F084F8112003F06C
:1020D0009DF800BF0837BD4680BD00BF00380240F4
:1020E00080B58AB000AF07F1140300221A605A606D
:1020F0009A60DA601A6100233B61434B1B6B424AD2
:1021000043F080031363404B1B6B03F080033B6180
:102110003B690023FB603C4B1B6B3B4A43F00103D4
:102120001363394B1B6B03F00103FB60FB68002357
:10213000BB60354B1B6B344A43F002031363324BD5
:102140001B6B03F00203BB60BB6800237B602E4B5C
:102150001B6B2D4A43F0040313632B4B1B6B03F0E3
:1021600004037B607B6800221821284803F0DAFC16
:10217000002248F20301264803F0D4FC00224FF469
:102180002061244803F0CEFC18237B610123BB614E
:102190000023FB6100233B6207F1140319461B482F
:1021A00003F02CFB48F203037B610123BB61002396
:1021B000FB6100233B6207F114031946144803F046
:1021C0001DFB4FF400737B610123BB610223FB61A4
:1021D00000233B6207F1140319460E4803F00EFB7F
:1021E0004FF400637B610123BB610023FB6100238B
:1021F0003B6207F114031946064803F0FFFA00BFDB
:102200002837BD4680BD00BF0038024000000240B4
:10221000000402400008024080B586B000AF78603C
:102220000023FB75642313227249734806F0A8F952
:1022300010E000F0ADFA0346002B04D100F0D6FA0E
:102240000123FB7506E06D480BF088FC4FF47A70B3
:1022500007F02EFEFB7D83F00103DBB2002BE8D1FB
:10226000BEE00121664803F076FC66480BF076FC80
:10227000642007F01DFE00234FF4FB7201210120B2
:1022800001F026FC0346012B06D05F480BF066FCEC
:10229000C82007F00DFEA3E05C480BF05FFC0023B4
:1022A000FB7207F10B031A460021012002F00EF821
:1022B0004FF4FB7156480BF0E9FB56480BF04EFC0F
:1022C000012001F087FD0346012B09D04FF4FB717B
:1022D00051480BF0DBFB4FF47A7007F0E9FD7FE02B
:1022E0000023BB7507F030FF034603F59C5308330A
:1022F0003B614FF44A7001F04BF90346BB75642013
:1023000007F0D6FDBB7D172B08D0BB7D002B05D079
:1023100007F01AFF02463B699342EAD8BB7D002BC7
:1023200007D13E480BF01AFC4FF47A7007F0C0FD5D
:1023300056E0BB7D172B53D139480BF00FFC3948C1
:102340000BF00CFC80223849012001F00BFFF860F3
:10235000FB6813F1070F06D134480BF0FFFB34483C
:102360000BF0FCFB3CE0304AFB68134400221A707F
:10237000F96830480BF08AFB2B492F480BF086FB9D
:10238000802200212D480BF0D9FC2D4B1B684FF00B
:10239000FF31184607F05AF90346012B05D1294BA6
:1023A000FA682649204800F0AFFA27480BF0D6FB20
:1023B00026491D48FDF776FF0346002B0CD1244823
:1023C0000BF0CCFB23480BF0C9FB19480BF0C6FB04
:1023D000012001F059FD03E0642007F069FDB1E739
:1023E000FB7D002B7FF43DAF00BF00BF1837BD461B
:1023F00080BD00BF7CEA00084403002090EA00088A
:1024000000040240B4EA0008D4EA0008ECEA00083C
:102410000CEB00082CEB000850EB00086CEB0008FC
:10242000A0EB0008B8EB00080C040020D8EB000873
:10243000F4EB00080CEC00082CEC00088C030020E6
:1024400060050020CC04002040EC00085CEC000893
:1024500064EC000888EC000880B584B000AF7860B8
:102460000023FB731D4B1B684FF0FF31184607F02C
:10247000EDF80346012B29D11948FFF787F800F042
:10248000BDFB8220FEF756FE0123FB731EE0642392
:1024900012221449144806F073F8144BD3ED007A55
:1024A000FDEEE77A17EE903A1BB2184600F04CFCAE
:1024B0000346BB810E4ABB895385FFF7FBF8022117
:1024C0000C4803F048FB642007F0F2FCFB7B002B78
:1024D000DDD100BF00BF1037BD4680BD60050020C4
:1024E0008C0400209CEC00084403002044010020E0
:1024F000CC0400200004024080B584B000AF7860B6
:102500007B68FB60FB6800221A700748FFF7D2F96E
:10251000FEF7A6FFFFF776F803467B81C82007F099
:10252000C7FC00BFF1E700BF8C04002080B584B079
:1025300000AF78606448FFF729F863493420FEF75C
:10254000F7FF0346FB81FEF777FF03461A465F4B12
:102550001A805E4B1B8803F08003002B00F0AF80D5
:102560005948FFF713F8FFF74DF803461A46584B42
:102570001A807020FFF75CF8F0EE407A554BC3EDFF
:10258000007A7420FFF754F8F0EE407A514BC3ED17
:10259000017A514B1B88184600F0DEFC03461A46B0
:1025A0004E4B1A804C4B5B88184600F0D5FC034616
:1025B0001A464A4B5A80484B9B88184600F0CCFC80
:1025C00003461A46454B9A80434BDB88184600F079
:1025D000C3FC03461A46414BDA803F4B1B89184621
:1025E00000F0BAFC03461A463C4B1A813A4B5B8911
:1025F000184600F0B1FC03461A46384B5A81364B58
:102600009B89184600F0A8FC03461A46334B9A8172
:10261000314BDB89184600F09FFC03461A462F4BCE
:10262000DA812D4BDB8B184600F096FC03461A46E8
:102630002A4B1A82284B1A88284B5A82264B5A88D2
:10264000264B9A82244B9A88244BDA82224BDA88D2
:10265000224B1A83204B1A89204B5A831E4B5A89CE
:102660001E4B9A831C4B9A891C4BDA831A4BDA89CE
:102670001A4B1A84184BDA8B184B5A84174AFB8969
:102680009384FEF7BFFF03461A46144BDA84FEF725
:10269000B9FF0346BB810C493620FEF749FF0346CC
:1026A0001A460E4B1A85012280216220FEF700FE99
:1026B0000B4B186800230022002106F0C7FC4FF4E2
:1026C000FA7007F0F5FB35E78C0400202E0100209E
:1026D0002C0100202001002000010020CC0400205B
:1026E0006005002080B586B002AF0346FB7107F19C
:1026F0000F02F91D322300930123044805F00BF962
:10270000FB7B18461037BD4680BD00BF5C02002031
:1027100080B500AF00221021024803F003FA00BF89
:1027200080BD00BF0000024080B500AF0122102133
:10273000024803F0F7F900BF80BD00BF000002406F
:1027400080B582B000AF0346FB71FB791846FFF7F6
:10275000C9FF00BF0837BD4680BD80B500AFFF2070
:10276000FFF7C0FF0346184680BD000080B582B069
:1027700000AF0649002001F0FFFF3B461946082044
:1027800001F01AFF00BF0837BD4680BD04000020DD
:1027900080B582B000AF11480BF078F9FB1D1946E7
:1027A0000F2001F009FFFB79002B0BD10C480BF037
:1027B0006DF9012202210B4803F0B4F94FF4FA70CD
:1027C00002F02CFCFB79002BE5D007480BF05EF9FA
:1027D000002318460837BD4680BD00BFB0EC000896
:1027E000D8EC000800040240ECEC000880B582B090
:1027F00000AF3B1D19460B2001F0DEFE3B79002B9C
:1028000003D114480BF042F902E013480BF03EF9F3
:102810007B79012B03D111480BF038F902E0104805
:102820000BF034F9FB79012B03D10E480BF02EF994
:1028300002E00D480BF02AF9BB79002B03D10B48BD
:102840000BF024F902E00A480BF020F900BF08372A
:10285000BD4680BD08ED00082CED00084CED0008D9
:1028600068ED000888ED00089CED0008B0ED000858
:10287000C0ED000880B582B000AF78607B681B684F
:10288000044A934201D102F0A9FB00BF0837BD46BC
:1028900080BD00BF0010004080B400AF72B600BF22
:1028A00000BFFDE780B485B000AF0346B9607A6031
:1028B000FB81FB89DAB27B681A70FB891B0A9BB229
:1028C000DAB2BB681A7000BF1437BD465DF8047BEE
:1028D000704780B485B000AF03460A46FB711346CB
:1028E000BB710023FB81FB79FB81FB891B02FB8110
:1028F000BB799AB2FB891343FB81FB8918461437D5
:10290000BD465DF8047B704790B58BB000AFF860B2
:10291000B9607A603B600023FB830023BB83002304
:10292000FB8400237B8300233B830023BB840023A1
:10293000FB82FB6806331B78012B40F04D81BB689E
:102940000633FA6892791A70BB680733FA68D2794D
:102950001A70BB68023300221A70BB68033300226E
:102960001A70FB6807331B78102B00F09E80102B29
:1029700000F32E81032B03D0062B00F0258127E1E5
:10298000FB6808331A78FB6809331B781946104630
:10299000FFF79FFF0346FB83FB8B3F2B7ED8FB6833
:1029A0000A331A78FB680B331B7819461046FFF779
:1029B00090FF0346BB83BB8B402B6BD8BA8BFB8B42
:1029C0001344402B66DCFB681A78BB681A70BB683E
:1029D0000133FA6852781A70BB8BDBB25B00DAB253
:1029E000BB6805330332D2B21A70BB8BDAB2BB6854
:1029F00008335200D2B21A70BB8B012B2BD90023A3
:102A00003B62FB8BFB8421E0FA8BFB8C13445B0065
:102A10003A6813441B88724A72491846FFF742FF0E
:102A20003B6A09331A46BB6813446E4A12781A701F
:102A30003B6A0A331A46BB681344694A12781A7013
:102A40003B6A02333B62FB8C0133FB84FA8CBB8B09
:102A50009A42D9D313E0FB8B5B003A6813441B887E
:102A60005F4A60491846FFF71DFFBB6801335D4AA6
:102A700012781A70BB680233594A12781A70BB8BED
:102A80005B009BB209339BB21A46B968012001F082
:102A900071FA06E0544B01221A7002E0524B0122F7
:102AA0001A7052480BF05AF896E0FB6808331A780F
:102AB000FB6809331B7819461046FFF70AFF0346E7
:102AC000FB83FB8B3F2B78D8FB680A331A78FB68B3
:102AD0000B331B7819461046FFF7FBFE0346BB83FA
:102AE000BB8B402B65D8BA8BFB8B1344402B60DC2F
:102AF000FB681A78BB681A70BB680133FA685278B1
:102B00001A70BB68053306221A70FB8B3B830D23BA
:102B1000FB84BB8B012B11D1FB8CFA681344187812
:102B2000FB8C0133FA6813441978FB8B5B003A681D
:102B3000D418FFF7CEFE0346238020E03B8BBB84F6
:102B400017E0FB8CFA6813441878FB8C01331A46A3
:102B5000FB6813441978BB8C5B003A68D418FFF704
:102B6000B8FE03462380FB8C0233FB84BB8C01330D
:102B7000BB84BA8CB98B3B8B0B449A42E1DBBB68BC
:102B80000833FA68127A1A70BB680933FA68527A05
:102B90001A70BB680A33FA68927A1A70BB680B33F2
:102BA000FA68D27A1A700C22B968012001F0E2F9B1
:102BB00006E00D4B01221A7002E00B4B01221A7045
:102BC0000B480AF0CBFF07E00A480AF0C7FF03E012
:102BD00009480AF0C3FF00BF00BF2C37BD4690BDB7
:102BE000650500206605002064050020D4ED00087E
:102BF000E4ED0008F4ED000804EE000880B584B0B0
:102C000000AF0023FB8100F05BF9484BD3ED007A65
:102C1000F5EEC07AF1EE10FA1CD5454B1B8818462C
:102C2000FDF70AFE02460B4610461946FDF706FF61
:102C300003469BB21A460F213E48FEF7C7FE0346E5
:102C4000FB80FB88B3F5965F22D2FB88C3F59653D1
:102C5000FB811DE0354B93ED007ADFED376AC7EE5F
:102C6000267A9FED367A67EE877AC7ED027AB868E2
:102C7000FDF704FE02460B4643EC102B0BF066FEFC
:102C800053EC102B10461946FDF7D8FE0346FB8186
:102C90002B4B4FF496529A84294B4FF496521A8438
:102CA000274AFB895384264B5B8C07EE903AF8EE5B
:102CB000676A234B1B8C07EE903AB8EE677AC6EE34
:102CC000877A9FED1D7A67EE877A1D4BC3ED007AF8
:102CD0001B4B9B8C07EE903AF8EE676A184B1B8CE7
:102CE00007EE903AB8EE677AC6EE877A9FED127AD1
:102CF00067EE877A124BC3ED017A114B93ED017A9F
:102D00000F4BD3ED007A77EE677A0D4BC3ED027A65
:102D10000B4B0C4A1A610A4B0A4A5A61084B4FF096
:102D200000029A6100BF1037BD4680BD1C00002024
:102D300068050020DCEE00080000C842000096454F
:102D4000A40400203333733F80B582B000AF034644
:102D5000FB80B7F9063007EE903AF8EEE76A564B7B
:102D60001B8C07EE903AB8EE677AC6EE877A9FED35
:102D7000537A67EE877A504BC3ED037AB7F9063082
:102D8000002B20DD4C4B93ED027A4B4BD3ED046AC4
:102D9000494BD3ED037A66EEA77A77EE677A464B16
:102DA000C3ED077A444B93ED027A434BD3ED056AAA
:102DB000414BD3ED037A66EEA77A77EE677A3E4B06
:102DC000C3ED027A1FE03C4B93ED027A3A4BD3ED10
:102DD000056A394BD3ED037A66EEA77A77EE677A08
:102DE000354BC3ED077A344B93ED027A324BD3ED7A
:102DF000056A314BD3ED037A66EEA77A77EE677AF0
:102E00002D4BC3ED027A2C4B93ED017A2A4BD3ED77
:102E1000077A77EE677A284BC3ED007A264BD3ED1D
:102E2000007ADFED260AB0EE670A0BF055FD10EED2
:102E3000103A1846FDF722FD02460B469FED1C1B7B
:102E400043EC102B0BF0F4FC53EC102B10461946FE
:102E5000FDF714FE0346184A1360174BD3ED027AB0
:102E6000DFED160AB0EE670A0BF036FD10EE103AF1
:102E70001846FDF703FD02460B469FED0D1B43EC84
:102E8000102B0BF0D5FC53EC102B10461946FDF718
:102E9000F5FD0346084A9360074BD3ED007AFCEE3C
:102EA000E77A17EE903A9BB218460837BD4680BDC8
:102EB0000000000000000000A40400200000C84240
:102EC00080B483B000AF204B1A88204B1A801E4B71
:102ED0001A881F4B1A800023FB712AE01D4B1B88A8
:102EE0001A46FB7942FA03F303F00103002B1CD0CE
:102EF000FB79154A32F81320144B1B889A4205D2ED
:102F0000FB79114A32F81320104B1A80FB790E4AD4
:102F100032F813200E4B1B889A4207D9FB790A4AD4
:102F200032F813200A4B1A8000E000BFFB7901330E
:102F3000FB71FB790F2BD1D900BF00BF0C37BD4609
:102F40005DF8047B704700BF000100206805002089
:102F50006A0500200000002080B487B000AF03465F
:102F6000FB8040F6B833FB8241F2CC03BB8241F2D6
:102F700094137B82FA88FB8A9A4203D3FA887B8A6D
:102F80009A4201D9002323E0FA88BB8A9A4201D9E8
:102F900064231DE0FA88FB8AD31A07EE903AF8EE14
:102FA000E76ABA8AFB8AD31A07EE903AB8EEE77A54
:102FB000C6EE877A9FED097A67EE877AC7ED037AC6
:102FC000D7ED037AFCEEE77A17EE903A9BB2DBB2CC
:102FD00018461C37BD465DF8047B70470000C842A8
:102FE00080B582B000AF00237B60104B5B6C0F4A52
:102FF00043F4804353640D4B5B6C03F480437B606C
:103000007B6800233B60094B1B6C084A43F08053EC
:103010001364064B1B6C03F080533B603B6808F065
:1030200065FA00BF0837BD4680BD00BF00380240CA
:1030300080B58AB000AF786007F1140300221A60EF
:103040005A609A60DA601A617B681B68484A93424A
:1030500040F0898000233B61464B1B6B454A43F09F
:1030600002031363434B1B6B03F002033B613B6999
:103070004FF440737B611223BB610023FB61032388
:103080003B6204237B6207F1140319463A4802F0BD
:10309000B5FB0023FB60374B1B6C364A43F400132F
:1030A0001364344B1B6C03F40013FB60FB68334B5D
:1030B000334A1A60314B4FF000725A602F4B002296
:1030C0009A602E4B0022DA602C4B4FF480621A611A
:1030D0002A4B00225A61294B00229A61274B002279
:1030E000DA61264B00221A62244B00225A622348DE
:1030F00002F09AF80346002B01D0FFF7CDFB7B6866
:103100001E4A9A631D4A7B6893631E4B1E4A1A60CF
:103110001C4B4FF000725A601A4B40229A60194BB8
:103120000022DA60174B4FF480621A61154B0022BF
:103130005A61144B00229A61124B0022DA61114B42
:1031400000221A620F4B00225A620E4802F06CF8FD
:103150000346002B01D0FFF79FFB7B68094A5A63A7
:10316000084A7B68936300BF2837BD4680BD00BF17
:103170000054004000380240000402409C0100203E
:1031800010600240FC010020A060024080B58AB0BF
:1031900000AF786007F1140300221A605A609A6049
:1031A000DA601A617B681B68194A93422BD10023AD
:1031B0003B61184B5B6C174A43F480535364154BC7
:1031C0005B6C03F480533B613B690023FB60114B54
:1031D0001B6B104A43F0010313630E4B1B6B03F090
:1031E0000103FB60FB68E0237B610223BB610023DA
:1031F000FB6103233B6205237B6207F1140319463D
:10320000054802F0FBFA00BF2837BD4680BD00BF6D
:1032100000300140003802400000024080B485B018
:1032200000AF78607B681B680B4A93420DD1002386
:10323000FB600A4B5B6C094A43F400335364074B51
:103240005B6C03F40033FB60FB6800BF1437BD46C2
:103250005DF8047B704700BF004401400038024025
:1032600080B58CB000AF786007F11C0300221A60B3
:103270005A609A60DA601A617B681B68324A93422E
:103280002CD10023BB61314B5B6C304A43F01003FF
:1032900053642E4B5B6C03F01003BB61BB690023CE
:1032A0007B612A4B1B6B294A43F002031363274BB4
:1032B0001B6B03F002037B617B69C023FB6102236C
:1032C0003B6200237B620323BB620723FB6207F19F
:1032D0001C0319461E4802F091FA30E07B681B6817
:1032E0001C4A93422BD100233B61184B1B6C174A9D
:1032F00043F400331364154B1B6C03F400333B6140
:103300003B690023FB60114B1B6B104A43F0010328
:1033100013630E4B1B6B03F00103FB60FB6804237C
:10332000FB6112233B6200237B620323BB62072302
:10333000FB6207F11C031946074802F05FFA00BF61
:103340003037BD4680BD00BF00100140003802404C
:1033500000040240004400400000024080B58EB0EE
:1033600000AF78600023FB620023BB620023FB6098
:10337000334B1B6C324A43F010031364304B1B6C0D
:1033800003F01003FB60FB6807F1100207F1140360
:103390001146184603F038FD3B6AFB62FB6A002BBE
:1033A00003D103F009FD786304E003F005FD034653
:1033B0005B007B637B6B234AA2FB03239B0C013BDB
:1033C000BB62214B214A1A601F4B40F2E732DA60A0
:1033D0001D4ABB6A53601C4B00221A611A4B002223
:1033E0009A60194B00229A61174804F021FD0346A8
:1033F00087F8333097F83330002B1BD1124804F094
:10340000CFFD034687F8333097F83330002B11D1C6
:10341000362001F0FBFE7B680F2B08D8002279686C
:10342000362001F0D7FE0A4A7B68136002E00123D0
:1034300087F8333097F8333018463837BD4680BDAB
:103440000038024083DE1B436C0500200010004062
:103450005400002080B400AF00BFFDE780B400AF8F
:1034600000BFFDE780B400AF00BFFDE780B400AF50
:1034700000BFFDE780B400AF00BFFDE780B400AF40
:1034800000BFBD465DF8047B7047000080B500AF0B
:10349000024801F077FF00BF80BD00BF9C01002003
:1034A00080B500AF024801F06DFF00BF80BD00BFD6
:1034B000FC01002080B500AF024804F0E1FD00BF30
:1034C00080BD00BF6C05002080B586B000AFF860FD
:1034D000B9607A6000237B610AE0AFF300800146A7
:1034E000BB685A1CBA60CAB21A707B6901337B612F
:1034F0007A697B689A42F0DB7B6818461837BD46CC
:1035000080BD80B483B000AF78604FF0FF331846C1
:103510000C37BD465DF8047B704780B483B000AFC4
:10352000786039603B684FF400525A6000231846B7
:103530000C37BD465DF8047B704780B483B000AFA4
:103540007860012318460C37BD465DF8047B704750
:1035500080B485B000AFF860B9607A600023184687
:103560001437BD465DF8047B7047000080B400AF9F
:10357000064BD3F88830054A43F47003C2F888300C
:1035800000BFBD465DF8047B704700BF00ED00E062
:1035900080B584B000AF7860224BDB689847214B40
:1035A0005B6998471F4B5B6A002B03D01D4B9B6ADE
:1035B000002B14D11B4B1B6A7A68120CD2B2104636
:1035C0009847184B1B6A7A68120AD2B2104698477D
:1035D000144B1B6A7A68D2B21046984711E07B6898
:1035E0001B0CDBB23B737B681B0ADBB27B737B6813
:1035F000DBB2BB730B4B9B6A07F10C020321104635
:103600009847084BDB6998470346FB73054B9B695A
:103610009847044B1B699847FB7B18461037BD46FB
:1036200080BD00BF2800002080B584B000AF786066
:103630000B46FB70224BDB689847214B5B69984730
:103640007B6843F004037B601D4B9B6A002B19D100
:103650001B4B1B6A7A68120CD2B210469847184B63
:103660001B6A7A68120AD2B210469847144B1B6A3A
:103670007A68D2B210469847114B1B6AFA78104606
:10368000984713E07B681B0CDBB23B737B681B0A1B
:10369000DBB27B737B68DBB2BB73FB78FB73084BDD
:1036A0009B6A07F10C02042110469847044B9B6962
:1036B0009847034B1B69984700BF1037BD4680BD34
:1036C0002800002090B587B000AFF860B9601346BD
:1036D000FB802B4BDB689847294B5B699847284B4D
:1036E0005B6A002B03D0264B9B6A002B26D1244B10
:1036F0001B6AFA68120CD2B210469847204B1B6A1C
:10370000FA68120AD2B2104698471D4B1B6AFA6833
:10371000D2B2104698470023FB820AE0184BDB69BF
:10372000FA8AB9688C18984703462370FB8A0133DC
:10373000FB82FA8AFB889A42F0D317E0FB681B0CE5
:10374000DBB23B74FB681B0ADBB27B74FB68DBB249
:10375000BB740B4B9B6A07F110020321104698477C
:10376000074B5B6AFA881146B8689847044B9B6917
:103770009847034B1B69984700BF1C37BD4690BD57
:103780002800002080B586B000AFF860B96013460D
:10379000FB802B4BDB689847294B5B699847FB689C
:1037A00043F00403FB60264B9B6A002B26D1244B7D
:1037B0001B6AFA68120CD2B210469847204B1B6A5B
:1037C000FA68120AD2B2104698471D4B1B6AFA6873
:1037D000D2B2104698470023FB820AE0184B1B6ABE
:1037E000FA8AB9680A44127810469847FB8A01336E
:1037F000FB82FA8AFB889A42F0D317E0FB681B0C25
:10380000DBB23B74FB681B0ADBB27B74FB68DBB288
:10381000BB740B4B9B6A07F11002032110469847BB
:10382000074B9B6AFA881146B8689847044B9B6916
:103830009847034B1B69984700BF1837BD4680BDAA
:103840002800002090B585B000AF0346FB7100232F
:10385000FB810023BB81FB799B000133DB0003F577
:1038600000531846FFF794FE0346BB81BB891B0239
:103870009CB2FB799B000133DB0003F5045318462F
:10388000FFF786FE03462344BB81BB89002B19D07A
:10389000FB799B000133DB0003F500531846FFF76B
:1038A00077FE0346FB81FB891B029CB2FB799B00E0
:1038B0000133DB0003F504531846FFF769FE0346A6
:1038C0002344FB81FA89BB899A42C4D1FB891846FB
:1038D0001437BD4690BD90B585B000AF0346FB716F
:1038E0000023FB810023BB81FB799B000133DB00BC
:1038F00003F518531846FFF74BFE0346BB81BB89FF
:103900001B029CB2FB799B000133DB0003F51C53C7
:103910001846FFF73DFE03462344BB81BB89002BBD
:1039200019D0FB799B000133DB0003F518531846CF
:10393000FFF72EFE0346FB81FB891B029CB2FB793D
:103940009B000133DB0003F51C531846FFF720FEF4
:1039500003462344FB81FA89BB899A42C4D1FB897F
:1039600018461437BD4690BD90B585B000AF0346EC
:103970003960FB711346BB800023FB810023BB60D1
:10398000BB88002B46D0FB799B000133DB0003F59D
:1039900010531846FFF7FCFD03461B029CB2FB794F
:1039A0009B000133DB0003F514531846FFF7F0FDCD
:1039B00003462344FB81FB891B02FA799200023201
:1039C000D2001344BB60BB881A463968B868FFF759
:1039D000D9FEFA89BB881344FB81FB799B00013334
:1039E000DB0003F510531A46FB891B0A9BB2DBB2BE
:1039F00019461046FFF718FEFB799B000133DB00E8
:103A000003F514531A46FB89DBB219461046FFF73B
:103A10000BFE00E000BF1437BD4690BD90B585B0E9
:103A200000AF03463960FB711346BB800023FB8166
:103A30000023BB60BB88002B46D0FB799B00013381
:103A4000DB0003F520531846FFF7A2FD03461B02D7
:103A50009CB2FB799B000133DB0003F5245318462D
:103A6000FFF796FD03462344FB81FB891B02FA798D
:103A700092000332D2001344BB60BB881A463968F7
:103A8000B868FFF71FFEFA89BB881344FB81FB79F6
:103A90009B000133DB0003F520531A46FB891B0A08
:103AA0009BB2DBB219461046FFF7BEFDFB799B00C7
:103AB0000133DB0003F524531A46FB89DBB21946B8
:103AC0001046FFF7B1FD00E000BF1437BD4690BDC2
:103AD00090B585B000AF0446084611461A46234605
:103AE000FB710346BB710B46BB801346FB70FB7931
:103AF000082B02D94FF0FF33F0E0BB79012B05D042
:103B0000002B11DD023B022B0ED811E007F10C0354
:103B1000042219464FF47060FFF7D4FDFB68002BB8
:103B200005D16FF00203D9E06FF00403D6E000BFC7
:103B3000FB7803F00403002B02D06FF00503CDE007
:103B4000FB78002B28D0BB79012B02D0022B08D0A8
:103B500022E0FB7803F02103002B1AD16FF005035C
:103B6000BCE0FB7803F02003002B06D097F903306C
:103B7000002B02DB6FF00503B0E0FB7803F01003CD
:103B8000002B08D097F90330002B04DB6FF00503FE
:103B9000A4E000BF00E000BFFB79184600F0ACF8DD
:103BA000FB799B000133DB00184697F9033023F0C3
:103BB0000F035AB297F9063013435BB2DBB21946D2
:103BC000FFF732FDBB88002B10D1464B1B885A1CD7
:103BD00091B2444A1180BB80424B1B884FF6F07271
:103BE000934203D13F4B4FF440421A80FB799B0034
:103BF0000133DB0003F580631A46BB881B0A9BB2C6
:103C0000DBB219461046FFF70FFDFB799B0001332D
:103C1000DB0003F5A0631A46BB88DBB219461046E9
:103C2000FFF702FDFB799B000133DB0003F5807396
:103C300001211846FFF7F8FC00BFFB799B00013318
:103C4000DB0003F580731846FFF7A2FC0346002B48
:103C5000F3D1FB79012202FA03F31BB2DB431AB260
:103C6000214B1B881BB213401BB29AB21E4B1A8009
:103C7000FB7803F00102FB7902FA03F31AB21A4B44
:103C80001B881BB213431BB29AB2174B1A80FB79E5
:103C9000012202FA03F31BB2DB431AB2134B1B8857
:103CA0001BB213401BB29AB2104B1A80FB79104A18
:103CB000002122F81310FB790E4A0021D15400BFD5
:103CC000FB799B000133DB0003F540731846FFF7D7
:103CD0005FFC0346002BF3D097F9073018461437E2
:103CE000BD4690BD24000020B4050020B60500208C
:103CF000B8050020C805002080B582B000AF03469B
:103D0000FB71FB79082B02D94FF0FF3355E0FB79AB
:103D10009B000133DB0003F5807310211846FFF789
:103D200083FC00BFFB799B000133DB0003F580734C
:103D30001846FFF72DFC0346002BF3D1FB799B00BF
:103D40000133DB0003F500731F211846FFF76CFCFD
:103D5000FB79012202FA03F31BB2DB431AB2194BBF
:103D60001B881BB213401BB29AB2164B1A80FB7908
:103D7000012202FA03F31BB2DB431AB2124B1B8877
:103D80001BB213401BB29AB20F4B1A80FB790F4A39
:103D9000002122F81310FB790D4A0021D15400BFF5
:103DA000FB799B000133DB0003F540731846FFF7F6
:103DB000EFFB0346002BF3D1012318460837BD461D
:103DC00080BD00BFB4050020B6050020B805002066
:103DD000C805002080B582B000AF0346FB71FB79B7
:103DE000082B02D94FF0FF3349E0FB799B000133E8
:103DF000DB001846FFF7CCFB034603F00F03012B53
:103E000002D06FF004033AE0FB799B000133DB0042
:103E100003F540731846FFF7BBFB0346132B02D094
:103E20006FF002032BE0FB799B000133DB0003F50D
:103E3000807302211846FFF7F7FB00BFFB799B0058
:103E40000133DB0003F580731846FFF7A1FB03463F
:103E5000002BF3D106E0FB791846FFF74DFF6FF01A
:103E600003030CE0FB799B000133DB0003F5407397
:103E70001846FFF78DFB0346142BECD1012318469F
:103E80000837BD4680BD000080B582B000AF034654
:103E9000FB71FB79082B02D94FF0FF3362E0FB790D
:103EA0009B000133DB001846FFF772FB034603F06B
:103EB0000F03012B02D06FF0040353E0FB799B004A
:103EC0000133DB0003F5807308211846FFF7ACFBD4
:103ED00000BFFB799B000133DB0003F580731846BC
:103EE000FFF756FB0346002BF3D1FB79012202FAC0
:103EF00003F31BB2DB431AB21C4B1B881BB21340EB
:103F00001BB29AB2194B1A80194B1B881A46FB79BF
:103F100042FA03F303F00103002B16D0002321E043
:103F2000FB799B000133DB0003F500731846FFF7B4
:103F30002FFB034603F00803002B06D0FB7918463D
:103F4000FFF7DAFE6FF00C030CE0FB799B00013306
:103F5000DB0003F540731846FFF71AFB0346002BFE
:103F6000DED1012318460837BD4680BDB6050020C6
:103F7000B405002080B584B000AF03463960FB7102
:103F80001346BB800023FB730023BB81FB79082B06
:103F900002D94FF0FF33DDE0FB799B000133DB00FA
:103FA0001846FFF7F5FA034603F00F03012B02D082
:103FB0006FF00403CEE0BB88002B02D16FF00D033D
:103FC000C8E0FB799B000133DB0003F54073184622
:103FD000FFF7DEFA0346FB73FB7B172B05D0FB7B59
:103FE0001C2B02D06FF00603B4E05C4B1B881A4612
:103FF000FB7942FA03F303F00103002B39D0FB797C
:104000009B000133DB0003F500731846FFF7C0FA8D
:10401000034603F01F03FB73FB7B03F01003002B2D
:1040200019D0FB799B000133DB0003F500731021ED
:104030001846FFF7F9FAFB79012202FA03F31BB2E3
:10404000DB431AB2454B1B881BB213401BB29AB21A
:10405000424B1A800DE0FB7B03F00803002B06D0D7
:10406000FB791846FFF748FE6FF00C0372E000235F
:1040700070E0FB799B000133DB0003F5F853184631
:10408000FFF786FA03469B02BB81BA88BB899A4236
:1040900001D9BB89BB80FB791846FFF7D3FB0346E8
:1040A000BB81FB799B000133DB0003F540731846AD
:1040B000FFF76EFA0346FB73FB7B172B09D0FB7BE4
:1040C0001C2B06D0FB791846FFF716FE6FF006038F
:1040D00040E0234B1B881A46FB7942FA03F303F0B6
:1040E0000103002B05D0BA88BB899A4201D900236D
:1040F00030E0BA88BB899A4200D9CCE700BFBA88C1
:10410000FB7939681846FFF72FFCFB799B000133D8
:10411000DB0003F5807320211846FFF785FA00BF06
:10412000FB799B000133DB0003F580731846FFF732
:104130002FFA0346002BF3D1FB79012202FA03F395
:104140001AB2064B1B881BB213431BB29AB2034B25
:104150001A80BB8818461037BD4680BDB6050020C2
:10416000B405002090B585B000AF03463960FB71FF
:104170001346BB800023FB730023BB81FB79082B14
:1041800002D94FF0FF339BE0FB799B000133DB004A
:104190001846FFF7FDF9034603F00F03012B02D089
:1041A0006FF004038CE0BB88002B02D16FF00D038D
:1041B00086E0FB799B000133DB0003F5F0531846E2
:1041C000FFF7E6F903469B02BB81BA89BB889A4296
:1041D00001D2BB89BB80FB791846FFF77CFB034605
:1041E000BB81FB799B000133DB0003F5407318466C
:1041F000FFF7CEF90346FB73FB7B172B26D0FB7B27
:104200001C2B1CD1BB89002B33D1FB791846FFF73F
:1042100019FB03461C46FB799B000133DB0003F5C9
:10422000F8531846FFF7B4F903469B029C420DD1A0
:10423000FB791846FFF760FD6FF0060340E0FB795D
:104240001846FFF759FD6FF0060339E01E4B1B8837
:104250001A46FB7942FA03F303F00103002B04D062
:10426000BB89002B01D100232AE0BB89002B02D19E
:10427000B1E700BF00E000BFBA89BB889A4201D213
:10428000BB89BB80BA88FB7939681846FFF7C6FB43
:10429000FB799B000133DB0003F580734021184656
:1042A000FFF7C2F900BFFB799B000133DB0003F588
:1042B00080731846FFF76CF90346002BF3D1BB88D7
:1042C00018461437BD4690BDB405002080B584B0B3
:1042D00000AF03463A60FB710B46BB710023FB73D2
:1042E000FB79082B02D94FF0FF33C0E0BB79072BD5
:1042F00000F2B98001A252F823F000BF1D4300086C
:10430000714300088B430008A9430008C743000815
:10431000F743000817440008474400083B681B782F
:10432000FB73FB7B012B0DD1FB79012202FA03F316
:104330001AB2514B1B881BB213431BB29AB24E4B9D
:104340001A8093E0FB7B002B0FD1FB79012202FA4C
:1043500003F31BB2DB431AB2474B1B881BB213405B
:104360001BB29AB2444B1A8080E06FF009037EE0E2
:10437000414B1B881A46FB7942FA03F3DBB203F088
:104380000103DAB23B681A7070E0FB799B000133DD
:10439000DB0003F5F8531846FFF7FAF803469B02D3
:1043A0009AB23B681A8061E0FB799B000133DB0025
:1043B00003F5F0531846FFF7EBF803469B029AB259
:1043C0003B681A8052E03B681B781F2B02D96FF0C4
:1043D00009034CE0FB799B000133DB0003F500731C
:1043E0001A463B681B7803F01F03DBB219461046E0
:1043F000FFF71AF93AE0FB799B000133DB0003F584
:1044000000731846FFF7C4F8034603F01F03DAB23F
:104410003B681A702AE03B681B781F2B02D96FF0AB
:10442000090324E0FB799B000133DB0003F53053E3
:104430001A463B681B7803F01F03DBB2194610468F
:10444000FFF7F2F812E0FB799B000133DB0003F584
:1044500030531846FFF79CF8034603F01F03DAB207
:104460003B681A7002E06FF0090300E00123184670
:104470001037BD4680BD00BFB405002080B400AF3A
:1044800000BFBD465DF8047B704780B400AF00BF3D
:10449000BD465DF8047B704780B400AF00BFBD46E9
:1044A0005DF8047B704780B400AF00BFBD465DF887
:1044B000047B704780B483B000AF78607B681B7862
:1044C000DBB218460C37BD465DF8047B704780B4FC
:1044D00083B000AF78600B46FB707B68FA781A7087
:1044E00000BF0C37BD465DF8047B704780B400AF59
:1044F00000231846BD465DF8047B704780B483B046
:1045000000AF0346FB7100BF0C37BD465DF8047B6E
:104510007047000080B483B000AF786039607B687A
:10452000002B02D03B68002B06D10A4B0A4A5A6185
:10453000084B0A4A9A6106E0064A7B685361054ABD
:104540003B68936100BF00BF0C37BD465DF8047B3C
:10455000704700BF2800002099440008A7440008C5
:1045600080B483B000AF7860396000BF0F4B1B8808
:1045700003F40073002BF9D07B68002B02D03B685A
:10458000002B06D1094B0A4ADA61084B094A1A6224
:1045900006E0064A7B68D361044A3B68136200BFA9
:1045A00000BF0C37BD465DF8047B70472800002033
:1045B000ED440008FD44000890B587B000AF034605
:1045C0003960FB710023FB750023FB6000233B6116
:1045D000FB790F2B00F2C58001A252F823F000BF37
:1045E00021460008274600085346000847460008B1
:1045F000614600086D4600087B460008A146000899
:10460000C3460008074700080D4700081547000883
:10461000694700081D4700082B4700084747000866
:1046200000F0E8F8A1E03B68002B04D03B68FB6099
:10463000FB6808333B61FB683A691146184600F095
:1046400025F9034692E03B681B88184600F0AAF95A
:104650008BE000F0DBF903461A463B681A8084E0E1
:104660003B681B88184600F0F6F97EE000F00EFA71
:1046700003461A463B681A8077E03B681B881B0A92
:104680009BB2DBB219464FF49850FEF7CDFF3B6862
:104690001B88DBB219464FF4A050FEF7C5FF64E05B
:1046A0004FF49850FEF774FF03461B029CB24FF480
:1046B000A050FEF76DFF034623449AB23B681A8070
:1046C00053E02C4B9A783B681A703B680133294AB7
:1046D000D2781A703B680233264A12791A703B6806
:1046E0000333244A52791A703B680433214A927981
:1046F0001A703B6805331F4AD2791A703B6806333B
:1047000000221A7031E000F013FA2EE0386800F051
:1047100036FA2AE0386800F075FA26E03B681B7824
:10472000184600F0D9FA034620E000F0E8F9034605
:10473000FB75FB7DFF2B02D14FF0FF3316E03B688A
:10474000FA7D1A7011E000F0C4F90346FB75FB7D99
:10475000FF2B02D14FF0FF3308E03B68FA7D1A705F
:1047600003E04FF0FF3301E000BF002318461C3781
:10477000BD4690BD2800002080B582B000AF034642
:104780003960FB71FB79052B2CD801A252F823F07C
:10479000A9470008B1470008B9470008C747000803
:1047A000D5470008DD470008386800F0DFFA1CE054
:1047B000386800F01BFB18E03B681B78184600F0D7
:1047C00055FB034612E000F073FB03461A463B68B4
:1047D0001A700AE0386800F073FB06E0386800F0F1
:1047E00090FB02E04FF0FF3300E00023184608374B
:1047F000BD4680BD80B586B000AF3B1D0622194680
:104800004FF41060FEF75EFF07F11403042219460F
:104810004FF48070FEF756FF07F11003042219468B
:104820004FF4A060FEF74EFF07F10C030422194677
:104830004FF47060FEF746FF80210020FEF7F4FE83
:104840000020FEF7A5FE3B1D062219464FF410601E
:10485000FEF798FF07F11403042219464FF4807005
:10486000FEF790FF07F11003042219464FF4A060F1
:10487000FEF788FF07F10C03042219464FF470601D
:10488000FEF780FF00BF1837BD4680BD80B584B0FD
:1048900000AF786039600023BB73FFF7ABFF7B6824
:1048A000002B3BD00023BB730023FB7315E097F96B
:1048B0000F307A6813441A78BB7B1344DBB2BB73A6
:1048C00097F90E30102B02DD4FF0FF3366E097F9B9
:1048D0000F30DBB20133DBB2FB7397F90F30072BDC
:1048E000E5DD0023FB7315E097F90F309B000133E2
:1048F000DB0003F5F853184697F90F307A68134434
:104900001B781946FEF790FE97F90F30DBB20133A2
:10491000DBB2FB7397F90F30072BE5DD3B68002B0B
:104920003BD00023BB730023FB7315E097F90F30D6
:104930003A6813441A78BB7B1344DBB2BB7397F914
:104940000E30102B02DD4FF0FF3327E097F90F30C8
:10495000DBB20133DBB2FB7397F90F30072BE5DDD8
:104960000023FB7315E097F90F309B000133DB0048
:1049700003F5F053184697F90F303A6813441B7843
:104980001946FEF751FE97F90F30DBB20133DBB267
:10499000FB7397F90F30072BE5DD0023184610371E
:1049A000BD4680BD80B584B000AF0346FB80FB8868
:1049B000FB73FB881B0A9BB2BB73FB7B23F00F03CB
:1049C000DBB219464FF4A850FEF72EFE0023FB730E
:1049D00014E0BA7BFB7B42FA03F303F00103002BE4
:1049E00009D0FB7B9B000133DB0003F500731F2123
:1049F0001846FEF719FEFB7B0133FB73FB7B072B8D
:104A0000E7D900BF00BF1037BD4680BD80B582B07A
:104A100000AF0023FB710023BB710023BB804FF468
:104A2000A850FEF7B5FD034623F00F03FB714FF4CA
:104A3000B850FEF7ADFD0346BB71BB79BB80BB88A8
:104A40001B029AB2FB799BB21344BB80BB88184609
:104A50000837BD4680BD80B584B000AF0346FB80FB
:104A6000FB88FB73FB881B0A9BB2BB73FB7B19465D
:104A70004FF4B050FEF7D8FDBB7B19464FF4C05041
:104A8000FEF7D2FD00BF1037BD4680BD80B582B0B5
:104A900000AF0023FB710023BB710023BB804FF4E8
:104AA000B050FEF775FD0346FB714FF4C050FEF7A2
:104AB0006FFD0346BB71BB79BB80BB881B029AB2FA
:104AC000FB799BB21344BB80BB8818460837BD46B0
:104AD00080BD80B582B000AF0023FB714FF4385029
:104AE000FEF756FD034603F00103002B01D001231E
:104AF000FB7197F9073018460837BD4680BD80B571
:104B000082B000AF0023FB714FF43850FEF740FD38
:104B1000034603F03803302B02D10123FB7101E07F
:104B20000023FB7197F9073018460837BD4680BD52
:104B300080B582B000AF4FF43850FEF729FD034630
:104B4000FB71FB7903F07F03FB71FB7919464FF48E
:104B50003850FEF769FD4FF43850FEF719FD034653
:104B6000FB71FB7963F07F03FB71FB7919464FF40E
:104B70003850FEF759FD00BF0837BD4680BD80B5EF
:104B800084B000AF78600023FB737B681B78012B37
:104B900004D1FB7B43F04003FB7303E0FB7B23F07A
:104BA0004003FB737B685B78012B04D1FB7B43F0F4
:104BB0003803FB7319E07B68DB78012B0DD17B6830
:104BC0009B78012B04D1FB7B43F01803FB730CE0B3
:104BD000FB7B43F00803FB7307E07B689B78012BAA
:104BE00003D1FB7B43F01003FB73FB7B19464FF4AF
:104BF0003850FEF719FDFFF79BFF00BF1037BD4689
:104C000080BD000080B584B000AF78600023FB73E6
:104C10004FF43850FEF7BCFC0346FB73FB7B9B1143
:104C2000DBB203F00103DAB27B681A70FB7B03F09E
:104C30003803202B01D0382B03D17B6801225A7016
:104C400003E07B6800225A7000BFFB7B03F038034F
:104C5000103B102B8CBF01220022D2B2002A0FD1B0
:104C60001B4A22FA03F303F00103002B14BF0123B4
:104C70000023DBB2002B03D07B6801229A7003E093
:104C80007B6800229A7000BFFB7B03F03803083B6F
:104C9000182B8CBF01220022D2B2002A0FD10D4A5C
:104CA00022FA03F303F00103002B14BF01230023B6
:104CB000DBB2002B03D07B680122DA7003E07B6853
:104CC0000022DA7000BF00BF1037BD4680BD00BFB4
:104CD000010101000100010180B584B000AF03466D
:104CE000FB710023FB734FF43850FEF751FC034671
:104CF000FB73FB7B03F04003002B02D14FF0FF332B
:104D000030E0FB7B23F03803FB73FB79012B04D1EC
:104D1000FB7B43F03003FB7303E0FB7B43F0380382
:104D2000FB73FB7B19464FF43850FEF77DFCFFF711
:104D3000FFFE4FF43850FEF72BFC0346FB73FB7964
:104D4000012B06D1FB7B03F03003002B08D000239E
:104D500008E0FB7B03F03803002B01D0002301E0C7
:104D60004FF0FF3318461037BD4680BD80B582B086
:104D700000AF78607B68062219464FF41060FEF79A
:104D800001FD7B680E33042219464FF48070FEF754
:104D9000F9FC7B680A33042219464FF4A060FEF741
:104DA000F1FC7B680633042219464FF47060FEF76D
:104DB000E9FC7B689A7C0B4B1A707B68DA7C094BA8
:104DC0005A707B681A7D074B9A707B685A7D054B39
:104DD000DA707B689A7D044B1A7000BF0837BD46B5
:104DE00080BD00BFD0050020D405002080B582B072
:104DF00000AF78607B68062219464FF41060FEF71A
:104E000061FC7B680E33042219464FF48070FEF774
:104E100059FC7B680A33042219464FF4A060FEF760
:104E200051FC7B680633042219464FF47060FEF78C
:104E300049FC0C4B1A787B689A740A4B5A787B6849
:104E4000DA74084B9A787B681A75064BDA787B68B7
:104E50005A75054B1A787B689A7500BF0837BD46AE
:104E600080BD00BFD0050020D405002080B584B0EF
:104E700000AF0346FB710023FB73FB7923F03A0379
:104E8000002B02D04FF0FF330EE00020FEF780FB36
:104E90000346FB73FA7BFB791343FB73FB7B1946D9
:104EA0000020FEF7C1FB002318461037BD4680BD29
:104EB00080B500AF0020FEF76BFB0346184680BDAF
:104EC00080B582B000AF78607B681B7819464FF4DC
:104ED000D850FEF7A9FB7B685B881B0A9BB2DBB24C
:104EE00019464FF4C850FEF79FFB7B685B88DBB226
:104EF00019464FF4D050FEF797FB00BF0837BD4668
:104F000080BD90B583B000AF78604FF4D850FEF705
:104F10003FFB03461A467B681A704FF4C850FEF7F1
:104F200037FB03461B029CB24FF4D050FEF730FB18
:104F3000034623449AB27B685A8000BF0C37BD46B3
:104F400090BD0000DFF834D0FEF710FB0C480D498F
:104F50000D4A002302E0D458C4500433C4188C42D4
:104F6000F9D30A4A0A4C002301E013600432A2423A
:104F7000FBD308F01FFFFCF7CFFD704700000220B5
:104F800000000020C000002094EF0008C0000020B6
:104F90004C4B0120FEE7000080B500AF0E4B1B68B4
:104FA0000D4A43F4007313600B4B1B680A4A43F429
:104FB00080631360084B1B68074A43F480731360D7
:104FC000032000F0FCF80F20FEF7C8F9FEF708F800
:104FD0000023184680BD00BF003C024080B400AFF3
:104FE000064B1B781A46064B1B681344044A136091
:104FF00000BFBD465DF8047B704700BF580000202D
:10500000D805002080B400AF034B1B681846BD468E
:105010005DF8047B704700BFD805002080B584B0E0
:1050200000AF7860FFF7EEFFB8607B68FB60FB685D
:10503000B3F1FF3F05D00A4B1B781A46FB681344B7
:10504000FB6000BFFFF7DEFF0246BB68D31AFA68B9
:105050009A42F7D800BF00BF1037BD4680BD00BFE1
:105060005800002080B485B000AF78607B6803F002
:105070000703FB600C4BDB68BB60BA684FF6FF03AD
:105080001340BB60FB681A02BB68134343F0BF6365
:1050900043F40033BB60044ABB68D36000BF1437DD
:1050A000BD465DF8047B704700ED00E080B400AFC2
:1050B000044BDB681B0A03F007031846BD465DF886
:1050C000047B704700ED00E080B483B000AF03467E
:1050D000FB7197F90730002B0BDBFB7903F01F0204
:1050E000074997F907305B09012000FA02F241F8FD
:1050F000232000BF0C37BD465DF8047B704700BF1E
:1051000000E100E080B483B000AF03463960FB717A
:1051100097F90730002B0ADB3B68DAB20C4997F9A4
:1051200007301201D2B20B4483F800230AE03B6837
:10513000DAB20849FB7903F00F03043B1201D2B243
:105140000B441A7600BF0C37BD465DF8047B7047F0
:1051500000E100E000ED00E080B489B000AFF8604D
:10516000B9607A60FB6803F00703FB61FB69C3F178
:105170000703042B28BF0423BB61FB690433062B00
:1051800002D9FB69033B00E000237B614FF0FF3253
:10519000BB6902FA03F3DA43BB681A407B699A40A1
:1051A0004FF0FF317B6901FA03F3D9437B680B4071
:1051B000134318462437BD465DF8047B704780B51D
:1051C00082B000AF78607868FFF74CFF00BF083707
:1051D000BD4680BD80B586B000AF0346B9607A6039
:1051E000FB7300237B61FFF761FF78617A68B96820
:1051F0007869FFF7B1FF024697F90F30114618465C
:10520000FFF780FF00BF1837BD4680BD80B582B074
:1052100000AF0346FB7197F907301846FFF754FFBC
:1052200000BF0837BD4680BD80B586B000AF78604E
:1052300000237B61FFF7E6FE38617B68002B01D11C
:10524000012399E07B68022283F835207B680022E5
:1052500083F834207B681B681A687B681B6822F01F
:1052600001021A600FE0FFF7CDFE02463B69D31A38
:10527000052B08D97B6820225A657B68032283F8B6
:105280003520032378E07B681B681B6803F001036B
:10529000002BE8D17B681B681B687B617A69384BFF
:1052A00013407B617B685A687B689B681A437B6804
:1052B000DB681A437B681B691A437B685B691A4386
:1052C0007B689B691A437B68DB691A437B681B6AAE
:1052D00013437A6913437B617B685B6A042B07D1B4
:1052E0007B68DA6A7B681B6B13437A6913437B61C3
:1052F0007B681B687A691A607B681B685B697B61E5
:105300007B6923F007037B617B685B6A7A691343DF
:105310007B617B685B6A042B17D17B689B6A7A6927
:1053200013437B617B68DB6A002B0ED0786800F04A
:10533000E9F90346002B08D07B6840225A657B6858
:10534000012283F83520012316E07B681B687A6907
:105350005A61786800F0A0F90346FB607B68DB6D5A
:105360003F229A40FB689A607B6800225A657B68FE
:10537000012283F83520002318461837BD4680BD2A
:105380003F8010F080B586B000AF78600023BB602E
:105390008E4B1B688E4AA2FB03239B0A7B617B68B2
:1053A0009B6D3B613B691B68FB607B68DB6D082282
:1053B0009A40FB681340002B1AD07B681B681B685F
:1053C00003F00403002B13D07B681B681A687B680A
:1053D0001B6822F004021A607B68DB6D08229A4089
:1053E0003B699A607B685B6D43F001027B685A659C
:1053F0007B68DB6D01229A40FB681340002B12D0C2
:105400007B681B685B6903F08003002B0BD07B6813
:10541000DB6D01229A403B699A607B685B6D43F0CB
:1054200002027B685A657B68DB6D04229A40FB6848
:105430001340002B12D07B681B681B6803F002032B
:10544000002B0BD07B68DB6D04229A403B699A608D
:105450007B685B6D43F004027B685A657B68DB6D9B
:1054600010229A40FB681340002B43D07B681B68D6
:105470001B6803F00803002B3CD07B68DB6D102217
:105480009A403B699A607B681B681B6803F4802321
:10549000002B18D07B681B681B6803F40023002BCB
:1054A00008D17B681B6C002B24D07B681B6C786850
:1054B00098471FE07B689B6C002B1BD07B689B6C24
:1054C0007868984716E07B681B681B6803F4807354
:1054D000002B07D17B681B681A687B681B6822F069
:1054E00008021A607B681B6C002B03D07B681B6C66
:1054F000786898477B68DB6D20229A40FB681340F0
:10550000002B00F08F807B681B681B6803F0100382
:10551000002B00F087807B68DB6D20229A403B697E
:105520009A607B6893F83530DBB2052B36D17B6807
:105530001B681A687B681B6822F016021A607B6879
:105540001B685A697B681B6822F080025A617B687D
:105550001B6C002B03D17B689B6C002B07D07B68F6
:105560001B681A687B681B6822F008021A607B6857
:10557000DB6D3F229A403B699A607B68012283F889
:1055800035207B68002283F834207B681B6D002B5C
:105590007ED07B681B6D7868984779E07B681B68D4
:1055A0001B6803F48023002B1DD07B681B681B68DD
:1055B00003F40023002B0DD17B685B6C002B31D0F2
:1055C0007B685B6C786898472CE000BF2000002067
:1055D000B5814E1B7B68DB6B002B23D07B68DB6BBC
:1055E000786898471EE07B681B681B6803F480732B
:1055F000002B0FD17B681B681A687B681B6822F040
:1056000010021A607B68012283F835207B68002233
:1056100083F834207B68DB6B002B03D07B68DB6B6B
:10562000786898477B685B6D002B32D07B685B6D38
:1056300003F00103002B22D07B68052283F835207C
:105640007B681B681A687B681B6822F001021A607D
:10565000BB680133BB607A699A4207D37B681B68D9
:105660001B6803F00103002BF2D100E000BF7B6850
:10567000012283F835207B68002283F834207B6880
:10568000DB6C002B05D07B68DB6C7868984700E00A
:1056900000BF1837BD4680BD80B485B000AF7860CC
:1056A0007B681B68DBB2103B144AA2FB03231B0977
:1056B000FB60134AFB6813441B781A467B68DA6563
:1056C000FB68032B09D97B681B6823F47F7323F0E5
:1056D00003031A1D7B689A6507E07B681B6823F447
:1056E0007F7323F003037A6893657B689B6D18468C
:1056F0001437BD465DF8047B704700BFABAAAAAA69
:1057000034EF000880B485B000AF78600023FB73ED
:105710007B689B6ABB607B689B69002B1FD1BB6861
:10572000032B56D801A252F823F000BF3D570008C2
:105730004F5700083D570008D35700087B68DB6AC5
:1057400003F08073002B46D00123FB7343E07B689A
:10575000DB6AB3F1C07F40D10123FB733DE07B687E
:105760009B69B3F5005F21D1BB68032B37D801A239
:1057700052F823F0855700088B570008855700081A
:105780009D5700080123FB7330E07B68DB6A03F060
:105790008073002B25D00123FB7322E07B68DB6A3A
:1057A000B3F1C07F1FD10123FB731CE0BB68022B48
:1057B00003D9BB68032B03D018E00123FB7315E06A
:1057C0007B68DB6A03F08073002B0ED00123FB7330
:1057D0000BE000BF0AE000BF08E000BF06E000BF2A
:1057E00004E000BF02E000BF00E000BFFB7B184602
:1057F0001437BD465DF8047B704700BF80B489B0A4
:1058000000AF7860396000237B6100233B61002397
:10581000BB610023FB6165E10122FB6902FA03F32E
:105820007B613B681B687A6913403B613A697B691D
:105830009A4240F054813B685B6803F00303012BFC
:1058400005D03B685B6803F00303022B30D17B6813
:105850009B68BB61FB695B00032202FA03F3DB4335
:10586000BA691340BB613B68DA68FB695B0002FA06
:1058700003F3BA691343BB617B68BA699A607B68BA
:105880005B68BB610122FB6902FA03F3DB43BA697F
:105890001340BB613B685B681B0903F00102FB69B5
:1058A00002FA03F3BA691343BB617B68BA695A60B1
:1058B0003B685B6803F00303032B17D07B68DB684E
:1058C000BB61FB695B00032202FA03F3DB43BA69A5
:1058D0001340BB613B689A68FB695B0002FA03F303
:1058E000BA691343BB617B68BA69DA603B685B687D
:1058F00003F00303022B23D1FB69DA087B6808322B
:1059000053F82230BB61FB6903F007039B000F22B1
:1059100002FA03F3DB43BA691340BB613B681A69BF
:10592000FB6903F007039B0002FA03F3BA69134310
:10593000BB61FB69DA087B680832B96943F8221059
:105940007B681B68BB61FB695B00032202FA03F3FF
:10595000DB43BA691340BB613B685B6803F0030239
:10596000FB695B0002FA03F3BA691343BB617B680E
:10597000BA691A603B685B6803F44033002B00F09F
:10598000AE800023FB605D4B5B6C5C4A43F480435C
:1059900053645A4B5B6C03F48043FB60FB68584ACA
:1059A000FB699B08023352F82330BB61FB6903F0AB
:1059B00003039B000F2202FA03F3DB43BA6913408F
:1059C000BB617B684F4A934225D07B684E4A934225
:1059D0001FD07B684D4A934219D07B684C4A934252
:1059E00013D07B684B4A93420DD07B684A4A93425E
:1059F00007D07B68494A934201D106230CE0072374
:105A00000AE0052308E0042306E0032304E0022360
:105A100002E0012300E00023FA6902F00302920091
:105A20009340BA691343BB613549FB699B08023354
:105A3000BA6941F823203A4B9B68BB613B69DB4361
:105A4000BA691340BB613B685B6803F48013002BA9
:105A500003D0BA693B691343BB61314ABB699360A8
:105A60002F4BDB68BB613B69DB43BA691340BB6109
:105A70003B685B6803F40013002B03D0BA693B69F1
:105A80001343BB61264ABB69D360254B5B68BB618E
:105A90003B69DB43BA691340BB613B685B6803F455
:105AA0000033002B03D0BA693B691343BB611C4A26
:105AB000BB6953601A4B1B68BB613B69DB43BA6926
:105AC0001340BB613B685B6803F48033002B03D059
:105AD000BA693B691343BB61114ABB691360FB6937
