:020000040800F2
:1000000000000220013A0008111F0008191F000813
:10001000211F0008291F0008311F000800000000F0
:10002000000000000000000000000000119900081E
:10003000391F000800000000719C0008D99C0008CE
:10004000513A0008513A0008513A0008513A000864
:10005000513A0008513A0008513A0008513A000854
:10006000513A0008513A0008513A0008491F000867
:10007000513A0008513A0008513A0008513A000834
:10008000513A00085D1F0008513A0008513A000833
:10009000513A0008513A0008513A0008513A000814
:1000A000513A0008513A0008513A0008513A000804
:1000B000513A0008513A0008513A0008513A0008F4
:1000C000513A0008513A0008513A0008513A0008E4
:1000D000513A0008513A0008513A0008513A0008D4
:1000E000513A0008513A0008513A0008513A0008C4
:1000F000513A0008513A0008513A0008513A0008B4
:10010000513A0008513A0008513A0008513A0008A3
:10011000513A0008513A0008711F0008513A00088E
:10012000513A0008513A0008513A0008513A000883
:10013000513A00080000000000000000513A000899
:10014000513A0008513A0008513A0008513A000863
:10015000513A0008513A0008513A0008513A000853
:10016000513A0008513A0008513A0008513A000843
:10017000513A0008513A0008513A000800000000C6
:1001800000000000513A00080000000000000000DC
:10019000513A00080000000000000000513A000839
:1001A000000000000000000000000000513A0008BC
:1001B000513A0008513A0008513A0008513A0008F3
:0401C000513A0008A8
:1001D00010B5054C237833B9044B13B10448AFF381
:1001E00000800123237010BD3801002000000000B2
:1001F0009CD1000808B5034B1BB103490348AFF37A
:10020000008008BD000000003C0100209CD10008D7
:10021000F0B400EB4003DFF8880000EBC30000F10E
:1002200018063069F7687568874232D3B368DC1BFB
:10023000631E934214D37D19D01900BF11F8013BFE
:1002400005F8013B013A05D011F8013B05F8013BE7
:10025000013AF3D1BFF35F8FF0600120F0BC70472B
:10026000C018904219D37819121B11F8013B00F8FD
:10027000013B013CF9D1141C05D011F8013B05F8F4
:10028000013B013AF9D1BFF35F8FF4600120F0BC6C
:100290007047C01B01389042CDD20020F0BC70479F
:1002A000D433012010F8012B11F8013B012A28BF9B
:1002B0009A42F7D0D01A7047034613F8012B002A50
:1002C000FBD1181A01387047000000000000000040
:1002D00001F0FF01102A2BDB10F0070F08D010F8F7
:1002E000013B013A8B422DD010F0070F42B3F6D1FB
:1002F000F0B441EA012141EA014122F007047FF014
:1003000000070023F0E80256083C85EA010586EA6A
:10031000010685FA47F5A3FA87F586FA47F6A5FAA6
:1003200087F68EB9EED1F0BC01F0FF0102F00702B2
:1003300032B110F8013B013A83EA010313B1F8D15D
:100340000020704701387047002D06BF354603383E
:10035000073815F0010F07D1013015F4807F02BF77
:10036000013015F4C03F0130F0BC0138704700BFC8
:1003700053B94AB9002908BF00281CBF4FF0FF310C
:100380004FF0FF3000F06AB9ADF1080C6DE904CE12
:1003900000F006F8DDF804E0DDE9022304B0704760
:1003A0002DE9F047089D0C46002B4ED194468C4514
:1003B0008646B2FA82F262D94AB1C2F12003914074
:1003C00020FA03F30CFA02FC194300FA02FE4FEA8A
:1003D0001C471FFA8CF6B1FBF7F44FEA1E4307FBEC
:1003E000141143EA014304FB06F199420AD91CEBBC
:1003F000030304F1FF3080F01281994240F20F8133
:10040000023C6344591A1FFA8EF3B1FBF7F007FB65
:10041000101143EA014300FB06F69E420AD91CEB89
:10042000030300F1FF3180F0FC809E4240F2F9802E
:10043000634402389B1B40EA044000211DB1D340B5
:100440000022C5E90032BDE8F0878B4205D90DB125
:10045000C5E9000100210846F5E7B3FA83F1002958
:1004600046D1A34202D39042C0F0F080861A64EBDA
:1004700003030120002DE6D0C5E90063E3E7002A6D
:1004800040F09080A1EB0C044FEA1C481FFA8CF757
:100490000121B4FBF8F64FEA1E4308FB164443EA79
:1004A000044307FB06F0984208D91CEB030306F14E
:1004B000FF3402D2984200F2CD8026461C1A1FFA61
:1004C0008EF3B4FBF8F008FB104443EA044300FB4E
:1004D00007F79F4208D91CEB030300F1FF3402D257
:1004E0009F4200F2B0802046DB1B40EA0640A5E7B1
:1004F000C1F120068B4022FA06F71F4320FA06FCC2
:1005000004FA01F343EA0C03F44000FA01F8380C52
:100510004FEA1349B4FBF0FE1FFA87FC00FB1E44B0
:1005200049EA04440EFB0CF9A14502FA01F20AD98A
:100530003C190EF1FF3A80F08480A14540F28180A1
:10054000AEF1020E3C44A4EB09041FFA83F9B4FB9C
:10055000F0F300FB134449EA044403FB0CFCA445FC
:1005600007D93C1903F1FF3067D2A44565D9023B96
:100570003C4443EA0E40A0FB0293A4EB0C049C42D3
:10058000CE469C4651D34ED055B1B8EB0E0364EB2A
:100590000C0404FA06F6CB401E43CC40C5E90064C7
:1005A000002150E7C2F1200320FA03F10CFA02FC0B
:1005B00024FA03F394400C434FEA1C4800FA02FE6D
:1005C0001FFA8CF7B3FBF8F008FB1031230C43EA59
:1005D000014300FB07F1994208D91CEB030300F12A
:1005E000FF362CD299422AD9023863445B1AA4B24E
:1005F000B3FBF8F108FB113344EA034401FB07F3B2
:10060000A34208D91CEB040401F1FF3613D2A34224
:1006100011D902396444E41A41EA004139E7044639
:10062000F0E6084606E7C845AED2B9EB020E63EB2A
:10063000070C0138A8E73146EDE7034699E7304655
:10064000D4E7D6467FE7634402384DE706462346A3
:1006500008460FE7023E634430E700BF704700BF23
:1006600080B483B000AF7860084B1B6800225A62E8
:1006700000BF064B1B685B6A7A689A42F9D800BFD4
:1006800000BF0C37BD465DF8047B7047FC020020BC
:1006900080B485B000AF78600B46FB700023BB735D
:1006A0000023FB7309E0FB7B7A6813441A78BB7B59
:1006B0001344BB73FB7B0133FB73FA7BFB789A42D9
:1006C000F1D3BB7BDB43BB73BB7B18461437BD4602
:1006D0005DF8047B7047000080B58AB004AF034624
:1006E0003960FB711346BB710C4A07F10C0307CA52
:1006F00003C31A80FB799AB2BB799BB24FF0FF31EA
:10070000029101933B68009301231021044804F0F7
:10071000DFF800BF1837BD4680BD00BFB4D1000868
:100720009001002080B58AB004AF03463960FB71A8
:100730001346BB7100237B610C4A07F1080307CA0B
:1007400003C31A80FB799AB2BB799BB24FF0FF3199
:10075000029101933B68009301231021044804F0A7
:10076000B1F9002318461837BD4680BDB4D1000842
:100770009001002080B586B000AF03463960FB8051
:1007800013467B710023BB82494A07F10C0392E8B0
:100790000300186004331980FB88DBB23B73FB88CD
:1007A0001B0A9BB2DBB27B733B68DBB2BB737B790A
:1007B000042B4CD0042B77DC012B02D0022B21D050
:1007C00072E007F10C03032219463E20FFF784FF75
:1007D0004FF4FA60FFF744FF07F10C0303211846BA
:1007E000FFF756FF03463B7505237B7507F114039E
:1007F000022219466020FFF76FFF4FF4FA60FFF7FF
:100800002FFF51E03B681B0ADBB2FB7307F10C03BF
:10081000042219463E20FFF75FFF4FF4FA60FFF70E
:100820001FFF07F10C0304211846FFF731FF0346B1
:100830003B7506237B7507F11403022219466020DD
:10084000FFF74AFF4FF4FA60FFF70AFF2CE03B681E
:100850001B0ADBB2FB733B681B0CDBB23B743B68CF
:100860001B0EDBB27B7407F10C03062219463E20F7
:10087000FFF732FF4FF4FA60FFF7F2FE07F10C03C7
:1008800006211846FFF704FF03463B7508237B75D6
:1008900007F11403022219466020FFF71DFF4FF4F1
:1008A000FA60FFF7DDFE00BF00BF1837BD4680BD10
:1008B000C0D1000880B584B000AF0346FB800023A0
:1008C000BB81FB88DBB23B73FB881B0A9BB2DBB2AC
:1008D0007B7307F10C03022219463E20FFF7FCFE52
:1008E0004FF4FA60FFF7BCFE00BF1037BD4680BD75
:1008F00080B584B000AF0346FB710B46BB80134646
:10090000BB710023BB81BB88DBB23B73BB881B0A76
:100910009BB2DBB27B73BB79002B09D1FB7902223E
:100920000C491846FFF7FEFE4FF4FA60FFF798FEF9
:10093000BB79012B0AD107F10C01FB790222184681
:10094000FFF7CAFE4FF4FA60FFF78AFE00BF1037C8
:10095000BD4680BDE404002080B500AF9020FFF7C5
:10096000A9FF02224FF4365149F23420FFF702FF6B
:100970000122002149F23720FFF7FCFE01222A2143
:1009800049F2FC20FFF7F6FE022248F21F0149F26D
:100990000430FFF7EFFE0122BC2149F26120FFF78E
:1009A000E9FE0122F72149F26220FFF7E3FE02226D
:1009B0004FF6820149F26D20FFF7DCFE0122032190
:1009C00049F23530FFF7D6FE0122232149F2752086
:1009D000FFF7D0FE0122552149F27820FFF7CAFE29
:1009E0000122052149F28020FFF7C4FE01220A21DD
:1009F00049F28220FFF7BEFE0122052149F286203E
:100A0000FFF7B8FE0122032149F28720FFF7B2FE6B
:100A10000122012149F29520FFF7ACFE9220FFF759
:100A200049FF00BF80BD000080B500AF002200215B
:100A30006220FFF75DFF054B5B781B029BB2034A08
:100A4000127813449BB2184680BD00BFE404002016
:100A500080B582B000AF0346FB71FB790022002114
:100A60001846FFF745FFFB79132B0BD9FB79322B87
:100A700008D80C4B5B781B029BB20A4A12781344CD
:100A80009BB20BE0074B5B781B02064A12781344BB
:100A90009BB21A46920013445B009BB2184608377B
:100AA000BD4680BDE404002080B582B000AF1423B1
:100AB0007B6000233B6010E07B68DBB21846FFF7E9
:100AC000C7FF03461946134A3B6822F813107B6898
:100AD00002337B603B6801333B603B680F2BEBDDEF
:100AE0003420FFF7B5FF03461A460B4B1A80362019
:100AF000FFF7AEFF03461A46084B1A803820FFF76F
:100B0000A7FF03461A46064B1A8000BF0837BD46AA
:100B100080BD00BFE8040020080500200A05002071
:100B20000C05002080B500AF002200213A20FFF71D
:100B3000DFFE054B5B781B029BB2034A127813441D
:100B40009BB2184680BD00BFE4040020B0B58CB055
:100B500004AFAF4B3C1D0FCB84E80F0002F07AFFCF
:100B600000F0B0F900F01EFB00F0F4FA00F09EFA7D
:100B700000F042FA00F0C4FA00F010FA00F072FA45
:100B8000A44B1B68A34A43F00103136009F050FB18
:100B90000AF0BCFB0221A04803F03BFDC82002F094
:100BA0009BFF02219C4803F034FDC82002F094FF13
:100BB00000220821994803F013FD642002F08CFF05
:100BC00001220821954803F00BFD4FF47A7002F0E2
:100BD00083FF9349934802F0FBF99349934802F04D
:100BE0001DFA3B1D1946012002F044FA0346B3F1F9
:100BF000FF3F01D100BFFDE700F00AFD8C4802F085
:100C000013FE642318228B498B4806F017FA884B91
:100C10001B781C46864B5B781D46854B9B781A4695
:100C2000834BDB781946824B1B791846804B5B79E6
:100C300003930290019100922B4622467F498048FF
:100C40000BF074FA7E48FFF737FB03469AB2642331
:100C50007B49794806F0F2F9754B9B791946744B3C
:100C6000DB791846724B1B7A1A46714B5B7A0193FB
:100C7000009203460A46734971480BF057FA7048D0
:100C8000FFF71AFB03469AB264236D496A4806F0DF
:100C9000D5F9674B9B7A1946654BDB7A1846644B4E
:100CA0001B7B1A46624B5B7B0193009203460A460C
:100CB000654963480BF03AFA6148FFF7FDFA0346CD
:100CC0009AB264235E495C4806F0B8F9584B9B7BA6
:100CD0001946574BDB7B1846554B1B7C1A46544B29
:100CE0005B7C0193009203460A46584954480BF036
:100CF0001DFA5348FFF7E0FA03469AB264235049BD
:100D00004D4806F09BF94A49002002F093FA01236E
:100D10003B700123FB700023BB7001237B703B46BB
:100D200019460A2002F0A6F900F084FC00F0AEFC9F
:100D30000121394803F06DFCC82002F0CDFE0221EC
:100D4000354803F066FCC82002F0C6FE404805F0B6
:100D50001DFE42F21070FFF783FCFFF7FDFD42F22B
:100D60001070FFF77DFC2220FFF7A4FD42F2107007
:100D7000FFF776FC9A20FFF79DFD4EF66020FFF707
:100D80006FFC4EF66020FFF76BFC4EF66020FFF71D
:100D900067FC4EF66020FFF763FC2E4B01930323A4
:100DA00000930023C8222C492C4807F023FB03465C
:100DB0002B4A13602A4B1B68012B0BD04FF05003BA
:100DC00083F31188BFF36F8FBFF34F8FFB6100BFB9
:100DD00000BFFDE7234B0193012300930023C822AA
:100DE0002149224807F006FB03461D4A13601C4BAD
:100DF0001B68012B3CD04FF0500383F31188BFF3E5
:100E00006F8FBFF34F8FBB6100BF00BFFDE700BF17
:100E100090D20008001000E00004024000000240F0
:100E2000CD150008B5150008E5150008FF150008E8
:100E300000000020C8D100088C030020E4D1000885
:100E40005401002008D2000828D2000848D2000827
:100E5000FC020020D404002068D20008BD12000863
:100E6000E0040020D804002074D20008991400087F
:100E7000104B0193022300930023C8220E490F4810
:100E800007F0B8FA03460E4A13600D4B1B68012B9E
:100E90000BD04FF0500383F31188BFF36F8FBFF374
:100EA0004F8F7B6100BF00BFFDE707F041FC00BF33
:100EB000FDE700BFDC04002080D20008CD1400084C
:100EC000E004002080B594B000AF07F11C03342289
:100ED000002118460BF032FA07F1080300221A60CD
:100EE0005A609A60DA601A6100237B60294B1B6CA0
:100EF000284A43F080531364264B1B6C03F0805345
:100F00007B607B6800233B60234B1B68224A43F4D1
:100F100040431360204B1B6803F440433B603B6835
:100F20000123FB614FF480333B6202237B634FF468
:100F30008003BB630823FB63A8233B6402237B6419
:100F40000223BB640223FB6407F11C03184604F070
:100F500019FF0346002B01D000F0EEFB0F23BB600E
:100F60000223FB6000233B614FF4A0537B614FF4ED
:100F70008053BB6107F108030521184604F088FB84
:100F80000346002B01D000F0D7FB00BF5037BD4611
:100F900080BD00BF003802400070004080B500AF47
:100FA000124B134A1A60114B124A5A600F4B00221F
:100FB0009A600E4B0022DA600C4B4FF480421A61AB
:100FC0000A4B00225A61094B00229A61074B00220A
:100FD000DA61064B00221A62044803F035FB03462F
:100FE000002B01D000F0A8FB00BF80BD90010020C5
:100FF00000540040A086010080B500AF174B184A8E
:101000001A60164B4FF482725A60144B00229A6099
:10101000124B0022DA60114B00221A610F4B0022A2
:101020005A610E4B4FF400729A610C4B0022DA6148
:101030000A4B00221A62094B00225A62074B002217
:101040009A62064B0A22DA62044805F039F903462F
:10105000002B01D000F070FB00BF80BDA402002077
:101060000030014080B500AF0E4B0F4A1A600D4BA7
:1010700000225A600B4B00229A600A4B4FF6FF7217
:10108000DA60084B00221A61064B00229A6105487B
:1010900005F02CFC0346002B01D000F04DFB00BFF7
:1010A00080BD00BFFC0200200044014080B500AFBD
:1010B000114B124A1A60104B4FF4E1325A600E4B3A
:1010C00000229A600C4B0022DA600B4B00221A615E
:1010D000094B0C225A61084B00229A61064B0022F0
:1010E000DA61054805F002FF0346002B01D000F04D
:1010F00023FB00BF80BD00BF44030020001001405F
:1011000080B500AF114B124A1A60104B4FF4E13218
:101110005A600E4B00229A600C4B0022DA600B4B97
:1011200000221A61094B0C225A61084B00229A6175
:10113000064B0022DA61054805F028FF0346002B24
:1011400001D000F0F9FA00BF80BD00BF8C03002081
:101150000044004080B582B000AF00237B60104B9C
:101160001B6B0F4A43F4001313630D4B1B6B03F40B
:1011700000137B607B68002200210B2002F088FDB9
:101180000B2002F0A1FD00220021112002F080FDC1
:10119000112002F099FD00BF0837BD4680BD00BF99
:1011A0000038024080B58AB000AF07F11403002276
:1011B0001A605A609A60DA601A6100233B613B4B07
:1011C0001B6B3A4A43F080031363384B1B6B03F0ED
:1011D00080033B613B690023FB60344B1B6B334A4C
:1011E00043F001031363314B1B6B03F00103FB60FE
:1011F000FB680023BB602D4B1B6B2C4A43F00203A2
:1012000013632A4B1B6B03F00203BB60BB68002314
:101210007B60264B1B6B254A43F004031363234B6F
:101220001B6B03F004037B607B68002218212048BD
:1012300003F0D6F9002248F203011E4803F0D0F96A
:1012400000224FF400611C4803F0CAF918237B61A7
:101250000123BB610023FB6100233B6207F1140300
:101260001946134803F028F848F203037B61012371
:10127000BB610023FB6100233B6207F114031946A5
:101280000C4803F019F84FF400637B610123BB6144
:101290000023FB6100233B6207F114031946064853
:1012A00003F00AF800BF2837BD4680BD0038024071
:1012B00000000240000402400008024080B586B0F1
:1012C00000AF7860642313225C495D4805F0B6FEE8
:1012D00001215C4803F09DF95B480AF01FFF642080
:1012E00007F0ECF900234FF4FB720121012001F01B
:1012F0004DF90346012B06D054480AF00FFFC820D1
:1013000007F0DCF999E052480AF008FF0023FB726D
:1013100007F10B031A460021012001F035FD4FF4BF
:10132000FB714C480AF092FE4B480AF0F7FE012090
:1013300001F0AEFA0346012B09D04FF4FB71474888
:101340000AF084FE4FF47A7007F0B8F975E00023D4
:10135000FB7507F0FFFA034603F59C5308333B6126
:101360004FF44A7000F072FE0346FB75642007F0EC
:10137000A5F9FB7D172B08D0FB7D002B05D007F0CE
:10138000E9FA02463B699342EAD8FB7D002B07D17C
:1013900033480AF0C3FE4FF47A7007F08FF94CE03F
:1013A000FB7D172B94D12F480AF0B8FE2E480AF087
:1013B000B5FE80222D49012001F032FCF860FB6867
:1013C00013F1070F06D12A480AF0A8FE29480AF0AF
:1013D000A5FE32E0254AFB68134400221A70F96822
:1013E00025480AF033FE214924480AF02FFE8022C6
:1013F000002123480AF0A2FF224BFA6820491B482B
:1014000000F0D2F920480AF089FE20491748FEF77B
:1014100049FF0346002B0CD11D480AF07FFE1D48F2
:101420000AF07CFE13480AF079FE012001F08AFAE6
:1014300003E0642007F042F9BBE749E7A0D20008C7
:101440008C03002000040240B4D20008D4D200086B
:10145000ECD200080CD300082CD3000850D30008AD
:101460006CD30008A0D30008B8D3000854040020AF
:10147000D8D30008F4D300080CD400082CD40008FA
:10148000D40300201800002040D400085CD40008D9
:1014900064D4000888D4000880B582B000AF7860BA
:1014A000642312220649074805F0C8FD02210648B8
:1014B00003F0AFF8642007F001F900BFF0E700BFC8
:1014C0009CD400088C0300200004024080B584B046
:1014D00000AF7860FFF7E8FA3420FFF7B9FA034667
:1014E000FB81254B1A88254B1A80234B5A88234BA6
:1014F0005A80214B9A88214B9A801F4BDA881F4BC8
:10150000DA801D4B1A891D4B1A811B4BDA8B1B4B42
:101510005A811A4AFB899381FFF704FB03461A4656
:10152000164BDA813620FFF793FA03461A46134B1F
:101530001A82FFF779FA0346BB81FFF775FA034673
:101540001A460F4B1A800E4B1B8803F08003002BAA
:101550000CD0FFF7A9FAFFF7E5FA03461A46094B44
:101560001A80012280216220FFF7C2F94FF4FA703D
:1015700007F0A4F8AEE700BFE80400201800002040
:10158000100500200E05002080B586B002AF03468E
:10159000FB7107F10F02F91D322300930123044868
:1015A00004F017FFFB7B18461037BD4680BD00BF17
:1015B000A402002080B500AF00221021024803F0F1
:1015C0000FF800BF80BD00BF0000024080B500AF33
:1015D00001221021024803F003F800BF80BD00BFC4
:1015E0000000024080B582B000AF0346FB71FB797A
:1015F0001846FFF7C9FF00BF0837BD4680BD80B55C
:1016000000AFFF20FFF7C0FF0346184680BD000073
:1016100080B582B000AF0649002001F00BFE3B46CA
:101620001946082001F026FD00BF0837BD4680BDE1
:101630000000002080B582B000AF10480AF006FD1F
:10164000FB1D19460F2001F015FDFB79002B0BD176
:101650000B480AF0FBFC012202210A4802F0C0FFFD
:101660004FF4FA7002F038FAFB79002BE5D0064807
:101670000AF0ECFC00BF0837BD4680BDB0D40008BE
:10168000D8D4000800040240ECD4000880B582B031
:1016900000AF3B1D19460B2001F0ECFC3B79002B01
:1016A00003D114480AF0D2FC02E013480AF0CEFC41
:1016B0007B79012B03D111480AF0C8FC02E01048E5
:1016C0000AF0C4FCFB79012B03D10E480AF0BEFCE2
:1016D00002E00D480AF0BAFCBB79002B03D10B489D
:1016E0000AF0B4FC02E00A480AF0B0FC00BF083778
:1016F000BD4680BD08D500082CD500084CD5000893
:1017000068D5000888D500089CD50008B0D5000829
:10171000C0D5000880B582B000AF78607B681B68D8
:10172000044A934201D102F0B7F900BF0837BD4621
:1017300080BD00BF0010004080B400AF72B600BF93
:1017400000BFFDE780B485B000AF0346B9607A60A2
:10175000FB81FB89DAB27B681A70FB891B0A9BB29A
:10176000DAB2BB681A7000BF1437BD465DF8047B5F
:10177000704780B485B000AF03460A46FB7113463C
:10178000BB710023FB81FB79FB81FB891B02FB8181
:10179000BB799AB2FB891343FB81FB891846143746
:1017A000BD465DF8047B704790B58BB000AFF86024
:1017B000B9607A603B600023FB830023BB83002376
:1017C000FB8400237B8300233B830023BB84002313
:1017D000FB82FB6806331B78012B40F04D81BB6810
:1017E0000633FA6892791A70BB680733FA68D279BF
:1017F0001A70BB68023300221A70BB6803330022E0
:101800001A70FB6807331B78102B00F09E80102B9A
:1018100000F32E81032B03D0062B00F0258127E156
:10182000FB6808331A78FB6809331B7819461046A1
:10183000FFF79FFF0346FB83FB8B3F2B7ED8FB68A4
:101840000A331A78FB680B331B7819461046FFF7EA
:1018500090FF0346BB83BB8B402B6BD8BA8BFB8BB3
:101860001344402B66DCFB681A78BB681A70BB68AF
:101870000133FA6852781A70BB8BDBB25B00DAB2C4
:10188000BB6805330332D2B21A70BB8BDAB2BB68C5
:1018900008335200D2B21A70BB8B012B2BD9002314
:1018A0003B62FB8BFB8421E0FA8BFB8C13445B00D7
:1018B0003A6813441B88724A72491846FFF742FF80
:1018C0003B6A09331A46BB6813446E4A12781A7091
:1018D0003B6A0A331A46BB681344694A12781A7085
:1018E0003B6A02333B62FB8C0133FB84FA8CBB8B7B
:1018F0009A42D9D313E0FB8B5B003A6813441B88F0
:101900005F4A60491846FFF71DFFBB6801335D4A17
:1019100012781A70BB680233594A12781A70BB8B5E
:101920005B009BB209339BB21A46B968012001F0F3
:101930007FF806E0544B01221A7002E0524B01225C
:101940001A7052480AF0EAFB96E0FB6808331A78EE
:10195000FB6809331B7819461046FFF70AFF034658
:10196000FB83FB8B3F2B78D8FB680A331A78FB6824
:101970000B331B7819461046FFF7FBFE0346BB836B
:10198000BB8B402B65D8BA8BFB8B1344402B60DCA0
:10199000FB681A78BB681A70BB680133FA68527822
:1019A0001A70BB68053306221A70FB8B3B830D232C
:1019B000FB84BB8B012B11D1FB8CFA681344187884
:1019C000FB8C0133FA6813441978FB8B5B003A688F
:1019D000D418FFF7CEFE0346238020E03B8BBB8468
:1019E00017E0FB8CFA6813441878FB8C01331A4615
:1019F000FB6813441978BB8C5B003A68D418FFF776
:101A0000B8FE03462380FB8C0233FB84BB8C01337E
:101A1000BB84BA8CB98B3B8B0B449A42E1DBBB682D
:101A20000833FA68127A1A70BB680933FA68527A76
:101A30001A70BB680A33FA68927A1A70BB680B3363
:101A4000FA68D27A1A700C22B968012000F0F0FF0F
:101A500006E00D4B01221A7002E00B4B01221A70B6
:101A60000B480AF05BFB07E00A480AF057FB03E06B
:101A700009480AF053FB00BF00BF2C37BD4690BD9C
:101A8000130500201405002012050020D4D50008FD
:101A9000E4D50008F4D5000804D6000880B582B06B
:101AA00000AF00237B60104B5B6C0F4A43F4804314
:101AB00053640D4B5B6C03F480437B607B680023B5
:101AC0003B60094B1B6C084A43F080531364064B80
:101AD0001B6C03F080533B603B6807F0E7FF00BFDF
:101AE0000837BD4680BD00BF0038024080B58AB0CF
:101AF00000AF786007F1140300221A605A609A6000
:101B0000DA601A617B681B68484A934240F089801A
:101B100000233B61464B1B6B454A43F002031363B2
:101B2000434B1B6B03F002033B613B694FF4407373
:101B30007B611223BB610023FB6103233B6204230F
:101B40007B6207F1140319463A4802F0B5FB002303
:101B5000FB60374B1B6C364A43F400131364344B61
:101B60001B6C03F40013FB60FB68334B334A1A60B1
:101B7000314B4FF000725A602F4B00229A602E4B6F
:101B80000022DA602C4B4FF480621A612A4B00224B
:101B90005A61294B00229A61274B0022DA61264BB9
:101BA00000221A62244B00225A62234802F09AF85B
:101BB0000346002B01D0FFF7BFFD7B681E4A9A63E6
:101BC0001D4A7B6893631E4B1E4A1A601C4B4FF0E4
:101BD00000725A601A4B40229A60194B0022DA6058
:101BE000174B4FF480621A61154B00225A61144B57
:101BF00000229A61124B0022DA61114B00221A6214
:101C00000F4B00225A620E4802F06CF80346002B7C
:101C100001D0FFF791FD7B68094A5A63084A7B6847
:101C2000936300BF2837BD4680BD00BF005400400D
:101C30000038024000040240E4010020106002402D
:101C400044020020A060024080B58AB000AF7860F6
:101C500007F1140300221A605A609A60DA601A6170
:101C60007B681B68194A93422BD100233B61184BB8
:101C70005B6C174A43F480535364154B5B6C03F45D
:101C800080533B613B690023FB60114B1B6B104A87
:101C900043F0010313630E4B1B6B03F00103FB6066
:101CA000FB68E0237B610223BB610023FB6103230C
:101CB0003B6205237B6207F114031946054802F0D5
:101CC000FBFA00BF2837BD4680BD00BF0030014091
:101CD000003802400000024080B485B000AF786058
:101CE0007B681B680B4A93420DD10023FB600A4BB3
:101CF0005B6C094A43F400335364074B5B6C03F499
:101D00000033FB60FB6800BF1437BD465DF8047B01
:101D1000704700BF004401400038024080B58CB0DD
:101D200000AF786007F11C0300221A605A609A60C5
:101D3000DA601A617B681B68324A93422CD1002317
:101D4000BB61314B5B6C304A43F0100353642E4B44
:101D50005B6C03F01003BB61BB6900237B612A4B02
:101D60001B6B294A43F002031363274B1B6B03F0E1
:101D700002037B617B69C023FB6102233B6200237A
:101D80007B620323BB620723FB6207F11C03194636
:101D90001E4802F091FA30E07B681B681C4A9342AF
:101DA0002BD100233B61184B1B6C174A43F40033C3
:101DB0001364154B1B6C03F400333B613B69002338
:101DC000FB60114B1B6B104A43F0010313630E4B76
:101DD0001B6B03F00103FB60FB680423FB61122310
:101DE0003B6200237B620323BB620723FB6207F194
:101DF0001C031946074802F05FFA00BF3037BD46A2
:101E000080BD00BF001001400038024000040240C5
:101E1000004400400000024080B58EB000AF786002
:101E20000023FB620023BB620023FB60334B1B6C6F
:101E3000324A43F010031364304B1B6C03F0100361
:101E4000FB60FB6807F1100207F114031146184606
:101E500003F038FD3B6AFB62FB6A002B03D103F001
:101E600009FD786304E003F005FD03465B007B6336
:101E70007B6B234AA2FB03239B0C013BBB62214BE0
:101E8000214A1A601F4B40F2E732DA601D4ABB6AF2
:101E900053601C4B00221A611A4B00229A60194BA6
:101EA00000229A61174804F021FD034687F8333079
:101EB00097F83330002B1BD1124804F0CFFD0346B6
:101EC00087F8333097F83330002B11D1362001F0EA
:101ED000FBFE7B680F2B08D800227968362001F0C2
:101EE000D7FE0A4A7B68136002E0012387F833308B
:101EF00097F8333018463837BD4680BD0038024069
:101F000083DE1B431805002000100040CC00002099
:101F100080B400AF00BFFDE780B400AF00BFFDE7B5
:101F200080B400AF00BFFDE780B400AF00BFFDE7A5
:101F300080B400AF00BFFDE780B400AF00BFBD4676
:101F40005DF8047B7047000080B500AF024801F0E7
:101F500077FF00BF80BD00BFE401002080B500AF67
:101F6000024801F06DFF00BF80BD00BF44020020A9
:101F700080B500AF024804F0E1FD00BF80BD00BFA6
:101F80001805002080B586B000AFF860B9607A60AF
:101F900000237B610AE0AFF300800146BB685A1C56
:101FA000BA60CAB21A707B6901337B617A697B6857
:101FB0009A42F0DB7B6818461837BD4680BD80B476
:101FC00083B000AF78604FF0FF3318460C37BD4642
:101FD0005DF8047B704780B483B000AF78603960EF
:101FE0003B684FF400525A60002318460C37BD4638
:101FF0005DF8047B704780B483B000AF7860012344
:1020000018460C37BD465DF8047B704780B485B038
:1020100000AFF860B9607A60002318461437BD46F7
:102020005DF8047B7047000080B400AF064BD3F826
:102030008830054A43F47003C2F8883000BFBD46BB
:102040005DF8047B704700BF00ED00E080B584B010
:1020500000AF7860224BDB689847214B5B6998475B
:102060001F4B5B6A002B03D01D4B9B6A002B14D1C6
:102070001B4B1B6A7A68120CD2B210469847184B59
:102080001B6A7A68120AD2B210469847144B1B6A30
:102090007A68D2B21046984711E07B681B0CDBB21D
:1020A0003B737B681B0ADBB27B737B68DBB2BB7361
:1020B0000B4B9B6A07F10C02032110469847084B13
:1020C000DB6998470346FB73054B9B699847044BB4
:1020D0001B699847FB7B18461037BD4680BD00BF83
:1020E000A000002080B584B000AF78600B46FB7084
:1020F000224BDB689847214B5B6998477B6843F02C
:1021000004037B601D4B9B6A002B19D11B4B1B6A80
:102110007A68120CD2B210469847184B1B6A7A683C
:10212000120AD2B210469847144B1B6A7A68D2B290
:1021300010469847114B1B6AFA781046984713E0EF
:102140007B681B0CDBB23B737B681B0ADBB27B73C7
:102150007B68DBB2BB73FB78FB73084B9B6A07F1B0
:102160000C02042110469847044B9B699847034B87
:102170001B69984700BF1037BD4680BDA0000020F6
:1021800090B587B000AFF860B9601346FB802B4B69
:10219000DB689847294B5B699847284B5B6A002BA3
:1021A00003D0264B9B6A002B26D1244B1B6AFA686E
:1021B000120CD2B210469847204B1B6AFA68120ADA
:1021C000D2B2104698471D4B1B6AFA68D2B210462D
:1021D00098470023FB820AE0184BDB69FA8AB9684A
:1021E0008C18984703462370FB8A0133FB82FA8AD6
:1021F000FB889A42F0D317E0FB681B0CDBB23B7400
:10220000FB681B0ADBB27B74FB68DBB2BB740B4B55
:102210009B6A07F11002032110469847074B5B6A3F
:10222000FA881146B8689847044B9B699847034B56
:102230001B69984700BF1C37BD4690BDA000002019
:1022400080B586B000AFF860B9601346FB802B4BB9
:10225000DB689847294B5B699847FB6843F00403A8
:10226000FB60264B9B6A002B26D1244B1B6AFA6825
:10227000120CD2B210469847204B1B6AFA68120A19
:10228000D2B2104698471D4B1B6AFA68D2B210466C
:1022900098470023FB820AE0184B1B6AFA8AB96848
:1022A0000A44127810469847FB8A0133FB82FA8A67
:1022B000FB889A42F0D317E0FB681B0CDBB23B743F
:1022C000FB681B0ADBB27B74FB68DBB2BB740B4B95
:1022D0009B6A07F11002032110469847074B9B6A3F
:1022E000FA881146B8689847044B9B699847034B96
:1022F0001B69984700BF1837BD4680BDA00000206D
:1023000090B585B000AF0346FB710023FB8100232D
:10231000BB81FB799B000133DB0003F500531846BA
:10232000FFF794FE0346BB81BB891B029CB2FB797D
:102330009B000133DB0003F504531846FFF786FECC
:1023400003462344BB81BB89002B19D0FB799B003A
:102350000133DB0003F500531846FFF777FE034611
:10236000FB81FB891B029CB2FB799B000133DB00E4
:1023700003F504531846FFF769FE03462344FB8127
:10238000FA89BB899A42C4D1FB8918461437BD46E5
:1023900090BD90B585B000AF0346FB710023FB8173
:1023A0000023BB81FB799B000133DB0003F518534D
:1023B0001846FFF74BFE0346BB81BB891B029CB24C
:1023C000FB799B000133DB0003F51C531846FFF734
:1023D0003DFE03462344BB81BB89002B19D0FB790A
:1023E0009B000133DB0003F518531846FFF72EFE60
:1023F0000346FB81FB891B029CB2FB799B000133E6
:10240000DB0003F51C531846FFF720FE0346234468
:10241000FB81FA89BB899A42C4D1FB8918461437DB
:10242000BD4690BD90B585B000AF03463960FB71E5
:102430001346BB800023FB810023BB60BB88002BBD
:1024400046D0FB799B000133DB0003F5105318469F
:10245000FFF7FCFD03461B029CB2FB799B00013396
:10246000DB0003F514531846FFF7F0FD0346234441
:10247000FB81FB891B02FA7992000232D2001344DD
:10248000BB60BB881A463968B868FFF7D9FEFA897D
:10249000BB881344FB81FB799B000133DB0003F510
:1024A00010531A46FB891B0A9BB2DBB21946104631
:1024B000FFF718FEFB799B000133DB0003F5145393
:1024C0001A46FB89DBB219461046FFF70BFE00E007
:1024D00000BF1437BD4690BD90B585B000AF034630
:1024E0003960FB711346BB800023FB810023BB6076
:1024F000BB88002B46D0FB799B000133DB0003F542
:1025000020531846FFF7A2FD03461B029CB2FB793D
:102510009B000133DB0003F524531846FFF796FDBB
:1025200003462344FB81FB891B02FA7992000332A4
:10253000D2001344BB60BB881A463968B868FFF7FD
:102540001FFEFA89BB881344FB81FB799B00013392
:10255000DB0003F520531A46FB891B0A9BB2DBB252
:1025600019461046FFF7BEFDFB799B000133DB00E7
:1025700003F524531A46FB89DBB219461046FFF7D0
:10258000B1FD00E000BF1437BD4690BD90B585B0E9
:1025900000AF0446084611461A462346FB7103461F
:1025A000BB710B46BB801346FB70FB79082B02D92D
:1025B0004FF0FF33F0E0BB79012B05D0002B11DD8C
:1025C000023B022B0ED811E007F10C03042219463E
:1025D0004FF47060FFF7D4FDFB68002B05D16FF05E
:1025E0000203D9E06FF00403D6E000BFFB7803F0EC
:1025F0000403002B02D06FF00503CDE0FB78002B25
:1026000028D0BB79012B02D0022B08D022E0FB7826
:1026100003F02103002B1AD16FF00503BCE0FB7817
:1026200003F02003002B06D097F90330002B02DBC8
:102630006FF00503B0E0FB7803F01003002B08D027
:1026400097F90330002B04DB6FF00503A4E000BF13
:1026500000E000BFFB79184600F0ACF8FB799B0066
:102660000133DB00184697F9033023F00F035AB209
:1026700097F9063013435BB2DBB21946FFF732FD20
:10268000BB88002B10D1464B1B885A1C91B2444A80
:102690001180BB80424B1B884FF6F072934203D1EE
:1026A0003F4B4FF440421A80FB799B000133DB0023
:1026B00003F580631A46BB881B0A9BB2DBB219463E
:1026C0001046FFF70FFDFB799B000133DB0003F59C
:1026D000A0631A46BB88DBB219461046FFF702FD1D
:1026E000FB799B000133DB0003F580730121184661
:1026F000FFF7F8FC00BFFB799B000133DB0003F51B
:1027000080731846FFF7A2FC0346002BF3D1FB7938
:10271000012202FA03F31BB2DB431AB2214B1B88DE
:102720001BB213401BB29AB21E4B1A80FB7803F007
:102730000102FB7902FA03F31AB21A4B1B881BB28F
:1027400013431BB29AB2174B1A80FB79012202FA8B
:1027500003F31BB2DB431AB2134B1B881BB21340AB
:102760001BB29AB2104B1A80FB79104A002122F852
:102770001310FB790E4A0021D15400BFFB799B0056
:102780000133DB0003F540731846FFF75FFC034697
:10279000002BF3D097F9073018461437BD4690BD8B
:1027A0009C000020600500206205002064050020D8
:1027B0007405002080B582B000AF0346FB71FB7941
:1027C000082B02D94FF0FF3355E0FB799B00013312
:1027D000DB0003F5807310211846FFF783FC00BF70
:1027E000FB799B000133DB0003F580731846FFF78C
:1027F0002DFC0346002BF3D1FB799B000133DB005A
:1028000003F500731F211846FFF76CFCFB790122CA
:1028100002FA03F31BB2DB431AB2194B1B881BB23B
:1028200013401BB29AB2164B1A80FB79012202FAAE
:1028300003F31BB2DB431AB2124B1B881BB21340CB
:102840001BB29AB20F4B1A80FB790F4A002122F873
:102850001310FB790D4A0021D15400BFFB799B0076
:102860000133DB0003F540731846FFF7EFFB034627
:10287000002BF3D1012318460837BD4680BD00BFA9
:10288000600500206205002064050020740500201A
:1028900080B582B000AF0346FB71FB79082B02D9EB
:1028A0004FF0FF3349E0FB799B000133DB00184612
:1028B000FFF7CCFB034603F00F03012B02D06FF0B0
:1028C00004033AE0FB799B000133DB0003F540731E
:1028D0001846FFF7BBFB0346132B02D06FF0020331
:1028E0002BE0FB799B000133DB0003F580730221B1
:1028F0001846FFF7F7FB00BFFB799B000133DB00B5
:1029000003F580731846FFF7A1FB0346002BF3D1B4
:1029100006E0FB791846FFF74DFF6FF003030CE06C
:10292000FB799B000133DB0003F540731846FFF78A
:102930008DFB0346142BECD1012318460837BD4606
:1029400080BD000080B582B000AF0346FB71FB790B
:10295000082B02D94FF0FF3362E0FB799B00013373
:10296000DB001846FFF772FB034603F00F03012B51
:1029700002D06FF0040353E0FB799B000133DB00CE
:1029800003F5807308211846FFF7ACFB00BFFB7905
:102990009B000133DB0003F580731846FFF756FBFD
:1029A0000346002BF3D1FB79012202FA03F31BB299
:1029B000DB431AB21C4B1B881BB213401BB29AB2EA
:1029C000194B1A80194B1B881A46FB7942FA03F3FC
:1029D00003F00103002B16D0002321E0FB799B00BC
:1029E0000133DB0003F500731846FFF72FFB0346A6
:1029F00003F00803002B06D0FB791846FFF7DAFE38
:102A00006FF00C030CE0FB799B000133DB0003F556
:102A100040731846FFF71AFB0346002BDED1012353
:102A200018460837BD4680BD6205002060050020BD
:102A300080B584B000AF03463960FB711346BB809C
:102A40000023FB730023BB81FB79082B02D94FF0D5
:102A5000FF33DDE0FB799B000133DB001846FFF715
:102A6000F5FA034603F00F03012B02D06FF00403C5
:102A7000CEE0BB88002B02D16FF00D03C8E0FB79DC
:102A80009B000133DB0003F540731846FFF7DEFAC5
:102A90000346FB73FB7B172B05D0FB7B1C2B02D063
:102AA0006FF00603B4E05C4B1B881A46FB7942FAD0
:102AB00003F303F00103002B39D0FB799B000133B2
:102AC000DB0003F500731846FFF7C0FA034603F076
:102AD0001F03FB73FB7B03F01003002B19D0FB7962
:102AE0009B000133DB0003F5007310211846FFF74C
:102AF000F9FAFB79012202FA03F31BB2DB431AB2A3
:102B0000454B1B881BB213401BB29AB2424B1A8032
:102B10000DE0FB7B03F00803002B06D0FB79184681
:102B2000FFF748FE6FF00C0372E0002370E0FB79C2
:102B30009B000133DB0003F5F8531846FFF786FAD4
:102B400003469B02BB81BA88BB899A4201D9BB89E3
:102B5000BB80FB791846FFF7D3FB0346BB81FB79AB
:102B60009B000133DB0003F540731846FFF76EFA54
:102B70000346FB73FB7B172B09D0FB7B1C2B06D07A
:102B8000FB791846FFF716FE6FF0060340E0234B73
:102B90001B881A46FB7942FA03F303F00103002B6A
:102BA00005D0BA88BB899A4201D9002330E0BA889F
:102BB000BB899A4200D9CCE700BFBA88FB79396853
:102BC0001846FFF72FFCFB799B000133DB0003F570
:102BD000807320211846FFF785FA00BFFB799B0020
:102BE0000133DB0003F580731846FFF72FFA034625
:102BF000002BF3D1FB79012202FA03F31AB2064B40
:102C00001B881BB213431BB29AB2034B1A80BB88BA
:102C100018461037BD4680BD6205002060050020C3
:102C200090B585B000AF03463960FB711346BB8099
:102C30000023FB730023BB81FB79082B02D94FF0E3
:102C4000FF339BE0FB799B000133DB001846FFF765
:102C5000FDF9034603F00F03012B02D06FF00403CC
:102C60008CE0BB88002B02D16FF00D0386E0FB796E
:102C70009B000133DB0003F5F0531846FFF7E6F93C
:102C800003469B02BB81BA89BB889A4201D2BB89A9
:102C9000BB80FB791846FFF77CFB0346BB81FB79C1
:102CA0009B000133DB0003F540731846FFF7CEF9B4
:102CB0000346FB73FB7B172B26D0FB7B1C2B1CD105
:102CC000BB89002B33D1FB791846FFF719FB03466C
:102CD0001C46FB799B000133DB0003F5F8531846D3
:102CE000FFF7B4F903469B029C420DD1FB791846CD
:102CF000FFF760FD6FF0060340E0FB791846FFF731
:102D000059FD6FF0060339E01E4B1B881A46FB790C
:102D100042FA03F303F00103002B04D0BB89002B1C
:102D200001D100232AE0BB89002B02D1B1E700BF0B
:102D300000E000BFBA89BB889A4201D2BB89BB8040
:102D4000BA88FB7939681846FFF7C6FBFB799B0008
:102D50000133DB0003F5807340211846FFF7C2F909
:102D600000BFFB799B000133DB0003F5807318463D
:102D7000FFF76CF90346002BF3D1BB8818461437D4
:102D8000BD4690BD6005002080B584B000AF03460D
:102D90003A60FB710B46BB710023FB73FB79082B78
:102DA00002D94FF0FF33C0E0BB79072B00F2B980A6
:102DB00001A252F823F000BFD92D00082D2E0008E3
:102DC000472E0008652E0008832E0008B32E000849
:102DD000D32E0008032F00083B681B78FB73FB7B96
:102DE000012B0DD1FB79012202FA03F31AB2514BE8
:102DF0001B881BB213431BB29AB24E4B1A8093E04E
:102E0000FB7B002B0FD1FB79012202FA03F31BB2EB
:102E1000DB431AB2474B1B881BB213401BB29AB25A
:102E2000444B1A8080E06FF009037EE0414B1B8821
:102E30001A46FB7942FA03F3DBB203F00103DAB27C
:102E40003B681A7070E0FB799B000133DB0003F5EF
:102E5000F8531846FFF7FAF803469B029AB23B680C
:102E60001A8061E0FB799B000133DB0003F5F0532E
:102E70001846FFF7EBF803469B029AB23B681A80AC
:102E800052E03B681B781F2B02D96FF009034CE01E
:102E9000FB799B000133DB0003F500731A463B68A6
:102EA0001B7803F01F03DBB219461046FFF71AF92F
:102EB0003AE0FB799B000133DB0003F50073184611
:102EC000FFF7C4F8034603F01F03DAB23B681A7039
:102ED0002AE03B681B781F2B02D96FF0090324E01E
:102EE000FB799B000133DB0003F530531A463B6846
:102EF0001B7803F01F03DBB219461046FFF7F2F808
:102F000012E0FB799B000133DB0003F530531846D8
:102F1000FFF79CF8034603F01F03DAB23B681A7010
:102F200002E06FF0090300E0012318461037BD46A8
:102F300080BD00BF6005002080B400AF00BFBD466B
:102F40005DF8047B704780B400AF00BFBD465DF8FC
:102F5000047B704780B400AF00BFBD465DF8047BC2
:102F6000704780B400AF00BFBD465DF8047B70477A
:102F700080B483B000AF78607B681B78DBB2184602
:102F80000C37BD465DF8047B704780B483B000AF5A
:102F900078600B46FB707B68FA781A7000BF0C37BC
:102FA000BD465DF8047B704780B400AF002318462F
:102FB000BD465DF8047B704780B483B000AF034624
:102FC000FB7100BF0C37BD465DF8047B7047000005
:102FD00080B483B000AF786039607B68002B02D08A
:102FE0003B68002B06D10A4B0A4A5A61084B0A4A31
:102FF0009A6106E0064A7B685361054A3B68936123
:1030000000BF00BF0C37BD465DF8047B704700BFB2
:10301000A0000020552F0008632F000880B483B063
:1030200000AF7860396000BF0F4B1B8803F400735A
:10303000002BF9D07B68002B02D03B68002B06D117
:10304000094B0A4ADA61084B094A1A6206E0064A45
:103050007B68D361044A3B68136200BF00BF0C3732
:10306000BD465DF8047B7047A0000020A92F000832
:10307000B92F000890B587B000AF03463960FB71E7
:103080000023FB750023FB6000233B61FB790F2BC2
:1030900000F2C58001A252F823F000BFDD30000825
:1030A000E33000080F310008033100081D3100082B
:1030B00029310008373100085D3100087F310008F0
:1030C000C3310008C9310008D13100082532000899
:1030D000D9310008E73100080332000800F0E8F8B1
:1030E000A1E03B68002B04D03B68FB60FB68083321
:1030F0003B61FB683A691146184600F025F9034622
:1031000092E03B681B88184600F0AAF98BE000F0BB
:10311000DBF903461A463B681A8084E03B681B884B
:10312000184600F0F6F97EE000F00EFA03461A4663
:103130003B681A8077E03B681B881B0A9BB2DBB2B6
:1031400019464FF49850FEF7CDFF3B681B88DBB261
:1031500019464FF4A050FEF7C5FF64E04FF49850B5
:10316000FEF774FF03461B029CB24FF4A050FEF71B
:103170006DFF034623449AB23B681A8053E02C4B00
:103180009A783B681A703B680133294AD2781A70E2
:103190003B680233264A12791A703B680333244A8B
:1031A00052791A703B680433214A92791A703B684D
:1031B00005331F4AD2791A703B68063300221A7011
:1031C00031E000F013FA2EE0386800F036FA2AE019
:1031D000386800F075FA26E03B681B78184600F066
:1031E000D9FA034620E000F0E8F90346FB75FB7DC1
:1031F000FF2B02D14FF0FF3316E03B68FA7D1A70C7
:1032000011E000F0C4F90346FB75FB7DFF2B02D1F2
:103210004FF0FF3308E03B68FA7D1A7003E04FF08F
:10322000FF3301E000BF002318461C37BD4690BDA8
:10323000A000002080B582B000AF03463960FB716A
:10324000FB79052B2CD801A252F823F06532000837
:103250006D32000875320008833200089132000890
:1032600099320008386800F0DFFA1CE0386800F096
:103270001BFB18E03B681B78184600F055FB034623
:1032800012E000F073FB03461A463B681A700AE02E
:10329000386800F073FB06E0386800F090FB02E04D
:1032A0004FF0FF3300E0002318460837BD4680BDCD
:1032B00080B586B000AF3B1D062219464FF4106062
:1032C000FEF75EFF07F11403042219464FF48070E5
:1032D000FEF756FF07F11003042219464FF4A060D1
:1032E000FEF74EFF07F10C03042219464FF47060FD
:1032F000FEF746FF80210020FEF7F4FE0020FEF7D7
:10330000A5FE3B1D062219464FF41060FEF798FFFC
:1033100007F11403042219464FF48070FEF790FF62
:1033200007F11003042219464FF4A060FEF788FF4E
:1033300007F10C03042219464FF47060FEF780FF7A
:1033400000BF1837BD4680BD80B584B000AF78603F
:1033500039600023BB73FFF7ABFF7B68002B3BD0CA
:103360000023BB730023FB7315E097F90F307A68D5
:1033700013441A78BB7B1344DBB2BB7397F90E304E
:10338000102B02DD4FF0FF3366E097F90F30DBB210
:103390000133DBB2FB7397F90F30072BE5DD002318
:1033A000FB7315E097F90F309B000133DB0003F549
:1033B000F853184697F90F307A6813441B7819466A
:1033C000FEF790FE97F90F30DBB20133DBB2FB73EF
:1033D00097F90F30072BE5DD3B68002B3BD000232E
:1033E000BB730023FB7315E097F90F303A68134461
:1033F0001A78BB7B1344DBB2BB7397F90E30102BEA
:1034000002DD4FF0FF3327E097F90F30DBB20133D5
:10341000DBB2FB7397F90F30072BE5DD0023FB735D
:1034200015E097F90F309B000133DB0003F5F053F3
:10343000184697F90F303A6813441B781946FEF77F
:1034400051FE97F90F30DBB20133DBB2FB7397F912
:103450000F30072BE5DD002318461037BD4680BD31
:1034600080B584B000AF0346FB80FB88FB73FB880C
:103470001B0A9BB2BB73FB7B23F00F03DBB2194625
:103480004FF4A850FEF72EFE0023FB7314E0BA7B26
:10349000FB7B42FA03F303F00103002B09D0FB7B13
:1034A0009B000133DB0003F500731F211846FEF774
:1034B00019FEFB7B0133FB73FB7B072BE7D900BFB6
:1034C00000BF1037BD4680BD80B582B000AF00237D
:1034D000FB710023BB710023BB804FF4A850FEF7A3
:1034E000B5FD034623F00F03FB714FF4B850FEF710
:1034F000ADFD0346BB71BB79BB80BB881B029AB292
:10350000FB799BB21344BB80BB8818460837BD4685
:1035100080BD80B584B000AF0346FB80FB88FB73A1
:10352000FB881B0A9BB2BB73FB7B19464FF4B05060
:10353000FEF7D8FDBB7B19464FF4C050FEF7D2FD15
:1035400000BF1037BD4680BD80B582B000AF0023FC
:10355000FB710023BB710023BB804FF4B050FEF71A
:1035600075FD0346FB714FF4C050FEF76FFD034637
:10357000BB71BB79BB80BB881B029AB2FB799BB243
:103580001344BB80BB8818460837BD4680BD80B554
:1035900082B000AF0023FB714FF43850FEF756FDA8
:1035A000034603F00103002B01D00123FB7197F9BF
:1035B000073018460837BD4680BD80B582B000AFE1
:1035C0000023FB714FF43850FEF740FD034603F033
:1035D0003803302B02D10123FB7101E00023FB7182
:1035E00097F9073018460837BD4680BD80B582B0D0
:1035F00000AF4FF43850FEF729FD0346FB71FB790D
:1036000003F07F03FB71FB7919464FF43850FEF746
:1036100069FD4FF43850FEF719FD0346FB71FB7945
:1036200063F07F03FB71FB7919464FF43850FEF7C6
:1036300059FD00BF0837BD4680BD80B584B000AFDE
:1036400078600023FB737B681B78012B04D1FB7B24
:1036500043F04003FB7303E0FB7B23F04003FB7369
:103660007B685B78012B04D1FB7B43F03803FB7351
:1036700019E07B68DB78012B0DD17B689B78012BEF
:1036800004D1FB7B43F01803FB730CE0FB7B43F09E
:103690000803FB7307E07B689B78012B03D1FB7B5E
:1036A00043F01003FB73FB7B19464FF43850FEF7D1
:1036B00019FDFFF79BFF00BF1037BD4680BD00001E
:1036C00080B584B000AF78600023FB734FF43850AE
:1036D000FEF7BCFC0346FB73FB7B9B11DBB203F0E4
:1036E0000103DAB27B681A70FB7B03F03803202BEE
:1036F00001D0382B03D17B6801225A7003E07B682C
:1037000000225A7000BFFB7B03F03803103B102BE4
:103710008CBF01220022D2B2002A0FD11B4A22FA0A
:1037200003F303F00103002B14BF01230023DBB2DA
:10373000002B03D07B6801229A7003E07B68002293
:103740009A7000BFFB7B03F03803083B182B8CBF3B
:1037500001220022D2B2002A0FD10D4A22FA03F32D
:1037600003F00103002B14BF01230023DBB2002B65
:1037700003D07B680122DA7003E07B680022DA70F4
:1037800000BF00BF1037BD4680BD00BF0101010072
:103790000100010180B584B000AF0346FB71002336
:1037A000FB734FF43850FEF751FC0346FB73FB7B71
:1037B00003F04003002B02D14FF0FF3330E0FB7BDE
:1037C00023F03803FB73FB79012B04D1FB7B43F01F
:1037D0003003FB7303E0FB7B43F03803FB73FB7B9D
:1037E00019464FF43850FEF77DFCFFF7FFFE4FF40B
:1037F0003850FEF72BFC0346FB73FB79012B06D1F7
:10380000FB7B03F03003002B08D0002308E0FB7B98
:1038100003F03803002B01D0002301E04FF0FF3309
:1038200018461037BD4680BD80B582B000AF7860C5
:103830007B68062219464FF41060FEF701FD7B6895
:103840000E33042219464FF48070FEF7F9FC7B68B2
:103850000A33042219464FF4A060FEF7F1FC7B689E
:103860000633042219464FF47060FEF7E9FC7B68CA
:103870009A7C0B4B1A707B68DA7C094B5A707B6818
:103880001A7D074B9A707B685A7D054BDA707B680E
:103890009A7D044B1A7000BF0837BD4680BD00BF3B
:1038A0007C0500208005002080B582B000AF7860E4
:1038B0007B68062219464FF41060FEF761FC7B68B6
:1038C0000E33042219464FF48070FEF759FC7B68D2
:1038D0000A33042219464FF4A060FEF751FC7B68BE
:1038E0000633042219464FF47060FEF749FC0C4B76
:1038F0001A787B689A740A4B5A787B68DA74084B9A
:103900009A787B681A75064BDA787B685A75054B8E
:103910001A787B689A7500BF0837BD4680BD00BF26
:103920007C0500208005002080B584B000AF0346F0
:10393000FB710023FB73FB7923F03A03002B02D0C9
:103940004FF0FF330EE00020FEF780FB0346FB73D1
:10395000FA7BFB791343FB73FB7B19460020FEF7D0
:10396000C1FB002318461037BD4680BD80B500AFAF
:103970000020FEF76BFB0346184680BD80B582B081
:1039800000AF78607B681B7819464FF4D850FEF77B
:10399000A9FB7B685B881B0A9BB2DBB219464FF41C
:1039A000C850FEF79FFB7B685B88DBB219464FF47B
:1039B000D050FEF797FB00BF0837BD4680BD90B5DD
:1039C00083B000AF78604FF4D850FEF73FFB03465A
:1039D0001A467B681A704FF4C850FEF737FB03464F
:1039E0001B029CB24FF4D050FEF730FB0346234439
:1039F0009AB27B685A8000BF0C37BD4690BD00006C
:103A0000DFF834D0FEF710FB0C480D490D4A0023B7
:103A100002E0D458C4500433C4188C42F9D30A4A83
:103A20000A4C002301E013600432A242FBD308F0E9
:103A3000C1FCFDF78BF87047000002200000002059
:103A40003801002054D7000838010020F84A01202E
:103A5000FEE7000080B500AF0E4B1B680D4A43F433
:103A6000007313600B4B1B680A4A43F480631360B6
:103A7000084B1B68074A43F480731360032000F06F
:103A8000FCF80F20FEF7C8F9FEF708F800231846E7
:103A900080BD00BF003C024080B400AF064B1B78E5
:103AA0001A46064B1B681344044A136000BFBD4608
:103AB0005DF8047B704700BFD00000208405002023
:103AC00080B400AF034B1B681846BD465DF8047B0D
:103AD000704700BF8405002080B584B000AF7860D7
:103AE000FFF7EEFFB8607B68FB60FB68B3F1FF3F58
:103AF00005D00A4B1B781A46FB681344FB6000BFD5
:103B0000FFF7DEFF0246BB68D31AFA689A42F7D87D
:103B100000BF00BF1037BD4680BD00BFD0000020F1
:103B200080B485B000AF78607B6803F00703FB606A
:103B30000C4BDB68BB60BA684FF6FF031340BB60F9
:103B4000FB681A02BB68134343F0BF6343F40033BE
:103B5000BB60044ABB68D36000BF1437BD465DF844
:103B6000047B704700ED00E080B400AF044BDB68DD
:103B70001B0A03F007031846BD465DF8047B704737
:103B800000ED00E080B483B000AF0346FB7197F90D
:103B90000730002B0BDBFB7903F01F02074997F975
:103BA00007305B09012000FA02F241F8232000BF30
:103BB0000C37BD465DF8047B704700BF00E100E0B4
:103BC00080B483B000AF03463960FB7197F90730CA
:103BD000002B0ADB3B68DAB20C4997F90730120177
:103BE000D2B20B4483F800230AE03B68DAB20849FA
:103BF000FB7903F00F03043B1201D2B20B441A7697
:103C000000BF0C37BD465DF8047B704700E100E063
:103C100000ED00E080B489B000AFF860B9607A6070
:103C2000FB6803F00703FB61FB69C3F10703042B87
:103C300028BF0423BB61FB690433062B02D9FB694F
:103C4000033B00E000237B614FF0FF32BB6902FAC7
:103C500003F3DA43BB681A407B699A404FF0FF31A7
:103C60007B6901FA03F3D9437B680B401343184681
:103C70002437BD465DF8047B704780B582B000AF45
:103C800078607868FFF74CFF00BF0837BD4680BDFD
:103C900080B586B000AF0346B9607A60FB7300233D
:103CA0007B61FFF761FF78617A68B9687869FFF72F
:103CB000B1FF024697F90F3011461846FFF780FF13
:103CC00000BF1837BD4680BD80B582B000AF034647
:103CD000FB7197F907301846FFF754FF00BF08370C
:103CE000BD4680BD80B586B000AF786000237B61A3
:103CF000FFF7E6FE38617B68002B01D1012399E0D4
:103D00007B68022283F835207B68002283F8342008
:103D10007B681B681A687B681B6822F001021A60C6
:103D20000FE0FFF7CDFE02463B69D31A052B08D9F9
:103D30007B6820225A657B68032283F835200323A1
:103D400078E07B681B681B6803F00103002BE8D157
:103D50007B681B681B687B617A69384B13407B6109
:103D60007B685A687B689B681A437B68DB681A43E8
:103D70007B681B691A437B685B691A437B689B6994
:103D80001A437B68DB691A437B681B6A13437A69B1
:103D900013437B617B685B6A042B07D17B68DA6A1B
:103DA0007B681B6B13437A6913437B617B681B68D9
:103DB0007A691A607B681B685B697B617B6923F0A9
:103DC00007037B617B685B6A7A6913437B617B686D
:103DD0005B6A042B17D17B689B6A7A6913437B610A
:103DE0007B68DB6A002B0ED0786800F0E9F90346A7
:103DF000002B08D07B6840225A657B68012283F83B
:103E00003520012316E07B681B687A695A6178685F
:103E100000F0A0F90346FB607B68DB6D3F229A400F
:103E2000FB689A607B6800225A657B68012283F8F0
:103E30003520002318461837BD4680BD3F8010F05E
:103E400080B586B000AF78600023BB608E4B1B68E6
:103E50008E4AA2FB03239B0A7B617B689B6D3B61BF
:103E60003B691B68FB607B68DB6D08229A40FB683E
:103E70001340002B1AD07B681B681B6803F00403F7
:103E8000002B13D07B681B681A687B681B6822F0C4
:103E900004021A607B68DB6D08229A403B699A60D5
:103EA0007B685B6D43F001027B685A657B68DB6D64
:103EB00001229A40FB681340002B12D07B681B68DC
:103EC0005B6903F08003002B0BD07B68DB6D012264
:103ED0009A403B699A607B685B6D43F002027B68A5
:103EE0005A657B68DB6D04229A40FB681340002B07
:103EF00012D07B681B681B6803F00203002B0BD0F9
:103F00007B68DB6D04229A403B699A607B685B6D3D
:103F100043F004027B685A657B68DB6D10229A408F
:103F2000FB681340002B43D07B681B681B6803F0C1
:103F30000803002B3CD07B68DB6D10229A403B6964
:103F40009A607B681B681B6803F48023002B18D0E1
:103F50007B681B681B6803F40023002B08D17B6877
:103F60001B6C002B24D07B681B6C786898471FE083
:103F70007B689B6C002B1BD07B689B6C7868984798
:103F800016E07B681B681B6803F48073002B07D165
:103F90007B681B681A687B681B6822F008021A603D
:103FA0007B681B6C002B03D07B681B6C7868984780
:103FB0007B68DB6D20229A40FB681340002B00F0E9
:103FC0008F807B681B681B6803F01003002B00F0D8
:103FD00087807B68DB6D20229A403B699A607B6812
:103FE00093F83530DBB2052B36D17B681B681A6835
:103FF0007B681B6822F016021A607B681B685A698E
:104000007B681B6822F080025A617B681B6C002B66
:1040100003D17B689B6C002B07D07B681B681A68F8
:104020007B681B6822F008021A607B68DB6D3F2208
:104030009A403B699A607B68012283F835207B684F
:10404000002283F834207B681B6D002B7ED07B68B8
:104050001B6D7868984779E07B681B681B6803F4E0
:104060008023002B1DD07B681B681B6803F4002392
:10407000002B0DD17B685B6C002B31D07B685B6CB7
:10408000786898472CE000BF98000020B5814E1B4F
:104090007B68DB6B002B23D07B68DB6B78689847F1
:1040A0001EE07B681B681B6803F48073002B0FD134
:1040B0007B681B681A687B681B6822F010021A6014
:1040C0007B68012283F835207B68002283F8342046
:1040D0007B68DB6B002B03D07B68DB6B78689847D1
:1040E0007B685B6D002B32D07B685B6D03F0010356
:1040F000002B22D07B68052283F835207B681B6863
:104100001A687B681B6822F001021A60BB680133E1
:10411000BB607A699A4207D37B681B681B6803F00F
:104120000103002BF2D100E000BF7B68012283F87D
:1041300035207B68002283F834207B68DB6C002B01
:1041400005D07B68DB6C7868984700E000BF1837C3
:10415000BD4680BD80B485B000AF78607B681B68C9
:10416000DBB2103B144AA2FB03231B09FB60134A7A
:10417000FB6813441B781A467B68DA65FB68032BDF
:1041800009D97B681B6823F47F7323F003031A1D8E
:104190007B689A6507E07B681B6823F47F7323F0D4
:1041A00003037A6893657B689B6D18461437BD4698
:1041B0005DF8047B704700BFABAAAAAAF4D600083A
:1041C00080B485B000AF78600023FB737B689B6A86
:1041D000BB607B689B69002B1FD1BB68032B56D843
:1041E00001A252F823F000BFF94100080B42000879
:1041F000F94100088F4200087B68DB6A03F0807396
:10420000002B46D00123FB7343E07B68DB6AB3F1EC
:10421000C07F40D10123FB733DE07B689B69B3F510
:10422000005F21D1BB68032B37D801A252F823F0DD
:104230004142000847420008414200085942000834
:104240000123FB7330E07B68DB6A03F08073002B93
:1042500025D00123FB7322E07B68DB6AB3F1C07FCA
:104260001FD10123FB731CE0BB68022B03D9BB6881
:10427000032B03D018E00123FB7315E07B68DB6A96
:1042800003F08073002B0ED00123FB730BE000BF03
:104290000AE000BF08E000BF06E000BF04E000BF86
:1042A00002E000BF00E000BFFB7B18461437BD46AC
:1042B0005DF8047B704700BF80B489B000AF7860C0
:1042C000396000237B6100233B610023BB61002335
:1042D000FB6165E10122FB6902FA03F37B613B6844
:1042E0001B687A6913403B613A697B699A4240F0E6
:1042F00054813B685B6803F00303012B05D03B68E6
:104300005B6803F00303022B30D17B689B68BB61C1
:10431000FB695B00032202FA03F3DB43BA69134033
:10432000BB613B68DA68FB695B0002FA03F3BA69B8
:104330001343BB617B68BA699A607B685B68BB6149
:104340000122FB6902FA03F3DB43BA691340BB6144
:104350003B685B681B0903F00102FB6902FA03F387
:10436000BA691343BB617B68BA695A603B685B6892
:1043700003F00303032B17D07B68DB68BB61FB6989
:104380005B00032202FA03F3DB43BA691340BB610B
:104390003B689A68FB695B0002FA03F3BA6913434E
:1043A000BB617B68BA69DA603B685B6803F0030352
:1043B000022B23D1FB69DA087B68083253F82230DC
:1043C000BB61FB6903F007039B000F2202FA03F3B2
:1043D000DB43BA691340BB613B681A69FB6903F0B0
:1043E00007039B0002FA03F3BA691343BB61FB693D
:1043F000DA087B680832B96943F822107B681B68C9
:10440000BB61FB695B00032202FA03F3DB43BA6979
:104410001340BB613B685B6803F00302FB695B0010
:1044200002FA03F3BA691343BB617B68BA691A6085
:104430003B685B6803F44033002B00F0AE80002340
:10444000FB605D4B5B6C5C4A43F4804353645A4BA6
:104450005B6C03F48043FB60FB68584AFB699B0874
:10446000023352F82330BB61FB6903F003039B0066
:104470000F2202FA03F3DB43BA691340BB617B6886
:104480004F4A934225D07B684E4A93421FD07B68A7
:104490004D4A934219D07B684C4A934213D07B68B3
:1044A0004B4A93420DD07B684A4A934207D07B68BF
:1044B000494A934201D106230CE007230AE0052371
:1044C00008E0042306E0032304E0022302E00123C2
:1044D00000E00023FA6902F0030292009340BA69F7
:1044E0001343BB613549FB699B080233BA6941F844
:1044F00023203A4B9B68BB613B69DB43BA6913409D
:10450000BB613B685B6803F48013002B03D0BA697E
:104510003B691343BB61314ABB6993602F4BDB6836
:10452000BB613B69DB43BA691340BB613B685B68B5
:1045300003F40013002B03D0BA693B691343BB613A
:10454000264ABB69D360254B5B68BB613B69DB4393
:10455000BA691340BB613B685B6803F40033002B0E
:1045600003D0BA693B691343BB611C4ABB69536002
:104570001A4B1B68BB613B69DB43BA691340BB61E3
:104580003B685B6803F48033002B03D0BA693B6956
:104590001343BB61114ABB691360FB690133FB61C3
:1045A000FB690F2B7FF696AE00BF00BF2437BD46D8
:1045B0005DF8047B704700BF0038024000380140BE
:1045C000000002400004024000080240000C0240CB
:1045D000001002400014024000180240003C01405C
:1045E00080B483B000AF78600B467B8013467B704D
:1045F0007B78002B03D07A887B689A6103E07B8804
:104600001A047B689A6100BF0C37BD465DF8047BD5
:10461000704780B485B000AF78600B467B807B68C4
:104620005B69FB607A88FB6813401A04FB68D94316
:104630007B880B401A437B689A6100BF1437BD46E4
:104640005DF8047B7047000080B584B000AF7860EF
:104650007B68002B01D101232BE17B6893F83D306F
:10466000DBB2002B06D17B68002283F83C207868FF
:10467000FDF73CFA7B68242283F83D207B681B68A9
:104680001A687B681B6822F001021A607B681B684D
:104690001A687B681B6842F400421A607B681B68DA
:1046A0001A687B681B6822F400421A6001F0E2F885
:1046B000F8607B685B68814A934207D8FB68804A50
:1046C000934294BF01230023DBB206E0FB687D4ADE
:1046D000934294BF01230023DBB2002B01D00123BE
:1046E000E7E0FB68784AA2FB03239B0CBB607B6876
:1046F0001B685B6823F03F017B681B68BA680A434C
:104700005A607B681B681B6A23F03F017B685B680B
:104710006A4A934202D8BB68013309E0BB684FF490
:10472000967202FB03F3694AA2FB03239B09013340
:104730007A6812680B4313627B681B68DB6923F499
:104740004F4222F0FF027B685B685C498B4219D8BC
:10475000FB68591E7B685B685B00B1FBF3F3591C77
:1047600040F6FC730B40002B0AD0FB68591E7B6897
:104770005B685B00B1FBF3F30133C3F30B0351E060
:1047800004234FE07B689B68002B11D1FB68581E07
:104790007B6859680B465B000B44B0FBF3F30133B5
:1047A000C3F30B03002B0CBF01230023DBB212E089
:1047B000FB68581E7B6859680B469B000B449900A8
:1047C0000B44B0FBF3F30133C3F30B03002B0CBF1B
:1047D00001230023DBB2002B01D0012322E07B6800
:1047E0009B68002B0ED1FB68581E7B6859680B46EE
:1047F0005B000B44B0FBF3F30133C3F30B0343F44F
:1048000000430FE0FB68581E7B6859680B469B000D
:104810000B4499000B44B0FBF3F30133C3F30B03D8
:1048200043F44043796809681343CB617B681B6894
:104830001B6823F0C0017B68DA697B681B6A1A4336
:104840007B681B680A431A607B681B689B6823F4BB
:10485000034323F0FF037A6811697A68D268114331
:104860007A6812680B4393607B681B68DB6823F0EF
:10487000FF017B685A697B689B691A437B681B68E8
:104880000A43DA607B681B681A687B681B6842F021
:1048900001021A607B6800221A647B68202283F878
:1048A0003D207B6800221A637B68002283F83E204B
:1048B000002318461037BD4680BD00BFA08601000A
:1048C0007F841E00FF083D0083DE1B43D34D621032
:1048D00080B588B002AFF860084611461A46034614
:1048E0007B810B463B811346FB80FFF7E9F878613B
:1048F000FB6893F83D30DBB2202B40F0D9807B6918
:104900000093192301226D49F86800F08BFC0346DF
:10491000002B01D00223CCE0FB6893F83C30012B44
:1049200001D10223C5E0FB68012283F83C20FB682B
:104930001B681B6803F00103012B07D0FB681B6891
:104940001A68FB681B6842F001021A60FB681B686A
:104950001A68FB681B6822F400621A60FB68212257
:1049600083F83D20FB68402283F83E20FB6800224C
:104970001A64FB683A6A5A62FB68BA8C5A85FB680B
:104980005B8D9AB2FB681A85FB684D4ADA62F8883B
:104990003A8979897B690193BB6A00930346F86879
:1049A00000F0C2FA0346002B52D0012381E07A695D
:1049B000B96AF86800F050FD0346002B0DD0FB6883
:1049C0001B6C042B07D1FB681B681A68FB681B680B
:1049D00042F400721A6001236BE0FB685B6A1A788C
:1049E000FB681B681A61FB685B6A5A1CFB685A62A9
:1049F000FB681B8D013B9AB2FB681A85FB685B8DD7
:104A00009BB2013B9AB2FB685A85FB681B685B69E5
:104A100003F00403042B1BD1FB681B8D002B17D064
:104A2000FB685B6A1A78FB681B681A61FB685B6A43
:104A30005A1CFB685A62FB681B8D013B9AB2FB68EB
:104A40001A85FB685B8D9BB2013B9AB2FB685A8565
:104A5000FB681B8D002BAAD17A69B96AF86800F04F
:104A600043FD0346002B0DD0FB681B6C042B07D1C4
:104A7000FB681B681A68FB681B6842F400721A60C6
:104A8000012316E0FB681B681A68FB681B6842F488
:104A900000721A60FB68202283F83D20FB68002228
:104AA00083F83E20FB68002283F83C20002300E0CE
:104AB000022318461837BD4680BD00BF0200100013
:104AC0000000FFFF80B58CB002AFF86008461146C9
:104AD0001A4603467B810B463B811346FB80FEF75B
:104AE000EFFF7862FB6893F83D30DBB2202B40F09B
:104AF00014827B6A0093192301227B49F86800F035
:104B000091FB0346002B01D0022307E2FB6893F8D8
:104B10003C30012B01D1022300E2FB68012283F823
:104B20003C20FB681B681B6803F00103012B07D0C6
:104B3000FB681B681A68FB681B6842F001021A6078
:104B4000FB681B681A68FB681B6822F400621A6025
:104B5000FB68222283F83D20FB68402283F83E2038
:104B6000FB6800221A64FB683A6B5A62FB68BA8ED3
:104B70005A85FB685B8D9AB2FB681A85FB685B4AB5
:104B8000DA62F8883A8979897B6A0193BB6B009372
:104B90000346F86800F05EFA0346002B01D00123BB
:104BA000BCE1FB681B8D002B13D100233B62FB682B
:104BB0001B685B693B62FB681B689B693B623B6AE5
:104BC000FB681B681A68FB681B6842F400721A6075
:104BD00090E1FB681B8D012B1BD1FB681B681A68D9
:104BE000FB681B6822F480621A600023FB61FB688B
:104BF0001B685B69FB61FB681B689B69FB61FB6968
:104C0000FB681B681A68FB681B6842F400721A6034
:104C100070E1FB681B8D022B1BD1FB681B681A68B7
:104C2000FB681B6822F480621A60FB681B681A68C4
:104C3000FB681B6842F400621A600023BB61FB68DA
:104C40001B685B69BB61FB681B689B69BB61BB69D7
:104C500050E100237B61FB681B685B697B61FB683B
:104C60001B689B697B617B6944E1FB681B8D032B9F
:104C700000F2F180FB681B8D012B23D17A6AB96B9E
:104C8000F86800F079FC0346002B01D0012345E1D0
:104C9000FB681B681A69FB685B6AD2B21A70FB6812
:104CA0005B6A5A1CFB685A62FB681B8D013B9AB217
:104CB000FB681A85FB685B8D9BB2013B9AB2FB686F
:104CC0005A8517E1FB681B8D022B4ED17B6A00933E
:104CD000BB6B00220649F86800F0A4FA0346002BDB
:104CE00008D001231AE100BF020010000000FFFFFE
:104CF00004000100FB681B681A68FB681B6842F42B
:104D000000721A60FB681B681A69FB685B6AD2B2A2
:104D10001A70FB685B6A5A1CFB685A62FB681B8D41
:104D2000013B9AB2FB681A85FB685B8D9BB2013B25
:104D30009AB2FB685A85FB681B681A69FB685B6A54
:104D4000D2B21A70FB685B6A5A1CFB685A62FB6835
:104D50001B8D013B9AB2FB681A85FB685B8D9BB289
:104D6000013B9AB2FB685A85C4E07B6A0093BB6B37
:104D700000226C49F86800F055FA0346002B01D078
:104D80000123CBE0FB681B681A68FB681B6822F4F0
:104D900080621A60FB681B681A69FB685B6AD2B2A2
:104DA0001A70FB685B6A5A1CFB685A62FB681B8DB1
:104DB000013B9AB2FB681A85FB685B8D9BB2013B95
:104DC0009AB2FB685A857B6A0093BB6B00225549F7
:104DD000F86800F027FA0346002B01D001239DE07C
:104DE000FB681B681A68FB681B6842F400721A6053
:104DF000FB681B681A69FB685B6AD2B21A70FB68B1
:104E00005B6A5A1CFB685A62FB681B8D013B9AB2B5
:104E1000FB681A85FB685B8D9BB2013B9AB2FB680D
:104E20005A85FB681B681A69FB685B6AD2B21A7004
:104E3000FB685B6A5A1CFB685A62FB681B8D013B6E
:104E40009AB2FB681A85FB685B8D9BB2013B9AB2F4
:104E5000FB685A854EE07A6AB96BF86800F08CFB03
:104E60000346002B01D0012358E0FB681B681A6938
:104E7000FB685B6AD2B21A70FB685B6A5A1CFB68FB
:104E80005A62FB681B8D013B9AB2FB681A85FB686E
:104E90005B8D9BB2013B9AB2FB685A85FB681B682D
:104EA0005B6903F00403042B24D1FB681B8D032BE7
:104EB00007D1FB681B681A68FB681B6822F48062D4
:104EC0001A60FB681B681A69FB685B6AD2B21A70C9
:104ED000FB685B6A5A1CFB685A62FB681B8D013BCE
:104EE0009AB2FB681A85FB685B8D9BB2013B9AB254
:104EF000FB685A85FB681B8D002B7FF4B6AEFB6800
:104F0000202283F83D20FB68002283F83E20FB68C6
:104F1000002283F83C20002300E0022318462837B3
:104F2000BD4680BD0400010080B588B002AFF860C6
:104F3000084611461A4603467B810B463B811346C1
:104F4000FB80FB681B681A68FB681B6842F4807270
:104F50001A607B6A00933B6A00224FF00111F868E7
:104F600000F060F90346002B0DD0FB681B681B683E
:104F700003F48073B3F5807F03D1FB684FF40072B4
:104F80001A6403235FE07B89DBB21A46FB681B6867
:104F900002F0FE021A617B6A3A6A2D49F86800F055
:104FA000BBF90346002B01D001234CE000237B61B9
:104FB000FB681B685B697B61FB681B689B697B61A5
:104FC0007B697A6A396AF86800F046FA0346002B72
:104FD0000DD0FB681B6C042B07D1FB681B681A689B
:104FE000FB681B6842F400721A6001232BE0FB8807
:104FF000012B05D13B89DAB2FB681B681A6121E0FD
:105000003B891B0A9BB2DAB2FB681B681A617A6A99
:10501000396AF86800F020FA0346002B0DD0FB68CF
:105020001B6C042B07D1FB681B681A68FB681B68A4
:1050300042F400721A60012305E03B89DAB2FB6892
:105040001B681A61002318461837BD4680BD00BF93
:105050000200010080B588B002AFF8600846114632
:105060001A4603467B810B463B811346FB80FB6857
:105070001B681A68FB681B6842F480621A60FB6850
:105080001B681A68FB681B6842F480721A607B6AAE
:1050900000933B6A00224FF00111F86800F0C2F85B
:1050A0000346002B0DD0FB681B681B6803F480735C
:1050B000B3F5807F03D1FB684FF400721A640323B9
:1050C000AAE07B89DBB21A46FB681B6802F0FE028D
:1050D0001A617B6A3A6A5249F86800F01DF9034682
:1050E000002B01D0012397E000237B61FB681B6844
:1050F0005B697B61FB681B689B697B617B697A6A82
:10510000396AF86800F0A8F90346002B0DD0FB6857
:105110001B6C042B07D1FB681B681A68FB681B68B3
:1051200042F400721A60012376E0FB88012B05D15E
:105130003B89DAB2FB681B681A6121E03B891B0AD4
:105140009BB2DAB2FB681B681A617A6A396AF8683E
:1051500000F082F90346002B0DD0FB681B6C042B7A
:1051600007D1FB681B681A68FB681B6842F4007271
:105170001A60012350E03B89DAB2FB681B681A61B0
:105180007A6A396AF86800F067F90346002B0DD097
:10519000FB681B6C042B07D1FB681B681A68FB6853
:1051A0001B6842F400721A60012335E0FB681B683B
:1051B0001A68FB681B6842F480721A607B6A00936D
:1051C0003B6A00224FF00111F86800F02BF803460B
:1051D000002B0DD0FB681B681B6803F48073B3F5CC
:1051E000807F03D1FB684FF400721A64032313E03D
:1051F0007B89DBB243F00103DAB2FB681B681A61FA
:105200007B6A3A6A0649F86800F086F80346002B84
:1052100001D0012300E0002318461837BD4680BDA9
:105220000200010080B584B000AFF860B9603B6057
:105230001346FB7148E03B68B3F1FF3F44D0FEF7F3
:105240003FFC0246BB69D31A3A689A4202D33B68D4
:10525000002B39D1BB681B0CDBB2012B0DD1FB68D5
:105260001B685B69DA43BB6813409BB2002B0CBF21
:1052700001230023DBB21A460CE0FB681B689B6924
:10528000DA43BB6813409BB2002B0CBF0123002301
:10529000DBB21A46FB799A4216D1FB6800221A63E8
:1052A000FB68202283F83D20FB68002283F83E2023
:1052B000FB681B6C43F02002FB681A64FB68002249
:1052C00083F83C20012323E0BB681B0CDBB2012BDD
:1052D0000DD1FB681B685B69DA43BB6813409BB266
:1052E000002B0CBF01230023DBB21A460CE0FB6845
:1052F0001B689B69DA43BB6813409BB2002B0CBF51
:1053000001230023DBB21A46FB799A4293D0002393
:1053100018461037BD4680BD80B584B000AFF86038
:10532000B9607A603B6071E0FB681B685B6903F4FD
:105330008063B3F5806F23D1FB681B681A68FB6834
:105340001B6842F400721A60FB681B686FF480628D
:105350005A61FB6800221A63FB68202283F83D2013
:10536000FB68002283F83E20FB681B6C43F00402BC
:10537000FB681A64FB68002283F83C20012367E085
:105380007B68B3F1FF3F41D0FEF79AFB02463B68D2
:10539000D31A7A689A4202D37B68002B36D1BB6855
:1053A0001B0CDBB2012B0CD1FB681B685B69DA4379
:1053B000BB6813409BB2002B14BF01230023DBB258
:1053C0000BE0FB681B689B69DA43BB6813409BB228
:1053D000002B14BF01230023DBB2002B16D0FB6887
:1053E00000221A63FB68202283F83D20FB6800221C
:1053F00083F83E20FB681B6C43F02002FB681A64B4
:10540000FB68002283F83C20012321E0BB681B0CD1
:10541000DBB2012B0CD1FB681B685B69DA43BB680C
:1054200013409BB2002B14BF01230023DBB20BE01F
:10543000FB681B689B69DA43BB6813409BB2002B77
:1054400014BF01230023DBB2002B7FF46DAF0023D8
:1054500018461037BD4680BD80B584B000AFF860F7
:10546000B9607A6034E0F86800F0E3F80346002B96
:1054700001D0012334E0BB68B3F1FF3F28D0FEF731
:105480001FFB02467B68D31ABA689A4202D3BB68F4
:10549000002B1DD1FB681B685B6903F08003802B28
:1054A00016D0FB6800221A63FB68202283F83D2097
:1054B000FB68002283F83E20FB681B6C43F020024F
:1054C000FB681A64FB68002283F83C20012307E094
:1054D000FB681B685B6903F08003802BC3D100234A
:1054E00018461037BD4680BD80B584B000AFF86067
:1054F000B9607A6034E0F86800F09BF80346002B4E
:1055000001D0012334E0BB68B3F1FF3F28D0FEF7A0
:10551000D7FA02467B68D31ABA689A4202D3BB68AC
:10552000002B1DD1FB681B685B6903F00403042B8F
:1055300016D0FB6800221A63FB68202283F83D2006
:10554000FB68002283F83E20FB681B6C43F02002BE
:10555000FB681A64FB68002283F83C20012307E003
:10556000FB681B685B6903F00403042BC3D10023B1
:1055700018461037BD4680BD80B584B000AFF860D6
:10558000B9607A6049E0FB681B685B6903F010034F
:10559000102B19D1FB681B686FF010025A61FB6871
:1055A00000221A63FB68202283F83D20FB6800225A
:1055B00083F83E20FB681A6CFB681A64FB680022C3
:1055C00083F83C20012330E0FEF77AFA02467B683C
:1055D000D31ABA689A4202D3BB68002B1DD1FB686C
:1055E0001B685B6903F04003402B16D0FB68002268
:1055F0001A63FB68202283F83D20FB68002283F8B1
:105600003E20FB681B6C43F02002FB681A64FB68B9
:10561000002283F83C20012307E0FB681B685B69DC
:1056200003F04003402BAED1002318461037BD468F
:1056300080BD80B483B000AF78607B681B685B6915
:1056400003F48063B3F5806F1BD17B681B686FF434
:1056500080625A617B6800221A637B68202283F88B
:105660003D207B68002283F83E207B681B6C43F062
:1056700004027B681A647B68002283F83C200123C3
:1056800000E0002318460C37BD465DF8047B7047E8
:1056900080B584B000AF786039607B68002B01D1A1
:1056A0000123CCE0684B1B6803F00F033A689A4271
:1056B0000CD9654B3A68D2B21A70634B1B6803F081
:1056C0000F033A689A4201D00123B8E07B681B6857
:1056D00003F00203002B20D07B681B6803F0040357
:1056E000002B05D0594B9B68584A43F4E053936014
:1056F0007B681B6803F00803002B05D0534B9B68A5
:10570000524A43F460439360504B9B6823F0F0028D
:105710007B689B684D4913438B607B681B6803F073
:105720000103002B44D07B685B68012B07D1474BFA
:105730001B6803F40033002B19D101237FE07B6841
:105740005B68022B03D07B685B68032B07D13F4B60
:105750001B6803F00073002B09D101236FE03B4B62
:105760001B6803F00203002B01D1012367E0374BD4
:105770009B6823F003027B685B68344913438B60AA
:10578000FEF79EF9F8600AE0FEF79AF90246FB6818
:10579000D31A41F28832934201D903234FE02B4BB5
:1057A0009B6803F00C027B685B689B009A42EBD11C
:1057B000254B1B6803F00F033A689A420CD2224B28
:1057C0003A68D2B21A70204B1B6803F00F033A6894
:1057D0009A4201D0012332E07B681B6803F0040386
:1057E000002B08D0194B9B6823F4E0527B68DB68E0
:1057F000164913438B607B681B6803F00803002B7A
:1058000009D0124B9B6823F460427B681B69DB0064
:105810000E4913438B6000F087F802460B4B9B68E0
:105820001B0903F00F030A49CB5C22FA03F3094A70
:105830001360094B1B681846FCF7EEFA0023184664
:105840001037BD4680BD00BF003C0240003802401A
:10585000DCD6000898000020CC00002080B400AF07
:10586000034B1B681846BD465DF8047B704700BFBC
:105870009800002080B500AFFFF7F0FF0246054B0F
:105880009B689B0A03F007030349CB5C22FA03F3EE
:10589000184680BD00380240ECD6000880B500AF45
:1058A000FFF7DCFF0246054B9B685B0B03F0070329
:1058B0000349CB5C22FA03F3184680BD003802404E
:1058C000ECD6000880B483B000AF786039607B68A4
:1058D0000F221A60124B9B6803F003027B685A6028
:1058E0000F4B9B6803F0F0027B689A600C4B9B683F
:1058F00003F4E0527B68DA60094B9B68DB0803F431
:10590000E0527B681A61074B1B6803F00F023B688B
:105910001A6000BF0C37BD465DF8047B704700BFBE
:1059200000380240003C02402DE9B04FAEB000AF5D
:105930000023C7F8AC300023C7F8B4300023C7F801
:10594000A8300023C7F8A4300023C7F8B030CB4BF1
:105950009B6803F00C030C2B00F2048201A252F8A6
:1059600023F000BF99590008655D0008655D0008D7
:10597000655D0008A1590008655D0008655D0008C7
:10598000655D0008A9590008655D0008655D0008AF
:10599000655D0008995B0008B94BC7F8B030E5E1D8
:1059A000B74BC7F8B030E1E1B44B5B6803F03F039D
:1059B000C7F8AC30B14B5B6803F48003002B71D0A7
:1059C000AE4B5B689B090022C7F89830C7F89C2053
:1059D000D7F89830C3F30803C7F890300023C7F80E
:1059E0009430D7E9244522462B464FF000004FF073
:1059F0000001590141EAD261500102460B4621469D
:105A0000511A3964294663EB01037B644FF00002AD
:105A10004FF00003D7E9108949468B01414643EA1C
:105A2000916341468A014146511AB963494663EB85
:105A30000103FB634FF000024FF00003D7E90E892A
:105A40004946CB00414643EA51734146CA001046DD
:105A50001946034622469B183B632B460A4642EBF7
:105A600003037B634FF000024FF00003D7E90C45BE
:105A700029468B02214643EA915321468A02104669
:105A80001946D7F8AC300022C7F88830C7F88C2008
:105A9000D7E92223FAF76CFC02460B461346C7F8F7
:105AA000B43067E0754B5B689B090022C7F8803013
:105AB000C7F88420D7F88030C3F30803BB670023FE
:105AC000FB67D7E91E4522462B464FF000004FF0FA
:105AD0000001590141EAD261500102460B462146BC
