:020000040800F2
:1000000000000220095300081938000821380008B0
:10001000293800083138000839380008000000008D
:1000200000000000000000000000000021B70008F0
:10003000413800080000000081BA0008E9BA000851
:1000400059530008595300085953000859530008E0
:1000500059530008595300085953000859530008D0
:1000600059530008595300085953000851380008E3
:1000700059530008595300085953000859530008B0
:1000800059530008653800085953000859530008AF
:100090005953000859530008595300085953000890
:1000A0005953000859530008595300085953000880
:1000B0005953000859530008595300085953000870
:1000C0005953000859530008595300085953000860
:1000D0005953000859530008595300085953000850
:1000E0005953000859530008595300085953000840
:1000F0005953000859530008595300085953000830
:10010000595300085953000859530008595300081F
:10011000595300085953000879380008595300080A
:1001200059530008595300085953000859530008FF
:100130005953000800000000000000005953000857
:1001400059530008595300085953000859530008DF
:1001500059530008595300085953000859530008CF
:1001600059530008595300085953000859530008BF
:100170005953000859530008595300080000000063
:1001800000000000595300080000000000000000BB
:1001900059530008000000000000000059530008F7
:1001A000000000000000000000000000595300089B
:1001B000595300085953000859530008595300086F
:0401C0005953000887
:1001D00010B5054C237833B9044B13B10448AFF381
:1001E00000800123237010BDD80000200000000013
:1001F00090FC000808B5034B1BB103490348AFF35B
:10020000008008BD00000000DC00002090FC000819
:10021000F0B400EB4003DFF8880000EBC30000F10E
:1002200018063069F7687568874232D3B368DC1BFB
:10023000631E934214D37D19D01900BF11F8013BFE
:1002400005F8013B013A05D011F8013B05F8013BE7
:10025000013AF3D1BFF35F8FF0600120F0BC70472B
:10026000C018904219D37819121B11F8013B00F8FD
:10027000013B013CF9D1141C05D011F8013B05F8F4
:10028000013B013AF9D1BFF35F8FF4600120F0BC6C
:100290007047C01B01389042CDD20020F0BC70479F
:1002A0004034012010F8012B11F8013B012A28BF2E
:1002B0009A42F7D0D01A7047034613F8012B002A50
:1002C000FBD1181A01387047000000000000000040
:1002D00001F0FF01102A2BDB10F0070F08D010F8F7
:1002E000013B013A8B422DD010F0070F42B3F6D1FB
:1002F000F0B441EA012141EA014122F007047FF014
:1003000000070023F0E80256083C85EA010586EA6A
:10031000010685FA47F5A3FA87F586FA47F6A5FAA6
:1003200087F68EB9EED1F0BC01F0FF0102F00702B2
:1003300032B110F8013B013A83EA010313B1F8D15D
:100340000020704701387047002D06BF354603383E
:10035000073815F0010F07D1013015F4807F02BF77
:10036000013015F4C03F0130F0BC0138704700BFC8
:1003700081F0004102E000BF83F0004330B54FEA56
:1003800041044FEA430594EA050F08BF90EA020FC3
:100390001FBF54EA000C55EA020C7FEA645C7FEA56
:1003A000655C00F0E2804FEA5454D4EB5555B8BF79
:1003B0006D420CDD2C4480EA020281EA030382EAEA
:1003C000000083EA010180EA020281EA0303362D7C
:1003D00088BF30BD11F0004F4FEA01314FF4801C4F
:1003E0004CEA113102D0404261EB410113F0004F61
:1003F0004FEA03334CEA133302D0524263EB430318
:1004000094EA050F00F0A780A4F10104D5F1200EB5
:100410000DDB02FA0EFC22FA05F2801841F1000110
:1004200003FA0EF2801843FA05F359410EE0A5F1E4
:1004300020050EF1200E012A03FA0EFC28BF4CF015
:10044000020C43FA05F3C01851EBE37101F00045CB
:1004500007D54FF0000EDCF1000C7EEB00006EEBD8
:100460000101B1F5801F1BD3B1F5001F0CD3490862
:100470005FEA30004FEA3C0C04F101044FEA4452B9
:1004800012F5800F80F09A80BCF1004F08BF5FEA40
:10049000500C50F1000041EB045141EA050130BD20
:1004A0005FEA4C0C404141EB0101013C28BFB1F532
:1004B000801FE9D291F0000F04BF01460020B1FA7D
:1004C00081F308BF2033A3F10B03B3F120020CDA50
:1004D0000C3208DD02F1140CC2F10C0201FA0CF02E
:1004E00021FA02F10CE002F11402D8BFC2F1200C93
:1004F00001FA02F120FA0CFCDCBF41EA0C01904049
:10050000E41AA2BF01EB0451294330BD6FEA040491
:100510001F3C1CDA0C340EDC04F11404C4F120027C
:1005200020FA04F001FA02F340EA030021FA04F38E
:1005300045EA030130BDC4F10C04C4F1200220FAE5
:1005400002F001FA04F340EA0300294630BD21FA23
:1005500004F0294630BD94F0000F83F4801306BFE9
:1005600081F480110134013D4EE77FEA645C18BFDD
:100570007FEA655C29D094EA050F08BF90EA020F74
:1005800005D054EA000C04BF1946104630BD91EA6C
:10059000030F1EBF0021002030BD5FEA545C05D16F
:1005A0004000494128BF41F0004130BD14F58004AE
:1005B0003CBF01F5801130BD01F0004545F0FE4122
:1005C00041F470014FF0000030BD7FEA645C1ABF57
:1005D000194610467FEA655C1CBF0B46024650EA8E
:1005E000013406BF52EA033591EA030F41F40021BA
:1005F00030BD00BF90F0000F04BF0021704730B540
:100600004FF4806404F132044FF000054FF0000114
:1006100050E700BF90F0000F04BF0021704730B5D5
:100620004FF4806404F1320410F0004548BF4042AA
:100630004FF000013EE700BF42004FEAE2014FEAFF
:1006400031014FEA02701FBF12F07F4393F07F4FDA
:1006500081F06051704732F07F4208BF704793F0DD
:100660007F4F04BF41F40021704730B54FF46074F0
:1006700001F0004521F000411CE700BF50EA0102F3
:1006800008BF704730B54FF000050AE050EA01029C
:1006900008BF704730B511F0004502D5404261EB0C
:1006A00041014FF4806404F132045FEA915C3FF44D
:1006B000D8AE4FF003025FEADC0C18BF03325FEAEA
:1006C000DC0C18BF033202EBDC02C2F1200300FA9B
:1006D00003FC20FA02F001FA03FE40EA0E0021FAC0
:1006E00002F11444BDE600BF70B54FF0FF0C4CF4AE
:1006F000E06C1CEA11541DBF1CEA135594EA0C0F60
:1007000095EA0C0F00F0DEF82C4481EA030621EA9A
:100710004C5123EA4C5350EA013518BF52EA0335D5
:1007200041F4801143F4801338D0A0FB02CE4FF087
:100730000005E1FB02E506F00042E0FB03E54FF0B7
:100740000006E1FB03569CF0000F18BF4EF0010EAF
:10075000A4F1FF04B6F5007F64F5407404D25FEAAB
:100760004E0E6D4146EB060642EAC62141EA55515E
:100770004FEAC52040EA5E504FEACE2EB4F1FD0CA0
:1007800088BFBCF5E06F1ED8BEF1004F08BF5FEA1E
:10079000500E50F1000041EB045170BD06F00046D0
:1007A00046EA010140EA020081EA0301B4EB5C047D
:1007B000C2BFD4EB0C0541EA045170BD41F4801175
:1007C0004FF0000E013C00F3AB8014F1360FDEBF9A
:1007D000002001F0004170BDC4F10004203C35DA76
:1007E0000C341BDC04F11404C4F1200500FA05F3F9
:1007F00020FA04F001FA05F240EA020001F000429A
:1008000021F0004110EBD37021FA04F642EB06010F
:100810005EEA430E08BF20EAD37070BDC4F10C0439
:10082000C4F1200500FA04F320FA05F001FA04F2FD
:1008300040EA020001F0004110EBD37041F10001E9
:100840005EEA430E08BF20EAD37070BDC4F12005F4
:1008500000FA05F24EEA020E20FA04F301FA05F25C
:1008600043EA020321FA04F001F0004121FA04F204
:1008700020EA020000EBD3705EEA430E08BF20EAD4
:10088000D37070BD94F0000F0FD101F0004640000E
:1008900041EB010111F4801F08BF013CF7D041EA90
:1008A000060195F0000F18BF704703F00046520094
:1008B00043EB030313F4801F08BF013DF7D043EA65
:1008C0000603704794EA0C0F0CEA135518BF95EA1B
:1008D0000C0F0CD050EA410618BF52EA4306D1D1A2
:1008E00081EA030101F000414FF0000070BD50EAC1
:1008F000410606BF1046194652EA430619D094EA4B
:100900000C0F02D150EA013613D195EA0C0F05D134
:1009100052EA03361CBF104619460AD181EA030188
:1009200001F0004141F0FE4141F470014FF0000040
:1009300070BD41F0FE4141F4780170BD70B54FF0DB
:10094000FF0C4CF4E06C1CEA11541DBF1CEA13555B
:1009500094EA0C0F95EA0C0F00F0A7F8A4EB05043D
:1009600081EA030E52EA03354FEA013100F0888034
:100970004FEA03334FF0805545EA131343EA1263FD
:100980004FEA022245EA111545EA10654FEA0026B2
:100990000EF000419D4208BF964244F1FD0404F56B
:1009A000407402D25B084FEA3202B61A65EB0305C7
:1009B0005B084FEA32024FF480104FF4002CB6EB84
:1009C000020E75EB030E22BFB61A754640EA0C0004
:1009D0005B084FEA3202B6EB020E75EB030E22BF44
:1009E000B61A754640EA5C005B084FEA3202B6EB85
:1009F000020E75EB030E22BFB61A754640EA9C0044
:100A00005B084FEA3202B6EB020E75EB030E22BF13
:100A1000B61A754640EADC0055EA060E18D04FEAD1
:100A2000051545EA16754FEA06164FEAC30343EA71
:100A300052734FEAC2025FEA1C1CC0D111F4801F3E
:100A40000BD141EA00014FF000004FF0004CB6E737
:100A500011F4801F04BF01430020B4F1FD0C88BFD6
:100A6000BCF5E06F3FF6AFAEB5EB030C04BFB6EBE1
:100A7000020C5FEA500C50F1000041EB045170BDD4
:100A80000EF0004E4EEA113114EB5C04C2BFD4EB01
:100A90000C0541EA045170BD41F480114FF0000E85
:100AA000013C90E645EA060E8DE60CEA135594EA01
:100AB0000C0F08BF95EA0C0F3FF43BAF94EA0C0F04
:100AC0000AD150EA01347FF434AF95EA0C0F7FF479
:100AD00025AF104619462CE795EA0C0F06D152EACD
:100AE00003353FF4FDAE1046194622E750EA4106B1
:100AF00018BF52EA43067FF4C5AE50EA41047FF4C2
:100B00000DAF52EA43057FF4EBAE12E74FF0FF3C26
:100B100006E000BF4FF0010C02E000BF4FF0010CF7
:100B20004DF804CD4FEA410C7FEA6C5C4FEA430C70
:100B300018BF7FEA6C5C1BD001B050EA410C0CBFBF
:100B400052EA430C91EA030F02BF90EA020F002021
:100B5000704710F1000F91EA030F58BF994208BF88
:100B600090422CBFD8176FEAE37040F00100704745
:100B70004FEA410C7FEA6C5C02D150EA013C07D19C
:100B80004FEA430C7FEA6C5CD6D152EA033CD3D0E7
:100B90005DF8040B704700BF8446104662468C46E1
:100BA0001946634600E000BF01B5FFF7B7FF002814
:100BB00048BF10F1000F01BD4DF808EDFFF7F4FF3D
:100BC0000CBF012000205DF808FB00BF4DF808EDC8
:100BD000FFF7EAFF34BF012000205DF808FB00BFEB
:100BE0004DF808EDFFF7E0FF94BF012000205DF80D
:100BF00008FB00BF4DF808EDFFF7CEFF94BF0120C2
:100C000000205DF808FB00BF4DF808EDFFF7C4FFBA
:100C100034BF012000205DF808FB00BF4FEA410C03
:100C20007FEA6C5C02D150EA013C0AD14FEA430CE6
:100C30007FEA6C5C02D152EA033C02D14FF0000023
:100C400070474FF0010070474A0011D212F50012B0
:100C500011D20DD56FF47873B3EB62520ED44FEA14
:100C6000C12343F0004343EA505323FA02F0704794
:100C70004FF00000704750EA013002D14FF0FF30D2
:100C800070474FF0000070474FEA4102B2F1E04375
:100C900024BFB3F5001CDCF1FE5C0DD901F0004C63
:100CA0004FEAC0024CEA5070B2F1004F40EB8300B3
:100CB00008BF20F00100704711F0804F21D113F1DF
:100CC0003872BCBF01F00040704741F480114FEA18
:100CD0005252C2F11802C2F1200C10FA0CF320FAA1
:100CE00002F018BF40F001004FEAC1234FEAD323BE
:100CF00003FA0CFC40EA0C0023FA02F34FEA430328
:100D0000CCE77FEA625307D150EA01331EBF4FF0B0
:100D1000FE4040F44000704701F0004040F0FE40CB
:100D200040F40000704700BF53B94AB9002908BF1A
:100D300000281CBF4FF0FF314FF0FF3000F06AB9C0
:100D4000ADF1080C6DE904CE00F006F8DDF804E022
:100D5000DDE9022304B070472DE9F047089D0C46F9
:100D6000002B4ED194468C458646B2FA82F262D967
:100D70004AB1C2F12003914020FA03F30CFA02FCBD
:100D8000194300FA02FE4FEA1C471FFA8CF6B1FB2A
:100D9000F7F44FEA1E4307FB141143EA014304FB37
:100DA00006F199420AD91CEB030304F1FF3080F0ED
:100DB0001281994240F20F81023C6344591A1FFA92
:100DC0008EF3B1FBF7F007FB101143EA014300FB80
:100DD00006F69E420AD91CEB030300F1FF3180F0B6
:100DE000FC809E4240F2F980634402389B1B40EA3B
:100DF000044000211DB1D3400022C5E90032BDE806
:100E0000F0878B4205D90DB1C5E9000100210846E4
:100E1000F5E7B3FA83F1002946D1A34202D3904209
:100E2000C0F0F080861A64EB03030120002DE6D0A9
:100E3000C5E90063E3E7002A40F09080A1EB0C04D1
:100E40004FEA1C481FFA8CF70121B4FBF8F64FEA71
:100E50001E4308FB164443EA044307FB06F098428E
:100E600008D91CEB030306F1FF3402D2984200F2CA
:100E7000CD8026461C1A1FFA8EF3B4FBF8F008FB4F
:100E8000104443EA044300FB07F79F4208D91CEBD8
:100E9000030300F1FF3402D29F4200F2B0802046EB
:100EA000DB1B40EA0640A5E7C1F120068B4022FA91
:100EB00006F71F4320FA06FC04FA01F343EA0C0389
:100EC000F44000FA01F8380C4FEA1349B4FBF0FE85
:100ED0001FFA87FC00FB1E4449EA04440EFB0CF990
:100EE000A14502FA01F20AD93C190EF1FF3A80F04D
:100EF0008480A14540F28180AEF1020E3C44A4EB17
:100F000009041FFA83F9B4FBF0F300FB134449EA28
:100F1000044403FB0CFCA44507D93C1903F1FF3042
:100F200067D2A44565D9023B3C4443EA0E40A0FB8E
:100F30000293A4EB0C049C42CE469C4651D34ED067
:100F400055B1B8EB0E0364EB0C0404FA06F6CB4083
:100F50001E43CC40C5E90064002150E7C2F12003E4
:100F600020FA03F10CFA02FC24FA03F394400C4338
:100F70004FEA1C4800FA02FE1FFA8CF7B3FBF8F0A8
:100F800008FB1031230C43EA014300FB07F19942AF
:100F900008D91CEB030300F1FF362CD299422AD961
:100FA000023863445B1AA4B2B3FBF8F108FB1133B7
:100FB00044EA034401FB07F3A34208D91CEB0404F1
:100FC00001F1FF3613D2A34211D902396444E41A65
:100FD00041EA004139E70446F0E6084606E7C8451D
:100FE000AED2B9EB020E63EB070C0138A8E731462D
:100FF000EDE7034699E73046D4E7D6467FE76344FA
:1010000002384DE70646234608460FE7023E634492
:1010100030E700BF704700BF80B485B000AF786094
:101020000B46FB700023BB730023FB7309E0FB7BC3
:101030007A6813441A78BB7B1344BB73FB7B013380
:10104000FB73FA7BFB789A42F1D3BB7BDB43BB7328
:10105000BB7B18461437BD465DF8047B7047000023
:1010600080B58AB004AF03463960FB711346BB718B
:101070000C4A07F10C0307CA03C31A80FB799AB222
:10108000BB799BB24FF0FF31029101933B68009313
:1010900001231021044805F09FF800BF1837BD4612
:1010A00080BD00BFA8FC00085401002080B58AB0B4
:1010B00004AF03463960FB711346BB7100237B61AB
:1010C0000C4A07F1080307CA03C31A80FB799AB2D6
:1010D000BB799BB24FF0FF31029101933B680093C3
:1010E00001231021044805F071F900231846183730
:1010F000BD4680BDA8FC00085401002080B586B024
:1011000000AF03463960FB8013467B710023BB822E
:10111000624A07F10C0392E8030018600433198057
:10112000FB88DBB23B73FB881B0A9BB2DBB27B7391
:101130003B68DBB2BB737B79042B7DD0042B00F3BF
:10114000A880012B02D0022B39D0A2E007F10C03BA
:10115000032219463E20FFF783FF4FF4FA6000F0A8
:10116000EFFC07F10C0303211846FFF755FF034678
:101170003B7505237B75FF23FB72FF23BB7207F1D1
:101180000B03012219463E20FFF790FF07F10A03E7
:10119000012219463F20FFF789FFFB7AFF2B02D17E
:1011A000BB7AFF2BEBD007F1140302221946602013
:1011B000FFF756FF4FF4FA6000F0C2FC69E03B68AD
:1011C0001B0ADBB2FB7307F10C03042219463E2015
:1011D000FFF746FF4FF4FA6000F0B2FC07F10C0392
:1011E00004211846FFF718FF03463B7506237B755D
:1011F000FF23FB72FF23BB7207F10B030122194689
:101200003E20FFF753FF07F10A03012219463F2052
:10121000FFF74CFFFB7AFF2B02D1BB7AFF2BEBD001
:1012200007F11403022219466020FFF719FF4FF45B
:10123000FA6000F085FC2CE03B681B0ADBB2FB7314
:101240003B681B0CDBB23B743B681B0EDBB27B7450
:1012500007F10C03062219463E20FFF701FF4FF469
:10126000FA6000F06DFC07F10C0306211846FFF749
:10127000D3FE03463B7508237B7507F11403022256
:1012800019466020FFF7ECFE4FF4FA6000F058FCBE
:1012900000BF00BF1837BD4680BD00BFB4FC0008CA
:1012A00080B586B000AF0346FB800023BB820023DD
:1012B0003B82FB88DBB23B75FB881B0A9BB2DBB22F
:1012C0007B7507F11403022219463E20FFF7C8FE82
:1012D0004FF4FA6000F034FCFF23FB73FF23BB7371
:1012E00007F10F03012219463E20FFF7DFFE07F149
:1012F0000E03012219463F20FFF7D8FEFB7BFF2B90
:1013000002D1BB7BFF2BEBD007F110030222194661
:101310004020FFF7CBFE3A7C084B1A707A7C074BD3
:101320005A707B7C1B021AB23B7C1BB213431BB26C
:10133000FB82FB8A18461837BD4680BDF4000020AA
:1013400080B584B000AF0346FB800023BB81FB88DF
:10135000DBB23B73FB881B0A9BB2DBB27B7307F1EA
:101360000C03022219463E20FFF77AFE4FF4FA6082
:1013700000F0E6FB00BF1037BD4680BD80B586B0EB
:1013800000AF0346FB800B46BB801346FB70002377
:101390007B6100233B8207F10F03012219463E20A7
:1013A000FFF784FE07F10E03012219463F20FFF7E5
:1013B0007DFEFB88DBB23B75FB881B0A9BB2DBB270
:1013C0007B75FB78002B20D107F11403022219460C
:1013D0003E20FFF745FE07F10F03012219463E208C
:1013E000FFF764FE07F10E03012219463F20FFF7C5
:1013F0005DFEFB7BFF2B02D1BB7BFF2BEBD02022C2
:101400002D494020FFF752FE51E0FB78012B23D1FC
:10141000BB88DBB2BB7507F11403032219463E20DB
:10142000FFF71EFE4FF47A7000F08AFB07F11403F9
:1014300003211846FFF7F0FD03463B7405237B7438
:1014400007F11003022219466020FFF709FE4FF44E
:101450007A7000F075FB2AE0FB78022B27D1BB885D
:10146000DBB2BB75BB881B0A9BB2DBB2FB7507F115
:101470001403042219463E20FFF7F2FD4FF47A7060
:1014800000F05EFB07F1140304211846FFF7C4FDCA
:1014900003463B7406237B7407F1100302221946AE
:1014A0006020FFF7DDFD4FF47A7000F049FB00BFCC
:1014B0001837BD4680BD00BFF800002080B584B05D
:1014C00000AF0346FB710B46BB801346BB71002384
:1014D000BB81BB88DBB23B73BB881B0A9BB2DBB210
:1014E0007B73BB79002B09D1FB7902220C4918468A
:1014F000FFF7DCFD4FF4FA6000F022FBBB79012B13
:101500000AD107F10C01FB7902221846FFF7A8FD6A
:101510004FF4FA6000F014FB00BF1037BD4680BDE9
:10152000F400002080B500AF9020FFF709FF0222F1
:101530004FF4365149F23420FFF7E0FD012201213A
:1015400049F23720FFF7DAFD01220D2149F236205A
:10155000FFF7D4FD0122AA2149F2FC20FFF7CEFDBE
:101560000122072149F2FD20FFF7C8FD01220721D2
:1015700049F2FF20FFF7C2FD012200214FF4134082
:10158000FFF7BCFD022248F21F0149F20430FFF7C9
:10159000B5FD0122BC2149F26120FFF7AFFD012218
:1015A000F72149F26220FFF7A9FD02224FF6FF71F1
:1015B00049F26D20FFF7A2FD0122312149F2752089
:1015C000FFF79CFD0122552149F27820FFF796FD97
:1015D0000122052149F28020FFF790FD01220A2116
:1015E00049F28220FFF78AFD0122012149F286207B
:1015F000FFF784FD0122032149F28720FFF77EFDDA
:101600000122012149F29520FFF778FD02225021A5
:1016100049F24330FFF772FD01223F2149F20830C1
:10162000FFF76CFD0122052149F20330FFF766FD4B
:10163000012203219720FFF7A1FE9220FFF780FEF1
:1016400000BF80BD80B500AF002200216220FFF7FF
:1016500035FF054B5B781B029BB2034A127813449B
:101660009BB2184680BD00BFF400002080B500AFDB
:10167000002200210320FFF721FF274B1A78274B78
:101680001A70254B1B789B08DBB203F00103DAB21A
:10169000234B1A70204B1B78DB08DBB203F00103ED
:1016A000DAB2204B1A701C4B5B78DB08DBB203F01C
:1016B0000103DAB21C4B1A70174B5B785B08DBB284
:1016C00003F00103DAB2194B1A7000220021052041
:1016D000FFF7F4FE104B1A78154B1A700022002108
:1016E0000720FFF7EBFE0C4B1A78124B1A700B4BCE
:1016F0001B781A460E4B1B7813440E4A127813447B
:10170000012B03DD0C4B01221A7002E00A4B002270
:101710001A7000BF80BD00BFF40000203A01002015
:101720003D0100203E0100203F010020400100203B
:101730003B0100203C0100204101002080B582B027
:1017400000AF03463960FB71FB7900220021184687
:10175000FFF7B4FEFB79132B0BD9FB79322B08D89A
:101760000C4B5B781B029BB20A4A127813449BB263
:101770000BE0084B5B781B02064A127813449BB2BD
:101780001A46920013445B009BB218460837BD46C8
:1017900080BD00BFF400002080B584B000AF786049
:1017A0001423FB600023BB6011E0FB68DBB27968A7
:1017B0001846FFF7C3FF03461946144ABB6822F8D0
:1017C0001310FB680233FB60BB680133BB60BB686E
:1017D0000F2BEADD79683420FFF7B0FF03461A4685
:1017E0007B681A8279683620FFF7A8FF03461A46FD
:1017F0007B685A8279683820FFF7A0FF03461A46B3
:101800007B689A8200BF1037BD4680BD180100205A
:1018100080B500AF002200213A20FFF74FFE054BB4
:101820005B781B029BB2034A127813449BB21846A2
:1018300080BD00BFF400002080B582B000AF002260
:1018400000217620FFF79AFD294BDB781A06284BFA
:101850009B781B041A43264B5B781B021343244AD4
:10186000127813431A46234B1A60214BDB791A0670
:101870001F4B9B791B041A431D4B5B791B021343BF
:101880001B4A127913431A461B4B1A60184BDB7A1A
:101890001A06174B9B7A1B041A43154B5B7A1B02E3
:1018A0001343134A127A13431A46144B1A60114B0E
:1018B0001B6807EE903AB8EEE77A0F4B1B6807EE0D
:1018C000903AF8EEE76A9FED0E6AC6EE867A77EEFA
:1018D000277AC7ED017A0B4A7B681360094B1B68B6
:1018E00007EE903AB0EE670A0837BD4680BD00BFEC
:1018F000F800002044010020480100204C01002095
:101900000000804F5001002080B400AF0D4B1B78C9
:10191000002B0DD00C4B1B78002B07D10B4B1B78E9
:10192000002B03D10A4B1B78002B01D0012300E0D0
:10193000002303F00103DBB21846BD465DF8047BCB
:10194000704700BF410100203E0100203F01002000
:101950004001002080B400AF0D4B1B78002B0DD050
:101960000C4B1B78002B07D10B4B1B78002B03D1A2
:101970000A4B1B78002B01D0012300E0002303F069
:101980000103DBB21846BD465DF8047B704700BF1B
:10199000410100203D0100203F01002040010020C6
:1019A00080B582B000AF78607B68DB7883F001039C
:1019B000DBB2002B0DD0FFF7A7FF034683F0010336
:1019C000DBB2002B05D07B685B78002B01D00123B4
:1019D00000E0002303F00103DBB218460837BD46E0
:1019E00080BD80B582B000AF78607B681B7983F0E2
:1019F0000103DBB2002B0DD0FFF7ACFF034683F0F1
:101A00000103DBB2002B05D07B689B78002B01D053
:101A1000012300E0002303F00103DBB2184608377E
:101A2000BD4680BD80B582B000AF7860FFF71EFE76
:101A30007B681B78042B7ED801A252F823F000BFEC
:101A4000551A0008891A0008BD1A0008F11A000882
:101A5000251B00087868FFF7C4FF0346002B06D05B
:101A60009620FFF76DFC7B6802221A705CE07868B4
:101A7000FFF796FF0346002B56D09620FFF760FC39
:101A80007B6801221A704FE07868FFF789FF0346F0
:101A900083F00103DBB2002B03D07B6800221A70B5
:101AA00044E07868FFF79DFF0346002B3ED0962068
:101AB000FFF746FC7B6803221A7037E07868FFF76F
:101AC00090FF034683F00103DBB2002B03D07B6859
:101AD00000221A702CE07868FFF762FF0346002BA3
:101AE00026D09620FFF72CFC7B6803221A701FE09B
:101AF0007868FFF776FF034683F00103DBB2002B23
:101B000003D07B6801221A7014E07868FFF748FF61
:101B1000034683F00103DBB2002B0BD07B6802226B
:101B20001A7007E000BF06E000BF04E000BF02E05B
:101B300000BF00E000BF00BF0837BD4680BD00BF4A
:101B400080B483B000AF7860084B1B6800225A62F3
:101B500000BF064B1B685B6A7A689A42F9D800BFDF
:101B600000BF0C37BD465DF8047B7047C002002003
:101B700090B58FB002AFA24B07F108040FCB84E8F9
:101B80000F0003F0EBFB00F06FF900F0DDFA00F05E
:101B9000B3FA00F05DFA00F001FA00F083FA00F009
:101BA000CFF900F031FA974B1B68964A43F00103D6
:101BB00013600AF045FA0BF0B1FA002208219248AE
:101BC00004F092F9642003F00BFC012208218E48F6
:101BD00004F08AF94FF47A7003F002FC8B498C48C8
:101BE00002F07AFE8B498C4802F09CFE07F1080354
:101BF0001946012002F0C2FE0346B3F1FF3F01D1B6
:101C000000BFFDE700F016FE844803F091FA834917
:101C1000002002F093FF01233B710123FB7100239D
:101C2000BB7101237B713B1D19460A2002F0A6FE01
:101C30007B4806F02FFB42F21070FFF781FF794BD3
:101C40000122DA70774B01225A70764B01229A708A
:101C500001224FF40071744804F046F90A2003F0A1
:101C6000BFFB00224FF400716F4804F03DF94FF4C0
:101C7000FA6003F0B5FB1220FFF762FB4FF49660A9
:101C800003F0AEFBFFF74EFC42F21070FFF758FF77
:101C90009A20FFF755FB4EF66020FFF751FF4EF6F6
:101CA0006020FFF74DFF4EF66020FFF749FF4EF62C
:101CB0006020FFF745FF5720FFF7F2FA0346FB8548
:101CC00049F24330FFF7ECFA0346BB857020FFF77B
:101CD000E7FA03467B8549F20830FFF7E1FA03464D
:101CE0003B85FFF7AFFC03461A46504B1A80032290
:101CF0000021012007F000FB03464D4A1360032238
:101D00000021012007F0F8FA0346494A1360494BC5
:101D10000193022300930023C8224749474808F053
:101D200045F90346464A1360454B1B68012B0BD00F
:101D30004FF0500383F31188BFF36F8FBFF34F8FC2
:101D40007B6200BF00BFFDE73E4B0193032300937E
:101D50000023C8223C493D4808F028F90346384A88
:101D60001360374B1B68012B0BD04FF0500383F3EC
:101D70001188BFF36F8FBFF34F8F3B6200BF00BF6F
:101D8000FDE7334B0193022300930023C82231491E
:101D9000314808F00BF90346294A1360284B1B68A9
:101DA000012B0BD04FF0500383F31188BFF36F8FDB
:101DB000BFF34F8FFB6100BF00BFFDE7274B0193CF
:101DC00003230093174BC8222549264808F0EEF854
:101DD00003461B4A13601A4B1B68012B0BD04FF0B4
:101DE000500383F31188BFF36F8FBFF34F8FBB6135
:101DF00000BF00BFFDE708F077FA00BFFDE700BFB6
:101E000008FD0008001000E000000240F127000873
:101E1000D92700080928000823280008040000200A
:101E2000C00200209C04002000080240380100206D
:101E3000700500205C050020BCFC00088122000821
:101E40006C05002060050020D0FC00086525000816
:101E500064050020DCFC00084D2600086805002011
:101E6000F0FC00081D26000880B594B000AF07F113
:101E70001C033422002118460CF048F907F108032E
:101E800000221A605A609A60DA601A6100237B604F
:101E9000294B1B6C284A43F080531364264B1B6C60
:101EA00003F080537B607B6800233B60234B1B68FF
:101EB000224A43F440431360204B1B6803F4404321
:101EC0003B603B680123FB614FF480333B6202239C
:101ED0007B634FF48003BB630823FB63A8233B644D
:101EE00002237B640223BB640223FB6407F11C030F
:101EF000184605F0CBFB0346002B01D000F02EFD69
:101F00000F23BB600223FB6000233B614FF4A0530F
:101F10007B614FF48053BB6107F10803052118462C
:101F200005F03AF80346002B01D000F017FD00BF82
:101F30005037BD4680BD00BF0038024000700040F1
:101F400080B500AF124B134A1A60114B124A5A6007
:101F50000F4B00229A600E4B0022DA600C4B4FF4BC
:101F600080421A610A4B00225A61094B00229A6191
:101F7000074B0022DA61064B00221A62044803F084
:101F8000E7FF0346002B01D000F0E8FC00BF80BD56
:101F90005401002000540040A086010080B500AF2D
:101FA000174B184A1A60164B4FF482725A60144B42
:101FB00000229A60124B0022DA60114B00221A6153
:101FC0000F4B00225A610E4B4FF400729A610C4B7A
:101FD0000022DA610A4B00221A62094B00225A627F
:101FE000074B00229A62064B0A22DA62044805F087
:101FF000EBFD0346002B01D000F0B0FC00BF80BD1C
:10200000680200200030014080B500AF0E4B0F4A3F
:102010001A600D4B00225A600B4B00229A600A4B4B
:102020004FF6FF72DA60084B00221A61064B00225D
:102030009A61054806F0DEF80346002B01D000F057
:102040008DFC00BF80BD00BFC002002000440140E5
:1020500080B500AF114B124A1A60104B4FF4E132B9
:102060005A600E4B00229A600C4B0022DA600B4B38
:1020700000221A61094B0C225A61084B00229A6116
:10208000064B0022DA61054806F0B4FB0346002B3C
:1020900001D000F063FC00BF80BD00BF080300203A
:1020A0000010014080B500AF114B124A1A60104B6E
:1020B0004FF4E1325A600E4B00229A600C4B002222
:1020C000DA600B4B00221A61094B0C225A61084B53
:1020D00000229A61064B0022DA61054806F0DAFB1D
:1020E0000346002B01D000F039FC00BF80BD00BFCB
:1020F000500300200044004080B582B000AF0023B0
:102100007B60104B1B6B0F4A43F4001313630D4BA2
:102110001B6B03F400137B607B68002200210B2003
:1021200003F03AFA0B2003F053FA002200211120A9
:1021300003F032FA112003F04BFA00BF0837BD4616
:1021400080BD00BF0038024080B58AB000AF07F103
:10215000140300221A605A609A60DA601A61002340
:102160003B61434B1B6B424A43F080031363404B7C
:102170001B6B03F080033B613B690023FB603C4B1E
:102180001B6B3B4A43F001031363394B1B6B03F09A
:102190000103FB60FB680023BB60354B1B6B344ABB
:1021A00043F002031363324B1B6B03F00203BB606B
:1021B000BB6800237B602E4B1B6B2D4A43F004034E
:1021C00013632B4B1B6B03F004037B607B680022C3
:1021D0001821284803F088FE002248F2030126480F
:1021E00003F082FE00224FF42061244803F07CFEBD
:1021F00018237B610123BB610023FB6100233B6249
:1022000007F1140319461B4803F0DAFC48F20303F4
:102210007B610123BB610023FB6100233B6207F16B
:1022200014031946144803F0CBFC4FF400737B6190
:102230000123BB610223FB6100233B6207F114030E
:1022400019460E4803F0BCFC4FF400637B61012388
:10225000BB610023FB6100233B6207F114031946B5
:10226000064803F0ADFC00BF2837BD4680BD00BF67
:102270000038024000000240000402400008024012
:1022800080B58CB000AF7860002387F82F304FF412
:10229000FA737B62642313229A499B4806F052FB2F
:1022A00010E000F0D9FA0346002B05D100F000FB46
:1022B000012387F82F3005E094480BF037FE786A49
:1022C00007F0D8FF97F82F3083F00103DBB2002B23
:1022D000E7D18F480BF02AFE00234FF4FB72012157
:1022E000012001F0D7FD03463B623B6A002B06DA72
:1022F00088480BF01BFE786A07F0BCFF00E1396AE2
:1023000085480BF0ABFD0123FB733B6ADBB207F1A1
:102310000F020021184602F0BBF90346012B0BD037
:102320007E480BF003FE3B6ADBB2184601F08EFFDD
:10233000786A07F09FFFE3E03B6ADBB2184601F0E2
:102340002BFF0346012B0DD04FF4FB7174480BF0AB
:1023500085FD3B6ADBB2184601F078FF786A07F02A
:1023600089FFCDE04FF4FB716E480BF077FD08F06C
:10237000CDF8034603F59C530833FB6102E064206B
:1023800007F078FF3B6A9B000133DB0003F54073E5
:10239000184601F0DFFA0346172B05D008F0B6F80F
:1023A0000246FB699342EAD83B6A9B000133DB009B
:1023B00003F54073184601F0CDFA0346172B0BD0F6
:1023C00059480BF0B3FD3B6ADBB2184601F03EFF03
:1023D000786A07F04FFF93E0396A54480BF03EFDEE
:1023E00079E03B6ADBB280225149184602F09CF842
:1023F000B861BB69002B0CDCBB6913F1070F03D17B
:102400004C480BF093FD73E0B9694B480BF026FD87
:102410006EE0474ABB69134400221A70444AB96906
:1024200046480BF01BFD8022002145480BF06EFE54
:10243000444B1B684FF0FF31184607F0E9FA03469A
:10244000012B05D1404BBA693D49394800F0BEFA2D
:102450000023BB623A48FDF72FFF03467B6124E06F
:102460003B6AD8B2BB6A364A99187B699AB2BB6A92
:102470009BB2D31A9BB21A4601F05EFF38613B69EA
:10248000002B0EDA3B69002B06D130480BF04EFDD5
:10249000642007F0EFFE08E039692D480BF0DEFC00
:1024A00007E0BA6A3B691344BB62BA6A7B699A4225
:1024B000D6DB28480BF03AFD27491D48FDF7F2FE10
:1024C0000346002B03D125480BF030FD10E04FF4FC
:1024D000FA7007F0CFFE3B6A9B000133DB0003F587
:1024E0004073184601F036FA0346172B3FF479AFD4
:1024F0003B6ADBB2184601F0A9FE19480BF016FD45
:10250000E7E600BF18FD0008500300202CFD00087E
:1025100050FD000870FD000894FD0008C0FD000893
:10252000F0FD000818FE000854FE000888FE0008B0
:1025300018040020ACFE0008D0FE0008F0FE0008E1
:102540009803002070050020DC04002008FF00082C
:102550002CFF000850FF000870FF000878FF0008FB
:10256000B0FF000880B584B000AF78600023FB7333
:10257000224B1B684FF0FF31184607F049FA03461B
:10258000012B32D11E48FFF707F900F099FB82209A
:10259000FEF7D6FE0123FB7327E01A4B00221A70C8
:1025A000642312221849194806F0CCF9184BD3EDD0
:1025B000007AB0EE670A00F05BFC0346BB81154A67
:1025C000BB895385124BD3ED007AFCEEE77A17EE08
:1025D000903A9AB20F4B9A85FFF72EF902210E48D6
:1025E00003F09BFC642007F045FEFB7B002BD4D15D
:1025F00000BF00BF1037BD4680BD00BF7005002082
:102600009C04002098040020C8FF0008500300200C
:1026100050010020DC0400200004024080B584B09A
:1026200000AF78607B68FB60FB6800221A70064888
:10263000FFF7F8F9FFF7ECF803467B81642007F019
:1026400019FE00BFF3E700BF9C04002080B586B0F0
:1026500000AF78600023FB815048FFF79DF8FEF73C
:10266000F1FF0346BB81BB8903F08003002B00F020
:102670008F800323FB8100237B611DE0484A7B6937
:1026800032F8133041F29412934205D9454A7B69DE
:10269000002122F813100CE0414A7B6932F8133014
:1026A000184600F003FD034619463E4A7B6922F8AE
:1026B00013107B6901337B617B69072BDEDD384BAF
:1026C000DB8B41F29412934203D9364B00221A82DB
:1026D00008E0334BDB8B184600F0E8FC03461A4653
:1026E000304B1A8200233B611AE02D4A3B6932F8D5
:1026F000133041F29412934206D93B690933294AB7
:10270000002122F8131008E03B69093324493A6993
:1027100031F81210234A22F813103B6901333B6150
:102720003B69072BE1DD1E4BDB8B41F29412934298
:1027300003D91C4B00225A8403E0194BDA8B194B46
:102740005A8416493420FEF7F9FF03467B81154A67
:102750007B899384FFF75CF803463B81114A3B89F0
:10276000D3840E493620FEF7E9FF03461A460D4B87
:102770001A85012280216220FEF7A0FEFB89022B30
:1027800006D9094B186800230022002106F040FEFC
:102790004FF47A7007F06EFD5EE700BF9C040020E6
:1027A00018010020DC0400207005002080B586B0F0
:1027B00002AF0346FB7107F10F02F91D32230093AC
:1027C0000123044805F089FAFB7B18461037BD4603
:1027D00080BD00BF6802002080B500AF002210213C
:1027E000024803F081FB00BF80BD00BF0000024033
:1027F00080B500AF01221021024803F075FB00BF35
:1028000080BD00BF0000024080B582B000AF03462B
:10281000FB71FB791846FFF7C9FF00BF0837BD46BB
:1028200080BD80B500AFFF20FFF7C0FF034618460C
:1028300080BD000080B582B000AF0649002002F0E4
:102840007DF93B461946082002F098F800BF08378A
:10285000BD4680BD0400002080B582B000AF1048A6
:102860000BF0FCFAFB1D19460F2002F087F8FB79EC
:10287000002B0AD10B480BF0F1FA012202210A4881
:1028800003F032FBC82002F0ABFDFB79002BE6D051
:1028900006480BF0E3FA002318460837BD4680BD12
:1028A000DCFF0008040001080004024018000108D1
:1028B00080B582B000AF3B1D19460B2002F05EF8D8
:1028C0003B79002B03D114480BF0C8FA02E01348FF
:1028D0000BF0C4FA7B79012B03D111480BF0BEFA3F
:1028E00002E010480BF0BAFAFB79012B03D10E4835
:1028F0000BF0B4FA02E00D480BF0B0FABB79002BF4
:1029000003D10B480BF0AAFA02E00A480BF0A6FA32
:1029100000BF0837BD4680BD3400010858000108DB
:102920007800010894000108B4000108C8000108FB
:10293000DC000108EC00010880B582B000AF7860CF
:102940007B681B68044A934201D102F029FD00BF55
:102950000837BD4680BD00BF0010004080B400AF06
:1029600072B600BF00BFFDE780B485B000AF03467C
:10297000B9607A60FB81FB89DAB27B681A70FB89E7
:102980001B0A9BB2DAB2BB681A7000BF1437BD468F
:102990005DF8047B704780B485B000AF03460A46FB
:1029A000FB711346BB710023FB81FB79FB81FB8923
:1029B0001B02FB81BB799AB2FB891343FB81FB8924
:1029C00018461437BD465DF8047B704790B58BB050
:1029D00000AFF860B9607A603B600023FB8300239E
:1029E000BB830023FB8400237B8300233B830023E2
:1029F000BB840023FB82FB6806331B78012B40F06D
:102A00004D81BB680633FA6892791A70BB68073348
:102A1000FA68D2791A70BB68023300221A70BB6858
:102A2000033300221A70FB6807331B78102B00F069
:102A30009E80102B00F32E81032B03D0062B00F079
:102A4000258127E1FB6808331A78FB6809331B7876
:102A500019461046FFF79FFF0346FB83FB8B3F2B76
:102A60007ED8FB680A331A78FB680B331B7819464B
:102A70001046FFF790FF0346BB83BB8B402B6BD800
:102A8000BA8BFB8B1344402B66DCFB681A78BB685F
:102A90001A70BB680133FA6852781A70BB8BDBB2CC
:102AA0005B00DAB2BB6805330332D2B21A70BB8B5B
:102AB000DAB2BB6808335200D2B21A70BB8B012B5A
:102AC0002BD900233B62FB8BFB8421E0FA8BFB8C30
:102AD00013445B003A6813441B88724A72491846D3
:102AE000FFF742FF3B6A09331A46BB6813446E4A3C
:102AF00012781A703B6A0A331A46BB681344694A53
:102B000012781A703B6A02333B62FB8C0133FB8400
:102B1000FA8CBB8B9A42D9D313E0FB8B5B003A68EB
:102B200013441B885F4A60491846FFF71DFFBB68C6
:102B300001335D4A12781A70BB680233594A127821
:102B40001A70BB8B5B009BB209339BB21A46B96803
:102B5000012001F0F1FB06E0544B01221A7002E063
:102B6000524B01221A7052480BF0E0F996E0FB68D4
:102B700008331A78FB6809331B7819461046FFF7AB
:102B80000AFF0346FB83FB8B3F2B78D8FB680A3395
:102B90001A78FB680B331B7819461046FFF7FBFECB
:102BA0000346BB83BB8B402B65D8BA8BFB8B13448E
:102BB000402B60DCFB681A78BB681A70BB68013375
:102BC000FA6852781A70BB68053306221A70FB8BBC
:102BD0003B830D23FB84BB8B012B11D1FB8CFA684B
:102BE00013441878FB8C0133FA6813441978FB8B73
:102BF0005B003A68D418FFF7CEFE0346238020E03E
:102C00003B8BBB8417E0FB8CFA6813441878FB8C71
:102C100001331A46FB6813441978BB8C5B003A6891
:102C2000D418FFF7B8FE03462380FB8C0233FB84E5
:102C3000BB8C0133BB84BA8CB98B3B8B0B449A425F
:102C4000E1DBBB680833FA68127A1A70BB68093393
:102C5000FA68527A1A70BB680A33FA68927A1A7064
:102C6000BB680B33FA68D27A1A700C22B96801205B
:102C700001F062FB06E00D4B01221A7002E00B4BE3
:102C800001221A700B480BF051F907E00A480BF0CB
:102C90004DF903E009480BF049F900BF00BF2C379C
:102CA000BD4690BD75050020760500207405002006
:102CB000000101081001010820010108300101088C
:102CC00080B584B000AF0023FB8100F09BF9604B1E
:102CD000D3ED007AF5EEC07AF1EE10FA42D55D4BF5
:102CE0001B88184600F028FA51EC100B4FF0000238
:102CF000594BFDF723FE02460B461046194650A3DA
:102D0000D3E90023FDF7F0FC02460B46C7E9002398
:102D10004FF000024FF00003D7E90001FDF756FF26
:102D20000346002B02D00023BB8113E046A3D3E966
:102D30000023D7E90001FDF767FF0346002B03D00E
:102D40004FF6FF73BB8105E0D7E90001FDF77CFF7B
:102D50000346BB81BB8941F28732934220D8BB89AD
:102D6000FB811DE03A4B93ED007ADFED3C6AC7EE44
:102D7000267A9FED3B7A67EE877AC7ED027AB868CC
:102D8000FDF75AFC02460B4643EC102B0CF048F8BA
:102D900053EC102B10461946FDF756FF0346FB81F6
:102DA000304B41F288329A842E4B41F288321A8499
:102DB0002C4AFB8953842B4B5B8C07EE903AF8EE40
:102DC000676A284B1B8C07EE903AB8EE677AC6EE1E
:102DD000877A9FED227A67EE877A224BC3ED007ADD
:102DE000204B9B8C07EE903AF8EE676A1D4B1B8CCC
:102DF00007EE903AB8EE677AC6EE877A9FED177ABB
:102E000067EE877A174BC3ED017A164B93ED017A83
:102E1000144BD3ED007A77EE677A124BC3ED027A4A
:102E2000104B114A1A610F4B0F4A5A610D4B4FF06C
:102E300000029A6100BF1037BD4680BDAFF300802D
:102E4000000000000088B34000000000E0FFEF40F9
:102E50001C00002078050020000059400000C842F6
:102E600000409C45B40400203333733F0000000051
:102E700080B582B000AF87ED010A5D4B1B78002B57
:102E800009D05C4A7B681360594B00221A705A4A79
:102E90007B6813600CE0574BD3ED007A97ED017A15
:102EA00077EE677A544BC3ED007A524A7B68136021
:102EB000514BD3ED007AF1EE676A504B1B8C07EE55
:102EC000903AB8EE677AC6EE877A9FED4D7A67EE54
:102ED000877A4A4BC3ED037A474BD3ED007AF5EE80
:102EE000C07AF1EE10FA10DD444B93ED027A434BB9
:102EF000D3ED046A414BD3ED037A66EEA77A77EE01
:102F0000277A3E4BC3ED027A17E03B4BD3ED007AB4
:102F1000F5EEC07AF1EE10FA0FD5384B93ED027A48
:102F2000364BD3ED056A354BD3ED037A66EEA77ABF
:102F300077EE277A314BC3ED027A304B93ED017A6D
:102F40002E4BD3ED027A77EE677A2C4BC3ED007AE5
:102F50002A4BD3ED007ADFED2A0AB0EE670A0BF0B8
:102F600025FF10EE103A1846FDF766FB02460B46A9
:102F70009FED1D1B43EC102B0BF0C3FE53EC102BED
:102F800010461946FDF780FE03461C4A13601B4B92
:102F9000D3ED027ADFED1A0AB0EE670A0BF006FFF6
:102FA00010EE103A1846FDF747FB02460B469FED20
:102FB0000E1B43EC102B0BF0A4FE53EC102B104611
:102FC0001946FDF761FE03460C4A93600B4BD3EDA7
:102FD000007AFCEEE77A17EE903A9BB21846083773
:102FE000BD4680BDAFF3008000000000000000007F
:102FF00020000020800500207C050020B404002073
:103000000000C84280B483B000AF244B1A88244B20
:103010001A80224B1A88234B1A800023BB7100238D
:103020007B710023FB712EE01F4B1B881A46FB7936
:1030300042FA03F303F00103002B20D0FB79174A77
:1030400032F81320164B1B889A4207D2FB79134A99
:1030500032F81320124B1A80FB79BB71FB790F4AAF
:1030600032F813200F4B1B889A4209D9FB790B4A7F
:1030700032F813200B4B1A80FB797B7100E000BF04
:10308000FB790133FB71FB790F2BCDD900BF00BF5A
:103090000C37BD465DF8047B704700BF1801002067
:1030A000780500207A0500200000002080B487B059
:1030B00000AF0346FB8040F6B833FB8241F2CC03FD
:1030C000BB8241F294137B82FA88FB8A9A4203D333
:1030D000FA887B8A9A4201D9002323E0FA88BB8AC6
:1030E0009A4201D964231DE0FA88FB8AD31A07EEBD
:1030F000903AF8EEE76ABA8AFB8AD31A07EE903A5A
:10310000B8EEE77AC6EE877A9FED097A67EE877A9E
:10311000C7ED037AD7ED037AFCEEE77A17EE903A23
:103120009BB2DBB218461C37BD465DF8047B704786
:103130000000C84200000000B0B596B000AF0346E2
:10314000FB80FB881846FDF765FA4FF00002944BB0
:10315000FDF7F4FB02460B46C7E9142370A3D3E93D
:103160000023C7E9122370A3D3E90023C7E9102382
:103170006FA3D3E90023C7E90E236FA3D3E900238C
:10318000C7E90C236EA3D3E90023C7E90A236EA382
:10319000D3E90023C7E908236DA3D3E90023C7E9D6
:1031A00006236DA3D3E90023C7E904236CA3D3E965
:1031B0000023C7E902239FED6C1B97ED140B0BF066
:1031C00025FD51EC100BD7E91223FDF78DFA0246CD
:1031D0000B4614461D469FED661B97ED140B0BF036
:1031E00015FD51EC100BD7E91023FDF77DFA0246CF
:1031F0000B4620462946FDF7C1F802460B46144609
:103200001D469FED5D1B97ED140B0BF0FFFC51EC81
:10321000100BD7E90E23FDF767FA02460B4620464E
:103220002946FDF7ABF802460B4614461D469FEDB6
:10323000541B97ED140B0BF0E9FC51EC100BD7E984
:103240000C23FDF751FA02460B4620462946FDF7AE
:1032500095F802460B4614461D469FED4B1B97ED15
:10326000140B0BF0D3FC51EC100BD7E90A23FDF73C
:103270003BFA02460B4620462946FDF77FF80246F8
:103280000B4614461D469FED421B97ED140B0BF0A9
:10329000BDFC51EC100BD7E90823FDF725FA0246D7
:1032A0000B4620462946FDF769F802460B461446B0
:1032B0001D469FED391B97ED140B0BF0A7FC51EC4D
:1032C000100BD7E90623FDF70FFA02460B462046FE
:1032D0002946FDF753F802460B4614461D46D7E92A
:1032E0001423D7E90401FDF7FFF902460B462046F7
:1032F0002946FDF743F802460B4610461946D7E922
:103300000223FDF73BF802460B4643EC172BB0EEC9
:10331000470AF0EE670A5837BD46B0BDAFF30080EC
:10332000690C86DBF3C77040179CC73645DFBAC00F
:10333000795D99EEC7BAF240287989B176AF1DC19F
:10334000987EB92B67413D4139EB34C4AD5B52C126
:103350009142401344A75C41091E23B22B6D59C111
:10336000F1F2639DBFA44341000000000000204033
:103370000000000000001C40000000000000184099
:103380000000000000001440000000000000104099
:1033900000000000000008400000000000000040A5
:1033A00000408F4080B582B000AF00237B60104B9F
:1033B0005B6C0F4A43F4804353640D4B5B6C03F426
:1033C00080437B607B6800233B60094B1B6C084A91
:1033D00043F080531364064B1B6C03F080533B6037
:1033E0003B6808F06BFA00BF0837BD4680BD00BFE0
:1033F0000038024080B58AB000AF786007F114034E
:1034000000221A605A609A60DA601A617B681B6851
:10341000484A934240F0898000233B61464B1B6B36
:10342000454A43F002031363434B1B6B03F0020353
:103430003B613B694FF440737B611223BB61002306
:10344000FB6103233B6204237B6207F114031946EB
:103450003A4802F0B5FB0023FB60374B1B6C364A41
:1034600043F400131364344B1B6C03F40013FB6030
:10347000FB68334B334A1A60314B4FF000725A608D
:103480002F4B00229A602E4B0022DA602C4B4FF417
:1034900080621A612A4B00225A61294B00229A61EC
:1034A000274B0022DA61264B00221A62244B0022AD
:1034B0005A62234802F09AF80346002B01D0FFF726
:1034C0004DFA7B681E4A9A631D4A7B6893631E4BC4
:1034D0001E4A1A601C4B4FF000725A601A4B402271
:1034E0009A60194B0022DA60174B4FF480621A6120
:1034F000154B00225A61144B00229A61124B002294
:10350000DA61114B00221A620F4B00225A620E48F8
:1035100002F06CF80346002B01D0FFF71FFA7B681E
:10352000094A5A63084A7B68936300BF2837BD463F
:1035300080BD00BF0054004000380240000402403B
:10354000A80100201060024008020020A060024094
:1035500080B58AB000AF786007F1140300221A60CA
:103560005A609A60DA601A617B681B68194A934254
:103570002BD100233B61184B5B6C174A43F48053FB
:103580005364154B5B6C03F480533B613B69002330
:10359000FB60114B1B6B104A43F0010313630E4B8E
:1035A0001B6B03F00103FB60FB68E0237B610223DC
:1035B000BB610023FB6103233B6205237B6207F1B0
:1035C00014031946054802F0FBFA00BF2837BD4630
:1035D00080BD00BF003001400038024000000240C2
:1035E00080B485B000AF78607B681B680B4A93425B
:1035F0000DD10023FB600A4B5B6C094A43F4003396
:103600005364074B5B6C03F40033FB60FB6800BF43
:103610001437BD465DF8047B704700BF004401408D
:103620000038024080B58CB000AF786007F11C0311
:1036300000221A605A609A60DA601A617B681B681F
:10364000324A93422CD10023BB61314B5B6C304A30
:1036500043F0100353642E4B5B6C03F01003BB610B
:10366000BB6900237B612A4B1B6B294A43F0020391
:103670001363274B1B6B03F002037B617B69C02341
:10368000FB6102233B6200237B620323BB620723AF
:10369000FB6207F11C0319461E4802F091FA30E064
:1036A0007B681B681C4A93422BD100233B61184B5B
:1036B0001B6C174A43F400331364154B1B6C03F463
:1036C00000333B613B690023FB60114B1B6B104ACD
:1036D00043F0010313630E4B1B6B03F00103FB600C
:1036E000FB680423FB6112233B6200237B620323FC
:1036F000BB620723FB6207F11C031946074802F06F
:103700005FFA00BF3037BD4680BD00BF00100140EA
:103710000038024000040240004400400000024023
:1037200080B58EB000AF78600023FB620023BB62DF
:103730000023FB60334B1B6C324A43F010031364CD
:10374000304B1B6C03F01003FB60FB6807F11002A9
:1037500007F114031146184603F038FD3B6AFB627B
:10376000FB6A002B03D103F009FD786304E003F04A
:1037700005FD03465B007B637B6B234AA2FB0323AF
:103780009B0C013BBB62214B214A1A601F4B40F24C
:10379000E732DA601D4ABB6A53601C4B00221A6193
:1037A0001A4B00229A60194B00229A61174804F0C4
:1037B00021FD034687F8333097F83330002B1BD1B7
:1037C000124804F0CFFD034687F8333097F83330C2
:1037D000002B11D1362001F0FBFE7B680F2B08D89F
:1037E00000227968362001F0D7FE0A4A7B68136010
:1037F00002E0012387F8333097F833301846383722
:10380000BD4680BD0038024083DE1B438405002096
:10381000001000405800002080B400AF00BFFDE75A
:1038200080B400AF00BFFDE780B400AF00BFFDE78C
:1038300080B400AF00BFFDE780B400AF00BFFDE77C
:1038400080B400AF00BFBD465DF8047B7047000048
:1038500080B500AF024801F077FF00BF80BD00BF18
:10386000A801002080B500AF024801F06DFF00BF45
:1038700080BD00BF0802002080B500AF024804F000
:10388000E1FD00BF80BD00BF8405002080B586B08B
:1038900000AFF860B9607A6000237B610AE0AFF3A3
:1038A00000800146BB685A1CBA60CAB21A707B69B4
:1038B00001337B617A697B689A42F0DB7B6818464A
:1038C0001837BD4680BD80B483B000AF78604FF03C
:1038D000FF3318460C37BD465DF8047B704780B453
:1038E00083B000AF786039603B684FF400525A6093
:1038F000002318460C37BD465DF8047B704780B442
:1039000083B000AF7860012318460C37BD465DF8E0
:10391000047B704780B485B000AFF860B9607A600E
:10392000002318461437BD465DF8047B704700003D
:1039300080B400AF064BD3F88830054A43F47003D7
:10394000C2F8883000BFBD465DF8047B704700BFF9
:1039500000ED00E080B584B000AF7860224BDB68FA
:103960009847214B5B6998471F4B5B6A002B03D03C
:103970001D4B9B6A002B14D11B4B1B6A7A68120CDF
:10398000D2B210469847184B1B6A7A68120AD2B214
:1039900010469847144B1B6A7A68D2B21046984773
:1039A00011E07B681B0CDBB23B737B681B0ADBB24C
:1039B0007B737B68DBB2BB730B4B9B6A07F10C021A
:1039C000032110469847084BDB6998470346FB7371
:1039D000054B9B699847044B1B699847FB7B18462E
:1039E0001037BD4680BD00BF2C00002080B584B0DC
:1039F00000AF78600B46FB70224BDB689847214B89
:103A00005B6998477B6843F004037B601D4B9B6AAE
:103A1000002B19D11B4B1B6A7A68120CD2B21046CC
:103A20009847184B1B6A7A68120AD2B21046984718
:103A3000144B1B6A7A68D2B210469847114B1B6A26
:103A4000FA781046984713E07B681B0CDBB23B7397
:103A50007B681B0ADBB27B737B68DBB2BB73FB78D2
:103A6000FB73084B9B6A07F10C0204211046984730
:103A7000044B9B699847034B1B69984700BF10375D
:103A8000BD4680BD2C00002090B587B000AFF86027
:103A9000B9601346FB802B4BDB689847294B5B6969
:103AA0009847284B5B6A002B03D0264B9B6A002B60
:103AB00026D1244B1B6AFA68120CD2B210469847E2
:103AC000204B1B6AFA68120AD2B2104698471D4B67
:103AD0001B6AFA68D2B2104698470023FB820AE0BC
:103AE000184BDB69FA8AB9688C189847034623702B
:103AF000FB8A0133FB82FA8AFB889A42F0D317E0F3
:103B0000FB681B0CDBB23B74FB681B0ADBB27B74EB
:103B1000FB68DBB2BB740B4B9B6A07F110020321FD
:103B200010469847074B5B6AFA881146B868984771
:103B3000044B9B699847034B1B69984700BF1C3790
:103B4000BD4690BD2C00002080B586B000AFF86067
:103B5000B9601346FB802B4BDB689847294B5B69A8
:103B60009847FB6843F00403FB60264B9B6A002BDD
:103B700026D1244B1B6AFA68120CD2B21046984721
:103B8000204B1B6AFA68120AD2B2104698471D4BA6
:103B90001B6AFA68D2B2104698470023FB820AE0FB
:103BA000184B1B6AFA8AB9680A441278104698477B
:103BB000FB8A0133FB82FA8AFB889A42F0D317E032
:103BC000FB681B0CDBB23B74FB681B0ADBB27B742B
:103BD000FB68DBB2BB740B4B9B6A07F1100203213D
:103BE00010469847074B9B6AFA881146B868984771
:103BF000044B9B699847034B1B69984700BF1837D4
:103C0000BD4680BD2C00002090B585B000AF0346B6
:103C1000FB710023FB810023BB81FB799B000133F7
:103C2000DB0003F500531846FFF794FE0346BB8103
:103C3000BB891B029CB2FB799B000133DB0003F5BF
:103C400004531846FFF786FE03462344BB81BB8915
:103C5000002B19D0FB799B000133DB0003F50053E7
:103C60001846FFF777FE0346FB81FB891B029CB2D7
:103C7000FB799B000133DB0003F504531846FFF783
:103C800069FE03462344FB81FA89BB899A42C4D169
:103C9000FB8918461437BD4690BD90B585B000AF7E
:103CA0000346FB710023FB810023BB81FB799B0052
:103CB0000133DB0003F518531846FFF74BFE0346AC
:103CC000BB81BB891B029CB2FB799B000133DB00EB
:103CD00003F51C531846FFF73DFE03462344BB8102
:103CE000BB89002B19D0FB799B000133DB0003F566
:103CF00018531846FFF72EFE0346FB81FB891B0273
:103D00009CB2FB799B000133DB0003F51C53184682
:103D1000FFF720FE03462344FB81FA89BB899A42C0
:103D2000C4D1FB8918461437BD4690BD90B585B007
:103D300000AF03463960FB711346BB800023FB8153
:103D40000023BB60BB88002B46D0FB799B0001336E
:103D5000DB0003F510531846FFF7FCFD03461B027A
:103D60009CB2FB799B000133DB0003F5145318462A
:103D7000FFF7F0FD03462344FB81FB891B02FA7920
:103D800092000232D2001344BB60BB881A463968E5
:103D9000B868FFF7D9FEFA89BB881344FB81FB7929
:103DA0009B000133DB0003F510531A46FB891B0A05
:103DB0009BB2DBB219461046FFF718FEFB799B0059
:103DC0000133DB0003F514531A46FB89DBB21946B5
:103DD0001046FFF70BFE00E000BF1437BD4690BD54
:103DE00090B585B000AF03463960FB711346BB80C8
:103DF0000023FB810023BB60BB88002B46D0FB79EE
:103E00009B000133DB0003F520531846FFF7A2FDAA
:103E100003461B029CB2FB799B000133DB0003F5D8
:103E200024531846FFF796FD03462344FB81FB8984
:103E30001B02FA7992000332D2001344BB60BB88A4
:103E40001A463968B868FFF71FFEFA89BB88134421
:103E5000FB81FB799B000133DB0003F520531A46FD
:103E6000FB891B0A9BB2DBB219461046FFF7BEFD69
:103E7000FB799B000133DB0003F524531A46FB89D1
:103E8000DBB219461046FFF7B1FD00E000BF143762
:103E9000BD4690BD90B585B000AF044608461146BA
:103EA0001A462346FB710346BB710B46BB80134683
:103EB000FB70FB79082B02D94FF0FF33F0E0BB79A0
:103EC000012B05D0002B11DD023B022B0ED811E097
:103ED00007F10C03042219464FF47060FFF7D4FD7C
:103EE000FB68002B05D16FF00203D9E06FF00403EB
:103EF000D6E000BFFB7803F00403002B02D06FF084
:103F00000503CDE0FB78002B28D0BB79012B02D034
:103F1000022B08D022E0FB7803F02103002B1AD1FA
:103F20006FF00503BCE0FB7803F02003002B06D004
:103F300097F90330002B02DB6FF00503B0E0FB784C
:103F400003F01003002B08D097F90330002B04DB9B
:103F50006FF00503A4E000BF00E000BFFB79184646
:103F600000F0ACF8FB799B000133DB00184697F9B1
:103F7000033023F00F035AB297F9063013435BB2B4
:103F8000DBB21946FFF732FDBB88002B10D1464B40
:103F90001B885A1C91B2444A1180BB80424B1B883B
:103FA0004FF6F072934203D13F4B4FF440421A80D8
:103FB000FB799B000133DB0003F580631A46BB8865
:103FC0001B0A9BB2DBB219461046FFF70FFDFB79C7
:103FD0009B000133DB0003F5A0631A46BB88DBB20C
:103FE00019461046FFF702FDFB799B000133DB0009
:103FF00003F5807301211846FFF7F8FC00BFFB7939
:104000009B000133DB0003F580731846FFF7A2FC29
:104010000346002BF3D1FB79012202FA03F31BB212
:10402000DB431AB2214B1B881BB213401BB29AB25E
:104030001E4B1A80FB7803F00102FB7902FA03F3AE
:104040001AB21A4B1B881BB213431BB29AB2174BFE
:104050001A80FB79012202FA03F31BB2DB431AB286
:10406000134B1B881BB213401BB29AB2104B1A8021
:10407000FB79104A002122F81310FB790E4A002127
:10408000D15400BFFB799B000133DB0003F5407383
:104090001846FFF75FFC0346002BF3D097F9073073
:1040A00018461437BD4690BD28000020CC050020DE
:1040B000CE050020D0050020E005002080B582B0AC
:1040C00000AF0346FB71FB79082B02D94FF0FF3399
:1040D00055E0FB799B000133DB0003F58073102171
:1040E0001846FFF783FC00BFFB799B000133DB0020
:1040F00003F580731846FFF72DFC0346002BF3D120
:10410000FB799B000133DB0003F500731F21184688
:10411000FFF76CFCFB79012202FA03F31BB2DB43CD
:104120001AB2194B1B881BB213401BB29AB2164B22
:104130001A80FB79012202FA03F31BB2DB431AB2A5
:10414000124B1B881BB213401BB29AB20F4B1A8042
:10415000FB790F4A002122F81310FB790D4A002148
:10416000D15400BFFB799B000133DB0003F54073A2
:104170001846FFF7EFFB0346002BF3D10123184647
:104180000837BD4680BD00BFCC050020CE0500200D
:10419000D0050020E005002080B582B000AF0346C6
:1041A000FB71FB79082B02D94FF0FF3349E0FB7913
:1041B0009B000133DB001846FFF7CCFB034603F0FE
:1041C0000F03012B02D06FF004033AE0FB799B0050
:1041D0000133DB0003F540731846FFF7BBFB0346D2
:1041E000132B02D06FF002032BE0FB799B0001330D
:1041F000DB0003F5807302211846FFF7F7FB00BFD1
:10420000FB799B000133DB0003F580731846FFF751
:10421000A1FB0346002BF3D106E0FB791846FFF71C
:104220004DFF6FF003030CE0FB799B000133DB00D3
:1042300003F540731846FFF78DFB0346142BECD1B2
:10424000012318460837BD4680BD000080B582B006
:1042500000AF0346FB71FB79082B02D94FF0FF3307
:1042600062E0FB799B000133DB001846FFF772FB2D
:10427000034603F00F03012B02D06FF0040353E059
:10428000FB799B000133DB0003F58073082118469E
:10429000FFF7ACFB00BFFB799B000133DB0003F5AC
:1042A00080731846FFF756FB0346002BF3D1FB79CA
:1042B000012202FA03F31BB2DB431AB21C4B1B8828
:1042C0001BB213401BB29AB2194B1A80194B1B88B0
:1042D0001A46FB7942FA03F303F00103002B16D0D0
:1042E000002321E0FB799B000133DB0003F5007321
:1042F0001846FFF72FFB034603F00803002B06D0F8
:10430000FB791846FFF7DAFE6FF00C030CE0FB793F
:104310009B000133DB0003F540731846FFF71AFBDF
:104320000346002BDED1012318460837BD4680BD69
:10433000CE050020CC05002080B584B000AF034638
:104340003960FB711346BB800023FB730023BB81E4
:10435000FB79082B02D94FF0FF33DDE0FB799B009E
:104360000133DB001846FFF7F5FA034603F00F03AD
:10437000012B02D06FF00403CEE0BB88002B02D1EA
:104380006FF00D03C8E0FB799B000133DB0003F500
:1043900040731846FFF7DEFA0346FB73FB7B172BCF
:1043A00005D0FB7B1C2B02D06FF00603B4E05C4B06
:1043B0001B881A46FB7942FA03F303F00103002B32
:1043C00039D0FB799B000133DB0003F500731846FD
:1043D000FFF7C0FA034603F01F03FB73FB7B03F0F8
:1043E0001003002B19D0FB799B000133DB0003F590
:1043F000007310211846FFF7F9FAFB79012202FA3F
:1044000003F31BB2DB431AB2454B1B881BB21340AC
:104410001BB29AB2424B1A800DE0FB7B03F00803FB
:10442000002B06D0FB791846FFF748FE6FF00C030F
:1044300072E0002370E0FB799B000133DB0003F5A1
:10444000F8531846FFF786FA03469B02BB81BA88E9
:10445000BB899A4201D9BB89BB80FB791846FFF71B
:10446000D3FB0346BB81FB799B000133DB0003F5E3
:1044700040731846FFF76EFA0346FB73FB7B172B5E
:1044800009D0FB7B1C2B06D0FB791846FFF716FEE4
:104490006FF0060340E0234B1B881A46FB7942FA73
:1044A00003F303F00103002B05D0BA88BB899A42BD
:1044B00001D9002330E0BA88BB899A4200D9CCE701
:1044C00000BFBA88FB7939681846FFF72FFCFB79E3
:1044D0009B000133DB0003F5807320211846FFF7B2
:1044E00085FA00BFFB799B000133DB0003F5807385
:1044F0001846FFF72FFA0346002BF3D1FB79012270
:1045000002FA03F31AB2064B1B881BB213431BB209
:104510009AB2034B1A80BB8818461037BD4680BD3F
:10452000CE050020CC05002090B585B000AF034635
:104530003960FB711346BB800023FB730023BB81F2
:10454000FB79082B02D94FF0FF339BE0FB799B00EE
:104550000133DB001846FFF7FDF9034603F00F03B4
:10456000012B02D06FF004038CE0BB88002B02D13A
:104570006FF00D0386E0FB799B000133DB0003F550
:10458000F0531846FFF7E6F903469B02BB81BA8950
:10459000BB889A4201D2BB89BB80FB791846FFF7E2
:1045A0007CFB0346BB81FB799B000133DB0003F5F9
:1045B00040731846FFF7CEF90346FB73FB7B172BBE
:1045C00026D0FB7B1C2B1CD1BB89002B33D1FB7964
:1045D0001846FFF719FB03461C46FB799B00013385
:1045E000DB0003F5F8531846FFF7B4F903469B02C6
:1045F0009C420DD1FB791846FFF760FD6FF0060372
:1046000040E0FB791846FFF759FD6FF0060339E0EB
:104610001E4B1B881A46FB7942FA03F303F0010391
:10462000002B04D0BB89002B01D100232AE0BB89D9
:10463000002B02D1B1E700BF00E000BFBA89BB8800
:104640009A4201D2BB89BB80BA88FB793968184687
:10465000FFF7C6FBFB799B000133DB0003F580739A
:1046600040211846FFF7C2F900BFFB799B000133D8
:10467000DB0003F580731846FFF76CF90346002B47
:10468000F3D1BB8818461437BD4690BDCC05002039
:1046900080B584B000AF03463A60FB710B46BB7136
:1046A0000023FB73FB79082B02D94FF0FF33C0E0E6
:1046B000BB79072B00F2B98001A252F823F000BFAA
:1046C000E1460008354700084F4700086D470008DD
:1046D0008B470008BB470008DB4700080B48000871
:1046E0003B681B78FB73FB7B012B0DD1FB7901220F
:1046F00002FA03F31AB2514B1B881BB213431BB2CD
:104700009AB24E4B1A8093E0FB7B002B0FD1FB79C2
:10471000012202FA03F31BB2DB431AB2474B1B8898
:104720001BB213401BB29AB2444B1A8080E06FF068
:1047300009037EE0414B1B881A46FB7942FA03F3DA
:10474000DBB203F00103DAB23B681A7070E0FB7968
:104750009B000133DB0003F5F8531846FFF7FAF826
:1047600003469B029AB23B681A8061E0FB799B008A
:104770000133DB0003F5F0531846FFF7EBF803466F
:104780009B029AB23B681A8052E03B681B781F2B51
:1047900002D96FF009034CE0FB799B000133DB0089
:1047A00003F500731A463B681B7803F01F03DBB266
:1047B00019461046FFF71AF93AE0FB799B000133DE
:1047C000DB0003F500731846FFF7C4F8034603F057
:1047D0001F03DAB23B681A702AE03B681B781F2B74
:1047E00002D96FF0090324E0FB799B000133DB0061
:1047F00003F530531A463B681B7803F01F03DBB206
:1048000019461046FFF7F2F812E0FB799B000133DE
:10481000DB0003F530531846FFF79CF8034603F01E
:104820001F03DAB23B681A7002E06FF0090300E080
:10483000012318461037BD4680BD00BFCC050020BF
:1048400080B400AF00BFBD465DF8047B704780B404
:1048500000AF00BFBD465DF8047B704780B400AF79
:1048600000BFBD465DF8047B704780B400AF00BF59
:10487000BD465DF8047B704780B483B000AF7860BC
:104880007B681B78DBB218460C37BD465DF8047BAD
:10489000704780B483B000AF78600B46FB707B68D4
:1048A000FA781A7000BF0C37BD465DF8047B70477C
:1048B00080B400AF00231846BD465DF8047B704706
:1048C00080B483B000AF0346FB7100BF0C37BD4618
:1048D0005DF8047B7047000080B483B000AF78605F
:1048E00039607B68002B02D03B68002B06D10A4B55
:1048F0000A4A5A61084B0A4A9A6106E0064A7B68EE
:104900005361054A3B68936100BF00BF0C37BD4649
:104910005DF8047B704700BF2C0000205D48000854
:104920006B48000880B483B000AF7860396000BF86
:104930000F4B1B8803F40073002BF9D07B68002B0E
:1049400002D03B68002B06D1094B0A4ADA61084BBA
:10495000094A1A6206E0064A7B68D361044A3B684A
:10496000136200BF00BF0C37BD465DF8047B704783
:104970002C000020B1480008C148000890B587B05D
:1049800000AF03463960FB710023FB750023FB6019
:1049900000233B61FB790F2B00F2C58001A252F886
:1049A00023F000BFE5490008EB490008174A00085A
:1049B0000B4A0008254A0008314A00083F4A00080F
:1049C000654A0008874A0008CB4A0008D14A000817
:1049D000D94A00082D4B0008E14A0008EF4A0008B8
:1049E0000B4B000800F0E8F8A1E03B68002B04D076
:1049F0003B68FB60FB6808333B61FB683A69114622
:104A0000184600F025F9034692E03B681B881846DB
:104A100000F0AAF98BE000F0DBF903461A463B6888
:104A20001A8084E03B681B88184600F0F6F97EE0A7
:104A300000F00EFA03461A463B681A8077E03B689E
:104A40001B881B0A9BB2DBB219464FF49850FEF745
:104A5000CDFF3B681B88DBB219464FF4A050FEF730
:104A6000C5FF64E04FF49850FEF774FF03461B0245
:104A70009CB24FF4A050FEF76DFF034623449AB258
:104A80003B681A8053E02C4B9A783B681A703B685D
:104A90000133294AD2781A703B680233264A1279C8
:104AA0001A703B680333244A52791A703B68043306
:104AB000214A92791A703B6805331F4AD2791A70DD
:104AC0003B68063300221A7031E000F013FA2EE042
:104AD000386800F036FA2AE0386800F075FA26E007
:104AE0003B681B78184600F0D9FA034620E000F036
:104AF000E8F90346FB75FB7DFF2B02D14FF0FF3336
:104B000016E03B68FA7D1A7011E000F0C4F9034624
:104B1000FB75FB7DFF2B02D14FF0FF3308E03B68B4
:104B2000FA7D1A7003E04FF0FF3301E000BF00236D
:104B300018461C37BD4690BD2C00002080B582B0C1
:104B400000AF03463960FB71FB79052B2CD801A21D
:104B500052F823F06D4B0008754B00087D4B0008A0
:104B60008B4B0008994B0008A14B0008386800F0F7
:104B7000DFFA1CE0386800F01BFB18E03B681B788C
:104B8000184600F055FB034612E000F073FB0346A5
:104B90001A463B681A700AE0386800F073FB06E0BA
:104BA000386800F090FB02E04FF0FF3300E0002394
:104BB00018460837BD4680BD80B586B000AF3B1DA6
:104BC000062219464FF41060FEF75EFF07F114034A
:104BD000042219464FF48070FEF756FF07F11003C8
:104BE000042219464FF4A060FEF74EFF07F10C03B4
:104BF000042219464FF47060FEF746FF8021002022
:104C0000FEF7F4FE0020FEF7A5FE3B1D0622194626
:104C10004FF41060FEF798FF07F1140304221946C1
:104C20004FF48070FEF790FF07F11003042219463D
:104C30004FF4A060FEF788FF07F10C030422194629
:104C40004FF47060FEF780FF00BF1837BD4680BD8F
:104C500080B584B000AF786039600023BB73FFF784
:104C6000ABFF7B68002B3BD00023BB730023FB739F
:104C700015E097F90F307A6813441A78BB7B134418
:104C8000DBB2BB7397F90E30102B02DD4FF0FF3310
:104C900066E097F90F30DBB20133DBB2FB7397F9B3
:104CA0000F30072BE5DD0023FB7315E097F90F307C
:104CB0009B000133DB0003F5F853184697F90F30DA
:104CC0007A6813441B781946FEF790FE97F90F3067
:104CD000DBB20133DBB2FB7397F90F30072BE5DD55
:104CE0003B68002B3BD00023BB730023FB7315E014
:104CF00097F90F303A6813441A78BB7B1344DBB240
:104D0000BB7397F90E30102B02DD4FF0FF3327E015
:104D100097F90F30DBB20133DBB2FB7397F90F3039
:104D2000072BE5DD0023FB7315E097F90F309B009F
:104D30000133DB0003F5F053184697F90F303A685A
:104D400013441B781946FEF751FE97F90F30DBB27A
:104D50000133DBB2FB7397F90F30072BE5DD00233E
:104D600018461037BD4680BD80B584B000AF0346FD
:104D7000FB80FB88FB73FB881B0A9BB2BB73FB7B2E
:104D800023F00F03DBB219464FF4A850FEF72EFEB6
:104D90000023FB7314E0BA7BFB7B42FA03F303F0BE
:104DA0000103002B09D0FB7B9B000133DB0003F5E3
:104DB00000731F211846FEF719FEFB7B0133FB73BE
:104DC000FB7B072BE7D900BF00BF1037BD4680BD76
:104DD00080B582B000AF0023FB710023BB710023BC
:104DE000BB804FF4A850FEF7B5FD034623F00F0338
:104DF000FB714FF4B850FEF7ADFD0346BB71BB79B4
:104E0000BB80BB881B029AB2FB799BB21344BB8068
:104E1000BB8818460837BD4680BD80B584B000AF5A
:104E20000346FB80FB88FB73FB881B0A9BB2BB73AA
:104E3000FB7B19464FF4B050FEF7D8FDBB7B1946FB
:104E40004FF4C050FEF7D2FD00BF1037BD4680BD05
:104E500080B582B000AF0023FB710023BB7100233B
:104E6000BB804FF4B050FEF775FD0346FB714FF465
:104E7000C050FEF76FFD0346BB71BB79BB80BB889A
:104E80001B029AB2FB799BB21344BB80BB881846C5
:104E90000837BD4680BD80B582B000AF0023FB71EE
:104EA0004FF43850FEF756FD034603F00103002B84
:104EB00001D00123FB7197F9073018460837BD462A
:104EC00080BD80B582B000AF0023FB714FF4385035
:104ED000FEF740FD034603F03803302B02D10123D7
:104EE000FB7101E00023FB7197F907301846083782
:104EF000BD4680BD80B582B000AF4FF43850FEF79C
:104F000029FD0346FB71FB7903F07F03FB71FB79FD
:104F100019464FF43850FEF769FD4FF43850FEF74C
:104F200019FD0346FB71FB7963F07F03FB71FB798D
:104F300019464FF43850FEF759FD00BF0837BD46FB
:104F400080BD80B584B000AF78600023FB737B68C0
:104F50001B78012B04D1FB7B43F04003FB7303E080
:104F6000FB7B23F04003FB737B685B78012B04D150
:104F7000FB7B43F03803FB7319E07B68DB78012B84
:104F80000DD17B689B78012B04D1FB7B43F0180388
:104F9000FB730CE0FB7B43F00803FB7307E07B68CB
:104FA0009B78012B03D1FB7B43F01003FB73FB7B4E
:104FB00019464FF43850FEF719FDFFF79BFF00BF6D
:104FC0001037BD4680BD000080B584B000AF78606A
:104FD0000023FB734FF43850FEF7BCFC0346FB7311
:104FE000FB7B9B11DBB203F00103DAB27B681A7022
:104FF000FB7B03F03803202B01D0382B03D17B68D7
:1050000001225A7003E07B6800225A7000BFFB7BCC
:1050100003F03803103B102B8CBF01220022D2B2C8
:10502000002A0FD11B4A22FA03F303F00103002BDD
:1050300014BF01230023DBB2002B03D07B680122C5
:105040009A7003E07B6800229A7000BFFB7B03F03C
:105050003803083B182B8CBF01220022D2B2002A51
:105060000FD10D4A22FA03F303F00103002B14BF02
:1050700001230023DBB2002B03D07B680122DA700E
:1050800003E07B680022DA7000BF00BF1037BD4626
:1050900080BD00BF010101000100010180B584B0A5
:1050A00000AF0346FB710023FB734FF43850FEF74B
:1050B00051FC0346FB73FB7B03F04003002B02D142
:1050C0004FF0FF3330E0FB7B23F03803FB73FB79B9
:1050D000012B04D1FB7B43F03003FB7303E0FB7B2C
:1050E00043F03803FB73FB7B19464FF43850FEF74F
:1050F0007DFCFFF7FFFE4FF43850FEF72BFC034614
:10510000FB73FB79012B06D1FB7B03F03003002BF3
:1051100008D0002308E0FB7B03F03803002B01D00C
:10512000002301E04FF0FF3318461037BD4680BD25
:1051300080B582B000AF78607B68062219464FF4D4
:105140001060FEF701FD7B680E33042219464FF410
:105150008070FEF7F9FC7B680A33042219464FF48D
:10516000A060FEF7F1FC7B680633042219464FF479
:105170007060FEF7E9FC7B689A7C0B4B1A707B68C9
:10518000DA7C094B5A707B681A7D074B9A707B68F2
:105190005A7D054BDA707B689A7D044B1A7000BF0C
:1051A0000837BD4680BD00BFE8050020EC050020A3
:1051B00080B582B000AF78607B68062219464FF454
:1051C0001060FEF761FC7B680E33042219464FF431
:1051D0008070FEF759FC7B680A33042219464FF4AD
:1051E000A060FEF751FC7B680633042219464FF499
:1051F0007060FEF749FC0C4B1A787B689A740A4B76
:105200005A787B68DA74084B9A787B681A75064B73
:10521000DA787B685A75054B1A787B689A7500BFF7
:105220000837BD4680BD00BFE8050020EC05002022
:1052300080B584B000AF0346FB710023FB73FB799C
:1052400023F03A03002B02D04FF0FF330EE0002092
:10525000FEF780FB0346FB73FA7BFB791343FB737A
:10526000FB7B19460020FEF7C1FB002318461037D0
:10527000BD4680BD80B500AF0020FEF76BFB034646
:10528000184680BD80B582B000AF78607B681B781F
:1052900019464FF4D850FEF7A9FB7B685B881B0AC0
:1052A0009BB2DBB219464FF4C850FEF79FFB7B68F8
:1052B0005B88DBB219464FF4D050FEF797FB00BF76
:1052C0000837BD4680BD90B583B000AF78604FF41D
:1052D000D850FEF73FFB03461A467B681A704FF41E
:1052E000C850FEF737FB03461B029CB24FF4D05068
:1052F000FEF730FB034623449AB27B685A8000BF16
:105300000C37BD4690BD0000DFF834D0FEF710FB2F
:105310000C480D490D4A002302E0D458C450043310
:10532000C4188C42F9D30A4A0A4C002301E01360E6
:105330000432A242FBD308F02BFFFCF719FC7047A4
:105340000000022000000020D8000020B002010868
:10535000D8000020644B0120FEE7000080B500AFBC
:105360000E4B1B680D4A43F4007313600B4B1B6814
:105370000A4A43F480631360084B1B68074A43F4EE
:1053800080731360032000F0FCF80F20FEF7C8F9CB
:10539000FEF708F80023184680BD00BF003C02401D
:1053A00080B400AF064B1B781A46064B1B681344AB
:1053B000044A136000BFBD465DF8047B704700BF20
:1053C0005C000020F005002080B400AF034B1B6898
:1053D0001846BD465DF8047B704700BFF00500200D
:1053E00080B584B000AF7860FFF7EEFFB8607B68EF
:1053F000FB60FB68B3F1FF3F05D00A4B1B781A46F0
:10540000FB681344FB6000BFFFF7DEFF0246BB688A
:10541000D31AFA689A42F7D800BF00BF1037BD46CA
:1054200080BD00BF5C00002080B485B000AF786014
:105430007B6803F00703FB600C4BDB68BB60BA685A
:105440004FF6FF031340BB60FB681A02BB681343AF
:1054500043F0BF6343F40033BB60044ABB68D360CE
:1054600000BF1437BD465DF8047B704700ED00E0D7
:1054700080B400AF044BDB681B0A03F00703184637
:10548000BD465DF8047B704700ED00E080B483B05A
:1054900000AF0346FB7197F90730002B0BDBFB795C
:1054A00003F01F02074997F907305B09012000FA52
:1054B00002F241F8232000BF0C37BD465DF8047BA3
:1054C000704700BF00E100E080B483B000AF034646
:1054D0003960FB7197F90730002B0ADB3B68DAB2C1
:1054E0000C4997F907301201D2B20B4483F800231C
:1054F0000AE03B68DAB20849FB7903F00F03043B8A
:105500001201D2B20B441A7600BF0C37BD465DF8CB
:10551000047B704700E100E000ED00E080B489B05A
:1055200000AFF860B9607A60FB6803F00703FB61C5
:10553000FB69C3F10703042B28BF0423BB61FB698C
:105540000433062B02D9FB69033B00E000237B6197
:105550004FF0FF32BB6902FA03F3DA43BB681A402B
:105560007B699A404FF0FF317B6901FA03F3D9431D
:105570007B680B40134318462437BD465DF8047B17
:10558000704780B582B000AF78607868FFF74CFF55
:1055900000BF0837BD4680BD80B586B000AF03466A
:1055A000B9607A60FB7300237B61FFF761FF78616C
:1055B0007A68B9687869FFF7B1FF024697F90F304A
:1055C00011461846FFF780FF00BF1837BD4680BD63
:1055D00080B582B000AF0346FB7197F907301846DB
:1055E000FFF754FF00BF0837BD4680BD80B586B0C9
:1055F00000AF786000237B61FFF7E6FE38617B68CF
:10560000002B01D1012399E07B68022283F8352029
:105610007B68002283F834207B681B681A687B68EB
:105620001B6822F001021A600FE0FFF7CDFE024670
:105630003B69D31A052B08D97B6820225A657B6801
:10564000032283F83520032378E07B681B681B68FE
:1056500003F00103002BE8D17B681B681B687B61AA
:105660007A69384B13407B617B685A687B689B681A
:105670001A437B68DB681A437B681B691A437B68A3
:105680005B691A437B689B691A437B68DB691A4331
:105690007B681B6A13437A6913437B617B685B6A8F
:1056A000042B07D17B68DA6A7B681B6B13437A692A
:1056B00013437B617B681B687A691A607B681B688F
:1056C0005B697B617B6923F007037B617B685B6AB5
:1056D0007A6913437B617B685B6A042B17D17B6813
:1056E0009B6A7A6913437B617B68DB6A002B0ED06F
:1056F000786800F0E9F90346002B08D07B68402267
:105700005A657B68012283F83520012316E07B6807
:105710001B687A695A61786800F0A0F90346FB605B
:105720007B68DB6D3F229A40FB689A607B680022B1
:105730005A657B68012283F8352000231846183704
:10574000BD4680BD3F8010F080B586B000AF786068
:105750000023BB608E4B1B688E4AA2FB03239B0A6F
:105760007B617B689B6D3B613B691B68FB607B6871
:10577000DB6D08229A40FB681340002B1AD07B682F
:105780001B681B6803F00403002B13D07B681B68A5
:105790001A687B681B6822F004021A607B68DB6D64
:1057A00008229A403B699A607B685B6D43F0010276
:1057B0007B685A657B68DB6D01229A40FB68134069
:1057C000002B12D07B681B685B6903F08003002B01
:1057D0000BD07B68DB6D01229A403B699A607B6845
:1057E0005B6D43F002027B685A657B68DB6D0422C7
:1057F0009A40FB681340002B12D07B681B681B6823
:1058000003F00203002B0BD07B68DB6D04229A406F
:105810003B699A607B685B6D43F004027B685A6564
:105820007B68DB6D10229A40FB681340002B43D04D
:105830007B681B681B6803F00803002B3CD07B6867
:10584000DB6D10229A403B699A607B681B681B687D
:1058500003F48023002B18D07B681B681B6803F4BB
:105860000023002B08D17B681B6C002B24D07B68A5
:105870001B6C786898471FE07B689B6C002B1BD0E3
:105880007B689B6C7868984716E07B681B681B6890
:1058900003F48073002B07D17B681B681A687B6850
:1058A0001B6822F008021A607B681B6C002B03D077
:1058B0007B681B6C786898477B68DB6D20229A4078
:1058C000FB681340002B00F08F807B681B681B680F
:1058D00003F01003002B00F087807B68DB6D202233
:1058E0009A403B699A607B6893F83530DBB2052BB0
:1058F00036D17B681B681A687B681B6822F0160229
:105900001A607B681B685A697B681B6822F08002FA
:105910005A617B681B6C002B03D17B689B6C002B4E
:1059200007D07B681B681A687B681B6822F0080236
:105930001A607B68DB6D3F229A403B699A607B6806
:10594000012283F835207B68002283F834207B68AD
:105950001B6D002B7ED07B681B6D7868984779E0C3
:105960007B681B681B6803F48023002B1DD07B68B9
:105970001B681B6803F40023002B0DD17B685B6C54
:10598000002B31D07B685B6C786898472CE000BFB7
:1059900024000020B5814E1B7B68DB6B002B23D0DD
:1059A0007B68DB6B786898471EE07B681B681B6828
:1059B00003F48073002B0FD17B681B681A687B6827
:1059C0001B6822F010021A607B68012283F83520E0
:1059D0007B68002283F834207B68DB6B002B03D0CC
:1059E0007B68DB6B786898477B685B6D002B32D0F7
:1059F0007B685B6D03F00103002B22D07B680522DE
:105A000083F835207B681B681A687B681B6822F066
:105A100001021A60BB680133BB607A699A4207D3FE
:105A20007B681B681B6803F00103002BF2D100E0C8
:105A300000BF7B68012283F835207B68002283F851
:105A400034207B68DB6C002B05D07B68DB6C7868CE
:105A5000984700E000BF1837BD4680BD80B485B0D0
:105A600000AF78607B681B68DBB2103B144AA2FB76
:105A700003231B09FB60134AFB6813441B781A4677
:105A80007B68DA65FB68032B09D97B681B6823F404
:105A90007F7323F003031A1D7B689A6507E07B6818
:105AA0001B6823F47F7323F003037A6893657B6894
:105AB0009B6D18461437BD465DF8047B704700BFE8
:105AC000ABAAAAAA2002010880B485B000AF786012
:105AD0000023FB737B689B6ABB607B689B69002B20
