:020000040800F2
:100000000000022021210008752000087D20000842
:10001000852000088D2000089520000800000000C1
:100020000000000000000000000000009D2000080B
:10003000AB20000800000000B9200008C72000081D
:100040007121000871210008712100087121000848
:100050007121000871210008712100087121000838
:100060007121000871210008712100087121000828
:100070007121000871210008712100087121000818
:100080007121000871210008712100087121000808
:1000900071210008712100087121000871210008F8
:1000A00071210008712100087121000871210008E8
:1000B00071210008712100087121000871210008D8
:1000C00071210008712100087121000871210008C8
:1000D00071210008712100087121000871210008B8
:1000E00071210008712100087121000871210008A8
:1000F0007121000871210008712100087121000898
:100100007121000871210008712100087121000887
:100110007121000871210008D52000087121000814
:100120007121000871210008712100087121000867
:10013000712100080000000000000000712100088B
:10014000712100087121000871210008E9200008D0
:100150007121000871210008712100087121000837
:100160007121000871210008712100087121000827
:1001700071210008712100087121000800000000B1
:1001800000000000712100080000000000000000D5
:10019000712100080000000000000000712100082B
:1001A00000000000000000000000000071210008B5
:1001B00071210008712100087121000871210008D7
:0401C00071210008A1
:1001C80010B5054C237833B9044B13B10448AFF389
:1001D80000800123237010BD0C00002000000000E7
:1001E800CC83000808B5034B1BB103490348AFF3A0
:1001F800008008BD0000000010000020CC8300082B
:1002080070B54FF0FF0C4CF4E06C1CEA11541DBFA4
:100218001CEA135594EA0C0F95EA0C0F00F0DEF86F
:100228002C4481EA030621EA4C5123EA4C5350EA54
:10023800013518BF52EA033541F4801143F48013A5
:1002480038D0A0FB02CE4FF00005E1FB02E506F036
:100258000042E0FB03E54FF00006E1FB03569CF08B
:10026800000F18BF4EF0010EA4F1FF04B6F5007F91
:1002780064F5407404D25FEA4E0E6D4146EB060603
:1002880042EAC62141EA55514FEAC52040EA5E508C
:100298004FEACE2EB4F1FD0C88BFBCF5E06F1ED836
:1002A800BEF1004F08BF5FEA500E50F1000041EB6D
:1002B800045170BD06F0004646EA010140EA02001A
:1002C80081EA0301B4EB5C04C2BFD4EB0C0541EA3C
:1002D800045170BD41F480114FF0000E013C00F351
:1002E800AB8014F1360FDEBF002001F0004170BD75
:1002F800C4F10004203C35DA0C341BDC04F114048E
:10030800C4F1200500FA05F320FA04F001FA05F219
:1003180040EA020001F0004221F0004110EBD370E6
:1003280021FA04F642EB06015EEA430E08BF20EA12
:10033800D37070BDC4F10C04C4F1200500FA04F3B5
:1003480020FA05F001FA04F240EA020001F0004147
:1003580010EBD37041F100015EEA430E08BF20EABA
:10036800D37070BDC4F1200500FA05F24EEA020E02
:1003780020FA04F301FA05F243EA020321FA04F031
:1003880001F0004121FA04F220EA020000EBD370E8
:100398005EEA430E08BF20EAD37070BD94F0000FE8
:1003A8000FD101F00046400041EB010111F4801F1C
:1003B80008BF013CF7D041EA060195F0000F18BFCD
:1003C800704703F00046520043EB030313F4801F09
:1003D80008BF013DF7D043EA0603704794EA0C0FC3
:1003E8000CEA135518BF95EA0C0F0CD050EA4106D9
:1003F80018BF52EA4306D1D181EA030101F0004156
:100408004FF0000070BD50EA410606BF104619467D
:1004180052EA430619D094EA0C0F02D150EA013689
:1004280013D195EA0C0F05D152EA03361CBF1046CA
:1004380019460AD181EA030101F0004141F0FE4169
:1004480041F470014FF0000070BD41F0FE4141F4ED
:10045800780170BD81F0004102E000BF83F00043E5
:1004680030B54FEA41044FEA430594EA050F08BF47
:1004780090EA020F1FBF54EA000C55EA020C7FEA0B
:10048800645C7FEA655C00F0E2804FEA5454D4EB88
:100498005555B8BF6D420CDD2C4480EA020281EA52
:1004A800030382EA000083EA010180EA020281EA8A
:1004B8000303362D88BF30BD11F0004F4FEA0131DC
:1004C8004FF4801C4CEA113102D0404261EB4101EB
:1004D80013F0004F4FEA03334CEA133302D0524271
:1004E80063EB430394EA050F00F0A780A4F101042D
:1004F800D5F1200E0DDB02FA0EFC22FA05F2801867
:1005080041F1000103FA0EF2801843FA05F359414C
:100518000EE0A5F120050EF1200E012A03FA0EFCCB
:1005280028BF4CF0020C43FA05F3C01851EBE371F5
:1005380001F0004507D54FF0000EDCF1000C7EEB12
:1005480000006EEB0101B1F5801F1BD3B1F5001F50
:100558000CD349085FEA30004FEA3C0C04F101046F
:100568004FEA445212F5800F80F09A80BCF1004F98
:1005780008BF5FEA500C50F1000041EB045141EA1A
:10058800050130BD5FEA4C0C404141EB0101013CE3
:1005980028BFB1F5801FE9D291F0000F04BF0146D2
:1005A8000020B1FA81F308BF2033A3F10B03B3F1A4
:1005B80020020CDA0C3208DD02F1140CC2F10C0234
:1005C80001FA0CF021FA02F10CE002F11402D8BF92
:1005D800C2F1200C01FA02F120FA0CFCDCBF41EA5E
:1005E8000C019040E41AA2BF01EB0451294330BD2D
:1005F8006FEA04041F3C1CDA0C340EDC04F114040A
:10060800C4F1200220FA04F001FA02F340EA0300E0
:1006180021FA04F345EA030130BDC4F10C04C4F126
:10062800200220FA02F001FA04F340EA0300294606
:1006380030BD21FA04F0294630BD94F0000F83F450
:10064800801306BF81F480110134013D4EE77FEA33
:10065800645C18BF7FEA655C29D094EA050F08BF7F
:1006680090EA020F05D054EA000C04BF1946104660
:1006780030BD91EA030F1EBF0021002030BD5FEAA4
:10068800545C05D14000494128BF41F0004130BDCC
:1006980014F580043CBF01F5801130BD01F0004520
:1006A80045F0FE4141F470014FF0000030BD7FEA93
:1006B800645C1ABF194610467FEA655C1CBF0B468E
:1006C800024650EA013406BF52EA033591EA030FA5
:1006D80041F4002130BD00BF90F0000F04BF00219D
:1006E800704730B54FF4806404F132044FF00005D0
:1006F8004FF0000150E700BF90F0000F04BF002149
:10070800704730B54FF4806404F1320410F00045AE
:1007180048BF40424FF000013EE700BF42004FEAA9
:10072800E2014FEA31014FEA02701FBF12F07F4326
:1007380093F07F4F81F06051704732F07F4208BFDD
:10074800704793F07F4F04BF41F40021704730B5E4
:100758004FF4607401F0004521F000411CE700BF30
:1007680050EA010208BF704730B54FF000050AE0B3
:1007780050EA010208BF704730B511F0004502D5B4
:10078800404261EB41014FF4806404F132045FEAB6
:10079800915C3FF4D8AE4FF003025FEADC0C18BF5F
:1007A80003325FEADC0C18BF033202EBDC02C2F151
:1007B800200300FA03FC20FA02F001FA03FE40EAE3
:1007C8000E0021FA02F11444BDE600BF4FF0FF3CD1
:1007D80006E000BF4FF0010C02E000BF4FF0010C33
:1007E8004DF804CD4FEA410C7FEA6C5C4FEA430CAC
:1007F80018BF7FEA6C5C1BD001B050EA410C0CBFFB
:1008080052EA430C91EA030F02BF90EA020F00205C
:10081800704710F1000F91EA030F58BF994208BFC3
:1008280090422CBFD8176FEAE37040F00100704780
:100838004FEA410C7FEA6C5C02D150EA013C07D1D7
:100848004FEA430C7FEA6C5CD6D152EA033CD3D022
:100858005DF8040B704700BF8446104662468C461C
:100868001946634600E000BF01B5FFF7B7FF00284F
:1008780048BF10F1000F01BD4DF808EDFFF7F4FF78
:100888000CBF012000205DF808FB00BF4DF808ED03
:10089800FFF7EAFF34BF012000205DF808FB00BF26
:1008A8004DF808EDFFF7E0FF94BF012000205DF848
:1008B80008FB00BF4DF808EDFFF7CEFF94BF0120FD
:1008C80000205DF808FB00BF4DF808EDFFF7C4FFF6
:1008D80034BF012000205DF808FB00BF4FEA410249
:1008E800B2F1E04324BFB3F5001CDCF1FE5C0DD986
:1008F80001F0004C4FEAC0024CEA5070B2F1004FD0
:1009080040EB830008BF20F00100704711F0804FD2
:1009180021D113F13872BCBF01F00040704741F497
:1009280080114FEA5252C2F11802C2F1200C10FA9B
:100938000CF320FA02F018BF40F001004FEAC1237F
:100948004FEAD32303FA0CFC40EA0C0023FA02F323
:100958004FEA4303CCE77FEA625307D150EA0133F9
:100968001EBF4FF0FE4040F44000704701F00040C9
:1009780040F0FE4040F40000704700BF53B94AB948
:10098800002908BF00281CBF4FF0FF314FF0FF308F
:1009980000F06AB9ADF1080C6DE904CE00F006F874
:1009A800DDF804E0DDE9022304B070472DE9F047E3
:1009B800089D0C46002B4ED194468C458646B2FACB
:1009C80082F262D94AB1C2F12003914020FA03F3BE
:1009D8000CFA02FC194300FA02FE4FEA1C471FFA00
:1009E8008CF6B1FBF7F44FEA1E4307FB141143EAF8
:1009F800014304FB06F199420AD91CEB030304F1F5
:100A0800FF3080F01281994240F20F81023C63442A
:100A1800591A1FFA8EF3B1FBF7F007FB101143EADE
:100A2800014300FB06F69E420AD91CEB030300F1C2
:100A3800FF3180F0FC809E4240F2F9806344023826
:100A48009B1B40EA044000211DB1D3400022C5E9A8
:100A58000032BDE8F0878B4205D90DB1C5E9000128
:100A680000210846F5E7B3FA83F1002946D1A342ED
:100A780002D39042C0F0F080861A64EB0303012091
:100A8800002DE6D0C5E90063E3E7002A40F0908036
:100A9800A1EB0C044FEA1C481FFA8CF70121B4FBA8
:100AA800F8F64FEA1E4308FB164443EA044307FBE3
:100AB80006F0984208D91CEB030306F1FF3402D272
:100AC800984200F2CD8026461C1A1FFA8EF3B4FB1A
:100AD800F8F008FB104443EA044300FB07F79F4281
:100AE80008D91CEB030300F1FF3402D29F4200F245
:100AF800B0802046DB1B40EA0640A5E7C1F120068E
:100B08008B4022FA06F71F4320FA06FC04FA01F389
:100B180043EA0C03F44000FA01F8380C4FEA134991
:100B2800B4FBF0FE1FFA87FC00FB1E4449EA0444AC
:100B38000EFB0CF9A14502FA01F20AD93C190EF193
:100B4800FF3A80F08480A14540F28180AEF1020E28
:100B58003C44A4EB09041FFA83F9B4FBF0F300FB4F
:100B6800134449EA044403FB0CFCA44507D93C1987
:100B780003F1FF3067D2A44565D9023B3C4443EA00
:100B88000E40A0FB0293A4EB0C049C42CE469C466C
:100B980051D34ED055B1B8EB0E0364EB0C0404FAF4
:100BA80006F6CB401E43CC40C5E90064002150E75F
:100BB800C2F1200320FA03F10CFA02FC24FA03F331
:100BC80094400C434FEA1C4800FA02FE1FFA8CF7C7
:100BD800B3FBF8F008FB1031230C43EA014300FB98
:100BE80007F1994208D91CEB030300F1FF362CD218
:100BF80099422AD9023863445B1AA4B2B3FBF8F1CC
:100C080008FB113344EA034401FB07F3A34208D964
:100C18001CEB040401F1FF3613D2A34211D90239A7
:100C28006444E41A41EA004139E70446F0E608461C
:100C380006E7C845AED2B9EB020E63EB070C0138E4
:100C4800A8E73146EDE7034699E73046D4E7D646AC
:100C58007FE7634402384DE70646234608460FE718
:100C6800023E634430E700BF704700BF80B483B0E2
:100C780000AF7860084B1B6800225A6200BF064B21
:100C88001B685B6A7A689A42F9D800BF00BF0C37C4
:100C9800BD465DF8047B7047A400002080B485B091
:100CA80000AF78600B46FB700023BB730023FB7317
:100CB80009E0FB7B7A6813441A78BB7B1344BB7347
:100CC800FB7B0133FB73FA7BFB789A42F1D3BB7B46
:100CD800DB43BB73BB7B18461437BD465DF8047B0A
:100CE8007047000080B58AB004AF03463960FB71D5
:100CF8001346BB710C4A07F10C0307CA03C31A80D9
:100D0800FB799AB2BB799BB24FF0FF310291019304
:100D18003B68009301231021044801F093FE00BFB3
:100D28001837BD4680BD00BFE4830008500000208E
:100D380080B58AB004AF03463960FB711346BB71B6
:100D480000237B610C4A07F1080307CA03C31A8012
:100D5800FB799AB2BB799BB24FF0FF3102910193B4
:100D68003B68009301231021044801F065FF00232C
:100D780018461837BD4680BDE4830008500000209F
:100D880080B586B000AF03463960FB8013467B719F
:100D98000023BB82624A07F10C0392E80300186043
:100DA80004331980FB88DBB23B73FB881B0A9BB2B8
:100DB800DBB27B733B68DBB2BB737B79042B7DD0E2
:100DC800042B00F3A880012B02D0022B39D0A2E01B
:100DD80007F10C03032219463E20FFF783FF4FF467
:100DE800FA60FFF743FF07F10C0303211846FFF7EA
:100DF80055FF03463B7505237B75FF23FB72FF23D5
:100E0800BB7207F10B03012219463E20FFF790FF42
:100E180007F10A03012219463F20FFF789FFFB7AF1
:100E2800FF2B02D1BB7AFF2BEBD007F11403022270
:100E380019466020FFF756FF4FF4FA60FFF716FFD8
:100E480069E03B681B0ADBB2FB7307F10C03042261
:100E580019463E20FFF746FF4FF4FA60FFF706FFFA
:100E680007F10C0304211846FFF718FF03463B75EA
:100E780006237B75FF23FB72FF23BB7207F10B036D
:100E8800012219463E20FFF753FF07F10A0301220A
:100E980019463F20FFF74CFFFB7AFF2B02D1BB7AA4
:100EA800FF2BEBD007F11403022219466020FFF74D
:100EB80019FF4FF4FA60FFF7D9FE2CE03B681B0AD4
:100EC800DBB2FB733B681B0CDBB23B743B681B0E4D
:100ED800DBB27B7407F10C03062219463E20FFF7AC
:100EE80001FF4FF4FA60FFF7C1FE07F10C0306217A
:100EF8001846FFF7D3FE03463B7508237B7507F1B9
:100F08001403022219466020FFF7ECFE4FF4FA6042
:100F1800FFF7ACFE00BF00BF1837BD4680BD00BF5D
:100F2800F083000880B586B000AF0346FB8000233D
:100F3800BB8200233B82FB88DBB23B75FB881B0A24
:100F48009BB2DBB27B7507F11403022219463E20DF
:100F5800FFF7C8FE4FF4FA60FFF788FEFF23FB7324
:100F6800FF23BB7307F10F03012219463E20FFF749
:100F7800DFFE07F10E03012219463F20FFF7D8FED6
:100F8800FB7BFF2B02D1BB7BFF2BEBD007F11003C0
:100F9800022219464020FFF7CBFE3A7C084B1A7014
:100FA8007A7C074B5A707B7C1B021AB23B7C1BB2C3
:100FB80013431BB2FB82FB8A18461837BD4680BD17
:100FC800EC00002080B584B000AF0346FB8000230E
:100FD800BB81FB88DBB23B73FB881B0A9BB2DBB28D
:100FE8007B7307F10C03022219463E20FFF77AFEB5
:100FF8004FF4FA60FFF73AFE00BF1037BD4680BDD8
:1010080080B586B000AF0346FB800B46BB80134615
:10101800FB7000237B6100233B8207F10F03012251
:1010280019463E20FFF784FE07F10E0301221946F8
:101038003F20FFF77DFEFB88DBB23B75FB881B0A70
:101048009BB2DBB27B75FB78002B20D107F1140330
:10105800022219463E20FFF745FE07F10F03012241
:1010680019463E20FFF764FE07F10E0301221946D8
:101078003F20FFF75DFEFB7BFF2B02D1BB7BFF2BE5
:10108800EBD020222D494020FFF752FE51E0FB789B
:10109800012B23D1BB88DBB2BB7507F114030322F4
:1010A80019463E20FFF71EFE4FF47A70FFF7DEFD6B
:1010B80007F1140303211846FFF7F0FD03463B74BC
:1010C80005237B7407F11003022219466020FFF7FD
:1010D80009FE4FF47A70FFF7C9FD2AE0FB78022B6E
:1010E80027D1BB88DBB2BB75BB881B0A9BB2DBB2BE
:1010F800FB7507F11403042219463E20FFF7F2FDA1
:101108004FF47A70FFF7B2FD07F114030421184673
:10111800FFF7C4FD03463B7406237B7407F11003F5
:10112800022219466020FFF7DDFD4FF47A70FFF7C1
:101138009DFD00BF1837BD4680BD00BFF0000020F0
:1011480080B584B000AF0346FB710B46BB801346E5
:10115800BB710023BB81BB88DBB23B73BB881B0A16
:101168009BB2DBB27B73BB79002B09D1FB790222DE
:101178000C491846FFF7DCFD4FF4FA60FFF776FDDF
:10118800BB79012B0AD107F10C01FB790222184621
:10119800FFF7A8FD4FF4FA60FFF768FD00BF1037AE
:1011A800BD4680BDEC00002080B500AF9020FFF761
:1011B80009FF02224FF4365149F23420FFF7E0FDCF
:1011C8000122012149F23720FFF7DAFD0122DD2152
:1011D80049F23620FFF7D4FD0122AA2149F2FC206A
:1011E800FFF7CEFD0122072149F2FD20FFF7C8FDD8
:1011F8000122072149F2FF20FFF7C2FD0122002149
:101208004FF41340FFF7BCFD022248F21F0149F2D8
:101218000430FFF7B5FD0122BC2149F26120FFF738
:10122800AFFD0122F72149F26220FFF7A9FD022252
:101238004FF6FF7149F26D20FFF7A2FD012214213C
:1012480049F27520FFF79CFD0122552149F27820CB
:10125800FFF796FD0122052149F28020FFF790FD56
:1012680001220A2149F28220FFF78AFD0122012189
:1012780049F28620FFF784FD0122032149F28720E5
:10128800FFF77EFD0122012149F29520FFF778FD45
:101298000222502149F24330FFF772FD01223F211B
:1012A80049F20830FFF76CFD9220FFF78BFE00BF74
:1012B80080BD000080B500AF002200216220FFF74A
:1012C8003FFF054B5B781B029BB2034A127813441D
:1012D8009BB2184680BD00BFEC00002080B500AF6F
:1012E800002200210320FFF72BFF274B1A78274BFA
:1012F8001A70254B1B789B08DBB203F00103DAB2A6
:10130800234B1A70204B1B78DB08DBB203F0010378
:10131800DAB2204B1A701C4B5B78DB08DBB203F0A7
:101328000103DAB21C4B1A70174B5B785B08DBB20F
:1013380003F00103DAB2194B1A70002200210520CC
:10134800FFF7FEFE104B1A78154B1A700022002189
:101358000720FFF7F5FE0C4B1A78124B1A700B4B4F
:101368001B781A460E4B1B7813440E4A1278134406
:10137800012B03DD0C4B01221A7002E00A4B0022FC
:101388001A7000BF80BD00BFEC000020460100209D
:10139800490100204A0100204B0100204C01002097
:1013A80047010020480100204D01002080B582B08F
:1013B80000AF0346FB71FB79002200211846FFF7B6
:1013C800BFFEFB79132B0BD9FB79322B08D80C4BBA
:1013D8005B781B029BB20A4A127813449BB20BE05B
:1013E800074B5B781B02064A127813449BB21A46D5
:1013F800920013445B009BB218460837BD4680BD77
:10140800EC00002080B582B000AF14237B6000237D
:101418003B6010E07B68DBB21846FFF7C7FF034666
:101428001946134A3B6822F813107B6802337B6025
:101438003B6801333B603B680F2BEBDD3420FFF743
:10144800B5FF03461A460B4B1A803620FFF7AEFF4E
:1014580003461A46084B1A803820FFF7A7FF0346B1
:101468001A46064B1A8000BF0837BD4680BD00BF2C
:10147800100100203C0100203E0100204001002016
:1014880080B500AF002200213A20FFF759FE054B36
:101498005B781B029BB2034A127813449BB218462E
:1014A80080BD00BFEC00002080B582B000AF0346CD
:1014B800FB71FB79002200211846FFF741FE1A4B09
:1014C8005B781B02184A1278134407EE903AF8EE3C
:1014D800E77A17EE900AFFF721F90FA3D3E9002363
:1014E800FEF78EFE02460B46104619460CA3D3E9BA
:1014F8000023FEF7B3FF02460B4610461946FFF7D6
:10150800EDF9034607EE903AB0EE670A0837BD4694
:1015180080BD00BFAFF300809A9999999999B93F16
:101528006666666666127140EC00002080B582B07F
:1015380000AF002200217620FFF762FD2C4BDB78FC
:101548001A062B4B9B781B041A43294B5B781B020A
:101558001343274A127813431A46264B1A60244B22
:10156800DB791A06224B9B791B041A43204B5B79C3
:101578001B0213431E4A127913431A461E4B1A6064
:101588001B4BDB7A1A061A4B9B7A1B041A43184B1F
:101598005B7A1B021343164A127A13431A46174BF7
:1015A8001A60144B1B6807EE903AB8EEE77A124BB4
:1015B8001B6807EE903AF8EEE76A9FED116AC6EEEF
:1015C800867A77EE277AC7ED017A97ED017ADFED13
:1015D8000D6AC7EE267AC7ED007A0B4A7B6813605E
:1015E8003B6807EE903AB0EE670A0837BD4680BD03
:1015F800F000002050010020540100205801002074
:101608000000804F00007A446001002080B590B04F
:1016180000AF00F0ABFD00F0E9F900F0A5FA00F02A
:1016280051FA00F07DFACB4803F0B4FF01224FF4E1
:101638000071C94801F08EF80A2000F0D9FD002297
:101648004FF40071C44801F085F84FF47A7000F047
:10165800CFFD01220121C04801F07CF801220221BE
:10166800BD4801F077F842F21070FFF7FFFAFFF774
:1016780021FE03461A46B94B1A801220FFF7A2FC36
:101688004EF66020FFF7F2FAFFF78EFD42F6E060B3
:10169800FFF7ECFA8220FFF795FCFFF70BFE0346F5
:1016A8001A46AE4B1A80002200210320FFF748FD9E
:1016B800002200210520FFF743FD0022002107201A
:1016C800FFF73EFD002200210220FFF739FD00222E
:1016D80000210420FFF734FD002200210620FFF737
:1016E8002FFD9A20FFF76EFC4EF66020FFF7BEFA3A
:1016F8004EF66020FFF7BAFA4EF66020FFF7B6FA0A
:101708004EF66020FFF7B2FA5720FFF70BFC0346AE
:10171800FB8749F24330FFF705FC0346BB8770207F
:10172800FFF700FC03467B8749F20830FFF7FAFB16
:1017380003463B8749F20330FFF7F4FB0346FB8679
:10174800FFF7B8FD03461A46844B1A80FFF75AFE86
:10175800002200210320FFF7F3FC002200210520CE
:10176800FFF7EEFC002200210720FFF7E9FC00222A
:1017780000210220FFF7E4FC002200210420FFF7EB
:10178800DFFC002200210620FFF7DAFC00220021FE
:101798008520FFF735FC002200218620FFF730FC6A
:1017A800002200218720FFF72BFCFFF72BFE3420B7
:1017B800FFF7FCFD0346BB86694B1B88DBB2184666
:1017C800FFF7F4FD03467B867020FFF76DFE87ED7B
:1017D8000B0A7220FFF768FE87ED0A0A7420FFF7EC
:1017E80063FE87ED090AFFF74BFE03467B845D4BDA
:1017F8001B883B845B4B5B88FB835A4B9B88BB8372
:10180800584BDB887B83574B1B893B83554B5B8944
:10181800FB82544BDB8BBB82534BD3ED007AFDEE3E
:10182800E77A17EE903A1BB2184600F055FA0346CD
:1018380007EE903AF8EE677AC7ED047AFFF776FE7E
:10184800FFF738FD03461A46444B1A8042F6120049
:10185800FFF7B8FB002200217F20FFF771FC434B04
:101868001B78FB73414B5B78BB7300220021A820D7
:10187800FFF766FC3D4B1B787B733C4B5B783B73F7
:10188800FFF72CFDFFF716FD03461A46384B1A8062
:101898004FF40051304800F045FF0346FB72344BCB
:1018A8001B8803F08003002B27D0FFF7ABFDFFF761
:1018B800E7FD03461A462F4B1A807020FFF7F4FD08
:1018C800F0EE407A2C4BC3ED007A7420FFF7ECFD64
:1018D800F0EE407A284BC3ED017A01228021622084
:1018E800FFF72EFCFFF7E6FC03461A461B4B1A804F
:1018F800002200218320FFF783FB1D4B1B8803F484
:101908004043002B3CD0FFF7E9FC1C4B1B7803F04D
:101918000103002B08D001224FF400610E4800F0AB
:1019280019FF642000F064FC01224FF47841622022
:10193800FFF706FC9320FFF745FBFFF7BBFC0346C8
:101948001A46064B1A8000224FF40061024800F044
:1019580001FF1DE0A4000020000802405C010020F7
:101968003E0100201001002060010020EC00002052
:101978004401002042010020300100204D010020D8
:10198800164B1B7803F00103002B01D0FFF7A6FCD0
:101998004FF40051124800F0C5FE0346FB720022C6
:1019A80000216620FFF7CCFB0E4B1B78BB720D4B5A
:1019B8005B787B72002200216220FFF7C1FB094B94
:1019C8001B783B72074B5B78FB710121064800F0DE
:1019D800DAFE642000F00CFCBAE600BF4D010020DE
:1019E80000080240EC0000200004024080B594B0DA
:1019F80000AF07F11C0334220021184606F028FC2A
:101A080007F1080300221A605A609A60DA601A61C6
:101A180000237B60294B1B6C284A43F080531364D6
:101A2800264B1B6C03F080537B607B6800233B6074
:101A3800234B1B68224A43F440431360204B1B6826
:101A480003F440433B603B680223FB610123BB6214
:101A58001023FB6202237B630023BB630823FB6321
:101A6800A4233B6402237B640223BB640223FB643C
:101A780007F11C03184603F09FFA0346002B01D018
:101A880000F024F90F23BB600223FB6000233B61B5
:101A98004FF4A0537B614FF48053BB6107F10803F7
:101AA8000521184602F022FF0346002B01D000F062
:101AB8000DF900BF5037BD4680BD00BF0038024059
:101AC8000070004080B500AF124B134A1A60114BEA
:101AD800124A5A600F4B00229A600E4B0022DA60BD
:101AE8000C4B4FF480421A610A4B00225A61094B91
:101AF80000229A61074B0022DA61064B00221A6223
:101B0800044800F05BFE0346002B01D000F0DEF82D
:101B180000BF80BD5000002000540040A086010096
:101B280080B500AF0E4B0F4A1A600D4B00225A6069
:101B38000B4B00229A600A4B4FF6FF72DA60084B93
:101B480000221A61064B00229A61054803F0D2FC74
:101B58000346002B01D000F0B9F800BF80BD00BFDC
:101B6800A40000200044014080B58AB000AF07F10E
:101B7800140300221A605A609A60DA601A6100231E
:101B88003B61464B1B6B454A43F004031363434BCD
:101B98001B6B03F004033B613B690023FB603F4B75
:101BA8001B6B3E4A43F0800313633C4B1B6B03F0F3
:101BB8008003FB60FB680023BB60384B1B6B374A14
:101BC80043F002031363354B1B6B03F00203BB6046
:101BD800BB6800237B60314B1B6B304A43F0010329
:101BE80013632E4B1B6B03F001037B607B680022A1
:101BF80040F683212A4800F0ADFD00220321294840
:101C080000F0A8FD4FF400537B610023BB61022361
:101C1800FB6107F114031946214800F0EFFB40F679
:101C280081037B610123BB610023FB6100233B62CD
:101C380007F1140319461A4800F0E0FB40F20223AA
:101C48007B610123BB610223FB6100233B6207F137
:101C580014031946124800F0D1FB01237B610123CC
:101C6800BB610123FB6100233B6207F114031946A2
:101C78000C4800F0C3FB02237B610123BB610023F6
:101C8800FB6100233B6207F114031946054800F085
:101C9800B5FB00BF2837BD4680BD00BF00380240F5
:101CA800000802400004024080B582B000AF7860AE
:101CB8007B681B68044A934201D100F079FA00BF9F
:101CC8000837BD4680BD00BF0010004080B400AF9B
:101CD80072B600BF00BFFDE780B582B000AF034613
:101CE800FB80B7F9063007EE903AF8EEE76A564BF4
:101CF8001B8C07EE903AB8EE677AC6EE877A9FEDAE
:101D0800537A67EE877A504BC3ED037AB7F90630FA
:101D1800002B20DD4C4B93ED027A4B4BD3ED046A3C
:101D2800494BD3ED037A66EEA77A77EE677A464B8E
:101D3800C3ED077A444B93ED027A434BD3ED056A22
:101D4800414BD3ED037A66EEA77A77EE677A3E4B7E
:101D5800C3ED027A1FE03C4B93ED027A3A4BD3ED88
:101D6800056A394BD3ED037A66EEA77A77EE677A80
:101D7800354BC3ED077A344B93ED027A324BD3EDF2
:101D8800056A314BD3ED037A66EEA77A77EE677A68
:101D98002D4BC3ED027A2C4B93ED017A2A4BD3EDF0
:101DA800077A77EE677A284BC3ED007A264BD3ED96
:101DB800007ADFED260AB0EE670A06F0C9FA10EEDF
:101DC800103A1846FEF7AAFC02460B469FED1C1B6C
:101DD80043EC102B06F068FA53EC102B104619460A
:101DE800FEF77CFD0346184A1360174BD3ED027AC1
:101DF800DFED160AB0EE670A06F0AAFA10EE103AFE
:101E08001846FEF78BFC02460B469FED0D1B43EC74
:101E1800102B06F049FA53EC102B10461946FEF722
:101E28005DFD0346084A9360074BD3ED007AFCEE4C
:101E3800E77A17EE903A9BB218460837BD4680BD40
:101E48000000000000000000280000200000C84238
:101E580080B483B000AF00237B60104B5B6C0F4AEB
:101E680043F4804353640D4B5B6C03F480437B6005
:101E78007B6800233B60094B1B6C084A43F0805386
:101E88001364064B1B6C03F080533B603B6800BF38
:101E98000C37BD465DF8047B704700BF0038024030
:101EA80080B58AB000AF786007F1140300221A6089
:101EB8005A609A60DA601A617B681B68194A934213
:101EC8002CD100233B61184B1B6B174A43F00203CC
:101ED8001363154B1B6B03F002033B613B694FF423
:101EE80040737B611223BB610023FB6103233B62C8
:101EF80004237B6207F1140319460C4800F07EFAAC
:101F08000023FB60084B1B6C074A43F4001313645F
:101F1800054B1B6C03F40013FB60FB6800BF2837FC
:101F2800BD4680BD00540040003802400004024015
:101F380080B485B000AF78607B681B680B4A934219
:101F48000DD10023FB600A4B5B6C094A43F4003354
:101F58005364074B5B6C03F40033FB60FB6800BF02
:101F68001437BD465DF8047B704700BF004401404C
:101F78000038024080B58EB000AF78600023FB6265
:101F88000023BB620023FB60334B1B6C324A43F0D7
:101F980010031364304B1B6C03F01003FB60FB68E9
:101FA80007F1100207F114031146184602F0A4FDC8
:101FB8003B6AFB62FB6A002B03D102F089FD786360
:101FC80004E002F085FD03465B007B637B6B234ADC
:101FD800A2FB03239B0C013BBB62214B214A1A60E5
:101FE8001F4B40F2E732DA601D4ABB6A53601C4B54
:101FF80000221A611A4B00229A60194B00229A613A
:10200800174803F077FA034687F8333097F83330E8
:10201800002B1BD1124803F025FB034687F8333009
:1020280097F83330002B11D1362000F0D9F97B68AE
:102038000F2B08D800227968362000F0B5F90A4A33
:102048007B68136002E0012387F8333097F8333058
:1020580018463837BD4680BD0038024083DE1B4332
:1020680064010020001000400400002080B400AF8C
:1020780000BFFDE780B400AF00BFFDE780B400AF4C
:1020880000BFFDE780B400AF00BFFDE780B400AF3C
:1020980000BFFDE780B400AF00BFBD465DF8047B1C
:1020A800704780B400AF00BFBD465DF8047B704741
:1020B80080B400AF00BFBD465DF8047B704780B4B4
:1020C80000AF00BFBD465DF8047B704780B500AF28
:1020D800024803F037FB00BF80BD00BF6401002049
:1020E80080B500AF024801F08DFB00BF80BD00BF86
:1020F800B401002080B400AF064BD3F88830054AFD
:1021080043F47003C2F8883000BFBD465DF8047B15
:10211800704700BF00ED00E0DFF834D0FFF7EAFFBA
:102128000C480D490D4A002302E0D458C45004332A
:10213800C4188C42F9D30A4A0A4C002301E0136000
:102148000432A242FBD306F08BF8FFF75FFA704720
:1021580000000220000000200C000020208400085D
:102168000C00002098060020FEE7000080B500AFB4
:102178000E4B1B680D4A43F4007313600B4B1B682E
:102188000A4A43F480631360084B1B68074A43F408
:1021980080731360032000F0FCF80F20FFF7EAFEBD
:1021A800FFF756FE0023184680BD00BF003C0240E2
:1021B80080B400AF064B1B781A46064B1B681344C5
:1021C800044A136000BFBD465DF8047B704700BF3A
:1021D80008000020AC01002080B400AF034B1B684E
:1021E8001846BD465DF8047B704700BFAC0100206F
:1021F80080B584B000AF7860FFF7EEFFB8607B6809
:10220800FB60FB68B3F1FF3F05D00A4B1B781A4609
:10221800FB681344FB6000BFFFF7DEFF0246BB68A4
:10222800D31AFA689A42F7D800BF00BF1037BD46E4
:1022380080BD00BF0800002080B485B000AF786082
:102248007B6803F00703FB600C4BDB68BB60BA6874
:102258004FF6FF031340BB60FB681A02BB681343C9
:1022680043F0BF6343F40033BB60044ABB68D360E8
:1022780000BF1437BD465DF8047B704700ED00E0F1
:1022880080B400AF044BDB681B0A03F00703184651
:10229800BD465DF8047B704700ED00E080B483B074
:1022A80000AF0346FB7197F90730002B0BDBFB7976
:1022B80003F01F02074997F907305B09012000FA6C
:1022C80002F241F8232000BF0C37BD465DF8047BBD
:1022D800704700BF00E100E080B483B000AF034660
:1022E8003960FB7197F90730002B0ADB3B68DAB2DB
:1022F8000C4997F907301201D2B20B4483F8002336
:102308000AE03B68DAB20849FB7903F00F03043BA3
:102318001201D2B20B441A7600BF0C37BD465DF8E5
:10232800047B704700E100E000ED00E080B489B074
:1023380000AFF860B9607A60FB6803F00703FB61DF
:10234800FB69C3F10703042B28BF0423BB61FB69A6
:102358000433062B02D9FB69033B00E000237B61B1
:102368004FF0FF32BB6902FA03F3DA43BB681A4045
:102378007B699A404FF0FF317B6901FA03F3D94337
:102388007B680B40134318462437BD465DF8047B31
:10239800704780B582B000AF78607868FFF74CFF6F
:1023A80000BF0837BD4680BD80B586B000AF034684
:1023B800B9607A60FB7300237B61FFF761FF786186
:1023C8007A68B9687869FFF7B1FF024697F90F3064
:1023D80011461846FFF780FF00BF1837BD4680BD7D
:1023E80080B582B000AF0346FB7197F907301846F5
:1023F800FFF754FF00BF0837BD4680BD80B489B0E1
:1024080000AF7860396000237B6100233B610023C3
:10241800BB610023FB6165E10122FB6902FA03F35A
:102428007B613B681B687A6913403B613A697B6949
:102438009A4240F054813B685B6803F00303012B28
:1024480005D03B685B6803F00303022B30D17B683F
:102458009B68BB61FB695B00032202FA03F3DB4361
:10246800BA691340BB613B68DA68FB695B0002FA32
:1024780003F3BA691343BB617B68BA699A607B68E6
:102488005B68BB610122FB6902FA03F3DB43BA69AB
:102498001340BB613B685B681B0903F00102FB69E1
:1024A80002FA03F3BA691343BB617B68BA695A60DD
:1024B8003B685B6803F00303032B17D07B68DB687A
:1024C800BB61FB695B00032202FA03F3DB43BA69D1
:1024D8001340BB613B689A68FB695B0002FA03F32F
:1024E800BA691343BB617B68BA69DA603B685B68A9
:1024F80003F00303022B23D1FB69DA087B68083257
:1025080053F82230BB61FB6903F007039B000F22DD
:1025180002FA03F3DB43BA691340BB613B681A69EB
:10252800FB6903F007039B0002FA03F3BA6913433C
:10253800BB61FB69DA087B680832B96943F8221085
:102548007B681B68BB61FB695B00032202FA03F32B
:10255800DB43BA691340BB613B685B6803F0030265
:10256800FB695B0002FA03F3BA691343BB617B683A
:10257800BA691A603B685B6803F44033002B00F0CB
:10258800AE800023FB605D4B5B6C5C4A43F4804388
:1025980053645A4B5B6C03F48043FB60FB68584AF6
:1025A800FB699B08023352F82330BB61FB6903F0D7
:1025B80003039B000F2202FA03F3DB43BA691340BB
:1025C800BB617B684F4A934225D07B684E4A934251
:1025D8001FD07B684D4A934219D07B684C4A93427E
:1025E80013D07B684B4A93420DD07B684A4A93428A
:1025F80007D07B68494A934201D106230CE00723A0
:102608000AE0052308E0042306E0032304E002238C
:1026180002E0012300E00023FA6902F003029200BD
:102628009340BA691343BB613549FB699B08023380
:10263800BA6941F823203A4B9B68BB613B69DB438D
:10264800BA691340BB613B685B6803F48013002BD5
:1026580003D0BA693B691343BB61314ABB699360D4
:102668002F4BDB68BB613B69DB43BA691340BB6135
:102678003B685B6803F40013002B03D0BA693B691D
:102688001343BB61264ABB69D360254B5B68BB61BA
:102698003B69DB43BA691340BB613B685B6803F481
:1026A8000033002B03D0BA693B691343BB611C4A52
:1026B800BB6953601A4B1B68BB613B69DB43BA6952
:1026C8001340BB613B685B6803F48033002B03D085
:1026D800BA693B691343BB61114ABB691360FB6963
:1026E8000133FB61FB690F2B7FF696AE00BF00BF7D
:1026F8002437BD465DF8047B704700BF00380240B0
:102708000038014000000240000402400008024076
:10271800000C024000100240001402400018024061
:10272800003C014080B485B000AF78600B467B80E8
:102738007B681A697B881340002B02D00123FB7346
:1027480001E00023FB73FB7B18461437BD465DF898
:10275800047B704780B483B000AF78600B467B8001
:1027680013467B707B78002B03D07A887B689A614C
:1027780003E07B881A047B689A6100BF0C37BD466A
:102788005DF8047B704780B485B000AF78600B4675
:102798007B807B685B69FB607A88FB6813401A045E
:1027A800FB68D9437B880B401A437B689A6100BF5A
:1027B8001437BD465DF8047B7047000080B584B0CF
:1027C80000AF78607B68002B01D101232BE17B6887
:1027D80093F83D30DBB2002B06D17B68002283F8EA
:1027E8003C207868FFF75CFB7B68242283F83D2057
:1027F8007B681B681A687B681B6822F001021A60F4
:102808007B681B681A687B681B6842F400421A6080
:102818007B681B681A687B681B6822F400421A6090
:1028280002F056F9F8607B685B68814A934207D8E2
:10283800FB68804A934294BF01230023DBB206E081
:10284800FB687D4A934294BF01230023DBB2002B2F
:1028580001D00123E7E0FB68784AA2FB03239B0C25
:10286800BB607B681B685B6823F03F017B681B6863
:10287800BA680A435A607B681B681B6A23F03F01E9
:102888007B685B686A4A934202D8BB68013309E0F7
:10289800BB684FF4967202FB03F3694AA2FB032359
:1028A8009B0901337A6812680B4313627B681B68C3
:1028B800DB6923F44F4222F0FF027B685B685C49C6
:1028C8008B4219D8FB68591E7B685B685B00B1FBBB
:1028D800F3F3591C40F6FC730B40002B0AD0FB683D
:1028E800591E7B685B685B00B1FBF3F30133C3F3EC
:1028F8000B0351E004234FE07B689B68002B11D148
:10290800FB68581E7B6859680B465B000B44B0FB9C
:10291800F3F30133C3F30B03002B0CBF0123002394
:10292800DBB212E0FB68581E7B6859680B469B00B7
:102938000B4499000B44B0FBF3F30133C3F30B03CF
:10294800002B0CBF01230023DBB2002B01D0012395
:1029580022E07B689B68002B0ED1FB68581E7B68C1
:1029680059680B465B000B44B0FBF3F30133C3F328
:102978000B0343F400430FE0FB68581E7B6859685B
:102988000B469B000B4499000B44B0FBF3F3013357
:10299800C3F30B0343F44043796809681343CB61DD
:1029A8007B681B681B6823F0C0017B68DA697B6859
:1029B8001B6A1A437B681B680A431A607B681B689A
:1029C8009B6823F4034323F0FF037A6811697A684C
:1029D800D26811437A6812680B4393607B681B685E
:1029E800DB6823F0FF017B685A697B689B691A439F
:1029F8007B681B680A43DA607B681B681A687B6817
:102A08001B6842F001021A607B6800221A647B6826
:102A1800202283F83D207B6800221A637B6800220D
:102A280083F83E20002318461037BD4680BD00BFFE
:102A3800A08601007F841E00FF083D0083DE1B4343
:102A4800D34D621080B588B002AFF86008461146D1
:102A58001A4603467B810B463B811346FB80FFF7F2
:102A6800BBFB7861FB6893F83D30DBB2202B40F06C
:102A7800D9807B690093192301226D49F86800F019
:102A88008BFC0346002B01D00223CCE0FB6893F8B3
:102A98003C30012B01D10223C5E0FB68012283F8F9
:102AA8003C20FB681B681B6803F00103012B07D05F
:102AB800FB681B681A68FB681B6842F001021A6011
:102AC800FB681B681A68FB681B6822F400621A60BE
:102AD800FB68212283F83D20FB68402283F83E20D2
:102AE800FB6800221A64FB683A6A5A62FB68BA8C6F
:102AF8005A85FB685B8D9AB2FB681A85FB684D4A5C
:102B0800DA62F8883A8979897B690193BB6A00930C
:102B18000346F86800F0C2FA0346002B52D001239E
:102B280081E07A69B96AF86800F050FD0346002B25
:102B38000DD0FB681B6C042B07D1FB681B681A6857
:102B4800FB681B6842F400721A6001236BE0FB68A3
:102B58005B6A1A78FB681B681A61FB685B6A5A1C17
:102B6800FB685A62FB681B8D013B9AB2FB681A85A9
:102B7800FB685B8D9BB2013B9AB2FB685A85FB6888
:102B88001B685B6903F00403042B1BD1FB681B8DD6
:102B9800002B17D0FB685B6A1A78FB681B681A6100
:102BA800FB685B6A5A1CFB685A62FB681B8D013B19
:102BB8009AB2FB681A85FB685B8D9BB2013B9AB29F
:102BC800FB685A85FB681B8D002BAAD17A69B96A04
:102BD800F86800F043FD0346002B0DD0FB681B6C22
:102BE800042B07D1FB681B681A68FB681B6842F452
:102BF80000721A60012316E0FB681B681A68FB68FC
:102C08001B6842F400721A60FB68202283F83D209A
:102C1800FB68002283F83E20FB68002283F83C20F2
:102C2800002300E0022318461837BD4680BD00BFC8
:102C3800020010000000FFFF80B58CB002AFF86002
:102C4800084611461A4603467B810B463B811346CC
:102C5800FB80FFF7C1FA7862FB6893F83D30DBB27E
:102C6800202B40F014827B6A0093192301227B49B0
:102C7800F86800F091FB0346002B01D0022307E21D
:102C8800FB6893F83C30012B01D1022300E2FB687A
:102C9800012283F83C20FB681B681B6803F00103D2
:102CA800012B07D0FB681B681A68FB681B6842F099
:102CB80001021A60FB681B681A68FB681B6822F42B
:102CC80000621A60FB68222283F83D20FB684022DC
:102CD80083F83E20FB6800221A64FB683A6B5A624C
:102CE800FB68BA8E5A85FB685B8D9AB2FB681A85B9
:102CF800FB685B4ADA62F8883A8979897B6A0193CA
:102D0800BB6B00930346F86800F05EFA0346002B9D
:102D180001D00123BCE1FB681B8D002B13D10023DC
:102D28003B62FB681B685B693B62FB681B689B69CD
:102D38003B623B6AFB681B681A68FB681B6842F4C5
:102D480000721A6090E1FB681B8D012B1BD1FB6898
:102D58001B681A68FB681B6822F480621A600023EB
:102D6800FB61FB681B685B69FB61FB681B689B690F
:102D7800FB61FB69FB681B681A68FB681B6842F407
:102D880000721A6070E1FB681B8D022B1BD1FB6877
:102D98001B681A68FB681B6822F480621A60FB686B
:102DA8001B681A68FB681B6842F400621A600023FB
:102DB800BB61FB681B685B69BB61FB681B689B693F
:102DC800BB61BB6950E100237B61FB681B685B69E1
:102DD8007B61FB681B689B697B617B6944E1FB68DD
:102DE8001B8D032B00F2F180FB681B8D012B23D177
:102DF8007A6AB96BF86800F079FC0346002B01D0B9
:102E0800012345E1FB681B681A69FB685B6AD2B25B
:102E18001A70FB685B6A5A1CFB685A62FB681B8D58
:102E2800013B9AB2FB681A85FB685B8D9BB2013B3C
:102E38009AB2FB685A8517E1FB681B8D022B4ED1AD
:102E48007B6A0093BB6B00220649F86800F0A4FA7D
:102E58000346002B08D001231AE100BF020010002E
:102E68000000FFFF04000100FB681B681A68FB688C
:102E78001B6842F400721A60FB681B681A69FB68D9
:102E88005B6AD2B21A70FB685B6A5A1CFB685A62AA
:102E9800FB681B8D013B9AB2FB681A85FB685B8D4A
:102EA8009BB2013B9AB2FB685A85FB681B681A699A
:102EB800FB685B6AD2B21A70FB685B6A5A1CFB68D3
:102EC8005A62FB681B8D013B9AB2FB681A85FB6846
:102ED8005B8D9BB2013B9AB2FB685A85C4E07B6A62
:102EE8000093BB6B00226C49F86800F055FA034662
:102EF800002B01D00123CBE0FB681B681A68FB6834
:102F08001B6822F480621A60FB681B681A69FB68F8
:102F18005B6AD2B21A70FB685B6A5A1CFB685A6219
:102F2800FB681B8D013B9AB2FB681A85FB685B8DB9
:102F38009BB2013B9AB2FB685A857B6A0093BB6BD4
:102F480000225549F86800F027FA0346002B01D003
:102F580001239DE0FB681B681A68FB681B6842F444
:102F680000721A60FB681B681A69FB685B6AD2B258
:102F78001A70FB685B6A5A1CFB685A62FB681B8DF7
:102F8800013B9AB2FB681A85FB685B8D9BB2013BDB
:102F98009AB2FB685A85FB681B681A69FB685B6A0A
:102FA800D2B21A70FB685B6A5A1CFB685A62FB68EB
:102FB8001B8D013B9AB2FB681A85FB685B8D9BB23F
:102FC800013B9AB2FB685A854EE07A6AB96BF86899
:102FD80000F08CFB0346002B01D0012358E0FB686E
:102FE8001B681A69FB685B6AD2B21A70FB685B6A75
:102FF8005A1CFB685A62FB681B8D013B9AB2FB683E
:103008001A85FB685B8D9BB2013B9AB2FB685A85B7
:10301800FB681B685B6903F00403042B24D1FB687D
:103028001B8D032B07D1FB681B681A68FB681B689C
:1030380022F480621A60FB681B681A69FB685B6A85
:10304800D2B21A70FB685B6A5A1CFB685A62FB684A
:103058001B8D013B9AB2FB681A85FB685B8D9BB29E
:10306800013B9AB2FB685A85FB681B8D002B7FF4E5
:10307800B6AEFB68202283F83D20FB68002283F867
:103088003E20FB68002283F83C20002300E0022356
:1030980018462837BD4680BD0400010080B588B0B9
:1030A80002AFF860084611461A4603467B810B4674
:1030B8003B811346FB80FB681B681A68FB681B682A
:1030C80042F480721A607B6A00933B6A00224FF0D8
:1030D8000111F86800F060F90346002B0DD0FB6879
:1030E8001B681B6803F48073B3F5807F03D1FB680A
:1030F8004FF400721A6403235FE07B89DBB21A463F
:10310800FB681B6802F0FE021A617B6A3A6A2D4965
:10311800F86800F0BBF90346002B01D001234CE00E
:1031280000237B61FB681B685B697B61FB681B682C
:103138009B697B617B697A6A396AF86800F046FAAC
:103148000346002B0DD0FB681B6C042B07D1FB68D2
:103158001B681A68FB681B6842F400721A60012336
:103168002BE0FB88012B05D13B89DAB2FB681B6891
:103178001A6121E03B891B0A9BB2DAB2FB681B6823
:103188001A617A6A396AF86800F020FA0346002B57
:103198000DD0FB681B6C042B07D1FB681B681A68F1
:1031A800FB681B6842F400721A60012305E03B8942
:1031B800DAB2FB681B681A61002318461837BD4647
:1031C80080BD00BF0200010080B588B002AFF86082
:1031D800084611461A4603467B810B463B81134637
:1031E800FB80FB681B681A68FB681B6842F48062F6
:1031F8001A60FB681B681A68FB681B6842F48072D7
:103208001A607B6A00933B6A00224FF00111F8684C
:1032180000F0C2F80346002B0DD0FB681B681B6842
:1032280003F48073B3F5807F03D1FB684FF4007219
:103238001A640323AAE07B89DBB21A46FB681B6881
:1032480002F0FE021A617B6A3A6A5249F86800F095
:103258001DF90346002B01D0012397E000237B6171
:10326800FB681B685B697B61FB681B689B697B610A
:103278007B697A6A396AF86800F0A8F90346002B76
:103288000DD0FB681B6C042B07D1FB681B681A6800
:10329800FB681B6842F400721A60012376E0FB8821
:1032A800012B05D13B89DAB2FB681B681A6121E062
:1032B8003B891B0A9BB2DAB2FB681B681A617A6AFF
:1032C800396AF86800F082F90346002B0DD0FB68D4
:1032D8001B6C042B07D1FB681B681A68FB681B680A
:1032E80042F400721A60012350E03B89DAB2FB68AD
:1032F8001B681A617A6A396AF86800F067F9034648
:10330800002B0DD0FB681B6C042B07D1FB681B68D6
:103318001A68FB681B6842F400721A60012335E0E2
:10332800FB681B681A68FB681B6842F480721A60A5
:103338007B6A00933B6A00224FF00111F86800F0A5
:103348002BF80346002B0DD0FB681B681B6803F4A1
:103358008073B3F5807F03D1FB684FF400721A6461
:10336800032313E07B89DBB243F00103DAB2FB6885
:103378001B681A617B6A3A6A0649F86800F086F8A1
:103388000346002B01D0012300E00023184618371C
:10339800BD4680BD0200010080B584B000AFF86072
:1033A800B9603B601346FB7148E03B68B3F1FF3FEF
:1033B80044D0FEF711FF0246BB69D31A3A689A4215
:1033C80002D33B68002B39D1BB681B0CDBB2012B45
:1033D8000DD1FB681B685B69DA43BB6813409BB27D
:1033E800002B0CBF01230023DBB21A460CE0FB685C
:1033F8001B689B69DA43BB6813409BB2002B0CBF68
:1034080001230023DBB21A46FB799A4216D1FB68E6
:1034180000221A63FB68202283F83D20FB68002203
:1034280083F83E20FB681B6C43F02002FB681A649B
:10343800FB68002283F83C20012323E0BB681B0CB7
:10344800DBB2012B0DD1FB681B685B69DA43BB68F3
:1034580013409BB2002B0CBF01230023DBB21A469A
:103468000CE0FB681B689B69DA43BB6813409BB29E
:10347800002B0CBF01230023DBB21A46FB799A42CA
:1034880093D0002318461037BD4680BD80B584B060
:1034980000AFF860B9607A603B6071E0FB681B6858
:1034A8005B6903F48063B3F5806F23D1FB681B6805
:1034B8001A68FB681B6842F400721A60FB681B6894
:1034C8006FF480625A61FB6800221A63FB6820224D
:1034D80083F83D20FB68002283F83E20FB681B6CC4
:1034E80043F00402FB681A64FB68002283F83C205E
:1034F800012367E07B68B3F1FF3F41D0FEF76CFE24
:1035080002463B68D31A7A689A4202D37B68002B3A
:1035180036D1BB681B0CDBB2012B0CD1FB681B68D6
:103528005B69DA43BB6813409BB2002B14BF0123CD
:103538000023DBB20BE0FB681B689B69DA43BB68BE
:1035480013409BB2002B14BF01230023DBB2002BD6
:1035580016D0FB6800221A63FB68202283F83D20FE
:10356800FB68002283F83E20FB681B6C43F02002B6
:10357800FB681A64FB68002283F83C20012321E0E1
:10358800BB681B0CDBB2012B0CD1FB681B685B69A9
:10359800DA43BB6813409BB2002B14BF01230023FE
:1035A800DBB20BE0FB681B689B69DA43BB6813401E
:1035B8009BB2002B14BF01230023DBB2002B7FF446
:1035C8006DAF002318461037BD4680BD80B584B066
:1035D80000AFF860B9607A6034E0F86800F0E3F8AA
:1035E8000346002B01D0012334E0BB68B3F1FF3F51
:1035F80028D0FEF7F1FD02467B68D31ABA689A42D2
:1036080002D3BB68002B1DD1FB681B685B6903F004
:103618008003802B16D0FB6800221A63FB682022E7
:1036280083F83D20FB68002283F83E20FB681B6C72
:1036380043F02002FB681A64FB68002283F83C20F0
:10364800012307E0FB681B685B6903F08003802B9C
:10365800C3D1002318461037BD4680BD80B584B05D
:1036680000AFF860B9607A6034E0F86800F09BF861
:103678000346002B01D0012334E0BB68B3F1FF3FC0
:1036880028D0FEF7A9FD02467B68D31ABA689A4289
:1036980002D3BB68002B1DD1FB681B685B6903F074
:1036A8000403042B16D0FB6800221A63FB6820224F
:1036B80083F83D20FB68002283F83E20FB681B6CE2
:1036C80043F02002FB681A64FB68002283F83C2060
:1036D800012307E0FB681B685B6903F00403042B04
:1036E800C3D1002318461037BD4680BD80B584B0CD
:1036F80000AFF860B9607A6049E0FB681B685B69F5
:1037080003F01003102B19D1FB681B686FF010022F
:103718005A61FB6800221A63FB68202283F83D2067
:10372800FB68002283F83E20FB681A6CFB681A6469
:10373800FB68002283F83C20012330E0FEF74CFDB3
:1037480002467B68D31ABA689A4202D3BB68002B38
:103758001DD1FB681B685B6903F04003402B16D042
:10376800FB6800221A63FB68202283F83D20FB686F
:10377800002283F83E20FB681B6C43F02002FB68A4
:103788001A64FB68002283F83C20012307E0FB68E9
:103798001B685B6903F04003402BAED10023184639
:1037A8001037BD4680BD80B483B000AF78607B68B9
:1037B8001B685B6903F48063B3F5806F1BD17B687A
:1037C8001B686FF480625A617B6800221A637B6809
:1037D800202283F83D207B68002283F83E207B6806
:1037E8001B6C43F004027B681A647B68002283F830
:1037F8003C20012300E0002318460C37BD465DF845
:10380800047B704790B58DB000AF78607B681B680B
:103818003B623B6AFB617B681B68184603F04FF804
:103828000346002B40F0B9847B681B68184602F0F9
:10383800B3FF0346002B00F0AF84FB6903F5006378
:103848009B681B0AC3F30D027B68C3F8D4247B680A
:103858001B68184602F0A0FF034603F00203022B80
:1038680007D17B681B685A697B681B6802F00202F3
:103878005A617B681B68184602F08EFF034603F006
:103888001003102B61D17B681B689A697B681B68E1
:1038980022F010029A613B6A1B6ABB61BB6903F0A4
:1038A8000F021346DB0013449B0003F514737A6878
:1038B800134404337B61BB695B0C03F00F03022BD9
:1038C80024D1BA6947F6F0731340002B35D07B69D1
:1038D800D968BB691B099BB2C3F30A039BB21A469A
:1038E800386A02F007FE7B69DA68BB691B09C3F313
:1038F8000A031A447B69DA607B695A69BB691B0948
:10390800C3F30A031A447B695A6116E0BB695B0C6E
:1039180003F00F03062B10D17B6803F29C430822A7
:103928001946386A02F0E6FD7B695A69BB691B09CA
:10393800C3F30A031A447B695A617B681B689A6956
:103948007B681B6842F010029A617B681B68184606
:1039580002F022FF034603F40023B3F5002F40F0E2
:10396800A78000237B627B681B68184602F027FF4C
:10397800B86299E0BB6A03F00103002B00F08E8067
:103988007B681B687A6AD2B21146184602F04BFF70
:1039980038613B6903F00103002B0CD07B6A5A01A4
:1039A800FB69134403F530631A4601239360796A6F
:1039B800786800F06DFE3B6903F00803002B0CD01B
:1039C8007B6A5A01FB69134403F530631A460823DE
:1039D8009360796A786800F043FF3B6903F010034D
:1039E800002B08D07B6A5A01FB69134403F5306346
:1039F8001A46102393603B6903F00203002B30D072
:103A08003B6A5B6903F08003802B09D1FB6903F5EE
:103A180000635B68FA6902F5006243F480635360EF
:103A28007A6A1346DB0013449B0003F514737A6823
:103A3800134404337B617B69DB78012B08D17B69F4
:103A48000022DA707B6ADBB21946786804F054FA0F
:103A58007B6A5A01FB69134403F530631A46022353
:103A680093603B6903F02003002B08D07B6A5A015E
:103A7800FB69134403F530631A46202393603B69BE
:103A880003F40053002B09D07B6A5A01FB691344E5
:103A980003F530631A464FF4005393607B6A013391
:103AA8007B62BB6A5B08BB62BB6A002B7FF462AFB8
:103AB8007B681B68184602F06FFE034603F48023F8
:103AC800B3F5802F40F0DB807B681B68184602F056
:103AD80090FEB86200237B62CDE0BB6A03F001036D
:103AE800002B00F0C2807B681B687A6AD2B211464C
:103AF800184602F0B6FE38613B6903F00103002B5B
:103B080057D07B6A03F00F03012202FA03F3FB602C
:103B1800FB6903F500635A6BFB68DB43F96901F540
:103B2800006113404B637B6A5A01FB69134403F538
:103B380010631A46012393607B689B79012B32D16D
:103B480079687A6A1346DB0013449B000B442033E0
:103B5800196878687A6A1346DB0013449B000344AB
:103B68001C331B68194478687A6A1346DB001344CF
:103B78009B000344203319607B6A002B13D17968BA
:103B88007A6A1346DB0013449B000B4424331B68FA
:103B9800002B08D17B6818687B6803F29C431A469F
:103BA800012102F0BDFE7B6ADBB21946786804F099
:103BB8001FF93B6903F00803002B08D07B6A5A0100
:103BC800FB69134403F510631A46082393603B69A5
:103BD80003F01003002B08D07B6A5A01FB691344D9
:103BE80003F510631A46102393603B6903F0400302
:103BF800002B08D07B6A5A01FB69134403F5106354
:103C08001A46402393603B6903F00203002B23D03C
:103C1800796A386A02F010F87A6A1346DB001344AE
:103C28009B0010337A68134404337B617B69DB782B
:103C3800012B08D17B690022DA707B6ADBB2194656
:103C4800786804F06BF97B6A5A01FB69134403F541
:103C580010631A46022393603B6903F08003002B2C
:103C680003D0796A786800F086FC7B6A01337B624E
:103C7800BB6A5B08BB62BB6A002B7FF42EAF7B6814
:103C88001B68184602F088FD034603F00043B3F1B1
:103C9800004F22D1FB6903F500635B68FA6902F5FE
:103CA800006223F0010353607B6893F8CC34012B46
:103CB80008D17B68002283F8CC240021786804F0BE
:103CC8004DFA02E0786804F009F97B681B685A69C4
:103CD8007B681B6802F000425A617B681B681846C3
:103CE80002F05AFD034603F40063B3F5006F12D1E6
:103CF800FB6903F500639B6803F00103012B02D104
:103D0800786804F0C5F87B681B685A697B681B688B
:103D180002F400625A617B681B68184602F03CFD99
:103D2800034603F00063B3F1006F21D17B681B6881
:103D38005A697B681B6802F000625A617B6893F8D5
:103D4800CC34002B11D17B68012283F8CC247B680A
:103D58001B685B6D9B0803F00F027B68C3F8D024D7
:103D68000121786804F0FAF902E0786804F090F824
:103D78007B681B68184602F00FFD034603F4805366
:103D8800B3F5805F40F0B780FB6903F500635B68BB
:103D9800FA6902F5006223F0010353607B681B682F
:103DA8001021184601F048FF0023FB6246E0FB6A39
:103DB8005A01FB69134403F510631A464FF67F3323
:103DC8009360FB6A5A01FB69134403F510631B688F
:103DD800FA6A5101FA690A4402F5106223F40013E1
:103DE8001360FB6A5A01FB69134403F530631A46F2
:103DF8004FF67F339360FB6A5A01FB69134403F55E
:103E080030631B68FA6A5101FA690A4402F53062A4
:103E180023F400131360FB6A5A01FB69134403F58A
:103E280030631B68FA6A5101FA690A4402F5306284
:103E380043F000631360FB6A0133FB627B681B7904
:103E48001A46FB6A9342B2D3FB6903F50063DB6948
:103E5800FA6902F5006243F00113D3617B68DB7BEA
:103E6800002B16D0FB6903F50063D3F88430FA6998
:103E780002F5006243F00B03C2F88430FB6903F5D6
:103E880000635B6CFA6902F5006243F00B0353644C
:103E980015E0FB6903F500635B69FA6902F50062E6
:103EA80043F4005343F02B035361FB6903F50063AC
:103EB8001B69FA6902F5006243F00B031361FB69A1
:103EC80003F500631B68FA6902F5006223F4FE63D8
:103ED80013607B6818687B6899797B6803F29C4358
:103EE8001A4602F01DFD7B681B685A697B681B68CF
:103EF80002F480525A617B681B68184602F04CFC39
:103F0800034603F40053B3F5005F23D17B681B68B5
:103F1800184602F0E2FC7B681B68184601F0BEFEFA
:103F280003461A467B68DA717B681C6800F0C4FD9A
:103F380001467B68DB791A46204601F0DBFD78688C
:103F480003F07EFF7B681B685A697B681B6802F474
:103F580000525A617B681B68184602F01DFC034634
:103F680003F00803082B0AD1786803F05BFF7B682D
:103F78001B685A697B681B6802F008025A617B68F3
:103F88001B68184602F008FC034603F08003802BE8
:103F980023D13B6A9B6923F080023B6A9A61012323
:103FA8007B6214E079687A6A1346DB0013449B004D
:103FB8000B4403F257231B78012B05D17B6ADBB234
:103FC8001946786800F0A6FA7B6A01337B627B6841
:103FD8001B791A467B6A9342E4D37B681B681846B0
:103FE80002F0DAFB034603F48013B3F5801F3CD1DB
:103FF80001237B622BE07B6A5A01FB69134403F5BA
:1040080010631B68BB6179687A6A1346DB00134446
:104018009B000B4418331B78012B15D1BB69002B6F
:1040280012DA79687A6A1346DB0013449B000B4462
:10403800173301221A707B6ADBB263F07F03DBB2AD
:104048001946786800F066FA7B6A01337B627B6800
:104058001B791A467B6A9342CDD37B681B685A69E1
:104068007B681B6802F480125A617B681B681846DB
:1040780002F092FB034603F40013B3F5001F56D178
:1040880001237B6245E07B6A5A01FB69134403F50F
:1040980030631B68BB6179687A6A1346DB00134496
:1040A8009B000B4403F516731B78012B2ED1BB69BB
:1040B800002B2BDABB6903F480327B68D3F8D43445
:1040C80003F001039A4221D179687A6A1346DB002A
:1040D80013449B000B4403F2572301221A703B6AD6
:1040E8009B6943F080023B6A9A613B6A5B6903F013
:1040F8008003002B0AD1FB6903F500635B68FA694A
:1041080002F5006243F40073536008E07B6A0133F0
:104118007B627B681B791A467B6A9342B3D37B68C0
:104128001B685A697B681B6802F400125A617B6835
:104138001B68184602F030FB034603F08043B3F1D6
:10414800804F0AD1786803F0FBFE7B681B685A69C8
:104158007B681B6802F080425A617B681B681846BE
:1041680002F01AFB034603F00403042B15D17B6805
:104178001B685B68BB61BB6903F00403002B02D0BA
:10418800786803F0EBFE7B681B6859687B681B68DE
:10419800BA690A435A6000E000BF3437BD4690BD93
:1041A80080B582B000AF78600B46FB707B6893F8EF
:1041B8009434012B01D1022312E07B68012283F899
:1041C80094247B68FA785A747B681B68FA781146DD
:1041D800184602F0BBFA7B68002283F89424002377
:1041E80018460837BD4680BD80B584B000AF7860FA
:1041F800084611461A460346FB700B463B80134699
:10420800BB700023FB7297F90330002B0FDAFB78A1
:1042180003F00F021346DB0013449B0010337A6847
:1042280013440433FB60FB6801225A700FE0FB78EB
:1042380003F00F021346DB0013449B0003F51473CD
:104248007A6813440433FB60FB6800225A70FB78D9
:1042580003F00F03DAB2FB681A703A88FB689A60B9
:10426800FB68BA781A71FB685B78002B04D0FB688E
:104278001B781A46FB685A83BB78022B02D1FB686D
:1042880000225A717B6893F89434012B01D10223E0
:104298000EE07B68012283F894247B681B68F96828
:1042A800184601F020FD7B68002283F89424FB7AED
:1042B80018461037BD4680BD80B586B000AFF8609F
:1042C8007A603B600B46FB72FB7A03F00F021346E1
:1042D800DB0013449B0003F51473FA68134404339A
:1042E8007B617B697A68DA607B693A681A617B6905
:1042F80000225A617B6900225A70FB7A03F00F038F
:10430800DAB27B691A70FB689B79012B02D17A6853
:104318007B69DA61FB681868FB689B791A467969DA
:1043280001F068FD002318461837BD4680BD80B5EA
:1043380086B000AFF8607A603B600B46FB72FB7A90
:1043480003F00F021346DB0013449B001033FA6896
:10435800134404337B617B697A68DA607B693A6865
:104368001A617B6900225A617B6901225A70FB7AC3
:1043780003F00F03DAB27B691A70FB689B79012B93
:1043880002D17A687B69DA61FB681868FB689B79F7
:104398001A46796901F02EFD002318461837BD46E4
:1043A80080BD80B584B000AF78600B46FB70FB78A9
:1043B80003F00F037A681279934201D901234FE081
:1043C80097F90330002B0FDAFB7803F00F0213463E
:1043D800DB0013449B0010337A6813440433FB60FA
:1043E800FB6801225A700DE0FA781346DB0013448B
:1043F8009B0003F514737A6813440433FB60FB686D
:1044080000225A70FB6801229A70FB7803F00F03B0
:10441800DAB2FB681A707B6893F89434012B01D1E7
:1044280002231DE07B68012283F894247B681B68C3
:10443800F968184602F0B6F8FB7803F00F03002B72
:1044480009D17B6818687B6899797B6803F29C437B
:104458001A4602F065FA7B68002283F89424002348
:1044680018461037BD4680BD80B584B000AF78606F
:104478000B46FB70FB7803F00F037A6812799342BE
:1044880001D9012342E097F90330002B0FDAFB78BA
:1044980003F00F021346DB0013449B0010337A68C5
:1044A80013440433FB60FB6801225A700FE0FB7869
:1044B80003F00F021346DB0013449B0003F514734B
:1044C8007A6813440433FB60FB6800225A70FB6867
:1044D80000229A70FB7803F00F03DAB2FB681A70B7
:1044E8007B6893F89434012B01D102230EE07B689A
:1044F800012283F894247B681B68F968184602F047
:10450800BFF87B68002283F89424002318461037EC
:10451800BD4680BD80B584B000AF78600B46FB70A7
:1045280097F90330002B0CDAFB7803F00F021346DF
:10453800DB0013449B0010337A6813440433FB6098
:104548000CE0FB7803F00F021346DB0013449B00DA
:1045580003F514737A6813440433FB607B681B68A3
:10456800F968184601F0DEFE0346FB72FB7A18462E
:104578001037BD4680BD80B58AB002AF786039601B
:104588007B681B687B617B693B613A681346DB008B
:1045980013449B0010337A6813440433FB60FB68B0
:1045A8005A69FB681B699A4201D901236BE0FB68D1
:1045B8001A69FB685B69D31AFB61FB689B68FA6937
:1045C8009A4202D9FB689B68FB61FB6903339B082D
:1045D800BB612AE0FB681A69FB685B69D31AFB6157
:1045E800FB689B68FA699A4202D9FB689B68FB6181
:1045F800FB6903339B08BB61FB68D9683B68DAB287
:10460800FB6998B27B689B7900930346786901F04F
:1046180033FFFB68DA68FB691A44FB68DA60FB68F9
:104628005A69FB691A44FB685A613B685A013B693D
:10463800134403F510639B699BB2BA699A4209D87F
:10464800FB685A69FB681B699A4203D2FB681B69BD
:10465800002BBFD1FB681A69FB685B699A4211D8C5
:104668003B6803F00F03012202FA03F3BB603B69C6
:1046780003F500635A6BBB68DB43396901F50061D8
:1046880013404B63002318462037BD4680BD000009
:1046980080B588B000AF786039607B681B68FB61C3
:1046A800FB69BB61FB693C3304331B687B613B6876
:1046B8005A01BB69134403F530639B683B617B680F
:1046C8009B79012B7BD13B6903F00803002B15D0A4
:1046D8007B69614A934240F2B9803B6903F4004325
:1046E800002B00F0B3803B685A01BB69134403F503
:1046F80030631A464FF400439360A7E03B6903F028
:104708002003002B09D03B685A01BB69134403F509
:1047180030631A462023936098E03B6903F028032E
:10472800002B40F093807B694B4A93420FD93B6939
:1047380003F40043002B0AD03B685A01BB691344B9
:1047480003F530631A464FF4004393607EE03A68FD
:104758001346DB0013449B0003F514737A68134473
:104768000433FB60FB681A6A3B685901BB690B4458
:1047780003F530631B69C3F31203D21AFB685A614D
:104788003B68002B14D1FB681B69002B09D17B689F
:1047980018687B6803F29C431A46012102F0C0F8AE
:1047A80006E0FB68DA68FB685B691A44FB68DA6054
:1047B8003B68DBB21946786803F0FFFA46E07B698C
:1047C800264A934224D13B6903F40043002B0AD0C4
:1047D8003B685A01BB69134403F530631A464FF42A
:1047E8000043936032E03B6903F02003002B08D0BC
:1047F8003B685A01BB69134403F530631A4620230A
:1048080093603B68DBB21946786803F0D6FA1DE07E
:104818003B68002B14D179683A681346DB001344CF
:104828009B000B4403F519731B68002B08D17B68A8
:1048380018687B6803F29C431A46002102F070F85E
:104848003B68DBB21946786803F0B7FA00231846CC
:104858002037BD4680BD00BF0A30544F0A31544F3F
:1048680080B586B000AF786039607B681B687B6173
:104878007B693B617B693C3304331B68FB603B68A5
:104888005A013B69134403F530639B68BB60FB68BE
:10489800154A93420ED9BB6803F40043002B09D094
:1048A8003B685A013B69134403F530631A464FF4D9
:1048B80000439360786803F06EFAFB680A4A9342F3
:1048C8000CD97B689B79012B08D17B6818687B68B9
:1048D80003F29C431A46012102F022F800231846ED
:1048E8001837BD4680BD00BF0A30544F80B584B02C
:1048F80000AF786039607B68002B01D10123CCE0E0
:10490800684B1B6803F00F033A689A420CD9654B51
:104918003A68D2B21A70634B1B6803F00F033A6807
:104928009A4201D00123B8E07B681B6803F00203B8
:10493800002B20D07B681B6803F00403002B05D0F4
:10494800594B9B68584A43F4E05393607B681B6853
:1049580003F00803002B05D0534B9B68524A43F4DD
:1049680060439360504B9B6823F0F0027B689B6820
:104978004D4913438B607B681B6803F00103002BD0
:1049880044D07B685B68012B07D1474B1B6803F455
:104998000033002B19D101237FE07B685B68022B71
:1049A80003D07B685B68032B07D13F4B1B6803F080
:1049B8000073002B09D101236FE03B4B1B6803F008
:1049C8000203002B01D1012367E0374B9B6823F0DA
:1049D80003027B685B68344913438B60FDF7FCFB7B
:1049E800F8600AE0FDF7F8FB0246FB68D31A41F2CB
:1049F8008832934201D903234FE02B4B9B6803F085
:104A08000C027B685B689B009A42EBD1254B1B68C4
:104A180003F00F033A689A420CD2224B3A68D2B29A
:104A28001A70204B1B6803F00F033A689A4201D0B2
:104A3800012332E07B681B6803F00403002B08D0D5
:104A4800194B9B6823F4E0527B68DB6816491343D3
:104A58008B607B681B6803F00803002B09D0124B9E
:104A68009B6823F460427B681B69DB000E49134393
:104A78008B6000F073F802460B4B9B681B0903F030
:104A88000F030A49CB5C22FA03F3094A1360094B66
:104A98001B681846FDF76EFA002318461037BD4606
:104AA80080BD00BF003C024000380240F883000887
:104AB800000000200400002080B400AF034B1B68F6
:104AC8001846BD465DF8047B704700BF0000002013
:104AD80080B500AFFFF7F0FF0246054B9B689B0AC5
:104AE80003F007030349CB5C22FA03F3184680BDA1
:104AF800003802400884000880B483B000AF7860B2
:104B080039607B680F221A60124B9B6803F003021E
:104B18007B685A600F4B9B6803F0F0027B689A60D1
:104B28000C4B9B6803F4E0527B68DA60094B9B6886
:104B3800DB0803F4E0527B681A61074B1B6803F03B
:104B48000F023B681A6000BF0C37BD465DF8047B56
:104B5800704700BF00380240003C02402DE9B04FCA
:104B6800AEB000AF0023C7F8AC300023C7F8B430AC
:104B78000023C7F8A8300023C7F8A4300023C7F8DB
:104B8800B030CB4B9B6803F00C030C2B00F2048273
:104B980001A252F823F000BFD54B0008A14F00082E
:104BA800A14F0008A14F0008DD4B0008A14F0008E5
:104BB800A14F0008A14F0008E54B0008A14F0008CD
:104BC800A14F0008A14F0008D54D0008B94BC7F800
:104BD800B030E5E1B74BC7F8B030E1E1B44B5B6802
:104BE80003F03F03C7F8AC30B14B5B6803F48003B4
:104BF800002B71D0AE4B5B689B090022C7F8983038
:104C0800C7F89C20D7F89830C3F30803C7F890304A
:104C18000023C7F89430D7E9244522462B464FF0A5
:104C280000004FF00001590141EAD26150010246EB
:104C38000B462146511A3964294663EB01037B640C
:104C48004FF000024FF00003D7E9108949468B0165
:104C5800414643EA916341468A014146511AB96384
:104C6800494663EB0103FB634FF000024FF000037A
:104C7800D7E90E894946CB00414643EA517341467C
:104C8800CA0010461946034622469B183B632B462A
:104C98000A4642EB03037B634FF000024FF0000328
:104CA800D7E90C4529468B02214643EA9153214610
:104CB8008A0210461946D7F8AC300022C7F8883067
:104CC800C7F88C20D7E92223FBF758FE02460B468B
:104CD8001346C7F8B43067E0754B5B689B09002240
:104CE800C7F88030C7F88420D7F88030C3F30803AA
:104CF800BB670023FB67D7E91E4522462B464FF0CA
:104D080000004FF00001590141EAD261500102460A
:104D18000B462146511AB962294663EB0103FB622F
:104D28004FF000024FF00003D7E90A8949468B018A
:104D3800414643EA916341468A014146B2EB010A82
:104D4800494663EB010B4FF000024FF000034FEAB6
:104D5800CB0343EA5A734FEACA0292469B4623465C
:104D68001AEB03033B622B464BEB03037B624FF0CA
:104D780000024FF00003D7E9084529468B02214677
:104D880043EA915321468A0210461946D7F8AC30B7
:104D980000223B677A67D7E91C23FBF7EFFD024641
:104DA8000B461346C7F8B430414B5B681B0C03F045
:104DB800030301335B00C7F8A830D7F8B420D7F84D
:104DC800A830B2FBF3F3C7F8B030E9E0384B5B68C2
:104DD80003F03F03C7F8AC30354B5B6803F480033E
:104DE800002B69D0324B5B689B090022BB66FA66D0
:104DF800BB6EC3F308033B6600237B66D7E91845FF
:104E080022462B464FF000004FF00001590141EABD
:104E1800D261500102460B462146511AB961294612
:104E280063EB0103FB614FF000024FF00003D7E989
:104E380006AB59468B01514643EA916351468A01B4
:104E48005146B2EB0108594663EB01094FF00002E5
:104E58004FF000034FEAC90343EA58734FEAC80208
:104E680090469946234618EB03033B612B4649EBD2
:104E780003037B614FF000024FF00003D7E90445BC
:104E880029468B02214643EA915321468A0210465D
:104E98001946D7F8AC300022BB65FA65D7E9162366
:104EA800FBF76CFD02460B461346C7F8B43063E0C7
:104EB800003802400024F4003D4B5B689B09002247
:104EC80018461146C0F308033B6500237B65D7E904
:104ED800148942464B464FF000004FF0000159013B
:104EE80041EAD261500102460B464146511AB96067
:104EF800494663EB0103FB604FF000024FF00003EB
:104F0800D7E902AB59468B01514643EA91635146B2
:104F18008A015146541A594663EB01054FF00002C5
:104F28004FF00003EB0043EA5473E20014461D46B9
:104F38004346E3183B604B4645EB03037B604FF069
:104F480000024FF00003D7E9004529468B022146AD
:104F580043EA915321468A0210461946D7F8AC30E5
:104F68000022BB64FA64D7E91223FBF707FD024667
:104F78000B461346C7F8B4300D4B5B681B0F03F0A4
:104F88000703C7F8A430D7F8B420D7F8A430B2FB89
:104F9800F3F3C7F8B03003E0064BC7F8B03000BFF2
:104FA800D7F8B0301846B837BD46BDE8B08F00BF57
:104FB800003802400024F40080B586B000AF786065
:104FC8007B68002B01D101238DE27B681B6803F00D
:104FD8000103002B00F08380944B9B6803F00C03C3
:104FE800042B19D0914B9B6803F00C03082B06D1B6
:104FF8008E4B5B6803F48003B3F5800F0CD08B4BAA
:105008009B6803F00C030C2B12D1884B5B6803F4EC
:105018008003B3F5800F0BD1844B1B6803F4003376
:10502800002B5BD07B685B68002B57D101235AE2C9
:105038007B685B68B3F5803F06D17C4B1B687B4A75
:1050480043F4803313601DE07B685B68B3F5A02FE1
:105058000CD1764B1B68754A43F480231360734B5D
:105068001B68724A43F4803313600BE06F4B1B6874
:105078006E4A23F4803313606C4B1B686B4A23F42D
:10508800802313607B685B68002B13D0FDF7A4F8BE
:10509800386108E0FDF7A0F802463B69D31A642B93
:1050A80001D903231FE2614B1B6803F40033002B73
:1050B800F0D014E0FDF790F8386108E0FDF78CF8BF
:1050C80002463B69D31A642B01D903230BE2574BE1
:1050D8001B6803F40033002BF0D100E000BF7B68AD
:1050E8001B6803F00203002B6FD0504B9B6803F042
:1050F8000C03002B17D04D4B9B6803F00C03082BB7
:1051080005D14A4B5B6803F48003002B0BD0474B57
:105118009B6803F00C030C2B1CD1444B5B6803F415
:105128008003002B16D1414B1B6803F00203002BB0
:1051380005D07B68DB68012B01D00123D3E13B4B11
:105148001B6823F0F8027B681B69DB0037491343AF
:105158000B603AE07B68DB68002B20D0344B0122DF
:105168001A60FDF739F8386108E0FDF735F80246AE
:105178003B69D31A022B01D90323B4E12B4B1B68DB
:1051880003F00203002BF0D0284B1B6823F0F80231
:105198007B681B69DB00254913430B6015E0244B32
:1051A80000221A60FDF718F8386108E0FDF714F8D6
:1051B80002463B69D31A022B01D9032393E11B4B07
:1051C8001B6803F00203002BF0D17B681B6803F017
:1051D8000803002B36D07B685B69002B16D0154B73
:1051E80001221A60FCF7F8FF386108E0FCF7F4FFC9
:1051F80002463B69D31A022B01D9032373E10B4BF7
:105208005B6F03F00203002BF0D01BE0094B002278
:105218001A60FCF7E1FF38610EE0FCF7DDFF02469B
:105228003B69D31A022B07D903235CE100380240FB
:1052380000004742800E47428A4B5B6F03F002032F
:10524800002BEAD17B681B6803F00403002B00F0F5
:1052580097800023FB75834B1B6C03F08053002B56
:105268000FD10023BB607F4B1B6C7E4A43F08053F9
:1052780013647C4B1B6C03F08053BB60BB68012339
:10528800FB75794B1B6803F48073002B18D1764BA0
:105298001B68754A43F480731360FCF79DFF3861FF
:1052A80008E0FCF799FF02463B69D31A022B01D9A3
:1052B800032318E16C4B1B6803F48073002BF0D0B8
:1052C8007B689B68012B06D1664B1B6F654A43F0D0
:1052D800010313671CE07B689B68052B0CD1614BAD
:1052E8001B6F604A43F0040313675E4B1B6F5D4AF4
:1052F80043F0010313670BE05A4B1B6F594A23F025
:1053080001031367574B1B6F564A23F004031367B7
:105318007B689B68002B15D0FCF75EFF38610AE0BC
:10532800FCF75AFF02463B69D31A41F2883293428E
:1053380001D90323D7E04B4B1B6F03F00203002B6B
:10534800EED014E0FCF748FF38610AE0FCF744FFB0
:1053580002463B69D31A41F28832934201D90323AA
:10536800C1E0404B1B6F03F00203002BEED1FB7D25
:10537800012B05D13B4B1B6C3A4A23F08053136435
:105388007B689B69002B00F0AD80364B9B6803F06F
:105398000C03082B60D07B689B69022B45D1334BEB
:1053A80000221A60FCF718FF386108E0FCF714FFC8
:1053B80002463B69D31A022B01D9032393E0294BF8
:1053C8001B6803F00073002BF0D17B68DA697B68F7
:1053D8001B6A1A437B685B6A9B011A437B689B6A5A
:1053E8005B08013B1B041A437B68DB6A1B061A43F4
:1053F8007B681B6B1B071B4913434B601B4B01222C
:105408001A60FCF7E9FE386108E0FCF7E5FE0246A1
:105418003B69D31A022B01D9032364E0114B1B68A3
:1054280003F00073002BF0D05CE0104B00221A60F0
:10543800FCF7D2FE386108E0FCF7CEFE02463B6975
:10544800D31A022B01D903234DE0064B1B6803F046
:105458000073002BF0D145E07B689B69012B07D1D5
:10546800012340E0003802400070004060004742DD
:105478001F4B5B68FB607B689B69012B30D0FB6826
:1054880003F480027B68DB699A4229D1FB6803F048
:105498003F027B681B6A9A4222D1FA6847F6C073BA
:1054A80013407A68526A9201934219D1FB6803F457
:1054B80040327B689B6A5B08013B1B049A420FD110
:1054C800FB6803F070627B68DB6A1B069A4207D1AF
:1054D800FB6803F0E0427B681B6B1B079A4201D014
:1054E800012300E0002318461837BD4680BD00BFE1
:1054F8000038024080B582B000AF78607B68002B2E
:1055080001D1012341E07B6893F83D30DBB2002BE9
:1055180006D17B68002283F83C207868FCF708FDF8
:105528007B68022283F83D207B681A687B68043315
:105538001946104600F01EFA7B68012283F84620BF
:105548007B68012283F83E207B68012283F83F2094
:105558007B68012283F840207B68012283F8412080
:105568007B68012283F842207B68012283F843206C
:105578007B68012283F844207B68012283F8452058
:105588007B68012283F83D20002318460837BD4672
:1055980080BD000080B485B000AF78607B6893F868
:1055A8003D30DBB2012B01D0012346E07B680222AB
:1055B80083F83D207B681B68234A934222D07B688E
:1055C8001B68B3F1804F1DD07B681B681F4A93424C
:1055D80018D07B681B681E4A934213D07B681B68EF
:1055E8001C4A93420ED07B681B681B4A934209D021
:1055F8007B681B68194A934204D07B681B68184A69
:10560800934211D17B681B689B6803F00703FB601A
:10561800FB68062B10D07B681B681A687B681B68C0
:1056280042F001021A6007E07B681B681A687B6811
:105638001B6842F001021A60002318461437BD4661
:105648005DF8047B704700BF000001400004004083
:1056580000080040000C00400004014000400140E8
:105668000018004080B485B000AF78607B6893F87C
:105678003D30DBB2012B01D001234EE07B680222D2
:1056880083F83D207B681B68DA687B681B6842F0FA
:105698000102DA607B681B68234A934222D07B6848
:1056A8001B68B3F1804F1DD07B681B681F4A93426B
:1056B80018D07B681B681E4A934213D07B681B680E
:1056C8001C4A93420ED07B681B681B4A934209D040
:1056D8007B681B68194A934204D07B681B68184A88
:1056E800934211D17B681B689B6803F00703FB603A
:1056F800FB68062B10D07B681B681A687B681B68E0
:1057080042F001021A6007E07B681B681A687B6830
:105718001B6842F001021A60002318461437BD4680
:105728005DF8047B704700BF0000014000040040A2
:1057380000080040000C0040000401400040014007
:105748000018004080B584B000AF78607B681B68A3
:10575800DB68FB607B681B681B69BB60BB6803F088
:105768000203002B20D0FB6803F00203002B1BD0A0
:105778007B681B686FF002021A617B6801221A7746
:105788007B681B689B6903F00303002B03D07868D0
:1057980000F0D2F805E0786800F0C4F8786800F006
:1057A800D5F87B6800221A77BB6803F00403002B46
:1057B80020D0FB6803F00403002B1BD07B681B6818
:1057C8006FF004021A617B6802221A777B681B68F3
:1057D8009B6903F44073002B03D0786800F0ACF8A1
:1057E80005E0786800F09EF8786800F0AFF87B680C
:1057F80000221A77BB6803F00803002B20D0FB684F
:1058080003F00803002B1BD07B681B686FF00802AD
:105818001A617B6804221A777B681B68DB6903F0CE
:105828000303002B03D0786800F086F805E0786859
:1058380000F078F8786800F089F87B6800221A7719
:10584800BB6803F01003002B20D0FB6803F01003A3
:10585800002B1BD07B681B686FF010021A617B68F5
:1058680008221A777B681B68DB6903F44073002BF6
:1058780003D0786800F060F805E0786800F052F826
:10588800786800F063F87B6800221A77BB6803F039
:105898000103002B0CD0FB6803F00103002B07D099
:1058A8007B681B686FF001021A617868FCF7FCF9E5
:1058B800BB6803F08003002B0CD0FB6803F0800367
:1058C800002B07D07B681B686FF080021A6178682C
:1058D80000F006F9BB6803F04003002B0CD0FB680E
:1058E80003F04003002B07D07B681B686FF0400271
:1058F8001A61786800F034F8BB6803F02003002BC5
:105908000CD0FB6803F02003002B07D07B681B68D2
:105918006FF020021A61786800F0D8F800BF1037DD
:10592800BD4680BD80B483B000AF786000BF0C373F
:10593800BD465DF8047B704780B483B000AF7860E3
:1059480000BF0C37BD465DF8047B704780B483B058
:1059580000AF786000BF0C37BD465DF8047B704728
:1059680080B483B000AF786000BF0C37BD465DF8E7
:10597800047B704780B485B000AF786039607B687D
:105988001B68FB607B68464A934213D07B68B3F17F
:10599800804F0FD07B68434A93420BD07B68424AC2
:1059A800934207D07B68414A934203D07B68404AC0
:1059B800934208D1FB6823F07003FB603B685B6887
:1059C800FA681343FB607B68354A93422BD07B68A7
:1059D800B3F1804F27D07B68324A934223D07B684B
:1059E800314A93421FD07B68304A93421BD07B6870
:1059F8002F4A934217D07B682E4A934213D07B6874
:105A08002D4A93420FD07B682C4A93420BD07B6877
:105A18002B4A934207D07B682A4A934203D07B687B
:105A2800294A934208D1FB6823F44073FB603B6822
:105A3800DB68FA681343FB60FB6823F080023B686D
:105A48005B691343FB607B68FA681A603B689A6875
:105A58007B68DA623B681A687B689A627B68104ADE
:105A6800934203D07B68124A934203D13B681A6978
:105A78007B681A637B6801225A617B681B6903F0A3
:105A88000103012B05D17B681B6923F001027B68A8
:105A98001A6100BF1437BD465DF8047B704700BF2C
:105AA800000001400004004000080040000C0040D5
:105AB800000401400040014000440140004801400A
:105AC80000180040001C00400020004080B483B053
